:020000040800F2
:10000000F0770020C5110008E7020008E9020008A7
:10001000EB020008ED020008EF02000800000000FB
:100020000000000000000000000000003D02000889
:10003000F10200080000000081020008BD0D000868
:10004000DF110008DF110008DF110008DF110008D0
:10005000DF110008DF110008DF110008DF110008C0
:10006000850D0008DF110008DF110008DF1100080E
:10007000DF110008DF110008DF110008DF110008A0
:10008000DF110008DF110008DF110008DF11000890
:10009000DF110008DF110008DF110008B30C0008B1
:1000A000DF110008DF110008DF110008DF11000870
:1000B000DF110008DF110008DF110008DF11000860
:1000C000DF110008DF110008DF110008DF11000850
:1000D000DF110008ED1000086B110008DF110008A7
:1000E000530D0008DF110008DF110008DF110008C0
:1000F000DF110008DF110008DF110008DF11000820
:10010000DF110008DF110008DF110008DF1100080F
:10011000DF110008DF110008DF110008DF110008FF
:10012000DF110008DF110008DF110008DF110008EF
:1001300000F002F800F072F80AA090E8000C824487
:100140008344AAF10107DA4501D100F067F8AFF264
:10015000090EBAE80F0013F0010F18BFFB1A43F0A5
:1001600001031847B8710000D87100000A444FF02D
:10017000000C10F8013B13F0070408BF10F8014B06
:100180001D1108BF10F8015B641E05D010F8016B4B
:10019000641E01F8016BF9D113F0080F1EBF10F8AF
:1001A000014BAD1C0C1B09D16D1E58BF01F801CBD2
:1001B000FAD505E014F8016B01F8016B6D1EF9D555
:1001C0009142D6D37047000000230024002500266A
:1001D000103A28BF78C1FBD8520728BF30C148BFAA
:1001E0000B607047702906F08D84642906F01A842C
:1001F000752906F01784782906F07784632906F0BC
:100200000487732906F00987002070471FB59DE811
:10021000030006F043FE1FBD10B510BD06F06FFFD2
:100220001146FFF7F3FF00F055F806F08DFF03B419
:10023000FFF7F2FF03BC00F02DFE0000224B19680F
:100240000868B0E8F00F80F30988BFF36F8F4FF0B4
:10025000000080F311884EF00D0E70470000000082
:1002600006480068006880F3088862B661B6BFF38C
:100270004F8FBFF36F8F00DF00BF00BF08ED00E0BE
:10028000EFF30980BFF36F8F0F4B1A6820E9F00F6F
:10029000106008B54FF0300080F31188BFF34F8F26
:1002A000BFF36F8F02F024FD4FF0000080F3118840
:1002B000BDE8084019680868B0E8F00F80F30988C5
:1002C000BFF36F8F704700BF4C000020EFF3058035
:1002D0007047000010B500F0C2F800F0B7F802F067
:1002E0001FFE002010BD7047FEE7FEE7FEE7FEE7B9
:1002F000704700000CB500224C4800920192016842
:1003000041F4803101604FF4A063016801F40031D1
:1003100001910099491C0091019911B900999942E4
:10032000F3D10168890333D50121019140490A685D
:1003300042F010020A600A6822F003020A600A68AA
:1003400042F002020A6041684160416841604168D0
:1003500041F480614160416821F47C114160416851
:1003600041F4E8114160016841F080710160016869
:100370008901FCD5416821F003014160416841F0E9
:10038000020141604168C1F381010229FAD10CBD2B
:1003900001920CBD254810B5016841F001010160D2
:1003A0004168244A114041600168234A11400160BC
:1003B000016821F480210160416821F4FE0141605F
:1003C0004FF41F018160FFF795FF1C494FF000605B
:1003D000086010BD154A10B55068194B10F00C019B
:1003E000184803D0042901D0082901D0036012E085
:1003F0005168536801F470114FF0020413F4803F08
:1004000004EB914102D053689B0301D50E4B00E0F1
:100410000B4B5943016051680A4AC1F30311121D85
:10042000515C0268CA40026010BD0000001002402A
:10043000002002400000FFF8FFFFF6FE08ED00E09C
:1004400000127A000000002000093D0010B505F000
:100450009CF804F08AFABDE8104004F00FBB10B518
:100460004FF4407000F0CEFE00F0B2FC00F002F855
:10047000012010BD7CB5644E0124346000F0C6F844
:10048000684600F0CDFA9DF8060040F6980100F5A8
:10049000FA60884213D98DF804408DF805400A208F
:1004A00000258DF806000095684600F009FB6846B7
:1004B00000F0B6FA9DF806000A2800D035607CBD31
:1004C00002784FF0FF313C2A0BD242783C2A08D206
:1004D0008278182A05D202791F2A02D840790C287E
:1004E00001D9084670470020704710B5044600F057
:1004F000E7FA38B1204600F0E3FA18B1424900208B
:10050000086010BD012010BD2DE9F04100243E4ED1
:1005100007462546384600F083FA20B1384600F0F9
:100520007FFA00B13560641CE4B23846FFF7C8FFBB
:1005300008B1042CEED3042C02D00120BDE8F081D8
:10054000384600F031F80020F8E72DE9F0418E79C7
:1005500005460C4606F5FA66300A294604F013FBF8
:1005600029466D1CF0B204F00EFB29466D1C607923
:1005700004F009FB29466D1C207904F004FB294690
:100580006D1CE07804F0FFFA29466D1CA07804F099
:10059000FAFA29466D1C607804F0F5FA20782946AD
:1005A000BDE8F04104F0EFBA04E03C390170417855
:1005B000491C417001783C29F7D204E03C39417074
:1005C0008178491C817041783C29F7D204E01839C0
:1005D00081700179491C017181781829F7D204E0F2
:1005E0001F3901714179491C417101791F29F7D8DF
:1005F00004E00C3941718179491C817141790C29E0
:10060000F7D80020704700001400002038B5012101
:10061000402001F08EF80820ADF8000003248DF88A
:1006200002401020FD4D8DF803006946284600F079
:1006300098FE0421ADF800108DF8024014208DF8CA
:1006400003006946284600F08CFE38BD70B500F006
:1006500038FAF24C0421204600F0EDFE0821204635
:1006600000F0E9FE00F03CFA0421204600F0CFFE45
:100670004FF0FF3550B10421204600F0DEFE00F0BF
:100680002FFA0421204600F0C2FE08B1284670BDB2
:100690000821204600F0D1FE00F022FA002070BDB3
:1006A00010B500F00EFADD4C0421204600F0C5FE26
:1006B0000821204600F0C1FE00F012FA0821204671
:1006C00000F0B9FE00F00CFA2046BDE8104004210D
:1006D00000F0B1BE38B5D14DFF240821284600F006
:1006E000ACFE0421284600F0A6FE0421ADF800105F
:1006F00003218DF8021048208DF803006946284632
:1007000000F02FFE00F0ECF90821284600F093FEDF
:1007100000F0E6F903E0641E14F0FF040BD004219E
:10072000284600F074FE0028F5D10821284600F084
:1007300084FE002038BD0821284600F07EFE4FF0E0
:10074000FF3038BDF8B508240546B44E05271BE038
:1007500000F073FE00970098401E00900028FADC1D
:1007600028064FF00401304602D500F064FE01E097
:1007700000F063FE00F0B4F90821304600F05BFEA3
:1007800000F0AEF96806050E641EE4B24FF00801F1
:100790003046DDD2BDE8F84000F04FBE2DE9F04113
:1007A0008046FFF753FF4FF0FF3410B12046BDE8FD
:1007B000F0816520FFF7C6FFFFF78CFF10B1FFF750
:1007C0006FFFF3E7954F00250024082604213846E3
:1007D00000F031FE18E06006040E0821384600F0F3
:1007E0002CFE00F07DF900F07BF90821384600F07E
:1007F00022FE00F075F900F073F90421384600F08C
:1008000006FE08B144F00104761EF6B2E3D20821D8
:10081000384600F012FE08F80540062D15D000F00D
:1008200050F90421384600F008FE0821384600F04F
:1008300004FE00F055F90821384600F0FCFD00F0F8
:100840004FF90821384600F0F8FD6D1CEDB2072D78
:10085000BAD300F036F90421384600F0ECFD082147
:10086000384600F0EAFD00F03BF90821384600F078
:10087000E2FD00F035F90821384600F0DEFDFFF713
:100880000FFF002093E770B5054600F036F9FFF73B
:10089000DDFE4FF0FF3408B1204670BD6420FFF745
:1008A00051FFFFF717FF10B1FFF7FAFEF4E700F072
:1008B00008F90020FFF746FFFFF70CFF00F001F9F1
:1008C00028780A24B0FBF4F104FB1101B0FBF4F02A
:1008D00041EA0010C0B2FFF735FFFFF7FBFE00F062
:1008E000F0F86878B0FBF4F104FB1101B0FBF4F010
:1008F00041EA0010C0B2FFF725FFFFF7EBFE00F062
:10090000E0F8A878B0FBF4F104FB1101B0FBF4F0BF
:1009100041EA0010C0B240F08000FFF713FFFFF77C
:10092000D9FE00F0CEF8E878B0FBF4F104FB110139
:10093000B0FBF4F041EA0010C0B2FFF703FFFFF78D
:10094000C9FE00F0BEF82879B0FBF4F104FB1101F8
:10095000B0FBF4F041EA0010C0B2FFF7F3FEFFF77E
:10096000B9FE00F0AEF86879B0FBF4F104FB1101B8
:10097000B0FBF4F041EA0010C0B2FFF7E3FEFFF76E
:10098000A9FE00F09EF8A879B0FBF4F104FB110178
:10099000B0FBF4F041EA0010C0B2FFF7D3FEFFF75E
:1009A00099FEFFF77DFEFFF751FE6420FFF7CAFEB8
:1009B000FFF790FE00F085F81220FFF7C3FEFFF767
:1009C00089FE00F07EF80020FFF7BCFEFFF782FEF4
:1009D000FFF766FEFFF73AFE38B96420FFF7B2FE74
:1009E000FFF778FE18B1FFF75BFE002070BD00F046
:1009F00068F80F20FFF7A6FEFFF76CFE00F061F825
:100A00000020FFF79FFEFFF765FE00F05AF8002078
:100A1000FFF798FEFFF75EFEE5E7000000180140D3
:100A200010B50446FFF7BAFE10B14FF0FF3010BD0D
:100A3000207800F00F01C0F3021000EB800001EB02
:100A400040002070607800F00F01C0F3021000EB4E
:100A5000800001EB40006070A07800F00F01C0F34F
:100A6000021000EB800001EB4000A070E07800F085
:100A70000F01C0F3021000EB800001EB4000E070BA
:100A8000207900F00F01C0F3021000EB800001EBB1
:100A900040002071607900F00F01C0F3021000EBFC
:100AA000800001EB40006071A07900F00F01C0F3FD
:100AB000021000EB800001EB4000A071002010BD8F
:100AC000E1E608B50420ADF8000003208DF802002F
:100AD00014208DF803006946254800F042FC08BD4B
:100AE00008B500208DF800009DF80000082803D20A
:100AF0009DF80000401CF5E708BD10B5FFF7A6FD06
:100B00004FF0FF3408B1204610BD6420FFF71AFEF5
:100B1000FFF7E0FD10B1FFF7C3FDF4E7FFF7D1FFEA
:100B20001020FFF70FFEFFF7D5FDFFF7CAFF80206B
:100B3000FFF708FEFFF7CEFDFFF7B2FDFFF786FDDA
:100B40006420FFF7FFFDFFF7C5FDFFF7BAFF0F2099
:100B5000FFF7F8FDFFF7BEFDFFF7B3FF8420FFF7B7
:100B6000F1FDFFF7B7FDFFF79BFD002010BD000072
:100B7000001801407FB50121312000F0DAFD4FF46B
:100B80000070ADF800008B4D04248DF803406946D9
:100B9000284600F0E6FB0921032000F096FCA001A6
:100BA000ADF800008DF803406946284600F0D9FBF7
:100BB0000821032000F089FCADF800408DF80340C7
:100BC0006946284600F0CDFB0221032000F07DFCA1
:100BD000A002ADF800008DF803406946764800F0A9
:100BE000C0FB0C21022000F070FC4020ADF800009A
:100BF0008DF803406946284600F0B3FB0621032028
:100C000000F063FC2020ADF800008DF80340694639
:100C1000284600F0A6FB0521032000F056FC41F217
:100C20006430002402908DF80C4010208DF80D00E7
:100C300001258DF80E5002A800F06CFF17208DF8EA
:100C400004008DF805408DF806408DF8075001A886
:100C500000F0DDFA28208DF804008DF805408DF8AD
:100C600006408DF8075001A800F0D1FA08208DF851
:100C700004008DF805408DF806408DF8075001A856
:100C800000F0C5FA7FBD08B50121202000F051FD1C
:100C90004FF48050ADF8000003208DF802001420BE
:100CA0008DF803006946434800F05BFBBDE808404F
:100CB00060E770B54FF48075284600F07BFF3D4C2F
:100CC00060B1284600F084FF2946204600F09FFBD3
:100CD00010B10121002011E00021FBE74FF4007565
:100CE000284600F067FF58B1284600F071FF2946FA
:100CF000204600F08CFB90B10121012005F0AAFDF7
:100D0000202000F057FF70B1202000F061FF20216B
:100D1000204600F07CFB20B10121002012E00021E0
:100D2000EBE70021F9E7402000F044FF00280FD056
:100D3000402000F04DFF4021204600F068FB28B124
:100D400001210120BDE8704005F095BD0021F8E7C4
:100D500070BD10B54FF48054204600F02BFF0028E2
:100D60000FD0204600F034FF2146134800F04FFB1F
:100D700028B10121BDE81040002005F076BD00211A
:100D8000F8E710BD10B5042000F014FF00280FD0C4
:100D9000042000F01DFF0421064800F038FB28B1B4
:100DA0000121BDE81040012005F05FBD0021F8E7FA
:100DB00010BD0000001401400010014010B502F009
:100DC000F3FA012803D0BDE8104003F070B910BD5C
:100DD00010B5042000F05BFA2B482C492C4A00681F
:100DE000B0FBF1F3B0FBF1F14FF47A7041431370B3
:100DF000012050804FF0E020026942F002020261BF
:100E00004161016941F00101016110BD70B54FF010
:100E1000E02500216C691E4AAB6912785043AA692B
:100E20009A42FCD002D2A3EB020302E0A4EB02063A
:100E30003344194413468142F1D370BD70B5044662
:100E400002F0B2FA01280CD0114D6888844203D315
:100E5000B4FBF0F001F080FE6888B4FBF0F100FB19
:100E600011444FF47A706043BDE87040CEE770B52E
:100E7000054600244FF47A7603E03046FFF7C6FFBC
:100E8000641CAC42F9D370BD0000002040420F004A
:100E9000180000207047C4490A885206FCD5C24A8F
:100EA000C1B2121D118070477047FEB50121880341
:100EB00000F03FFC0121042000F03BFC4FF40070E7
:100EC000ADF8000018208DF80300B84F03248DF80A
:100ED00002406946384600F044FA3815ADF8000083
:100EE00004208DF803006946384600F03AFA2520C0
:100EF0008DF804008DF8054000268DF8066001206D
:100F00008DF8070001A800F082F90121042000F00B
:100F100010FCFD14ADF808508DF80A4010208DF833
:100F20000B0002A9384600F01CFA2946384600F0AA
:100F300084FA9F480670FEBD1CB50121480400F0EC
:100F400001FC0121084600F0F4FB0121202000F003
:100F5000F0FB0121082000F08FFA2020ADF80000FE
:100F600018208DF803000320924C8DF8020069468A
:100F7000204600F0F6F94021ADF8001004218DF86C
:100F800003106946204600F0ECF926208DF8040095
:100F900000208DF805008DF8060001208DF807006F
:100FA00001A800F034F91CBD1CB50121880400F033
:100FB000C9FB0121084600F0BCFB0121202000F004
:100FC000B8FB01217C4800F057FA4FF48070ADF86F
:100FD000000018208DF803000320764C8DF80200E5
:100FE0006946204600F0BDF96115ADF800100421F6
:100FF0008DF803106946204600F0B3F927208DF8DC
:10100000040000208DF805008DF8060001208DF801
:10101000070001A800F0FBF81CBD1CB50121080564
:1010200000F090FB0121302000F083FB4FF4805052
:10103000ADF8000018208DF8030003208DF80200A1
:1010400069465E4800F08DF90420ADF800008DF887
:1010500003006946574800F084F935208DF80400F4
:1010600000208DF805008DF8060001208DF807009E
:1010700001A800F0CCF81CBD4B490A881206FCD52B
:101080004949091D0880704710B5474A141D06E0FC
:1010900013881B06FCD510F8013B2380491E00294C
:1010A000F6D110BD4249091D002251F8200040F23E
:1010B000255100F03ABC3E49091D012251F820009B
:1010C00040F2255100F031BC3949091D002251F888
:1010D000200040F2266100F028BC3549091D01229C
:1010E00051F8200040F2266100F01FBC2DE9F041CC
:1010F0002D4E40F227773946304600F0CDFC2C4C7F
:10110000002520B13946304600F0E5FC257040F25C
:1011100025573946304600F0BFFC70B101202070E1
:101120003946304600F0D7FC304600F04EFCBDE8B2
:10113000F041C1B2002003F002BE40F2244739461C
:10114000304600F0A9FC00280AD03946304600F0AD
:10115000C2FC304600F039FC002003F021FE25706F
:10116000BDE8F08112480078704770B5144C40F229
:101170002551204600F090FC40F2244120B1204649
:10118000BDE8704000F0A7BC0D46204600F084FC8E
:10119000002808D02946204600F09DFC2046BDE8E6
:1011A000704000F012BC70BD0038014000080140E2
:1011B0001C00002000140140300014000010014009
:1011C000004400400948804709480047FEE7FEE721
:1011D000FEE7FEE7FEE7FEE7FEE7FEE7FEE7FEE7E7
:1011E00004480549054A064B70470000950300086E
:1011F00031010008F06F0020F0770020F07300202C
:10120000F07300202849084328490860704730B52A
:101210000F23C27801780125F2B1244A126801F146
:10122000E02102F4E062C2F5E062120AC2F10404B5
:10123000D3404278A24084781C401443220181F8B4
:101240000024007800F01F018D404009800000F16B
:10125000E020C0F8005130BD01F01F008540480972
:10126000800000F1E020C0F8805130BD104A1140EC
:1012700001430E48001F016070470C4A121D0029EF
:10128000116801D0014300E08143116070474FF0C5
:10129000E0210428086903D020F0040008617047A9
:1012A00040F00400FAE700000000FA050CED00E051
:1012B00080FFFF1F8F4910B5884206D1012104200D
:1012C00000F049FA002104203BE08B49884206D116
:1012D0000121082000F03FFA0021082031E0874971
:1012E000884206D10121102000F035FA002110209B
:1012F00027E08349884206D10121202000F02BFA03
:10130000002120201DE07F49884206D10121402094
:1013100000F021FA0021402013E07B49884206D1E9
:101320000121802000F017FA0021802009E0774990
:1013300088420AD184150121204600F00CFA0021D0
:101340002046BDE8104000F006BA10BD10B50121DE
:10135000084600F000FA0021BDE81040012000F02E
:10136000FAB9F0B5CC78002204F00F03E40601D5F9
:101370008C7823430C784FF00F0C14F0FF0F4FF0D4
:10138000010E1BD005680E880EFA02F42640A64214
:1013900010D196000CFA06F725EA070703FA06F5BE
:1013A000CE783D43282E02D0482E02D002E0446180
:1013B00000E00461521C082AE5D305600A88FF2A70
:1013C0001CD94468002202F108060EFA06F50E88C0
:1013D0002E40AE420ED196000CFA06F7BC4303FA3B
:1013E00006F7CE783C43282E00D14561CE78482EB2
:1013F00000D10561521C082AE5D34460F0BD4FF6C8
:10140000FF710180022181700421C1707047024682
:10141000002092680A4200D001207047806880B2A4
:10142000704702460020D2680A4200D0012070476F
:10143000C06880B2704701617047416170470AB16E
:101440000161704741617047C160704741F480326B
:101450008261816182618169806970472C4B10B51E
:101460001A684FF68074224042EA00100843186060
:1014700010BD2849C8617047F0B5254C002801DA35
:10148000E36900E06368450D2E0185B2C0F30157A2
:10149000B540C0F30342032F05D0C6020AD5032688
:1014A0009640B34307E023F07062636823F07063F3
:1014B000636002E0AB4343F0706201B12A4300284D
:1014C00001DAE261F0BD6260F0BD10B58A0721F07B
:1014D00003040F49120F21440F238C6893409C434F
:1014E0008C608B68904003438B6010BD0949C1F844
:1014F000DC00704700080140000C01400010014072
:101500000014014000180140001C0140002001406F
:101510000000014000002042A548016841F001019F
:1015200001604168A34A114041600168A24A11402C
:101530000160016821F480210160416821F4FE010D
:1015400041604FF41F018160704799490A6822F495
:1015500080320A600A6822F480220A60B0F5803F77
:1015600007D0B0F5802F03D1086840F4A0200860B0
:101570007047086840F48030F9E7034600205909B5
:101580008B4A01290AD002290AD0516A03F01F02AE
:10159000012393400B4200D0012070471168F5E70A
:1015A000116AF3E718B500204FF4A06400903120D1
:1015B000FFF7E3FF0099491C0091A14201D00028E8
:1015C000F5D03120FFF7D9FF002800D0012018BD49
:1015D000774A116821F0F80141EAC00010607047B5
:1015E000764908607047724B5A68084322F47C12AF
:1015F0001043586070477149086670476C4A5168DB
:1016000021F003010143516070476948406800F0D0
:101610000C007047664A516821F0F00101435160A7
:101620007047634A516821F4E0610143516070479B
:101630005F4A516821F4605141EAC0005060704730
:101640005B4A0029517A01D0014300E08143517285
:1016500070475A49C1F8D8007047554A516821F47B
:1016600040410143516070475149002281F82020D8
:1016700081F82020012802D0042802D1052081F819
:10168000200070474E490860704749490A6A024382
:101690000A6270474A4944390860704730B5444A85
:1016A0005168484B11F00C0103D0042901D00829DE
:1016B00001D0036012E05168536801F470114FF0DB
:1016C000020413F4803F04EB914102D053689B0362
:1016D00001D53D4B00E03B4B5943016051680F235E
:1016E00003EA1111394B5C5C0168E14041605468C8
:1016F000072505EA14241C5D21FA04F4846054686B
:1017000005EAD4241B5DD940C1605268032303EA73
:1017100092322E4B1B1F9A5CB1FBF2F1016130BD7E
:10172000234A0029516901D0014300E081435161FE
:1017300070471F4A0029916901D0014300E08143AD
:10174000916170471A4A0029D16901D0014300E034
:101750008143D1617047164A0029D16801D0014305
:1017600000E08143D1607047114A0029116901D01E
:10177000014300E08143116170471149403908601D
:1017800070470E49C86470470949C87170470848D6
:10179000416A41F0807141627047054A014600206C
:1017A00092680A4200D00120704701498872704750
:1017B000001002400000FFF8FFFFF6FE000042426A
:1017C0008004424200127A0000093D003C000020E3
:1017D000C44910B588420AD101218C032046FFF785
:1017E000BAFF2046BDE810400021FFF7B4BFBE4954
:1017F000884202D101214C0410E0BC49884202D148
:1018000001218C040AE0BA49884202D10121CC04AA
:1018100004E0B84988420AD101210C052046FFF7AF
:10182000A3FF2046BDE810400021FFF79DBF10BD7B
:1018300030B50446008A85B00D464CF6FF7108406D
:10184000E98801432182A0894EF6F3110840A98856
:101850002A8911436A8902431143A181A08A4FF664
:10186000FF410840A9890143A1826846FFF716FF9E
:101870009C48844201D1039800E00298A1890904A0
:1018800000EBC00101EB0010296801D5490000E020
:101890008900B0FBF1F06422B0FBF2F109010B0901
:1018A0006FF018056B4300EB8300A3891D044FF014
:1018B000320306D503EBC000B0FBF2F000F00700E6
:1018C00005E003EB0010B0FBF2F000F00F0008435E
:1018D000208105B030BD4FF4165101600021818098
:1018E000C18001810C2242818181704710B5028A3A
:1018F0004FF2FF031A400B884C8823438C88C98819
:101900000C4323431343038210BD00210180418017
:101910008180C18070470029818902D041F4005143
:1019200001E021F400518181704710B5C1F34213E9
:1019300001F01F040121A140012B07D0022B07D089
:101940001430002A026805D00A4304E00C30F8E79E
:101950001030F6E78A43026010BD002A828A01D067
:101960000A4300E08A4382827047028A22F00F0213
:101970000282028A0A4302827047828922F400624C
:10198000828182890A43828170470029818902D03D
:1019900041F0020101E021F0020181817047028AD9
:1019A00022F020020282028A0A4302827047002942
:1019B000018A02D041F4804101E021F4804101829A
:1019C0007047C1F30801818070478088C0F3080028
:1019D0007047818941F0010181817047028BD2B249
:1019E0000283028B42EA012101837047028B02F4D9
:1019F0007F420283028B0A43028370470029818A57
:101A000002D041F0200101E021F0200181827047E5
:101A10000029818A02D041F0100101E021F010017B
:101A2000818270470029818A02D041F0080101E0DB
:101A300021F00801818270470029818902D041F498
:101A4000004101E0C1F30E01818170470029818AC4
:101A500002D041F4006101E021F40061818270470D
:101A6000828A22F004028282828A0A43828270473A
:101A70000029818A02D041F0020101E021F0020137
:101A8000818270470246002012880A4200D001205D
:101A90007047C9430180704770B501F01F050126EA
:101AA0000024C1F3421306FA05F2012B0FD0022BDA
:101AB0000FD0838A4FEA11210088134206FA01F6FB
:101AC00000EA060001D000B10124204670BD8389E0
:101AD000F0E7038AEEE70A0A01219140C943018039
:101AE00070470000003801400044004000480040BA
:101AF000004C004000500040374900200860091D9C
:101B00000860091D0860091D086033493348143115
:101B10000860704730B5304A8379016853B3136861
:101B20008B431360111D0B680468A3430B6001799C
:101B300011440B68046823430B60274B0833196872
:101B40000468A14319601C1D21680568A943216030
:101B50004179102905D011440A68006802430A60DF
:101B600030BD19680268114319602168006801439B
:101B7000216030BD0079104402688A43026030BDA4
:101B80000021016001710C2242718171704712497C
:101B900010310A6802430A60704701460E4A00206D
:101BA000143212680A4200D0012070470A491431E9
:101BB00008607047084A014600201268064B0A4038
:101BC00014331B680B4202D0002A00D0012070475A
:101BD000014914310860704700040140FFFF0F0005
:101BE00000F108014FF0FF32C0E90112C16001614C
:101BF00000210160704700210161704742684A601E
:101C000093688B6093685960916008610168491C12
:101C10000160704730B50C68621C02D000F1080208
:101C200002E0026904E01A4653681D68A542FAD929
:101C300053684B6099608A60516008610168491C73
:101C4000016030BDD0E9013201699A60D0E9012319
:101C50005A604A68824201D182684A600022026169
:101C60000868401E0860704770B50D46040005D135
:101C700040F21B12F2A1F7A004F062FE02F0ECF9B0
:101C8000D4E90F20216802FB001161600021A163EB
:101C90002168A1600A46D4E90F01401E00FB012122
:101CA000E16021464FF0FF3001F8440F487004F125
:101CB00010004DB1FFF794FF04F12400FFF790FFEF
:101CC00002F0E4F9012070BD21690029F8D001F08B
:101CD000A3FA0028F4D0E3494FF080500860BFF326
:101CE0004F8FBFF36F8FEBE72DE9F04117460E469C
:101CF000050005D14FF4C472D1A1D6A004F020FE96
:101D0000BEB105FB06F0543002F056FA04000ED0C6
:101D100004F154007EB12060C4E90F562046012131
:101D2000FFF7A2FF84F8507000212046A164BDE8AF
:101D3000F0810020E7E72460EEE72DE9F041856BB4
:101D4000174604460026026C82B1C7B1E06804F071
:101D5000EEFFE168206C091AE1602268914202D22C
:101D60006168081AE060022F16D017E02068A8B951
:101D7000606801F062FB0646002060600EE0A0682B
:101D800004F0D5FF216CA0680844A0606168884217
:101D900004D32068A06001E005B16D1E6D1CA56331
:101DA0003046C4E72DE9F3410F4600980026846CC5
:101DB0002CB940F6CE12A2A1A6A004F0C1FDA06BE2
:101DC000E16B884205D340F6CF129DA1A1A004F09B
:101DD000B7FDA06BE16B88420CD294F945503A46AE
:101DE00069462046FFF7A9FF0646681C05D06D1C12
:101DF00084F845503046BDE8FC81606A0028F9D07F
:101E000004F1240001F008FA0028F3D00126F1E7DC
:101E10002DE9F041044602F01FF994F9455004F110
:101E2000240610E0A06C20B100212046FFF7BAFF85
:101E300004E0606A48B1304601F0EEF908B101F003
:101E4000A4FA6D1E6DB2002DECDC4FF0FF3684F865
:101E5000456002F01BF902F0FFF894F9445004F1D8
:101E6000100709E0206948B1384601F0D5F908B1FA
:101E700001F08BFA6D1E6DB2002DF3DC84F8446026
:101E8000BDE8F04102F002B92DE9FF4F83B0994659
:101E90008B4604004FF0000605D140F2D92268A11C
:101EA0006CA004F04DFDBBF1000F07D1206C28B1F0
:101EB00040F2DA2262A167A004F042FDB9F1020FFC
:101EC00008D1E06B012805D040F2DB225CA161A0C3
:101ED00004F036FD01F068FA38B9059828B140F2EF
:101EE000DE2257A15BA004F02BFD4FF0000A4FF05B
:101EF0008057DFF8708102F0AFF8A06BE16B884289
:101F000006D3B9F1020F03D0059800B316B325E04C
:101F10004A4659462046FFF710FFA16C21B14946B9
:101F20002046FFF73FFF05E0616A19B104F1240084
:101F300001F072F928B1C8F80070BFF34F8FBFF3FA
:101F40006F8F02F0A3F8012007B0BDE8F08F02F018
:101F50009DF821E0684601F0CEF9012602F096F8DE
:101F600000F09BFD02F078F894F94400401C01D188
:101F700084F844A094F94500401C01D184F845A0A0
:101F800002F084F805A9684601F0C6F930B1204690
:101F9000FFF73EFF00F0F3FC0020D5E702F05CF80D
:101FA000A06BE16B884201D1012500E0002502F021
:101FB0006DF895B104F11000059901F0D4F82046B0
:101FC000FFF726FF00F0DBFC002894D1C8F8007072
:101FD000BFF34F8FBFF36F8F8DE72046FFF718FFDA
:101FE00000F0CDFC87E710B5024600210120FFF785
:101FF0007BFE041E07D00021416001600B460A46AB
:10200000C160FFF741FF204610BD10B5040005D1A7
:1020100040F241220AA10FA004F092FC01F0C1F9A4
:102020006168884220D1E068401EE06005D100234D
:102030001A4619462046FFF727FF012010BD000071
:102040002E2E5C4672656552544F535C71756575F2
:10205000652E63004572726F723A25732C25640DEC
:102060000A00000004ED00E00020E7E730B4026C55
:102070000B46002A0BD0C1681144C1604468A142DC
:1020800001D30168C16030BC184604F050BE30BCBA
:1020900070472DE9FF4F83B09B468A4604004FF0FE
:1020A000000607D140F2DC42AFF26C01AFF25C00F7
:1020B00004F046FCBAF1000F09D1206C38B140F2AF
:1020C000DD42AFF28401AFF2740004F039FC01F09C
:1020D0006BF948B9059838B14FF49C62AFF2A00192
:1020E000AFF2900004F02CFC4FF000094FF0805745
:1020F000DFF8188601F0B0FFA56B35B351462046D6
:10210000E668FFF7B3FFBBF1000F11D0E660606A2D
:1021100050B104F1240001F07FF828B1C8F8007034
:10212000BFF34F8FBFF36F8F01F0B0FF01200BE7BC
:102130006D1EA563206810B901F02FFA6060206958
:102140000028F1D004F11000E5E7059808B11EB1B0
:1021500006E001F09BFF27E0684601F0CCF801267D
:1021600001F094FF00F099FC01F076FF94F944002F
:10217000401C01D184F8449094F94500401C01D1E1
:1021800084F8459001F082FF05A9684601F0C4F883
:10219000002820460AD0FFF73BFE00F0F0FB204667
:1021A00000F0A6FA0028A5D00020CDE600F0A0FAA5
:1021B000D8B1206830B901F04FFF606801F0FFF836
:1021C00001F064FF04F12400059900F0CCFF2046E3
:1021D000FFF71EFE00F0D3FB00288BD1C8F800707B
:1021E000BFF34F8FBFF36F8F84E72046FFF710FEDA
:1021F00000F0C5FB7EE770B50D46040007D14FF433
:102200001E72AFF2C411AFF2B41004F099FB01F0EA
:10221000C8F86168884204D1E068401CE060012091
:1022200070BD00232A4619462046FFF732FF0028DA
:10223000F6D0E168491CE16070BD70B50C46050040
:1022400007D140F2BD22AFF20821AFF2F81004F03E
:1022500077FBAC4207D940F2BE22AFF21C21AFF2AD
:102260000C2004F06DFB022200212846FFF73CFD04
:10227000002800D0846370BD2DE9F04798461546CC
:102280008946040007D140F29F32AFF24C21AFF2F1
:102290003C2004F055FBB9F1000F09D1206C38B196
:1022A0004FF46872AFF26821AFF2582004F048FB97
:1022B000B8F1020F0AD1E06B012807D040F2A13239
:1022C000AFF28421AFF2742004F03AFB01F003FF77
:1022D0003020EFF3118780F31188BFF34F8FBFF3E6
:1022E0006F8FA06BE16B884207D3B8F1020F04D067
:1022F000002087F31188BDE8F08794F945604246D5
:1023000049462046FFF719FD701C04D0761C84F85E
:1023100045600120EDE7A06C012620B14146204632
:10232000FFF740FD06E0606A0028F2D004F12400C7
:1023300000F072FF0028ECD0002DEAD02E60E8E714
:102340002DE9F0410D46040007D140F23C42AFF2C6
:102350001031AFF2003004F0F3FA206C38B14FF4D2
:102360008862AFF22431AFF2143004F0E9FA206849
:1023700048B9606838B140F24542AFF23C31AFF243
:102380002C3004F0DDFA01F0A6FE3020EFF31186C8
:1023900080F31188BFF34F8FBFF36F8FA16BE06B9A
:1023A00088421FD994F94500491CA163411C04D0FF
:1023B000401C84F84500012015E0A06C012720B1E5
:1023C00000212046FFF7EEFC06E0606A0028F2D00C
:1023D00004F1240000F020FF0028ECD0002DEAD00A
:1023E0002F60E8E7002086F31188A0E42DE9F0478C
:1023F00090468946040007D14FF4B462AFF2C03171
:10240000AFF2B03004F09CFAB9F1000F09D1206CA2
:1024100038B140F2A152AFF2D831AFF2C83004F077
:102420008FFA01F058FE3020EFF3118780F3118806
:10243000BFF34F8FBFF36F8FA66BF6B194F9445083
:1024400049462046FFF712FE761EA663681C04D09C
:102450006D1C84F84450012010E020690028FAD057
:1024600004F1100000F0D8FE0028F4D0B8F1000FFD
:10247000F1D00121C8F80010EDE7002087F31188A2
:1024800039E72DE9F0410E46040007D140F2FC5235
:10249000AFF25441AFF2444004F052FA4EB9206C0E
:1024A00048B140F2FD52AFF26841AFF2584004F03B
:1024B00047FA206C38B940F2FE52AFF27C41AFF2DD
:1024C0006C4004F03DFA01F006FE3020EFF3118578
:1024D00080F31188BFF34F8FBFF36F8FA06B30B1C4
:1024E00031462046E768FFF7C1FD0120E76085F32C
:1024F00011881CE410B5040007D140F22F62AFF23E
:10250000C041AFF2B04004F01BFA01F0A5FDA46B8E
:1025100001F0BCFD204691E510B5040007D140F262
:102520004162AFF2E441AFF2D44004F009FA01F0A5
:1025300093FDD4E90E10441A01F0A8FD20467DE574
:1025400010B5040007D140F25162AFF20C51AFF266
:10255000FC4004F0F5F9A06B70E56D4A002102EB38
:10256000C1035B68834206D1002042F8310002EBD0
:10257000C10148607047491C0829F0D3704710B565
:10258000040007D140F25D62AFF24C51AFF23C5013
:1025900004F0D6F92046FFF7E0FF2046BDE81040E2
:1025A00001F075BEC06C7047C164704790F8500070
:1025B000704710B5040007D140F29372AFF280511A
:1025C000AFF2705004F0BCF9A06B08B1002035E503
:1025D000012033E510B5040007D140F2BA72AFF222
:1025E000A051AFF2905004F0ABF9A06BE16B8842C0
:1025F00001D1012022E5002020E510B5444B002246
:1026000053F832401CB1521C082AF9D316E543F89E
:10261000321003EBC201486010E510B500243C4ABB
:10262000214602EBC1035B68834202D152F831407C
:1026300002E0491C0829F4D32046FFE470B5154692
:102640000E46044601F008FD94F944100020491C90
:1026500001D184F8440094F94510491C01D184F853
:10266000450001F013FDA06B28B92A46314604F15C
:10267000240000F0B6FD2046BDE87040FFF7C8BB5F
:1026800000220421FFF730BB70B50D46044601F06F
:10269000E3FCA06C08B9A06B08B1002401E0A564BC
:1026A000012401F0F3FC204670BD10B50446806C97
:1026B000884201D1A06B08B10020BFE401F0CCFC3E
:1026C0000020A06401F0E2FC0120B7E408B500237B
:1026D0000A4669460093FFF7DCFC009808BD08B580
:1026E00000210A4600916946FFF780FE009808BD68
:1026F00010B5044601F0B0FCA06B20B1002401F03D
:10270000C5FC20469AE40124F9E7000004ED00E04E
:102710006C0300202DE9F041054601F09DFCFE4EC2
:10272000B068401CB0603068FC4F10B1706930B3C5
:102730002BE03560B068012827D1002404EB840029
:1027400007EB8000FFF74CFA641C202CF6D3F4480A
:10275000FFF746FAF2481430FFF742FAF048283003
:10276000FFF73EFAEE483C30FFF73AFAEC485030BB
:10277000FFF736FAEA4870631430B06305E030685A
:10278000E96AC06A884200D83560706A0121401C3D
:102790007062A864E86A326981401143316100EBDC
:1027A000800007EB8000291DFFF728FA01F06EFC7E
:1027B000706900280CD03068E96AC06A884207D284
:1027C000D8494FF080500860BFF34F8FBFF36F8F31
:1027D000BDE8F0812DE9FF5F8346DDE90E8799466C
:1027E00016468A46900001F0E7FC05001AD06020EA
:1027F00001F0E2FC040012D025630021CDE9024182
:10280000CDE900874B4632465146584601F087F8DD
:102810002046FFF77FFF012004B0BDE8F09F284667
:1028200001F035FD4FF0FF30F6E770B5044601F0DA
:1028300013FCB94D04B92C68201DFFF703FA58B9F1
:10284000E06AB64A00EB800152F8211021B901215B
:102850008140286988432861A06A18B104F11800F2
:10286000FFF7F0F9686A401C68622868844208D162
:10287000AB48211D3C30FFF7C1F96868401C686017
:1028800007E0A868401EA860204601F0A1F801F00A
:1028900092F801F0FBFB6869002812D02868844296
:1028A0000FD1286B28B140F265429FA1A3A004F08C
:1028B00047F89C494FF080500860BFF34F8FBFF33B
:1028C0006F8F70BD2DE9F041934F0026386B38B102
:1028D000B869401CB861F86900B10126304677E755
:1028E000FD686D1CFD6011D1786B006828B140F661
:1028F000D9128DA191A004F023F8786BB96B79639C
:10290000B863386A401C386201F055F8B86ADFF8DD
:102910000C82854209D3786B006880B1786BC068FF
:10292000C468606885420DD2B8623868C06A00EB3E
:10293000800158F821000128CDD90126CBE74FF0BE
:10294000FF30F1E7201DFFF77DF9A06A18B104F10F
:102950001800FFF777F9E06A01213A6981401143D5
:10296000396100EB800108EB8100211DFFF746F97A
:10297000E06A3968C96A8842CDD30126CBE72DE9E0
:10298000F047654D00242746286B28B94FF4FD62B7
:1029900065A16AA003F0D4FF01F05EFB286B401E26
:1029A0002863286BF0BBA8685D4928310126C8B3AD
:1029B000DFF868918846D8F80010E9B1D8F80C0023
:1029C000C46804F11800FFF73DF9201DFFF73AF93C
:1029D000E06A2A6906FA00F11143296100EB8001DF
:1029E00009EB8100211DFFF709F9E06A2968C96A2E
:1029F0008842E0D3EE61DEE70CB100F0DCFFAC69A9
:102A00003CB1FFF75FFF00B1EE61641EF9D1002019
:102A1000A861E86930B14349012738070860BFF36E
:102A20004F8F00E001E0BFF36F8F01F02FFB3846BE
:102A3000BDE8F0872DE9F041374E0F460446F568B2
:102A40003068001DFFF7FEF838B9306890F82C1098
:102A500001208840316981433161601C08D13FB158
:102A60003168BDE8F0412E485030091DFFF7C6B867
:102A700030682C44AC424460316805D2B06BBDE88C
:102A8000F041091DFFF7C6B8706B091DFFF7C2F8CA
:102A9000B06A844200D2B4629AE61F48016B491CB6
:102AA000016370472DE9F0410E4605004FF0000428
:102AB00005D140F279421CA120A003F041FF2EB9BC
:102AC00040F27A4218A11DA003F03AFF124F386B72
:102AD00028B140F27B4214A118A003F031FFFFF7A8
:102AE000DCFFFA6828688119904202D9884202D82E
:102AF00004E0884201D8914200D9012429601CB128
:102B0000881A0021FFF796FFFFF739FF002822D12E
:102B10004FF08050034919E04C000020AC03002026
:102B20002C06002004ED00E02E2E5C4672656552F6
:102B3000544F535C7461736B732E63004572726FF4
:102B4000723A25732C25640D0A0000000860BFF35B
:102B50004F8FBFF36F8F3BE610B5040014D0FE49D2
:102B6000096B39B140F2CF42AFF24401AFF2340009
:102B700003F0E6FEFFF791FF00212046FFF75AFF22
:102B8000FFF7FDFE002807D1F4494FF080500860A0
:102B9000BFF34F8FBFF36F8F10BD70B5050007D126
:102BA00040F2FB42AFF28001AFF2700003F0C8FECA
:102BB000E94E3068854201D1002070BD01F04CFA29
:102BC0006C6901F063FA706B844202D0B06B84428E
:102BD00001D1022070BDE248844204D1A86A0028D5
:102BE000F7D1032070BDDE481438844202D00CB106
:102BF000012070BD042070BD10B5044601F02CFA10
:102C00000CB9D5480468E46A01F040FA204610BDCA
:102C100010B5044601F05FFA3020EFF3118180F324
:102C20001188BFF34F8FBFF36F8F0CB9CA48046888
:102C3000E06A81F3118810BD2DE9F04100260D46B0
:102C40000446202908D34FF4B062AFF22411AFF24A
:102C5000141003F075FE1F2501F0FEF9BE4F04B9F4
:102C60003C68206DA8423FD03968854206D98C4225
:102C700007D03968C96AA94202D902E08C4200D162
:102C80000126E16A8846884200D1E5622565A0698F
:102C9000002802DBC5F12000A061B24D08EB8800DE
:102CA000616905EB8000814215D1201DFEF7CAFF46
:102CB000012120B93A6901FA08F082433A61E06AD9
:102CC0003A6981401143396100EB800005EB8000D7
:102CD000211DFEF793FF3EB1A0494FF080500860E0
:102CE000BFF34F8FBFF36F8FBDE8F04101F0CEB956
:102CF00070B5994D286B10B10120E86170BD0020BE
:102D0000E8612869974EB0FA80F0C0F11F0000EB2F
:102D1000800456F8240038B940F6F622AFF2F811D4
:102D2000AFF2E81003F00CFE06EB840000F108029D
:102D3000416849684160914201D149684160C86871
:102D4000286070BD70B5044601F086F9824D04B963
:102D50002C68201DFEF776FF58B9E06A814A00EB27
:102D6000800152F8211021B901218140286988434E
:102D70002861A06A18B104F11800FEF763FF211D55
:102D80007748FEF73BFF01F081F9686928B101F04F
:102D900063F900F010FE01F079F92868844213D13C
:102DA000686990B1286B38B140F25762AFF2882160
:102DB000AFF2782003F0C4FD68494FF080500860FE
:102DC000BFF34F8FBFF36F8F70BD6548A968006870
:102DD000884202D10020286070BDBDE8704087E7BE
:102DE00070B50025040007D140F28162AFF2C8211E
:102DF000AFF2B82003F0A4FD59496069884205D1BB
:102E0000A06A2839884201D000B90125284670BD42
:102E100070B504002BD0504D2868844231D001F0A9
:102E20001BF92046FFF7DCFFE8B1201DFEF70AFF83
:102E3000E06A01212A69814011432961494900EB77
:102E4000800001EB8000211DFEF7D8FEE06A2968B2
:102E5000C96A884207D341494FF080500860BFF3E8
:102E60004F8FBFF36F8FBDE8704001F00FB940F294
:102E7000AB62AFF24C31AFF23C30BDE8704003F0D2
:102E80005FBD70BD2DE9F0410026040007D140F27E
:102E9000E262AFF26C31AFF25C3003F051FD01F051
:102EA0001AF93020EFF3118580F31188BFF34F8FAB
:102EB000BFF36F8F2046FFF793FFF0B1264F386BBB
:102EC00020B1274804F11801283814E0E06A396875
:102ED000C96A884200D30126201DFEF7B3FEE06ACE
:102EE00001213A698140114339611E4900EB80009C
:102EF00001EB8000211DFEF781FE85F3118830462D
:102F000066E4184E4FF08054144D00F06BFD3068AD
:102F10000128FAD92C60BFF34F8FBFF36F8FF4E70E
:102F20001CB50D4800242C30CDE9004023468222F8
:102F30000DA10F48FFF74EFC012803D100F06DFEF4
:102F400001281BD0401C2BD140F28472AFF22841E3
:102F5000AFF2184002B00DE04C00002004ED00E09C
:102F60007C060020AC03002049444C4500000000D2
:102F7000032F0008BDE8104003F0E2BC302080F3CE
:102F80001188BFF34F8FBFF36F8FFA484FF0FF31B7
:102F9000816201214161C460BDE81C4001F01AB8A2
:102FA0001CBD302080F31188BFF34F8FBFF36F8FAC
:102FB000F0490020486101F043B8EE48C06870470E
:102FC00010B501F088F8EB48C06810BDE94880688A
:102FD000704710B510B104461CB10AE0E54804681A
:102FE000FAE740F68C02AFF2C041AFF2B04003F016
:102FF000A7FC04F1340010BD2DE9F0471E469146B0
:103000000C4607000ED0054605F13400C4E9005017
:10301000E86A2061286BE061A86CA060207B03282F
:1030200003D00AE0D3480568EEE7FFF736FDA86A4B
:1030300008B102202073FFF7A2FC4FF00008286DB2
:10304000C4E90508052E01D0267303E03846FFF7D2
:10305000A4FD2073B9F1000F0AD00021286B01E014
:10306000401C491C0278A52AFAD088082084DFE495
:10307000A4F82080DCE42DE9F047814608689246F8
:103080000C460025F8B1486801F108064068486020
:10309000B04201D140684860D0F80C806068426856
:1030A0006260B24201D151686160606805EBC501A0
:1030B00009EB8101C768534601223846FFF79CFFA0
:1030C0006D1C4745EAD12846B2E42DE9F047174682
:1030D0000A46064600242025FFF7DFFCDFF894822D
:1030E000D8F8080082423AD3DFF88C926D1E05EBC7
:1030F000850104EBC40009EB810106EB800001228D
:10310000FFF7B9FF0444002DF0D104EBC40006EB37
:10311000800002224546D8F83410FFF7ACFF044483
:1031200004EBC40006EB80000222A96BFFF7A3FFAB
:10313000044404EBC40006EB800004228F49FFF72F
:103140009AFF04448D4904EBC40006EB800003227F
:103150001431FFF790FF04440FB100203860FFF7EF
:103160000EFC204664E470B50D46040007D140F61D
:103170000632AFF24C61AFF23C6003F0E1FB7D48F8
:10318000016820461831FEF745FD2846BDE870402D
:1031900001214FE42DE9F04117460E46050007D105
:1031A00040F61732AFF28061AFF2706003F0C8FBF7
:1031B000704C206B38B940F61B32AFF29461AFF21D
:1031C000846003F0BDFB216846F0004088612168FF
:1031D00028461831FEF712FD3846BDE8F0410121BE
:1031E00028E470B514460E46050007D140F631328A
:1031F000AFF2CC61AFF2BC6003F0A2FB5D480168A6
:1032000028461831FEF7FAFC0CB14FF0FF36214684
:103210003046BDE870400DE42DE9F041C068C46857
:103220003CB940F66132AFF20071AFF2F06003F0EA
:1032300087FB04F118000746FEF704FD4D4D286B8F
:10324000012660B14D4839461438FEF7D7FCE06AD4
:103250002968C96A884212D90120EE611CE4201D48
:10326000FEF7F0FCE06A2A6906FA00F111432961D1
:10327000414900EB800001EB8000211DE5E70020C3
:103280000AE470B53B4D06460C46286B38B940F64B
:103290009932AFF26C71AFF25C7003F051FB44F005
:1032A00000403060F4683CB940F6A132AFF288715A
:1032B000AFF2787003F044FB3046FEF7C3FC201DEC
:1032C000FEF7C0FCE06A01262A6906FA00F1114304
:1032D0002961294900EB800001EB8000211DFEF7E8
:1032E0008DFCE06A2968C96A884202D90120EE6132
:1032F00070BD002070BD10B5040007D140F6C1328A
:10330000AFF2DC71AFF2CC7003F01AFB1948016A1E
:103310002160C068606010BD70B50D46040007D123
:1033200040F6CB32AFF60001AFF2F07003F008FBCD
:103330003DB940F6CC32AFF61001AFF6000003F015
:10334000FFFA00F089FE0B4AD06829684B1C0FD0A9
:103350002368126A934202D06268824210D962687E
:10336000801A88420CD2081A28602046FFF7C3FF53
:10337000002406E04C000020AC030020680600207A
:10338000012400F083FE204670BDFF490120C86182
:103390007047002800D0C06C7047002800D0C1647E
:1033A0007047F94800687047F748416919B1006BE8
:1033B00018B100207047012070470220704770B597
:1033C000040039D0F04DE06A2968C96A884233D2D6
:1033D000A069002804DB2868C06AC0F12000A06151
:1033E000E06AEA4E00EB8000616906EB80008142F2
:1033F0001FD1201DFEF726FC012150B9E06A00EB29
:10340000800256F8222022B92A6901FA00F082438C
:103410002A612868C06AE0622A69814011432961F3
:1034200000EB800006EB8000211DBDE87040FEF738
:10343000E5BB2868C06AE06270BD70B504004FF05B
:10344000000640D0D04D2868844207D040F6C762BD
:10345000AFF62C11AFF61C1003F072FA606D38B99C
:1034600040F6C962AFF64011AFF6301003F068FACB
:10347000606D401E6065226DE16A914223D010BBF1
:10348000201DFEF7DFFBC149012250B9E06A00EBC5
:10349000800351F8233023B92B6902FA00F08343EB
:1034A0002B61206DE062C0F12000A061E06A2B6911
:1034B00082401A432A6100EB800001EB8000211D4D
:1034C000FEF79CFB0126304670BD2DE9FF41002729
:1034D00005460770AC4881680291806800EBC00027
:1034E000800000F069FE06004BD000220299FFF731
:1034F000ECFDCDE9020738463AE000EBC00006EBF0
:103500008001087B01280FD002280FD003280FD09C
:1035100004280FD000244968284603F0B0FB284651
:1035200003F0DCFB202109E05224F4E74224F2E717
:103530005324F0E74424EEE72954401C1328FBD31E
:103540002F540544039800EBC00006EB800082680E
:10355000018CCDE90012036922468DA1284603F0B3
:10356000FBF9284603F0BAFB05440398401C03907E
:1035700002998842C1D304B03046BDE8F04100F062
:1035800086BEBDE8FF81804908680A688069D26A02
:103590000968C2F120028A6170477B49086818B146
:1035A0000868426D521C42650868704770B50C4649
:1035B000064600F051FD744D2868806D80B9296879
:1035C000012081F85C005CB101212046FFF732FA4E
:1035D00073494FF080500860BFF34F8FBFF36F8F78
:1035E00000F054FD00F038FD2868846D002034B1EF
:1035F00016B12968886502E02A68611E916529680C
:1036000081F85C0000F042FD204670BD2DE9F041DC
:103610001E4615468846074600F01EFD5A4C206897
:1036200090F85C00022814D02068816DB943816550
:103630002168012081F85C005EB101213046FFF76E
:10364000F9F957494FF080500860BFF34F8FBFF32F
:103650006F8F00F01BFD00F0FFFC15B12068806D3E
:103660002860206890F85C0001280DD02068816DEA
:1036700021EA0801816501252168002081F85C00AC
:1036800000F004FD28463BE40025F5E72DE9F04174
:103690001F4690460D4604004FF0010607D141F247
:1036A000FD02AFF67C31AFF66C3003F049F900F063
:1036B000D3FC0FB1A06D386094F85C00022184F84F
:1036C0005C10B8F1050F0ED2DFE808F00D03060C10
:1036D0000A00A16D294301E0A16D491CA16502E02A
:1036E000022803D0A565012802D02AE0002628E0A0
:1036F000201DFEF7A7FA244DE06A01212A698140C6
:1037000011432961214900EB800001EB8000211D5C
:10371000FEF774FAA06A38B141F23512AFF6F8310B
:10372000AFF6E83003F00CF9E06A2968C96A88420C
:1037300007D91B494FF080500860BFF34F8FBFF38C
:103740006F8F00F0A3FC304688E52DE9F0471F4657
:10375000DDF8209092460D4604004FF0010807D195
:1037600041F26812AFF64041AFF6304003F0E8F89E
:1037700000F0B1FC3020EFF3118680F31188BFF325
:103780004F8FBFF36F8F0DE04C000020AC03002083
:103790000925630925750925750925750D0A000098
:1037A00004ED00E00FB1A06D386094F85C000221D8
:1037B00084F85C10BAF1050F0ED2DFE80AF00D03B1
:1037C000060C0A00A16D294301E0A16D491CA16509
:1037D00002E0022803D0A565012803D031E04FF0B4
:1037E00000082EE0A06A38B141F2AF12AFF6C8412E
:1037F000AFF6B84003F0A4F88D4D286B012778B1DF
:1038000004F118018B48FEF7F9F9E06A2968C96AE2
:10381000884216D9B9F1000F12D0C9F8007010E033
:10382000201DFEF70FFAE06A2A6907FA00F111433A
:10383000296100EB8001804800EB8100211DE2E757
:10384000EF6186F31188404611E42DE9F041884686
:10385000040007D141F2E312AFF63451AFF6245021
:1038600003F06EF800F037FC3020EFF3118780F39F
:103870001188BFF34F8FBFF36F8F94F85C00022164
:1038800084F85C10A16D491CA16501282ED1A06AA5
:1038900038B141F20922AFF67051AFF6605003F033
:1038A0004FF8634D286B012678B104F11801614887
:1038B000FEF7A4F9E06A2968C96A884216D9B8F106
:1038C000000F12D0C8F8006010E0201DFEF7BAF912
:1038D000E06A2A6906FA00F111432961564900EBB2
:1038E000800001EB8000211DE2E7EE6187F3118883
:1038F000B4E410B558B1044600F0AEFB94F85C0097
:10390000022807D0002400F0C1FB204610BD484823
:103910000468F1E7002084F85C000124F3E72DE956
:10392000F0470E46DDE90984174682469100994624
:10393000089DA522206B03F03FFA6FF00301206B76
:1039400001EB8701084420F00707780705D040F213
:103950002B323AA13EA002F0F3FF00202218315C86
:1039600082F83410315C11B1401C1428F6D30026C3
:1039700084F84760202D00D31F25E562C4E9145662
:10398000201DFEF738F904F11800FEF734F9246120
:10399000C5F120006462A061A66584F85C604A46B7
:1039A0005146384600F0F9FA2060B8F1000F01D016
:1039B000C8F8004048E71E48416B096829B1416BCF
:1039C000C968C9684968816270474FF0FF31FAE7FA
:1039D00010B50446006B00F05AFC2046BDE81040CC
:1039E00000F055BC70B5134E114D14361CE0FFF7B6
:1039F00054F8306820B10024FEF7C1FFA4B901E0FB
:103A00000124F9E700F028FBF068C468201DFEF7E8
:103A100019F9A868401EA8606868401E686000F038
:103A200035FB2046FFF7D4FF68680028DFD170BD62
:103A30004C00002054060020AC0300202E2E5C46D3
:103A400072656552544F535C7461736B732E6300DF
:103A50004572726F723A25732C25640D0A000000BE
:103A600070B500244160F74D0061914206D8D11A2B
:103A70008269914206D2011D286907E09A4203D269
:103A8000994201D3012403E0011DE868FEF7C2F862
:103A9000204670BD2DE9FF479946DDF830A09046DD
:103AA0000D4606004FF0000705D14FF4D372E6A192
:103AB000EBA002F045FFE34C206880B1CDE900584F
:103AC0000296062D11DAFFF76FFC02284FF0000373
:103AD00009D0002269462068FEF7D6F9074604B0EF
:103AE0003846BDE8F0875246F4E700234A46694667
:103AF000FEF7C2FBF2E770B586B0D24E53E00198F4
:103B0000002806DADDE90301029A904701980028AF
:103B100049DB039C606910B1201DFEF793F805A8EE
:103B200000F04DF9054601980A283CD2DFE800F084
:103B30000505053B273805053B270298A169034683
:103B400001442A462046FFF78BFF00282BD0616AEC
:103B500020468847E069012825D10020009002987E
:103B6000A1690023421819462046FFF793FFD0B9F8
:103B700040F22132B4A1BAA002F0E2FE13E00298B2
:103B8000A06128B94FF44E72AFA1B5A002F0D8FEE3
:103B9000A0692B4641191A462046FFF761FF02E053
:103BA000204600F074FB00231A4601A93068FEF796
:103BB00070FA0028A3D106B070BDA24CE06801687D
:103BC00039B1002139B1002000F00BF9FFF793FF64
:103BD000F4E70121F6E7C0680068F5E710B500F0EA
:103BE0003BFA984C2068A0B9A148FDF7F9FFA0481E
:103BF0001430FDF7F5FF9E48E0601430206100228C
:103C000010210520FEF770F8206010B199A1FEF791
:103C1000F4FCBDE8104000F039BA1CB50024FFF7F1
:103C2000DDFF8848006868B186491F20091DCDE97D
:103C3000000100234FF4827290A19248FEF7CAFD62
:103C4000040005D140F233127FA185A002F078FE76
:103C500020461CBD2DE9F0470746994616460D46FD
:103C60002C20DDF820A000F0A7FA040014D0B846FC
:103C70004F46D1462DB94FF4C67283A188A002F0F9
:103C80005FFEFFF7ABFF04F11801C4F8008081E884
:103C9000E002201DFDF7AFFF204622E710B5694C7A
:103CA000606828B94FF4E87267A16DA002F048FE81
:103CB000606810BD10B5040005D140F2D91262A1B0
:103CC00067A002F03DFEA06910BD10B5040005D14B
:103CD00040F2E3125CA162A002F032FE606810BD07
:103CE00010B5040005D140F2ED1257A15CA002F01E
:103CF00027FE206810BD10B5040005D140F2DA326D
:103D000051A157A002F01CFE00F0A6F9606908B1AD
:103D1000012400E0002400F0B9F9204610BD10B5E0
:103D2000040005D140F2EF3247A14DA002F008FE99
:103D300000F092F9246A00F0A9F9204610BD70B590
:103D40000D46040005D140F2FF323FA144A002F02D
:103D5000F7FD00F081F92562BDE8704000F096B9EA
:103D60007FB56FF0010401AE009486E80700354886
:103D70001D4600232A4669460068FEF77DFA04B016
:103D800070BD2DE9FF412F4C074698462068154627
:103D90000E4628B940F22B422BA131A002F0D0FDF3
:103DA0004FF0FF30CDE90007CDE902650023424620
:103DB00069462068FEF768F804B0BDE8F08170B588
:103DC0000546FFF7FAF81F4E0446B068844203D256
:103DD00000F070F8012000E0002028602046B46068
:103DE00070BDF8B50D460646FEF757FE6846FFF76C
:103DF000E6FF0446009810B1FEF7C1FDF8BD11487A
:103E0000ADB101690968D9B10025311B2A460068A6
:103E1000FEF714FCFEF7B3FD0028EFD124494FF064
:103E200080500860BFF34F8FBFF36F8FF8BDA6427D
:103E3000EBD8FEF7A4FD2146304600F06EF8F8BD41
:103E40000125E2E7880000202E2E5C46726565524F
:103E5000544F535C74696D6572732E6300000000EB
:103E60004572726F723A25732C25640D0A000000AA
:103E700090060020546D725100000000546D7220B5
:103E800053766300BB3B00082E2E5C46726565527C
:103E9000544F535C74696D6572732E6300000000AB
:103EA0004572726F723A25732C25640D0A0000006A
:103EB00004ED00E0F8B52F4E27E0C068C46805683F
:103EC000201DFDF7BFFE616A20468847E069012892
:103ED0001BD1A0692844A84206D924616060211D35
:103EE000F068FDF797FE10E00020034601460090C1
:103EF0002A462046FFF7CEFD38B940F29232AFF2A3
:103F00007801AFF2640002F01BFDF068016800293F
:103F1000D3D13169C6E90310F8BDF8B50546154897
:103F20000E46C068C068C468201DFDF78BFEE069BE
:103F3000012818D1A0692B46411932462046FFF7C7
:103F40008FFD80B100200346014600902A4620469E
:103F5000FFF7A0FD38B94FF40272AFF2D401AFF20F
:103F6000C00002F0EDFC616A01B02046BDE8F040FF
:103F7000084700008800002069484068401C04D0C1
:103F8000F42268A172A002F0DBFC302080F31188DB
:103F9000BFF34F8FBFF36F8FFEE710B5031F4FF0D6
:103FA00080741C601B1F21F001011960191F6C4BEC
:103FB0000B60143940380A6010BD6A484FF47A71BA
:103FC0000068B0FBF1F14FF0E020491E416107218C
:103FD000016170471CB5644908780190FF200870A2
:103FE00008788DF800009DF800004D4A00F0300080
:103FF00010700720906007E09068401E90609DF868
:10400000000040008DF800009DF800000006F3D489
:10401000107A000200F4E060906001980870534844
:10402000016841F470010160016841F07041016074
:10403000FFF7C3FF00205060FCF712F900201CBD01
:1040400037484068B0F57A7F05D04FF4B57235A196
:104050003FA002F075BC7047302080F31188BFF399
:104060004F8FBFF36F8F2E494868401C486001286E
:104070000BD13E481C38006810F0FF0F05D04FF4FC
:10408000BD7228A132A002F05BBC704710B5244C71
:10409000606828B940F2811222A12DA002F050FCE4
:1040A0006068401E606001D180F3118810BD10B5BA
:1040B000302080F31188BFF34F8FBFF36F8FFEF76F
:1040C00001FC20B129494FF080501C3908600020C4
:1040D00080F3118810BD10B5FCF7F8F8104C1028CB
:1040E0000CD300F1E02090F8F0032178884205D24B
:1040F0004FF42A720BA116A002F022FC1B481438C0
:104100000068A16800F4E060884207D9BDE810406B
:104110004FF42E7203A10EA002F012BC10BD0000DD
:104120009C0000202E2E5C4672656552544F535CF5
:10413000706F727461626C655C525644535C41529C
:104140004D5F434D335C706F72742E63000000004E
:104150004572726F723A25732C25640D0A000000B7
:10416000793F00080000002000E400E020ED00E0BE
:1041700030B5744900E011460A688242FBD34B68AF
:104180005C18844203D1406818444860084643687C
:104190001C18944209D16B4C103C2468A24209D0EF
:1041A00052681A4442600A6812680260814200D074
:1041B000086030BD0460F9E72DE9F04105460026AE
:1041C000FEF76BFC5F4F103F386808B900F098F8B5
:1041D000F86805424ED1002D4CD0083568070BD049
:1041E00005F00700C0F108000544680704D0BF22AD
:1041F00055A15FA002F0A4FB002D3BD0786885425A
:1042000038D850490846046801E0214604466068F1
:10421000A84202D220680028F7D13868B846844204
:1042200028D00E682068086060680836401B102897
:104230000ED96719780704D0EC2243A14CA002F0F4
:104240007FFB6068401B786038466560FFF790FF31
:104250006168D8F804004246401AC8F80400D8F84B
:104260000830984200D29060D8F80C00014300203A
:10427000C4E90001FEF783FB700705D04FF4967286
:1042800031A13BA002F05CFB3046BDE8F08170B587
:1042900000282BD02B4DA0F10804103D6068E96880
:1042A000084205D14FF4A07227A131A002F048FBCB
:1042B000206828B140F2411223A12DA002F040FB5A
:1042C0006068E968084211D02268002A0ED188434C
:1042D0006060FEF7E2FB6068696808446860204639
:1042E000FFF746FFBDE87040FEF749BB70BD1548BB
:1042F000103840687047134810388068704770471E
:104300001F484FF4A041420706D0C01D1C4920F0B1
:104310000700411AC1F5A0410A4A00230144C2E93D
:1043200000030839103A21F0070111604B600B605F
:104330000B1AC0E9001393604FF000405360D06047
:1043400070470000B80000202E2E5C467265655252
:10435000544F535C706F727461626C655C4D656D37
:104360004D616E675C686561705F342E63000000AC
:104370004572726F723A25732C25640D0A00000095
:10438000B806002070B52F2102F09DFC441C14D00B
:10439000204602F0A3FC401C02F07BFA05000AD084
:1043A000204602F09BFC411C284602F00DFD2146F0
:1043B000284602F064FC284670BD002070BD70B530
:1043C000FE4D0C46B0B1012825D1286A002822D024
:1043D00054B101F06EF80646214605F1300000F0B8
:1043E000D9FA304601F06AF8A86ABDE870400221A7
:1043F00001F025B8286800280DD054B101F059F813
:104400000646EE482146103000F0C4FA304601F06E
:1044100055F8A868E9E770BD2DE9F843046800275E
:104420008146483450E07E2A5DD10E18401C00F0D1
:104430007F00A060484600F0BCFA0546B04201D3B8
:10444000A81B04E02068871B281A80373844009096
:104450004FF4E572DAA1801C01F008FA5FEA000867
:1044600041D0B54202D33146009A07E03A46314680
:1044700002F05DFC216808EB07006A1A02F057FCA5
:10448000D9F80000006800282BD00125CCA0FFF748
:1044900079FF064602464FF4F373CF49CFA002F0EE
:1044A0004FFA2A46D0A0009902F04AFA304602F0AC
:1044B0001FFA6A464146284601F0CAF840F2EB125C
:1044C000BFA1404601F014FBD4E90101802200F0B5
:1044D0002EFC012807DB2168A0680A5C232AA4D0EF
:1044E000A1E70025D2E7BDE8F88395E70446B4A02C
:1044F000FFF748FFB8490546024640F23B130E4617
:10450000B6A002F01DFAC0A002F01AFA284602F086
:10451000EFF94FF4A17500224146606800F0A8FF52
:104520000028F8D1A6A0FFF72DFF074602462B462C
:104530003146AAA002F004FABBA002F001FA384604
:1045400002F0D6F92046FFF767FFE4E72DE9F047D0
:10455000054601F018F8804600F0ABFF064605F16D
:10456000100951E0484600F01DFA08B1002400E0AF
:104570002C69304600F0A2FFA06808B1012840D1A4
:10458000218A6069A2690144286800F02DFC064672
:10459000208A304420828AA0FFF7F4FE07460246B4
:1045A00040F219238C498DA002F0CAF9228A3146C3
:1045B000A5A0A36902F0C4F9384602F099F9208A4F
:1045C000A16988421AD340F21D227DA1606901F0E1
:1045D0008FFA0026268200F06CFF0746D4E900011E
:1045E0004160D4E9000108602660214608F10C0012
:1045F000666000F0CFF9384600F060FF286800F0F0
:1046000015FC00F056FF0646484600F0CBF900289E
:10461000A8D03046BDE8F04700F050BF044668A07F
:10462000FFF7B0FE064602464FF4A7736A496BA037
:1046300002F086F98EA002F083F9304602F058F9B4
:1046400000222946A06800F013FF0028F8D1204678
:10465000FFF77CFFF4E7604D044600264FF48B78AB
:1046600000223146606800F003FF0028F8D154A012
:10467000FFF788FE074602464346294657A002F048
:104680005FF983A002F05CF9384602F031F9204668
:10469000FFF7C2FEE4E70446002549A0FFF772FEDB
:1046A0004D490646024640F2231388464BA002F0CD
:1046B00047F97EA002F044F9304602F019F94FF4B0
:1046C000957600222946A06800F0D2FE0028F8D195
:1046D0003BA0FFF757FE07460246334641463FA040
:1046E00002F02EF97CA002F02BF9384602F000F916
:1046F0002046FFF72BFFE4E7304910B5203130B1F9
:10470000886810B1022100F09AFE002010BD4FF021
:10471000FF3010BD294910B5203130B1486810B1C3
:10472000012100F08CFE002010BD4FF0FF3010BDC5
:1047300010B5224930B1886810B1022100F07FFE27
:10474000002010BD4FF0FF3010BD10B51B4930B137
:10475000486810B1012100F072FE002010BD4FF03A
:10476000FF3010BD2DE9FC41050004D0012D10D013
:104770000020BDE8FC81114C2021204602F046FBC0
:104780005C48206000205C4900F007FC00205B4989
:104790000EE00A4C20212034204602F037FB554819
:1047A000574984302060012000F0F7FB0120554973
:1047B00000F0FCFB04F110002061A5E0B8560020D9
:1047C0002E2E5C5441534B5C6D705F756172745F4B
:1047D0007461736B2E630000FC0000205B25732D59
:1047E00025732D25645D0900636D645F6C656E2023
:1047F0003D2025642C756172745F74797065203D6D
:104800002025640A00000000212121746C735F756B
:104810006172745F325F72785F7461736B2073745E
:104820006172742121210A00212121212121556158
:1048300072743220526563762044617461212121B3
:104840002121210A0000000077726974655F636EA0
:1048500074203D2025642C6F6666736574203D20AE
:1048600025642C6275666C656E203D2025640A0007
:10487000212121746C735F756172745F325F74788B
:104880005F7461736B2073746172742121210A005B
:104890002121212121215561727431205278204437
:1048A0006174612121212121210A0000212121217E
:1048B00021217461736B2075617274207478206398
:1048C0007265617465207375636365656421212178
:1048D0002121210A000000002121212121215561EF
:1048E0007274312054782044617461212121212186
:1048F000210A0000F85600204B4700083147000805
:1049000015470008F946000800264FF4007760615B
:10491000D5B10520CDE9000623463A4645A14848D1
:10492000FDF758FF0620CDE9000623463A4645A18B
:104930004748FDF74FFF201D00F06FFD04F1080010
:1049400000F06BFD204614E70720CDE90006234662
:104950003A4640A14248FDF73DFF0820CDE9000658
:1049600023463A463FA14248E3E710B500F00BFE6C
:10497000044640213F4802F049FA0021084600F071
:10498000B7FA002805D1FFF7EDFE002801D03A481C
:10499000606110BD40680268C1E900200268516092
:1049A000016070470168814201D1012070470020F9
:1049B000704770B5024604681268D4E91310926C0F
:1049C00048340244814207D9091A104600F02EF8F3
:1049D000050013D001460EE0C0F18001104600F042
:1049E00025F80500F6D1D4E9000100F01FF8050014
:1049F00004D005F18001204600F00BF82168A06882
:104A0000095C0D2903D1401C00F07F00A0602846FE
:104A100070BD036882681344C91A802901D94168AE
:104A200002E0114401F07F01816070470A460D21C8
:104A300002F073B955415254325F545800000000DF
:104A40001D46000855415254325F52580000000084
:104A5000ED44000855415254315F545800000000A5
:104A60009746000855415254315F525800000000EB
:104A700057460008B8560020BF4300087047010998
:104A800000F00F0001EB810100EB4100C0B2704764
:104A900030B504460020014601228D0024FA05F3BA
:104AA00003F00F0303FB020002EB8202491C5200D9
:104AB000C9B20829F1D330BD0A21B0FBF1F2B2FB33
:104AC000F1F301FB1322B0FBF1F301FB130000EB48
:104AD0000210C0B270476421B0FBF1F3002242EA39
:104AE0000322B0FBF1F301FB13000A21B0FBF1F349
:104AF00042EA0312B0FBF1F301FB130010437047CD
:104B00004FF47A71B0FBF1F3002242EA0332B0FBBA
:104B1000F1F301FB13006421B0FBF1F342EA03223D
:104B2000B0FBF1F301FB13000A21B0FBF1F342EA01
:104B30000312B0FBF1F301FB130092B21043704774
:104B400010B50022401E80B2824206D28B5C0C5C03
:104B50008C54521C0B5492B2F4E710BD4FF6FF7206
:104B600002EA00200843704700090A2801D33730C1
:104B700070473030704700F00F000A2801D33730FB
:104B800070473030704700B50346FFF7EDFF02462F
:104B90001846FFF7F0FF0A70487000BD30B500F00E
:104BA0000F02C0F303240D461046FFF7ECFFA91CCB
:104BB0002046BDE83040E6E730B5C2B2C0F3074456
:104BC0000D461046FFF7EAFF291D2046BDE830409C
:104BD000E4E7A0F13001092901D8C8B27047A0F17B
:104BE0004101052901D8373804E0A0F16101052908
:104BF000F4D85738C0B2704700B50B46FFF7E9FF4D
:104C000002461846FFF7E5FF40EA0210C0B200BDB9
:104C1000F0B54F0804460646002509E014F8010BDC
:104C200014F8011BFFF7E8FF6D1C06F8010BADB28D
:104C3000BD42F3D3F0BDA0F14101192901D82030C4
:104C4000C0B2704710B50C460246002306E010784B
:104C5000FFF7F1FF5B1C02F8010B9BB2A342F6D3F6
:104C600010BD034610B50020024605E013F8014BC5
:104C7000521C204480B292B28A42F7D310BD70B564
:104C8000064600240DE012F8010B4140002011F00F
:104C9000010F4FEA510100D07140401C0828F6DB9B
:104CA000641C9C42EFDB084670BDF0B51E461746FB
:104CB0008C46059C0546324639466046A31EFFF7E2
:104CC000DEFF4FF6FF73311955B111F8022D497807
:104CD00003EA0222114489B2884208D10120F0BDC2
:104CE00011F8012C11F8021C03EA0222F2E700205D
:104CF000F0BD000070B52F2101F0E5FF441C14D079
:104D0000204601F0EBFF401C01F0C3FD05000AD076
:104D1000204601F0E3FF411C284602F055F82146E9
:104D2000284601F0ACFF284670BD002070BD401A37
:104D3000521E104070470B46411C1846F7E72DE9FC
:104D4000F0410E46FF4900EB401001EB800505F1F4
:104D500048048022D4E90101FFF7EDFF022812DCAC
:104D6000686C401C6864F8A0FFF7C4FF0746024661
:104D70002123FB49FBA001F0E3FDFDA001F0E0FDD4
:104D8000384601F0B5FDD4E9000146542079401CB5
:104D900000F07F006060E86A401CE862BDE8F081D6
:104DA000E84900EB401001EB800101F148004A6F37
:104DB000002A05D003688068898D184489B210479D
:104DC0007047816840688022B1E7D0E901108142D4
:104DD00001D10120704700207047DA4900EB4010F4
:104DE00001EB800000F00EBA2DE9F04100F154050E
:104DF000406D16468846002708B9781ECEE7A642C1
:104E000000D23446002C0FDDD5E9000108442246CB
:104E1000414601F08CFF2879A044204400F07F0037
:104E2000361B27446860EAE73846B7E770B500F1FB
:104E3000540400F03EFB054609E0A1682068405C90
:104E4000FCF71AF9207A401C00F07F00A060204691
:104E5000FFF7BBFF0028F0D02846BDE8704000F007
:104E60002DBB7FB5BE4E044614360D4656F82400C1
:104E70000021FCF750FD34B1012C07D0032C08D0E1
:104E8000042C09D00AE0FCF710F807E0FCF754F80E
:104E900004E0FCF789F801E0FCF7BFF8286800900F
:104EA000A888ADF804006889ADF80600E888ADF878
:104EB00008002889ADF80C000C20ADF80A0056F85F
:104EC00024006946FCF7B4FC56F824000121FCF7E5
:104ED00022FD56F82400012240F22551FCF725FD61
:104EE00056F82400012240F22441FCF71EFD7FBD4C
:104EF0002DE9FE430F4605004FF0FF3802D0012D8B
:104F000006D041E084218F4801F080FF8D4C05E000
:104F10008C4884218430044601F078FF0026256007
:104F20002FB339462846FFF79CFF01202075F72252
:104F300085A1802000F09AFC050025D0802101F099
:104F400043FFC4E912564FF482727FA18020266588
:104F500000F08CFC070019D0802101F035FFC4E976
:104F600015761020E665A0610020BDE8FE834FF4B1
:104F70001650ADF80460ADF808600090ADF806601A
:104F8000ADF80A606946CDE74046EEE740F2071209
:104F90006DA1284600F0ACFDF6E76A4A20B1012871
:104FA00001D1C2F8F810704751677047654A20B1C7
:104FB000012801D1C2F800117047D16770472DE96F
:104FC000F04114460D46070018D0BCB1D4E90101E8
:104FD0008022FFF7ACFEA84200DA0546A06841191E
:104FE00080290ED92168C0F1800601443246384636
:104FF00001F09DFEAA1BB819216806E04FF0FF30B2
:10500000CCE621682A460144384601F090FE207A19
:10501000284400F07F00A0602846BFE610B5494C48
:105020000120802184F8EC00D4F8CC00843401F015
:10503000CBFE0020E0642065E062616FC4E91D01E1
:10504000E16FC4E91F0110BD70B53E4C0025802101
:1050500084F8EC5054F8CC0F01F0B6FE6560A56002
:10506000206BC4E90B05A06BC4E90D0570BD10B53C
:10507000040013D0B4F8702072B1E16EFFF7B4FEF3
:10508000002809DBB4F87010814205DB091AA4F886
:105090007010E16E0844E066002010BD4FF0FF3054
:1050A00010BD70B5274C0B46050004F1840403D0F5
:1050B00013B1B4F8700010B14FF0FF3070BD002094
:1050C00020632F490120FFF771FFE5661A46A4F817
:1050D000703029462046FFF787FE00280EDBB4F823
:1050E000701081420ADBE16E0144E166B4F8701091
:1050F000081AA4F870002046FFF798FE002070BD43
:105100001048B0F8F40008B1002070470120704743
:105110000C48D0F8B400704770B50A4C06460D46EE
:10512000D4F8E8000021843400F0EDF850B306A074
:10513000FFF7E0FD0A49044602464FF416733C3976
:1051400008A020E0F85600202E2E5C555345524C06
:1051500049425C6D705F756172742E6300000000DF
:10516000740100205B25732D25732D25645D0900D6
:10517000727820627566206F76657272756E0A00AD
:105180006F5000080AE001F0DBFB37A001F0D8FB0C
:10519000204601F0ADFB4FF0FF3070BD2946304690
:1051A000FFF77FFF0021606E00F0BDF8606E00F039
:1051B000B5F80020606670BD314A00E70146012065
:1051C000EBE601460120F1E6511A0844521E104058
:1051D000884200DB08467047101A401E0144521EE8
:1051E0001140814201DC08467047401C7047101A8C
:1051F000401E0144521E1140814201DA08467047A8
:10520000401C704770B5054600F154044026204606
:10521000FFF7DBFD98B1686E002824D0BDE8704030
:1052200000F092B8A1682068405CFBF725FF207A67
:10523000401C00F07F00A060286B401C28632046C3
:10524000FFF7C3FD18B9301EA6F10106EADC2046BF
:10525000FFF7B7FD402806DAE96F002903D028469A
:10526000BDE87040084770BD0A74782073656D20F2
:10527000637265617465206661696C0A00000000F4
:10528000C457002010B50120FCF7ADFE08B1002086
:1052900010BD012010BD10B5FDF771F9002010BD43
:1052A00010B549B10A4600231946FCF7F2FEC0B218
:1052B000012804D0012010BD4FF0FF32F3E7002099
:1052C00010BD38B5054600200090FBF74BFF0400E9
:1052D0000CD069462846FDF733F8C5B2009801287E
:1052E0000BD1012C09D1FDF703FD06E000231A467E
:1052F00019462846FCF7C8FDC5B2012D01D0012092
:1053000038BD002038BD10B504460520FCF795FFD8
:10531000206008B1002010BD012010BD10B5FDF7C0
:105320002EF9002010BD10B549B10A4600231946D8
:10533000FCF7AFFEC0B2012804D0012010BD4FF031
:10534000FF32F3E7002010BD38B50446002000907E
:10535000FBF708FF20B169462046FCF7F1FF05E0A6
:1053600000231A4619462046FCF78EFDC0B20128DC
:1053700001D0012038BD002038BD10B50B460446D1
:10538000002204211846FCF7AFFC206008B1002081
:1053900010BD012010BD10B5FDF7F1F8002010BDC3
:1053A00013B582B0044600200090FBF7DBFE4FF0FF
:1053B000000328B16A4603A92046FCF75DFF04E01C
:1053C000002203A92046FCF75FFDC0B2012802D0ED
:1053D000012004B010BD0020FBE7F8B50646002010
:1053E0000D4600904AB11446FBF7BCFE40B16A4638
:1053F00029463046FCF7FAFF08E04FF0FF34F3E7A8
:105400000023224629463046FCF743FEC0B201285D
:1054100001D00120F8BD0020F8BD10B504460322DC
:1054200000210120FCF760FC206008B1002010BDC5
:10543000012010BD10B5FDF7A2F8002010BD38B551
:10544000044600200090FBF78DFE20B169462046FF
:10545000FCF776FF05E000231A4619462046FCF7C4
:1054600013FDC0B2012801D0012038BD002038BD95
:1054700038B50546002000904AB11446FBF772FE8D
:1054800040B16A4600212846FCF7B0FF08E04FF023
:10549000FF34F3E70023224619462846FCF7F9FDBE
:1054A000C0B2012801D0012038BD002038BDFDF771
:1054B00087BD10B5FEF7D0FD012010BDFEF7E6BD9B
:1054C00038B5044604981D4601B901210090002317
:1054D0002846FEF7BFFB206008B1002038BD012040
:1054E00038BD38B505460024FDF767FD02460023A8
:1054F000012128460094FEF7CDFA38BD38B505469F
:10550000002401B901210A46002304210094FEF77A
:10551000C1FAFDF752FD02460023012128460094FE
:10552000FEF7B8FA38BD08B500210B460A460091CF
:105530000321FEF7AFFA08BD08B50A210023009148
:105540001A460521FEF7A6FA08BD000070B52F2106
:1055500001F0B9FB441C14D0204601F0BFFB401CF5
:1055600001F097F905000AD0204601F0B7FB411C75
:10557000284601F029FC2146284601F080FB2846F8
:1055800070BD002070BD6A48704770B5684C1C2122
:10559000204601F03BFC04F10C00E060206100209B
:1055A000A4F58C732269C0EBC00103EB810116687E
:1055B000C1E900621668401C0A2871601160F1DBC5
:1055C000284670BD70B50446FFF773FF054604F129
:1055D0000C00064600F0A4F808B100240FE03046A5
:1055E00000F09EF808B1002400E0E468D4E900016E
:1055F0004160D4E900010860002020606060284616
:10560000FFF75CFF204670BD2DE9F047484C15467A
:105610000E0082464FF0FF3918D0BDB100274FF081
:10562000010810B1BAF1010F0DD12046FFF7CAFFF2
:1056300001000BD00F82C1F80880C1E905656269DD
:105640000AB1504690470020BDE8F0874846FBE786
:105650002DE9F04796B0402791468A464FF0FF3833
:10566000149718B101282ED1012600E00026AE22A1
:1056700030A1402000F0FAF8364D040013D050213C
:10568000684601F0C3FB4A465146684600F078FE82
:1056900002281BD0012825D014AA21466846149759
:1056A00000F0C5FF2EE023A0FFF750FF044602469E
:1056B000B223294628A001F043F92AA001F040F9BD
:1056C000204601F015F9404616B0BDE719A0FFF7D6
:1056D0003DFF07460246BC2329461FA001F030F9D2
:1056E00027A00AE013A0FFF731FF07460246C223B6
:1056F000294619A001F024F927A001F021F9384624
:1057000001F0F6F821463046149AFFF77DFF0500B8
:1057100004D0DD2207A1204600F0EAF92846D3E7AD
:105720000168814201D101207047002070470000CC
:10573000185900202E2E5C555345524C49425C6D41
:10574000705F70726F746F636F6C5F686F73746992
:10575000662E6300B00100205B25732D25732D2577
:10576000645D0900636D647273705F6275662061C9
:105770006C6C6F63206661696C65640A00000000F0
:10578000636D6420636865636B2073756D2065725B
:10579000726F720A0000000072657475726E207676
:1057A000657273696F6E206572720A0010B5164CCF
:1057B0000020411C24F8101088B20428F9D31248A4
:1057C00012A1083001F05BFA0F4812A10F3001F06E
:1057D00056FA0D4811A1163001F051FA0A4815A1E8
:1057E0002B3001F04CFA1648206410BD7047042895
:1057F00001D900207047044931F810007047024A6F
:1058000022F8101070470000345900205630312E15
:10581000313300005630312E30300000B4B4C1A610
:10582000B5E7D7D3B9C9B7DDD3D0CFDEB9ABCBBEDF
:1058300000000000CBABC3C5BFD8D6C6C6F700007A
:10584000E8F7FF1F7CB5FB4E012534680BE0D4E977
:105850000401CDE900012946F7A0A368A26901F07F
:105860006FF824686D1CB442F1D17CBD2DE9FE4F68
:1058700092468B4606460024FFF71BFEED4D804600
:10588000143D2878E0B901202870014605F1100088
:10589000FFF739FD10B1F6A001F052F8E5480060BD
:1058A0004060083000604060FE4FC4EBC40007EB6E
:1058B0008001E048083000F01EFB641CC82CF4DBBB
:1058C0004046FFF7FBFD0021A8462869FFF72BFDA6
:1058D000FFF7EFFD029006F00300C0F1040706EBAE
:1058E000070909F1080000F0D4FF040047D0D148AF
:1058F000083000F012FB88B1EBA001F021F8FFF7AF
:10590000A1FF204600F0F4FF0298FFF7D7FDD8F87A
:105910001000FFF719FD0020BDE8FE8FC5480830D4
:1059200000F0FBFA08B1002502E0C2480830056823
:10593000284600F0E8FA2946BE4800F0DCFAD8F81C
:10594000042009EB02000830C8F80400D8F8082049
:10595000521CC8F80820D8F80C20904201D9C8F889
:105960000C00C5F808B0C5E90564C5E9037AD44858
:105970002060A0193844D349241D41600BE0D8E9C8
:105980000101CDE90001334652465946CE4800F0A8
:10599000D7FFFFF757FF0298FFF790FDD8F81000E8
:1059A000FFF7D2FC2046B7E72DE9FF4F83B08846CA
:1059B00006460024FFF77DFD9E4D8146143D287864
:1059C000E0B901202870014605F11000FFF79BFCAB
:1059D00010B1A7A000F0B4FF9648B24F006040603D
:1059E000083000604060C4EBC40007EB80019148C0
:1059F000083000F080FA641CC82CF4DB4846FFF73E
:105A00005DFD0021A9462869FFF78DFCFFF751FDD8
:105A100006FB08FA02900AF00300C0F1040707F140
:105A2000080B06FB08B000F034FF04004BD081489F
:105A3000083000F072FA90B19BA000F081FFFFF7F0
:105A400001FF204600F054FF0298FFF737FDD9F818
:105A50001000FFF779FC002007B0BDE8F08F754813
:105A6000083000F05AFA08B1002502E07148083009
:105A70000568284600F047FA29466E4800F03BFAD0
:105A8000D9F8042006FB082202EB0B00C9F8040039
:105A9000D9F80820521CC9F80820D9F80C209042E7
:105AA00001D9C9F80C00EF600598A8600698AC61B0
:105AB000C5E9040A8248206006FB08403F1D814971
:105AC000C151241D0BE0D9E90101CDE90001DDE957
:105AD000051253467C4800F033FFFFF7B3FE0298EF
