:020000040800F2
:1000000040780020E51C0008E7020008E90200082B
:10001000EB020008ED020008EF02000800000000FB
:100020000000000000000000000000003D02000889
:10003000F10200080000000081020008DD1800083D
:10004000FF1C0008FF1C0008FF1C0008FF1C000824
:10005000FF1C0008FF1C0008FF1C0008FF1C000814
:10006000BD0F0008FF1C0008FF1C0008FF1C000853
:10007000FF1C0008FF1C0008FF1C0008FF1C0008F4
:10008000FF1C0008FF1C0008FF1C0008FF1C0008E4
:10009000FF1C0008FF1C0008FF1C0008EB0E0008F6
:1000A000FF1C0008FF1C0008FF1C0008FF1C0008C4
:1000B000FF1C0008FF1C0008FF1C0008FF1C0008B4
:1000C000FF1C0008FF1C0008FF1C0008FF1C0008A4
:1000D000FF1C00080D1C00088B1C0008FF1C0008FA
:1000E0008B0F0008FF1C0008FF1C0008FF1C000805
:1000F000FF1C0008FF1C0008FF1C0008FF1C000874
:10010000FF1C0008FF1C0008FF1C0008FF1C000863
:10011000FF1C0008FF1C0008FF1C0008FF1C000853
:10012000FF1C0008FF1C0008FF1C0008FF1C000843
:1001300000F002F800F072F80AA090E8000C824487
:100140008344AAF10107DA4501D100F067F8AFF264
:10015000090EBAE80F0013F0010F18BFFB1A43F0A5
:10016000010318478C800000AC8000000A444FF067
:10017000000C10F8013B13F0070408BF10F8014B06
:100180001D1108BF10F8015B641E05D010F8016B4B
:10019000641E01F8016BF9D113F0080F1EBF10F8AF
:1001A000014BAD1C0C1B09D16D1E58BF01F801CBD2
:1001B000FAD505E014F8016B01F8016B6D1EF9D555
:1001C0009142D6D37047000000230024002500266A
:1001D000103A28BF78C1FBD8520728BF30C148BFAA
:1001E0000B607047702907F0EB83642907F0788370
:1001F000752907F07583782907F0D583632907F0FF
:100200006286732907F06786002070471FB59DE856
:10021000030007F0A1FD1FBD10B510BD07F0CDFE16
:100220001146FFF7F3FF00F055F807F0EBFE03B4BB
:10023000FFF7F2FF03BC01F0BDFB0000224B196881
:100240000868B0E8F00F80F30988BFF36F8F4FF0B4
:10025000000080F311884EF00D0E70470000000082
:1002600006480068006880F3088862B661B6BFF38C
:100270004F8FBFF36F8F00DF00BF00BF08ED00E0BE
:10028000EFF30980BFF36F8F0F4B1A6820E9F00F6F
:10029000106008B54FF0300080F31188BFF34F8F26
:1002A000BFF36F8F03F0EEFB4FF0000080F3118877
:1002B000BDE8084019680868B0E8F00F80F30988C5
:1002C000BFF36F8F704700BF68000020EFF3058019
:1002D0007047000010B500F075F900F0B7F803F0B2
:1002E000E9FC002010BD7047FEE7FEE7FEE7FEE7F1
:1002F000704700000CB500224C4800920192016842
:1003000041F4803101604FF4A063016801F40031D1
:1003100001910099491C0091019911B900999942E4
:10032000F3D10168890333D50121019140490A685D
:1003300042F010020A600A6822F003020A600A68AA
:1003400042F002020A6041684160416841604168D0
:1003500041F480614160416821F47C114160416851
:1003600041F4E8114160016841F080710160016869
:100370008901FCD5416821F003014160416841F0E9
:10038000020141604168C1F381010229FAD10CBD2B
:1003900001920CBD254810B5016841F001010160D2
:1003A0004168244A114041600168234A11400160BC
:1003B000016821F480210160416821F4FE0141605F
:1003C0004FF41F018160FFF795FF1C494FF000605B
:1003D000086010BD154A10B55068194B10F00C019B
:1003E000184803D0042901D0082901D0036012E085
:1003F0005168536801F470114FF0020413F4803F08
:1004000004EB914102D053689B0301D50E4B00E0F1
:100410000B4B5943016051680A4AC1F30311121D85
:10042000515C0268CA40026010BD0000001002402A
:10043000002002400000FFF8FFFFF6FE08ED00E09C
:1004400000127A000000002000093D0010B505F000
:100450000CFFBDE8104005F008B9000038B50121D7
:10046000482001F0F6FE4FF48074ADF800401020F3
:100470008DF8030003204C4D8DF802006946284694
:1004800001F0FFFC2146284601F065FD0120474CA4
:10049000ADF800006946204601F0F3FC012120463A
:1004A00001F059FD38BD2DE9F0410825404E414F7E
:1004B00000244FF47A78404601F050FAD6F8A001B3
:1004C00070B10020C6F8A001D7F8800150B100201B
:1004D000C7F88001641CE4B2AC42ECD3BDE8F08103
:1004E0000120EFE70120F3E702463148D0F8A031C0
:1004F0003148934205D100294FF040010AD001F064
:100500002CBD2C4BD3F88031934205D100294FF0FC
:100510008001F4D101F01FBD704710B5274CA088B1
:10052000401C80B2A080A17801EB8101B0EB810F6B
:1005300008D1607880F0010161702078FFF7D4FF66
:100540000020A08010BD38B51C4CE2780AB1002014
:1005500038BD0022A280C0B22070A170012161705C
:10056000E170FFF7C1FF16480090144800230122F4
:100570004FF4FA71083005F013FEA06805F021FE73
:10058000012038BD10B50D4CE07800280AD0A068D5
:1005900005F039FEA06805F03FFE00212078FFF746
:1005A000A3FF012010BD0000000C01400018014015
:1005B0000080214200002342001C01401400002062
:1005C0001B05000810B54FF4407001F0ABFB01F0C3
:1005D0008FF9012010BD10B5FFF765FF00F02AFE6E
:1005E00001F0DFF8BDE8104000F01AB838B501217D
:1005F000042001F02EFE4FF48054ADF8004003209B
:100600008DF802001420274D8DF803006946284616
:1006100001F037FC21462846BDE8384001F09BBC7C
:100620002DE9F04103251F4F00244FF480564FF46D
:1006300096783146384601F090FC404601F0A7F923
:100640003146384601F087FC404601F0A0F9641CB1
:10065000E4B2AC42EDD3BDE8F0812DE9F0470D46A0
:1006600000244FF48058DFF83C900F4E00FB05F754
:100670004FF4FA6A10E04146484601F06EFCB6FBC2
:10068000F5F001F053F94146484601F064FCB6FB31
:10069000F5F001F04BF9641CB7FBFAF0A042EAD880
:1006A000BDE8F0870008014040420F007CB5644E71
:1006B0000124346000F0C6F8684600F0CDFA9DF8D9
:1006C000060040F6980100F5FA60884213D98DF8CB
:1006D00004408DF805400A2000258DF8060000959D
:1006E000684600F009FB684600F0B6FA9DF806007F
:1006F0000A2800D035607CBD02784FF0FF313C2ADB
:100700000BD242783C2A08D28278182A05D2027984
:100710001F2A02D840790C2801D9084670470020CA
:10072000704710B5044600F0E7FA38B1204600F0F3
:10073000E3FA18B142490020086010BD012010BD45
:100740002DE9F04100243E4E07462546384600F08C
:1007500083FA20B1384600F07FFA00B13560641C9E
:10076000E4B23846FFF7C8FF08B1042CEED3042CDE
:1007700002D00120BDE8F081384600F031F80020B9
:10078000F8E72DE9F0418E7905460C4606F5FA6644
:10079000300A294605F064F829466D1CF0B205F0D0
:1007A0005FF829466D1C607905F05AF829466D1CE2
:1007B000207905F055F829466D1CE07805F050F8D1
:1007C00029466D1CA07805F04BF829466D1C607811
:1007D00005F046F820782946BDE8F04105F040B81C
:1007E00004E03C3901704178491C417001783C2992
:1007F000F7D204E03C3941708178491C817041781E
:100800003C29F7D204E0183981700179491C017143
:1008100081781829F7D204E01F3901714179491C08
:10082000417101791F29F7D804E00C3941718179B0
:10083000491C817141790C29F7D8002070470000CC
:100840002000002038B50121402001F002FD0820E1
:10085000ADF8000003248DF802401020FD4D8DF806
:1008600003006946284601F00CFB0421ADF8001096
:100870008DF8024014208DF803006946284601F0E7
:1008800000FB38BD70B500F038FAF24C0421204668
:1008900001F061FB0821204601F05DFB00F03CFA0D
:1008A0000421204601F043FB4FF0FF3550B10421F5
:1008B000204601F052FB00F02FFA0421204601F0FF
:1008C00036FB08B1284670BD0821204601F045FBE3
:1008D00000F022FA002070BD10B500F00EFADD4CD9
:1008E0000421204601F039FB0821204601F035FBA8
:1008F00000F012FA0821204601F02DFB00F00CFA5E
:100900002046BDE81040042101F025BB38B5D14D8B
:10091000FF240821284601F020FB0421284601F08D
:100920001AFB0421ADF8001003218DF802104820B5
:100930008DF803006946284601F0A3FA00F0ECF9AF
:100940000821284601F007FB00F0E6F903E0641EE9
:1009500014F0FF040BD00421284601F0E8FA002827
:10096000F5D10821284601F0F8FA002038BD082109
:10097000284601F0F2FA4FF0FF3038BDF8B50824F0
:100980000546B44E05271BE001F0E7FA00970098F2
:10099000401E00900028FADC28064FF00401304683
:1009A00002D501F0D8FA01E001F0D7FA00F0B4F96D
:1009B0000821304601F0CFFA00F0AEF96806050EC6
:1009C000641EE4B24FF008013046DDD2BDE8F840C5
:1009D00001F0C3BA2DE9F0418046FFF753FF4FF015
:1009E000FF3410B12046BDE8F0816520FFF7C6FF57
:1009F000FFF78CFF10B1FFF76FFFF3E7954F00256E
:100A0000002408260421384601F0A5FA18E0600603
:100A1000040E0821384601F0A0FA00F07DF900F03C
:100A20007BF90821384601F096FA00F075F900F0DC
:100A300073F90421384601F07AFA08B144F0010450
:100A4000761EF6B2E3D20821384601F086FA08F89D
:100A50000540062D15D000F050F90421384601F06C
:100A60007CFA0821384601F078FA00F055F908219F
:100A7000384601F070FA00F04FF90821384601F0CD
:100A80006CFA6D1CEDB2072DBAD300F036F90421D3
:100A9000384601F060FA0821384601F05EFA00F0AD
:100AA0003BF90821384601F056FA00F035F90821E3
:100AB000384601F052FAFFF70FFF002093E770B5B8
:100AC000054600F036F9FFF7DDFE4FF0FF3408B1C0
:100AD000204670BD6420FFF751FFFFF717FF10B1EC
:100AE000FFF7FAFEF4E700F008F90020FFF746FFF1
:100AF000FFF70CFF00F001F928780A24B0FBF4F1AD
:100B000004FB1101B0FBF4F041EA0010C0B2FFF7A2
:100B100035FFFFF7FBFE00F0F0F86878B0FBF4F16A
:100B200004FB1101B0FBF4F041EA0010C0B2FFF782
:100B300025FFFFF7EBFE00F0E0F8A878B0FBF4F13A
:100B400004FB1101B0FBF4F041EA0010C0B240F028
:100B50008000FFF713FFFFF7D9FE00F0CEF8E8782A
:100B6000B0FBF4F104FB1101B0FBF4F041EA00101A
:100B7000C0B2FFF703FFFFF7C9FE00F0BEF8287907
:100B8000B0FBF4F104FB1101B0FBF4F041EA0010FA
:100B9000C0B2FFF7F3FEFFF7B9FE00F0AEF86879D8
:100BA000B0FBF4F104FB1101B0FBF4F041EA0010DA
:100BB000C0B2FFF7E3FEFFF7A9FE00F09EF8A879A8
:100BC000B0FBF4F104FB1101B0FBF4F041EA0010BA
:100BD000C0B2FFF7D3FEFFF799FEFFF77DFEFFF7E8
:100BE00051FE6420FFF7CAFEFFF790FE00F085F883
:100BF0001220FFF7C3FEFFF789FE00F07EF8002009
:100C0000FFF7BCFEFFF782FEFFF766FEFFF73AFE36
:100C100038B96420FFF7B2FEFFF778FE18B1FFF78E
:100C20005BFE002070BD00F068F80F20FFF7A6FE05
:100C3000FFF76CFE00F061F80020FFF79FFEFFF762
:100C400065FE00F05AF80020FFF798FEFFF75EFE01
:100C5000E5E700000018014010B50446FFF7BAFEB2
:100C600010B14FF0FF3010BD207800F00F01C0F33D
:100C7000021000EB800001EB40002070607800F073
:100C80000F01C0F3021000EB800001EB4000607028
:100C9000A07800F00F01C0F3021000EB800001EB20
:100CA0004000A070E07800F00F01C0F3021000EBEC
:100CB000800001EB4000E070207900F00F01C0F3EC
:100CC000021000EB800001EB40002071607900F021
:100CD0000F01C0F3021000EB800001EB40006071D7
:100CE000A07900F00F01C0F3021000EB800001EBCF
:100CF0004000A071002010BDE1E608B50420ADF869
:100D0000000003208DF8020014208DF803006946CE
:100D1000254801F0B6F808BD08B500208DF80000A0
:100D20009DF80000082803D29DF80000401CF5E75C
:100D300008BD10B5FFF7A6FD4FF0FF3408B12046FF
:100D400010BD6420FFF71AFEFFF7E0FD10B1FFF7BA
:100D5000C3FDF4E7FFF7D1FF1020FFF70FFEFFF709
:100D6000D5FDFFF7CAFF8020FFF708FEFFF7CEFD95
:100D7000FFF7B2FDFFF786FD6420FFF7FFFDFFF7E9
:100D8000C5FDFFF7BAFF0F20FFF7F8FDFFF7BEFD27
:100D9000FFF7B3FF8420FFF7F1FDFFF7B7FDFFF783
:100DA0009BFD002010BD0000001801407FB501210F
:100DB000312001F04EFA4FF40070ADF800008B4D79
:100DC00004248DF803406946284601F05AF80921A9
:100DD000032001F00AF9A001ADF800008DF80340EE
:100DE0006946284601F04DF80821032001F0FDF87E
:100DF000ADF800408DF803406946284601F041F8FF
:100E00000221032001F0F1F8A002ADF800008DF8F6
:100E100003406946764801F034F80C21022001F0C5
:100E2000E4F84020ADF800008DF8034069462846FC
:100E300001F027F80621032001F0D7F82020ADF8B3
:100E400000008DF803406946284601F01AF8052194
:100E5000032001F0CAF841F26430002402908DF8BA
:100E60000C4010208DF80D0001258DF80E5002A8C1
:100E700001F0E0FB17208DF804008DF805408DF897
:100E800006408DF8075001A800F051FF28208DF88A
:100E900004008DF805408DF806408DF8075001A834
:100EA00000F045FF08208DF804008DF805408DF80E
:100EB00006408DF8075001A800F039FF7FBD08B546
:100EC0000121202001F0C5F94FF48050ADF8000059
:100ED00003208DF8020014208DF803006946434872
:100EE00000F0CFFFBDE8084060E770B54FF48075B3
:100EF000284601F0EFFB3D4C60B1284601F0F8FBBD
:100F00002946204601F013F810B10121002011E01C
:100F10000021FBE74FF40075284601F0DBFB58B1D8
:100F2000284601F0E5FB2946204601F000F890B183
:100F30000121012006F0ECFB202001F0CBFB70B179
:100F4000202001F0D5FB2021204600F0F0FF20B149
:100F50000121002012E00021EBE70021F9E7402009
:100F600001F0B8FB00280FD0402001F0C1FB402168
:100F7000204600F0DCFF28B101210120BDE87040CF
:100F800006F0D7BB0021F8E770BD10B54FF48054D0
:100F9000204601F09FFB00280FD0204601F0A8FB5F
:100FA0002146134800F0C3FF28B10121BDE81040DD
:100FB000002006F0B8BB0021F8E710BD10B50420F2
:100FC00001F088FB00280FD0042001F091FB0421E0
:100FD000064800F0ACFF28B10121BDE81040012017
:100FE00006F0A1BB0021F8E710BD0000001401408D
:100FF0000010014010B500F05DF9AA48016821F425
:1010000070010160016841F440110160202100F08D
:10101000A2FFA5490020087010BDB0F5803F01D3A4
:10102000000C00E00020A0490870704770B504462D
:10103000FFF7F3FF00F066F99B4DA021287841EA05
:101040004000C0B200F09EF9C4F3072000F09AF906
:10105000E0B200F097F900F055F92878A12141EAB3
:101060004000C0B200F08EF9112000F0D4F904461F
:1010700000F06AF9204670BD70B50E460446FFF7D1
:10108000CCFF884D2021284600F067FF00F03AF998
:101090008548A021007841EA4000C0B200F072F912
:1010A000C4F3072000F06EF9E0B200F06BF93046AF
:1010B00000F068F900F048F92846BDE870402021AA
:1010C00000F049BF2DE9F04717460D460446FFF7EB
:1010D000A4FFE0B2C0F58076B6F5807F32D800F08C
:1010E00011F9DFF8C481A02198F8000041EA40001E
:1010F000C0B200F047F9C4F3072000F043F9E0B2B2
:1011000000F040F900F0FEF898F80000A12141EA53
:101110004000C0B200F036F90024A7F10109A6F1A1
:1011200001080DE0BC420DD24C4501D0444501D12F
:10113000112000E0102000F06EF905F8010B641C8E
:10114000B442EFD3BDE8F04700F0FEB82DE9F05F00
:1011500017460C468246FFF760FFCAF31005E8B257
:10116000C0F5807620214F4800F0F7FE4FF0A00B2D
:10117000B6F5807F1AD800F0C5F84B4801784BEAE5
:101180004100C0B200F0FEF8C5F3072000F0FAF805
:10119000E8B200F0F7F8002506E0BD4206D214F8E8
:1011A000010B00F0EFF86D1CB542F6D300F0CCF85F
:1011B0000A2000F0D3FBA7EB060800252F462AE003
:1011C000C5B90AEB060000EB07221046FFF725FF22
:1011D000914600F097F8344801784BEA4100C0B2DC
:1011E00000F0D0F8C9F3072000F0CCF809F0FF00B8
:1011F00000F0C8F814F8010B00F0C4F86D1CFF2DC6
:1012000007D97F1C0025FFB200F09EF80A2000F0ED
:10121000A5FBA8F10108B8F1000FD1DC25B100F061
:1012200093F80A2000F09AFBBDE8F05F20211D48EA
:1012300000F091BE2DE9F0411B4D686806F0ACFC52
:1012400087B24FF4FA76194C04E0012000E0002048
:10125000C4F88001FF20FFF7E9FE552810D0552182
:10126000FF20FFF709FFFF20FFF7E0FE552807D01A
:10127000304600F08CFBD4F880010028E7D1E4E789
:101280003A4600206968FFF761FF304600F07FFBB7
:101290003A4607490020FFF715FF3046BDE8F04108
:1012A00000F075BB000C0140240000200000234228
:1012B0008803002038B50121082000F0CAFF602013
:1012C000ADF8000010208DF803007E4D03248DF84A
:1012D00002406946284600F0D4FD8021ADF8001098
:1012E00014208DF803008DF802406946284600F06E
:1012F000C8FD4021284600F02EFE8021284600F03F
:101300002AFE38BD10B56F4C206820F07040206078
:10131000206840F0405020604021204600F01BFE35
:101320008021204600F017FE00F0BFF88021204603
:1013300000F013FE00F0B9F84021204600F00DFE49
:10134000BDE8104000F0B1B810B55E4C206820F048
:1013500070402060206840F040502060802120468E
:1013600000F0FBFD00F0A1F84021204600F0F3FD65
:1013700000F09BF88021204600F0EDFDBDE8104014
:1013800000F093B870B54F4E0546306820F07040BD
:101390003060306840F040503060002428064FF044
:1013A0008001304602D400F0D8FD01E000F0D3FD0A
:1013B0004021304600F0CFFD00F077F84021304664
:1013C00000F0CBFD00F071F86806641C050EE4B275
:1013D000082CE3D33168304621F070413160316828
:1013E00041F000413160402100F0B5FD00F05DF8B2
:1013F0003548D0F81C01354A10F0FF0F01D02020ED
:1014000000E0212010704021304600F0A6FDBDE82C
:10141000704000F04AB82DE9F0412A4E804630680D
:1014200020F070403060306840F0004030600024B0
:10143000254F25466006040E4021304600F08BFD06
:1014400000F033F8D7F81C0110F0FF0F01D044F082
:1014500001044021304600F080FD00F026F86D1CAC
:10146000EDB2082DE6D3306820F07040306030686F
:1014700040F040503060B8F1100F4FF0800130461E
:1014800010D000F068FD4021304600F064FD00F00F
:101490000CF84021304600F060FD00F006F82046D0
:1014A000BDE8F08100F059FDEDE708B500208DF8AA
:1014B00000009DF80000082803D29DF80000401CA1
:1014C000F5E708BD000C0140008021422C000020FF
:1014D00070B506460024334D03E0641CE4B2C82C0A
:1014E0000FD80221284601F017FA0028F5D031461E
:1014F000284601F0CDF9002405E0641CE4B2C82CB4
:1015000001D9002070BD0121284601F005FA00280C
:10151000F3D0284601F0BEF9C0B270BD38B5012144
:1015200041F2040000F095FEE020ADF80000182024
:101530008DF8030003201C4C8DF8020069462046FC
:1015400000F09FFCE021204600F005FD1748002137
:101550004FF482720180428081800222C280012287
:101560000281520242818181C181072101820D4C99
:101570000146204601F0E8F80121204601F060F91B
:10158000FF20FFF7A5FF38BD10B50849054C88813D
:10159000204601F0D9F82046BDE81040012101F0B5
:1015A0004FB90000003001400008014098030020BE
:1015B000F8B50121142000F04CFE1024ADF80040D5
:1015C000C04E8DF8034003258DF802506946304621
:1015D00000F057FCADF800408DF80340BA4C8DF890
:1015E00002506946204600F04CFC1021304600F0C5
:1015F000B2FC1021204600F0AEFCFFF78FFF082060
:10160000FFF7C2FFF8BD10B5B04C0020C4F8900140
:10161000052004F5C874FFF75BFFFF20FFF758FFB4
:101620000121216010BD10B5FFF7EDFF0006FBD4CE
:1016300010BD2DE9F04115460C460646FFF7F3FFB5
:10164000A24F0020C7F890010320FFF741FFC4F329
:101650000740FFF73DFFC4F30720FFF739FFE0B273
:10166000FFF736FF002405E0FF20FFF731FF30557C
:10167000641CA4B2AC42F7D30120C7F89001BDE8C6
:10168000F08170B50C46054603E015F8010BFFF735
:101690001FFF641EA4B2F8D270BD70B5C0F307413D
:1016A000C0F30724C5B20846FFF712FF2046FFF734
:1016B0000FFF2846BDE87040FFF70ABF10B5834C06
:1016C0000020C4F89001062004F5C874FFF700FF5D
:1016D0000120206010BD2DE9F04714460D46074655
:1016E000FFF7A1FFFFF7EAFFDFF8E0910021C9F85B
:1016F00090110220FFF7ECFE4FF480718C4214D859
:10170000C5F30740FFF7E4FEC5F30720FFF7E0FE4F
:10171000E8B2FFF7DDFE002504E0785DFFF7D8FEB4
:101720006D1CADB2A542F8D31EE0260A04F0FF08F6
:1017300000248A460AE005EB0420FFF7AEFF07EB22
:1017400004205146FFF79DFF641CE4B2B442F2D37B
:10175000B8F1000F08D005EB0620FFF79EFF07EB5E
:1017600006204146FFF78DFF0121C9F89011BDE821
:10177000F08770B5554C0020C4F890019F2004F507
:10178000C874FFF7A5FEFF20FFF7A2FEFF20FFF7BA
:101790009FFE0546FF20FFF79BFE012121602846A2
:1017A00070BD2DE9F0414A4D286806F0F5F91FFAA1
:1017B00080F84FF480374FF4FA76464C08E0304614
:1017C00000F0E5F8D4F8A001C0B10020C4F8A001F1
:1017D000FFF7CFFF2628F2D1424639462868FFF7A7
:1017E0007AFF304600F0D3F8424639463A48FFF7D0
:1017F00020FF3046BDE8F04100F0C9B80120E5E720
:1018000070B50546FFF70FFF304C0021C4F890116A
:10181000012004F5C874FFF75BFE2846FFF758FE69
:101820000120206070BD10B5284C0020C4F8900144
:10183000042004F5C874FFF74BFE0120206010BDA2
:1018400010B5FFF73BFFFFF7EEFE204C0020C4F879
:101850009001C72004F5C874FFF73AFE012020600C
:10186000BDE81040DFE670B50446FFF727FFFFF73D
:10187000DAFE164D0020C5F89001202005F5C87548
:10188000FFF726FEC4F30740FFF722FEC4F307204C
:10189000FFF71EFEE0B2FFF71BFE01202860BDE847
:1018A0007040C0E610B5FFF709FF084C0020C4F8EF
:1018B0009001982004F5C874FFF70AFE012020600B
:1018C00010BD00000008014000100140000021424E
:1018D0003000002000802142AA03002010B502F051
:1018E0002DFC012803D0BDE8104003F0AABA10BDBA
:1018F00010B5042000F05BFA2B482C492C4A0068F4
:10190000B0FBF1F3B0FBF1F14FF47A704143137087
:10191000012050804FF0E020026942F00202026193
:101920004161016941F00101016110BD70B54FF0E5
:10193000E02500216C691E4AAB6912785043AA6900
:101940009A42FCD002D2A3EB020302E0A4EB02060F
:101950003344194413468142F1D370BD70B5044637
:1019600002F0ECFB01280CD0114D6888844203D3AF
:10197000B4FBF0F001F0BAFF6888B4FBF0F100FBB3
:1019800011444FF47A706043BDE87040CEE770B503
:10199000054600244FF47A7603E03046FFF7C6FF91
:1019A000641CAC42F9D370BD0000002040420F001F
:1019B000340000207047C4490A885206FCD5C24A48
:1019C000C1B2121D118070477047FEB50121880316
:1019D00000F03FFC0121042000F03BFC4FF40070BC
:1019E000ADF8000018208DF80300B84F03248DF8DF
:1019F00002406946384600F044FA3815ADF8000058
:101A000004208DF803006946384600F03AFA252094
:101A10008DF804008DF8054000268DF80660012041
:101A20008DF8070001A800F082F90121042000F0E0
:101A300010FCFD14ADF808508DF80A4010208DF808
:101A40000B0002A9384600F01CFA2946384600F07F
:101A500084FA9F480670FEBD1CB50121480400F0C1
:101A600001FC0121084600F0F4FB0121202000F0D8
:101A7000F0FB0121082000F08FFA2020ADF80000D3
:101A800018208DF803000320924C8DF8020069465F
:101A9000204600F0F6F94021ADF8001004218DF841
:101AA00003106946204600F0ECF926208DF804006A
:101AB00000208DF805008DF8060001208DF8070044
:101AC00001A800F034F91CBD1CB50121880400F008
:101AD000C9FB0121084600F0BCFB0121202000F0D9
:101AE000B8FB01217C4800F057FA4FF48070ADF844
:101AF000000018208DF803000320764C8DF80200BA
:101B00006946204600F0BDF96115ADF800100421CA
:101B10008DF803106946204600F0B3F927208DF8B0
:101B2000040000208DF805008DF8060001208DF8D6
:101B3000070001A800F0FBF81CBD1CB50121080539
:101B400000F090FB0121302000F083FB4FF4805027
:101B5000ADF8000018208DF8030003208DF8020076
:101B600069465E4800F08DF90420ADF800008DF85C
:101B700003006946574800F084F935208DF80400C9
:101B800000208DF805008DF8060001208DF8070073
:101B900001A800F0CCF81CBD4B490A881206FCD500
:101BA0004949091D0880704710B5474A141D06E0D1
:101BB00013881B06FCD510F8013B2380491E002921
:101BC000F6D110BD4249091D002251F8200040F213
:101BD000255100F03ABC3E49091D012251F8200070
:101BE00040F2255100F031BC3949091D002251F85D
:101BF000200040F2266100F028BC3549091D012271
:101C000051F8200040F2266100F01FBC2DE9F041A0
:101C10002D4E40F227773946304600F0CDFC2C4C53
:101C2000002520B13946304600F0E5FC257040F231
:101C300025573946304600F0BFFC70B101202070B6
:101C40003946304600F0D7FC304600F04EFCBDE887
:101C5000F041C1B2002003F0DEBE40F22447394615
:101C6000304600F0A9FC00280AD03946304600F082
:101C7000C2FC304600F039FC002003F0FDFE257068
:101C8000BDE8F08112480078704770B5144C40F2FE
:101C90002551204600F090FC40F2244120B120461E
:101CA000BDE8704000F0A7BC0D46204600F084FC63
:101CB000002808D02946204600F09DFC2046BDE8BB
:101CC000704000F012BC70BD0038014000080140B7
:101CD00038000020001401403000140000100140C2
:101CE000004400400948804709480047FEE7FEE7F6
:101CF000FEE7FEE7FEE7FEE7FEE7FEE7FEE7FEE7BC
:101D000004480549054A064B704700009503000842
:101D1000310100084070002040780020407400200D
:101D2000407400202849084328490860704730B5AE
:101D30000F23C27801780125F2B1244A126801F11B
:101D4000E02102F4E062C2F5E062120AC2F104048A
:101D5000D3404278A24084781C401443220181F889
:101D60000024007800F01F018D404009800000F140
:101D7000E020C0F8005130BD01F01F008540480947
:101D8000800000F1E020C0F8805130BD104A1140C1
:101D900001430E48001F016070470C4A121D0029C4
:101DA000116801D0014300E08143116070474FF09A
:101DB000E0210428086903D020F00400086170477E
:101DC00040F00400FAE700000000FA050CED00E026
:101DD00080FFFF1F8F4910B5884206D101210420E2
:101DE00000F049FA002104203BE08B49884206D1EB
:101DF0000121082000F03FFA0021082031E0874946
:101E0000884206D10121102000F035FA002110206F
:101E100027E08349884206D10121202000F02BFAD7
:101E2000002120201DE07F49884206D10121402069
:101E300000F021FA0021402013E07B49884206D1BE
:101E40000121802000F017FA0021802009E0774965
:101E500088420AD184150121204600F00CFA0021A5
:101E60002046BDE8104000F006BA10BD10B50121B3
:101E7000084600F000FA0021BDE81040012000F003
:101E8000FAB9F0B5CC78002204F00F03E40601D5CE
:101E90008C7823430C784FF00F0C14F0FF0F4FF0A9
:101EA000010E1BD005680E880EFA02F42640A642E9
:101EB00010D196000CFA06F725EA070703FA06F593
:101EC000CE783D43282E02D0482E02D002E0446155
:101ED00000E00461521C082AE5D305600A88FF2A45
:101EE0001CD94468002202F108060EFA06F50E8895
:101EF0002E40AE420ED196000CFA06F7BC4303FA10
:101F000006F7CE783C43282E00D14561CE78482E86
:101F100000D10561521C082AE5D34460F0BD4FF69C
:101F2000FF710180022181700421C1707047024657
:101F3000002092680A4200D001207047806880B279
:101F4000704702460020D2680A4200D00120704744
:101F5000C06880B2704701617047416170470AB143
:101F60000161704741617047C160704741F4803240
:101F70008261816182618169806970472C4B10B5F3
:101F80001A684FF68074224042EA00100843186035
:101F900010BD2849C8617047F0B5254C002801DA0A
:101FA000E36900E06368450D2E0185B2C0F3015777
:101FB000B540C0F30342032F05D0C6020AD503265D
:101FC0009640B34307E023F07062636823F07063C8
:101FD000636002E0AB4343F0706201B12A43002822
:101FE00001DAE261F0BD6260F0BD10B58A0721F050
:101FF00003040F49120F21440F238C6893409C4324
:102000008C608B68904003438B6010BD0949C1F818
:10201000DC00704700080140000C01400010014046
:102020000014014000180140001C01400020014044
:102030000000014000002042A548016841F0010174
:1020400001604168A34A114041600168A24A114001
:102050000160016821F480210160416821F4FE01E2
:1020600041604FF41F018160704799490A6822F46A
:1020700080320A600A6822F480220A60B0F5803F4C
:1020800007D0B0F5802F03D1086840F4A020086085
:102090007047086840F48030F9E70346002059098A
:1020A0008B4A01290AD002290AD0516A03F01F0283
:1020B000012393400B4200D0012070471168F5E7DF
:1020C000116AF3E718B500204FF4A06400903120A6
:1020D000FFF7E3FF0099491C0091A14201D00028BD
:1020E000F5D03120FFF7D9FF002800D0012018BD1E
:1020F000774A116821F0F80141EAC000106070478A
:10210000764908607047724B5A68084322F47C1283
:102110001043586070477149086670476C4A5168AF
:1021200021F003010143516070476948406800F0A5
:102130000C007047664A516821F0F001014351607C
:102140007047634A516821F4E06101435160704770
:102150005F4A516821F4605141EAC0005060704705
:102160005B4A0029517A01D0014300E0814351725A
:1021700070475A49C1F8D8007047554A516821F450
:1021800040410143516070475149002281F82020AD
:1021900081F82020012802D0042802D1052081F8EE
:1021A000200070474E490860704749490A6A024357
:1021B0000A6270474A4944390860704730B5444A5A
:1021C0005168484B11F00C0103D0042901D00829B3
:1021D00001D0036012E05168536801F470114FF0B0
:1021E000020413F4803F04EB914102D053689B0337
:1021F00001D53D4B00E03B4B5943016051680F2333
:1022000003EA1111394B5C5C0168E140416054689C
:10221000072505EA14241C5D21FA04F4846054683F
:1022200005EAD4241B5DD940C1605268032303EA48
:1022300092322E4B1B1F9A5CB1FBF2F1016130BD53
:10224000234A0029516901D0014300E081435161D3
:1022500070471F4A0029916901D0014300E0814382
:10226000916170471A4A0029D16901D0014300E009
:102270008143D1617047164A0029D16801D00143DA
:1022800000E08143D1607047114A0029116901D0F3
:10229000014300E0814311617047114940390860F2
:1022A00070470E49C86470470949C87170470848AB
:1022B000416A41F0807141627047054A0146002041
:1022C00092680A4200D00120704701498872704725
:1022D000001002400000FFF8FFFFF6FE000042423F
:1022E0008004424200127A0000093D00580000209C
:1022F000C44910B588420AD101218C032046FFF75A
:10230000BAFF2046BDE810400021FFF7B4BFBE4928
:10231000884202D101214C0410E0BC49884202D11C
:1023200001218C040AE0BA49884202D10121CC047F
:1023300004E0B84988420AD101210C052046FFF784
:10234000A3FF2046BDE810400021FFF79DBF10BD50
:1023500030B50446008A85B00D464CF6FF71084042
:10236000E98801432182A0894EF6F3110840A9882B
:102370002A8911436A8902431143A181A08A4FF639
:10238000FF410840A9890143A1826846FFF716FF73
:102390009C48844201D1039800E00298A189090475
:1023A00000EBC00101EB0010296801D5490000E0F5
:1023B0008900B0FBF1F06422B0FBF2F109010B09D6
:1023C0006FF018056B4300EB8300A3891D044FF0E9
:1023D000320306D503EBC000B0FBF2F000F00700BB
:1023E00005E003EB0010B0FBF2F000F00F00084333
:1023F000208105B030BD4FF416510160002181806D
:10240000C18001810C2242818181704710B5028A0E
:102410004FF2FF031A400B884C8823438C88C988ED
:102420000C4323431343038210BD002101804180EC
:102430008180C18070470029818902D041F4005118
:1024400001E021F400518181704710B5C1F34213BE
:1024500001F01F040121A140012B07D0022B07D05E
:102460001430002A026805D00A4304E00C30F8E773
:102470001030F6E78A43026010BD002A828A01D03C
:102480000A4300E08A4382827047028A22F00F02E8
:102490000282028A0A4302827047828922F4006221
:1024A000828182890A43828170470029818902D012
:1024B00041F0020101E021F0020181817047028AAE
:1024C00022F020020282028A0A4302827047002917
:1024D000018A02D041F4804101E021F4804101826F
:1024E0007047C1F30801818070478088C0F30800FD
:1024F0007047818941F0010181817047028BD2B21E
:102500000283028B42EA012101837047028B02F4AD
:102510007F420283028B0A43028370470029818A2B
:1025200002D041F0200101E021F0200181827047BA
:102530000029818A02D041F0100101E021F0100150
:10254000818270470029818A02D041F0080101E0B0
:1025500021F00801818270470029818902D041F46D
:10256000004101E0C1F30E01818170470029818A99
:1025700002D041F4006101E021F4006181827047E2
:10258000828A22F004028282828A0A43828270470F
:102590000029818A02D041F0020101E021F002010C
:1025A000818270470246002012880A4200D0012032
:1025B0007047C9430180704770B501F01F050126BF
:1025C0000024C1F3421306FA05F2012B0FD0022BAF
:1025D0000FD0838A4FEA11210088134206FA01F6D0
:1025E00000EA060001D000B10124204670BD8389B5
:1025F000F0E7038AEEE70A0A01219140C94301800E
:10260000704700000038014000440040004800408E
:10261000004C004000500040374900200860091D70
:102620000860091D0860091D0860334933481431EA
:102630000860704730B5304A8379016853B3136836
:102640008B431360111D0B680468A3430B60017971
:1026500011440B68046823430B60274B0833196847
:102660000468A14319601C1D21680568A943216005
:102670004179102905D011440A68006802430A60B4
:1026800030BD196802681143196021680068014370
:10269000216030BD0079104402688A43026030BD79
:1026A0000021016001710C22427181717047124951
:1026B00010310A6802430A60704701460E4A002042
:1026C000143212680A4200D0012070470A491431BE
:1026D00008607047084A014600201268064B0A400D
:1026E00014331B680B4202D0002A00D0012070472F
:1026F000014914310860704700040140FFFF0F00DA
:10270000994910B588420AD1841401212046FFF767
:10271000B2FD2046BDE810400021FFF7ACBD934953
:10272000884202D10121041404E0914988420AD16F
:102730000121C4132046FFF7A7FD2046BDE8104045
:102740000021FFF7A1BD10BD30B502884C8802F40E
:1027500041530A88CD8822438C882C4322430C891C
:1027600022434C8922438C892243CC8922431A4339
:102770000280828B22F400628283098A018230BD4A
:10278000F0B505460C4602200021AA8B85B0012633
:102790004FF240031A40AA832884AF8BA268022A12
:1027A00021D0A08800B102266846FFF707FDE18826
:1027B0000098B1F5007F2CD07101B0FBF1F000EB77
:1027C0008000A1684000B0FBF1F0401D80B20A21FA
:1027D000B0FBF1F000F00101401A4FF6FF72C0F3B8
:1027E0004F0002EA0121821EFE2A01D302200021AD
:1027F000E288084302432A8420886188A28908432A
:10280000A18811430843384340F40060A88305B011
:10281000F0BD000AD3E70021018041808180C180A2
:10282000018141818181C18107210182704700219D
:10283000018041808180C180022282608181704755
:102840000029018802D041F0400101E021F040015F
:10285000018070470029818B02D041F4806101E042
:1028600021F4806181837047090901238B40002A8C
:10287000828899B201D00A4300E08A43828070477F
:10288000002A828801D00A4300E08A438280704790
:102890008181704780897047A1F57E420188FF3AA7
:1028A00002D041F4807101E021F480710180704711
:1028B0000029818802D041F0040101E021F00401E7
:1028C00081807047028822F40062028002880A43F5
:1028D00002807047018841F48051018070470029CF
:1028E000018802D041F4005101E021F4005101803F
:1028F0007047012901D0008B7047808A7047008A99
:102900007047B1F5804F018803D021F480410180E8
:10291000704741F48041FAE70246002012890A42DA
:1029200000D001207047C9430181704730B501F0E4
:102930000F030125024605FA03F40020A3B209099A
:1029400005FA01F49188A4B2128921401A4202D0FA
:10295000002900D0012030BD01F00F02012191407B
:10296000C943018170470000003001400038004039
:10297000003C004000F108014FF0FF32C0E90112B5
:10298000C160016100210160704700210161704751
:1029900042684A6093688B609368596091600861EF
:1029A0000168491C0160704730B50C68621C02D098
:1029B00000F1080202E0026904E01A4653681D684B
:1029C000A542FAD953684B6099608A6051600861EA
:1029D0000168491C016030BDD0E9013201699A608B
:1029E000D0E901235A604A68824201D182684A6074
:1029F000002202610868401E0860704770B50D46ED
:102A0000040005D140F21B12F2A1F7A004F0F6FE7B
:102A100002F0ECF9D4E90F20216802FB001161609B
:102A20000021A1632168A1600A46D4E90F01401E7C
:102A300000FB0121E16021464FF0FF3001F8440F17
:102A4000487004F110004DB1FFF794FF04F1240029
:102A5000FFF790FF02F0E4F9012070BD2169002921
:102A6000F8D001F0A3FA0028F4D0E3494FF08050E9
:102A70000860BFF34F8FBFF36F8FEBE72DE9F04195
:102A800017460E46050005D14FF4C472D1A1D6A059
:102A900004F0B4FEBEB105FB06F0543002F056FA65
:102AA00004000ED004F154007EB12060C4E90F563A
:102AB00020460121FFF7A2FF84F850700021204634
:102AC000A164BDE8F0810020E7E72460EEE72DE98E
:102AD000F041856B174604460026026C82B1C7B1EF
:102AE000E06805F082F8E168206C091AE16022686C
:102AF000914202D26168081AE060022F16D017E0F6
:102B00002068A8B9606801F062FB0646002060609A
:102B10000EE0A06805F069F8216CA0680844A06088
:102B20006168884204D32068A06001E005B16D1E91
:102B30006D1CA5633046C4E72DE9F3410F460098AC
:102B40000026846C2CB940F6CE12A2A1A6A004F0F7
:102B500055FEA06BE16B884205D340F6CF129DA1D4
:102B6000A1A004F04BFEA06BE16B88420CD294F95B
:102B700045503A4669462046FFF7A9FF0646681CBD
:102B800005D06D1C84F845503046BDE8FC81606A74
:102B90000028F9D004F1240001F008FA0028F3D04D
:102BA0000126F1E72DE9F041044602F01FF994F9FE
:102BB000455004F1240610E0A06C20B1002120460D
:102BC000FFF7BAFF04E0606A48B1304601F0EEF961
:102BD00008B101F0A4FA6D1E6DB2002DECDC4FF0CF
:102BE000FF3684F8456002F01BF902F0FFF894F913
:102BF000445004F1100709E0206948B1384601F05B
:102C0000D5F908B101F08BFA6D1E6DB2002DF3DC21
:102C100084F84460BDE8F04102F002B92DE9FF4FAD
:102C200083B099468B4604004FF0000605D140F270
:102C3000D92268A16CA004F0E1FDBBF1000F07D11F
:102C4000206C28B140F2DA2262A167A004F0D6FD20
:102C5000B9F1020F08D1E06B012805D040F2DB2268
:102C60005CA161A004F0CAFD01F068FA38B90598CA
:102C700028B140F2DE2257A15BA004F0BFFD4FF067
:102C8000000A4FF08057DFF8708102F0AFF8A06BB8
:102C9000E16B884206D3B9F1020F03D0059800B367
:102CA00016B325E04A4659462046FFF710FFA16CAF
:102CB00021B149462046FFF73FFF05E0616A19B19F
:102CC00004F1240001F072F928B1C8F80070BFF3D4
:102CD0004F8FBFF36F8F02F0A3F8012007B0BDE85C
:102CE000F08F02F09DF821E0684601F0CEF9012650
:102CF00002F096F800F09BFD02F078F894F9440099
:102D0000401C01D184F844A094F94500401C01D135
:102D100084F845A002F084F805A9684601F0C6F9D8
:102D200030B12046FFF73EFF00F0F3FC0020D5E76E
:102D300002F05CF8A06BE16B884201D1012500E054
:102D4000002502F06DF895B104F11000059901F02D
:102D5000D4F82046FFF726FF00F0DBFC002894D1D2
:102D6000C8F80070BFF34F8FBFF36F8F8DE7204619
:102D7000FFF718FF00F0CDFC87E710B502460021F1
:102D80000120FFF77BFE041E07D000214160016097
:102D90000B460A46C160FFF741FF204610BD10B543
:102DA000040005D140F241220AA10FA004F026FD43
:102DB00001F0C1F96168884220D1E068401EE060FE
:102DC00005D100231A4619462046FFF727FF0120A8
:102DD00010BD00002E2E5C4672656552544F535C48
:102DE00071756575652E63004572726F723A257351
:102DF0002C25640D0A00000004ED00E00020E7E748
:102E000030B4026C0B46002A0BD0C1681144C1607B
:102E10004468A14201D30168C16030BC184604F087
:102E2000E4BE30BC70472DE9FF4F83B09B468A4615
:102E300004004FF0000607D140F2DC42AFF26C0113
:102E4000AFF25C0004F0DAFCBAF1000F09D1206C9B
:102E500038B140F2DD42AFF28401AFF2740004F009
:102E6000CDFC01F06BF948B9059838B14FF49C627C
:102E7000AFF2A001AFF2900004F0C0FC4FF00009E7
:102E80004FF08057DFF8188601F0B0FFA56B35B31F
:102E900051462046E668FFF7B3FFBBF1000F11D0A3
:102EA000E660606A50B104F1240001F07FF828B1B7
:102EB000C8F80070BFF34F8FBFF36F8F01F0B0FF02
:102EC00001200BE76D1EA563206810B901F02FFAF1
:102ED000606020690028F1D004F11000E5E7059852
:102EE00008B11EB106E001F09BFF27E0684601F043
:102EF000CCF8012601F094FF00F099FC01F076FF78
:102F000094F94400401C01D184F8449094F94500A0
:102F1000401C01D184F8459001F082FF05A9684664
:102F200001F0C4F8002820460AD0FFF73BFE00F06D
:102F3000F0FB204600F0A6FA0028A5D00020CDE640
:102F400000F0A0FAD8B1206830B901F04FFF6068F6
:102F500001F0FFF801F064FF04F12400059900F08E
:102F6000CCFF2046FFF71EFE00F0D3FB00288BD1DC
:102F7000C8F80070BFF34F8FBFF36F8F84E7204610
:102F8000FFF710FE00F0C5FB7EE770B50D460400AC
:102F900007D14FF41E72AFF2C411AFF2B41004F0B7
:102FA0002DFC01F0C8F86168884204D1E068401C3B
:102FB000E060012070BD00232A4619462046FFF735
:102FC00032FF0028F6D0E168491CE16070BD70B5A1
:102FD0000C46050007D140F2BD22AFF20821AFF246
:102FE000F81004F00BFCAC4207D940F2BE22AFF25D
:102FF0001C21AFF20C2004F001FC02220021284623
:10300000FFF73CFD002800D0846370BD2DE9F04738
:10301000984615468946040007D140F29F32AFF228
:103020004C21AFF23C2004F0E9FBB9F1000F09D1CB
:10303000206C38B14FF46872AFF26821AFF25820BB
:1030400004F0DCFBB8F1020F0AD1E06B012807D0D5
:1030500040F2A132AFF28421AFF2742004F0CEFB33
:1030600001F003FF3020EFF3118780F31188BFF3E5
:103070004F8FBFF36F8FA06BE16B884207D3B8F11E
:10308000020F04D0002087F31188BDE8F08794F97F
:103090004560424649462046FFF719FD701C04D0A2
:1030A000761C84F845600120EDE7A06C012620B174
:1030B00041462046FFF740FD06E0606A0028F2D056
:1030C00004F1240000F072FF0028ECD0002DEAD0BB
:1030D0002E60E8E72DE9F0410D46040007D140F2EB
:1030E0003C42AFF21031AFF2003004F087FB206CAD
:1030F00038B14FF48862AFF22431AFF2143004F0EB
:103100007DFB206848B9606838B140F24542AFF2B3
:103110003C31AFF22C3004F071FB01F0A6FE302000
:10312000EFF3118680F31188BFF34F8FBFF36F8FDA
:10313000A16BE06B88421FD994F94500491CA1633B
:10314000411C04D0401C84F84500012015E0A06C0F
:10315000012720B100212046FFF7EEFC06E0606A5F
:103160000028F2D004F1240000F020FF0028ECD069
:10317000002DEAD02F60E8E7002086F31188A0E454
:103180002DE9F04790468946040007D14FF4B46218
:10319000AFF2C031AFF2B03004F030FBB9F1000F44
:1031A00009D1206C38B140F2A152AFF2D831AFF260
:1031B000C83004F023FB01F058FE3020EFF31187F4
:1031C00080F31188BFF34F8FBFF36F8FA66BF6B1FB
:1031D00094F9445049462046FFF712FE761EA66336
:1031E000681C04D06D1C84F84450012010E0206954
:1031F0000028FAD004F1100000F0D8FE0028F4D026
:10320000B8F1000FF1D00121C8F80010EDE700205F
:1032100087F3118839E72DE9F0410E46040007D104
:1032200040F2FC52AFF25441AFF2444004F0E6FAEF
:103230004EB9206C48B140F2FD52AFF26841AFF296
:10324000584004F0DBFA206C38B940F2FE52AFF27D
:103250007C41AFF26C4004F0D1FA01F006FE302060
:10326000EFF3118580F31188BFF34F8FBFF36F8F9A
:10327000A06B30B131462046E768FFF7C1FD012061
:10328000E76085F311881CE410B5040007D140F213
:103290002F62AFF2C041AFF2B04004F0AFFA01F0DC
:1032A000A5FDA46B01F0BCFD204691E510B504001E
:1032B00007D140F24162AFF2E441AFF2D44004F0F2
:1032C0009DFA01F093FDD4E90E10441A01F0A8FD17
:1032D00020467DE510B5040007D140F25162AFF2FF
:1032E0000C51AFF2FC4004F089FAA06B70E56D4A16
:1032F000002102EBC1035B68834206D1002042F843
:10330000310002EBC10148607047491C0829F0D325
:10331000704710B5040007D140F25D62AFF24C5126
:10332000AFF23C5004F06AFA2046FFF7E0FF204677
:10333000BDE8104001F075BEC06C7047C1647047B5
:1033400090F85000704710B5040007D140F2937216
:10335000AFF28051AFF2705004F050FAA06B08B198
:10336000002035E5012033E510B5040007D140F217
:10337000BA72AFF2A051AFF2905004F03FFAA06BD6
:10338000E16B884201D1012022E5002020E510B543
:10339000444B002253F832401CB1521C082AF9D386
:1033A00016E543F8321003EBC201486010E510B592
:1033B00000243C4A214602EBC1035B68834202D1F0
:1033C00052F8314002E0491C0829F4D32046FFE4BA
:1033D00070B515460E46044601F008FD94F94410F8
:1033E0000020491C01D184F8440094F94510491C7F
:1033F00001D184F8450001F013FDA06B28B92A46DD
:10340000314604F1240000F0B6FD2046BDE87040CE
:10341000FFF7C8BB00220421FFF730BB70B50D4693
:10342000044601F0E3FCA06C08B9A06B08B10024CD
:1034300001E0A564012401F0F3FC204670BD10B545
:103440000446806C884201D1A06B08B10020BFE423
:1034500001F0CCFC0020A06401F0E2FC0120B7E404
:1034600008B500230A4669460093FFF7DCFC009884
:1034700008BD08B500210A4600916946FFF780FEA5
:10348000009808BD10B5044601F0B0FCA06B20B157
:10349000002401F0C5FC20469AE40124F9E700006D
:1034A00004ED00E0BC0300202DE9F041054601F0E9
:1034B0009DFCFE4EB068401CB0603068FC4F10B1FF
:1034C000706930B32BE03560B068012827D1002443
:1034D00004EB840007EB8000FFF74CFA641C202CFF
:1034E000F6D3F448FFF746FAF2481430FFF742FAF1
:1034F000F0482830FFF73EFAEE483C30FFF73AFA42
:10350000EC485030FFF736FAEA4870631430B06385
:1035100005E03068E96AC06A884200D83560706AA0
:103520000121401C7062A864E86A3269814011433D
:10353000316100EB800007EB8000291DFFF728FABE
:1035400001F06EFC706900280CD03068E96AC06A2E
:10355000884207D2D8494FF080500860BFF34F8FA0
:10356000BFF36F8FBDE8F0812DE9FF5F8346DDE992
:103570000E87994616468A46900001F0E7FC050042
:103580001AD0602001F0E2FC040012D02563002173
:10359000CDE90241CDE900874B46324651465846B7
:1035A00001F087F82046FFF77FFF012004B0BDE857
:1035B000F09F284601F035FD4FF0FF30F6E770B57B
:1035C000044601F013FCB94D04B92C68201DFFF727
:1035D00003FA58B9E06AB64A00EB800152F82110AC
:1035E00021B901218140286988432861A06A18B166
:1035F00004F11800FFF7F0F9686A401C6862286857
:10360000844208D1AB48211D3C30FFF7C1F96868FE
:10361000401C686007E0A868401EA860204601F0D2
:10362000A1F801F092F801F0FBFB6869002812D0C4
:10363000286884420FD1286B28B140F265429FA1CF
:10364000A3A004F0DBF89C494FF080500860BFF362
:103650004F8FBFF36F8F70BD2DE9F041934F002660
:10366000386B38B1B869401CB861F86900B10126FF
:10367000304677E7FD686D1CFD6011D1786B0068FE
:1036800028B140F6D9128DA191A004F0B7F8786B5B
:10369000B96B7963B863386A401C386201F055F839
:1036A000B86ADFF80C82854209D3786B006880B174
:1036B000786BC068C468606885420DD2B8623868AB
:1036C000C06A00EB800158F821000128CDD90126FD
:1036D000CBE74FF0FF30F1E7201DFFF77DF9A06A3F
:1036E00018B104F11800FFF777F9E06A01213A698F
:1036F00081401143396100EB800108EB8100211DFD
:10370000FFF746F9E06A3968C96A8842CDD30126D5
:10371000CBE72DE9F047654D00242746286B28B9F3
:103720004FF4FD6265A16AA004F068F801F05EFB49
:10373000286B401E2863286BF0BBA8685D492831C0
:103740000126C8B3DFF868918846D8F80010E9B1BF
:10375000D8F80C00C46804F11800FFF73DF9201DEB
:10376000FFF73AF9E06A2A6906FA00F11143296184
:1037700000EB800109EB8100211DFFF709F9E06AE8
:103780002968C96A8842E0D3EE61DEE70CB100F037
:10379000DCFFAC693CB1FFF75FFF00B1EE61641E76
:1037A000F9D10020A861E86930B143490127380701
:1037B0000860BFF34F8F00E001E0BFF36F8F01F0AF
:1037C0002FFB3846BDE8F0872DE9F041374E0F4614
:1037D0000446F5683068001DFFF7FEF838B9306818
:1037E00090F82C1001208840316981433161601CC0
:1037F00008D13FB13168BDE8F0412E485030091D75
:10380000FFF7C6B830682C44AC424460316805D23A
:10381000B06BBDE8F041091DFFF7C6B8706B091D1C
:10382000FFF7C2F8B06A844200D2B4629AE61F4839
:10383000016B491C016370472DE9F0410E460500FC
:103840004FF0000405D140F279421CA120A003F002
:10385000D5FF2EB940F27A4218A11DA003F0CEFF89
:10386000124F386B28B140F27B4214A118A003F02C
:10387000C5FFFFF7DCFFFA6828688119904202D97A
:10388000884202D804E0884201D8914200D901243C
:1038900029601CB1881A0021FFF796FFFFF739FF56
:1038A000002822D14FF08050034919E06800002021
:1038B000FC0300207C06002004ED00E02E2E5C4678
:1038C00072656552544F535C7461736B732E630061
:1038D0004572726F723A25732C25640D0A00000040
:1038E0000860BFF34F8FBFF36F8F3BE610B5040046
:1038F00014D0FE49096B39B140F2CF42AFF2440116
:10390000AFF2340003F07AFFFFF791FF0021204669
:10391000FFF75AFFFFF7FDFE002807D1F4494FF0EB
:1039200080500860BFF34F8FBFF36F8F10BD70B52D
:10393000050007D140F2FB42AFF28001AFF2700008
:1039400003F05CFFE94E3068854201D1002070BD74
:1039500001F04CFA6C6901F063FA706B844202D09A
:10396000B06B844201D1022070BDE248844204D190
:10397000A86A0028F7D1032070BDDE4814388442BD
:1039800002D00CB1012070BD042070BD10B50446FA
:1039900001F02CFA0CB9D5480468E46A01F040FA49
:1039A000204610BD10B5044601F05FFA3020EFF359
:1039B000118180F31188BFF34F8FBFF36F8F0CB964
:1039C000CA480468E06A81F3118810BD2DE9F0410E
:1039D00000260D460446202908D34FF4B062AFF20A
:1039E0002411AFF2141003F009FF1F2501F0FEF9B6
:1039F000BE4F04B93C68206DA8423FD0396885426B
:103A000006D98C4207D03968C96AA94202D902E0B6
:103A10008C4200D10126E16A8846884200D1E562E5
:103A20002565A069002802DBC5F12000A061B24D28
:103A300008EB8800616905EB8000814215D1201DEB
:103A4000FEF7CAFF012120B93A6901FA08F0824362
:103A50003A61E06A3A6981401143396100EB8000C4
:103A600005EB8000211DFEF793FF3EB1A0494FF00A
:103A700080500860BFF34F8FBFF36F8FBDE8F041F8
:103A800001F0CEB970B5994D286B10B10120E861F5
:103A900070BD0020E8612869974EB0FA80F0C0F14F
:103AA0001F0000EB800456F8240038B940F6F622D7
:103AB000AFF2F811AFF2E81003F0A0FE06EB8400BD
:103AC00000F10802416849684160914201D14968AA
:103AD0004160C868286070BD70B5044601F086F981
:103AE000824D04B92C68201DFEF776FF58B9E06AB4
:103AF000814A00EB800152F8211021B90121814057
:103B0000286988432861A06A18B104F11800FEF7FB
:103B100063FF211D7748FEF73BFF01F081F96869DB
:103B200028B101F063F900F010FE01F079F928687E
:103B3000844213D1686990B1286B38B140F2576262
:103B4000AFF28821AFF2782003F058FE68494FF0B9
:103B500080500860BFF34F8FBFF36F8F70BD654813
:103B6000A9680068884202D10020286070BDBDE8C5
:103B7000704087E770B50025040007D140F28162EC
:103B8000AFF2C821AFF2B82003F038FE594960699E
:103B9000884205D1A06A2839884201D000B90125A0
:103BA000284670BD70B504002BD0504D2868844263
:103BB00031D001F01BF92046FFF7DCFFE8B1201DF2
:103BC000FEF70AFFE06A01212A6981401143296159
:103BD000494900EB800001EB8000211DFEF7D8FE73
:103BE000E06A2968C96A884207D341494FF080508A
:103BF0000860BFF34F8FBFF36F8FBDE8704001F0D7
:103C00000FB940F2AB62AFF24C31AFF23C30BDE8DD
:103C1000704003F0F3BD70BD2DE9F04100260400B3
:103C200007D140F2E262AFF26C31AFF25C3003F0E8
:103C3000E5FD01F01AF93020EFF3118580F31188CA
:103C4000BFF34F8FBFF36F8F2046FFF793FFF0B1A5
:103C5000264F386B20B1274804F11801283814E0AA
:103C6000E06A3968C96A884200D30126201DFEF740
:103C7000B3FEE06A01213A698140114339611E496E
:103C800000EB800001EB8000211DFEF781FE85F333
:103C90001188304666E4184E4FF08054144D00F001
:103CA0006BFD30680128FAD92C60BFF34F8FBFF34A
:103CB0006F8FF4E71CB50D4800242C30CDE900408F
:103CC000234682220DA10F48FFF74EFC012803D1A5
:103CD00000F06DFE01281BD0401C2BD140F28472F5
:103CE000AFF22841AFF2184002B00DE068000020AA
:103CF00004ED00E0CC060020FC03002049444C45C4
:103D000000000000973C0008BDE8104003F076BDBD
:103D1000302080F31188BFF34F8FBFF36F8FFA48C5
:103D20004FF0FF31816201214161C460BDE81C4058
:103D300001F01AB81CBD302080F31188BFF34F8FFB
:103D4000BFF36F8FF0490020486101F043B8EE489F
:103D5000C068704710B501F088F8EB48C06810BD26
:103D6000E9488068704710B510B104461CB10AE0FC
:103D7000E5480468FAE740F68C02AFF2C041AFF2C2
:103D8000B04003F03BFD04F1340010BD2DE9F047D5
:103D90001E4691460C4607000ED0054605F134003C
:103DA000C4E90050E86A2061286BE061A86CA0605B
:103DB000207B032803D00AE0D3480568EEE7FFF72D
:103DC00036FDA86A08B102202073FFF7A2FC4FF06D
:103DD0000008286DC4E90508052E01D0267303E00C
:103DE0003846FFF7A4FD2073B9F1000F0AD0002177
:103DF000286B01E0401C491C0278A52AFAD08808EB
:103E00002084DFE4A4F82080DCE42DE9F04781463B
:103E1000086892460C460025F8B1486801F108068A
:103E200040684860B04201D140684860D0F80C80DA
:103E3000606842686260B24201D151686160606846
:103E400005EBC50109EB8101C768534601223846DD
:103E5000FFF79CFF6D1C4745EAD12846B2E42DE9E7
:103E6000F04717460A46064600242025FFF7DFFCE8
:103E7000DFF89482D8F8080082423AD3DFF88C92B7
:103E80006D1E05EB850104EBC40009EB810106EB17
:103E900080000122FFF7B9FF0444002DF0D104EBAC
:103EA000C40006EB800002224546D8F83410FFF724
:103EB000ACFF044404EBC40006EB80000222A96BB3
:103EC000FFF7A3FF044404EBC40006EB80000422C8
:103ED0008F49FFF79AFF04448D4904EBC40006EBB9
:103EE000800003221431FFF790FF04440FB100203B
:103EF0003860FFF70EFC204664E470B50D46040000
:103F000007D140F60632AFF24C61AFF23C6003F0ED
:103F100075FC7D48016820461831FEF745FD2846AE
:103F2000BDE8704001214FE42DE9F04117460E46EF
:103F3000050007D140F61732AFF28061AFF2706032
:103F400003F05CFC704C206B38B940F61B32AFF2CA
:103F50009461AFF2846003F051FC216846F00040A8
:103F60008861216828461831FEF712FD3846BDE801
:103F7000F041012128E470B514460E46050007D132
:103F800040F63132AFF2CC61AFF2BC6003F036FCE8
:103F90005D48016828461831FEF7FAFC0CB14FF075
:103FA000FF3621463046BDE870400DE42DE9F04172
:103FB000C068C4683CB940F66132AFF20071AFF23C
:103FC000F06003F01BFC04F118000746FEF704FD47
:103FD0004D4D286B012660B14D4839461438FEF727
:103FE000D7FCE06A2968C96A884212D90120EE61CB
:103FF0001CE4201DFEF7F0FCE06A2A6906FA00F1D5
:1040000011432961414900EB800001EB8000211D33
:10401000E5E700200AE470B53B4D06460C46286BE8
:1040200038B940F69932AFF26C71AFF25C7003F0C0
:10403000E5FB44F000403060F4683CB940F6A13242
:10404000AFF28871AFF2787003F0D8FB3046FEF71C
:10405000C3FC201DFEF7C0FCE06A01262A6906FAAF
:1040600000F111432961294900EB800001EB800038
:10407000211DFEF78DFCE06A2968C96A884202D9D1
:104080000120EE6170BD002070BD10B5040007D1A5
:1040900040F6C132AFF2DC71AFF2CC7003F0AEFB90
:1040A0001948016A2160C068606010BD70B50D4696
:1040B000040007D140F6CB32AFF60001AFF2F0704A
:1040C00003F09CFB3DB940F6CC32AFF61001AFF6E1
:1040D000000003F093FB00F089FE0B4AD0682968CA
:1040E0004B1C0FD02368126A934202D0626882424E
:1040F00010D96268801A88420CD2081A28602046BB
:10410000FFF7C3FF002406E068000020FC03002046
:10411000B8060020012400F083FE204670BDFF4950
:104120000120C8617047002800D0C06C704700288B
:1041300000D0C1647047F94800687047F74841698A
:1041400019B1006B18B100207047012070470220A0
:10415000704770B5040039D0F04DE06A2968C96A2B
:10416000884233D2A069002804DB2868C06AC0F105
:104170002000A061E06AEA4E00EB8000616906EB76
:10418000800081421FD1201DFEF726FC012150B97D
:10419000E06A00EB800256F8222022B92A6901FA6F
:1041A00000F082432A612868C06AE0622A6981407F
:1041B0001143296100EB800006EB8000211DBDE862
:1041C0007040FEF7E5BB2868C06AE06270BD70B55C
:1041D00004004FF0000640D0D04D2868844207D03C
:1041E00040F6C762AFF62C11AFF61C1003F006FBC9
:1041F000606D38B940F6C962AFF64011AFF63010C5
:1042000003F0FCFA606D401E6065226DE16A914228
:1042100023D010BB201DFEF7DFFBC149012250B99E
:10422000E06A00EB800351F8233023B92B6902FACE
:1042300000F083432B61206DE062C0F12000A0619B
:10424000E06A2B6982401A432A6100EB800001EB8F
:104250008000211DFEF79CFB0126304670BD2DE934
:10426000FF41002705460770AC48816802918068CD
:1042700000EBC000800000F069FE06004BD0002279
:104280000299FFF7ECFDCDE9020738463AE000EB72
:10429000C00006EB8001087B01280FD002280FD058
:1042A00003280FD004280FD000244968284603F0C3
:1042B00044FC284603F070FC202109E05224F4E776
:1042C0004224F2E75324F0E74424EEE72954401C4B
:1042D0001328FBD32F540544039800EBC00006EBD2
:1042E00080008268018CCDE90012036922468DA10D
:1042F000284603F08FFA284603F04EFC0544039845
:10430000401C039002998842C1D304B03046BDE8F6
:10431000F04100F086BEBDE8FF81804908680A6868
:104320008069D26A0968C2F120028A6170477B49BC
:10433000086818B10868426D521C426508687047E9
:1043400070B50C46064600F051FD744D2868806D2E
:1043500080B92968012081F85C005CB10121204608
:10436000FFF732FA73494FF080500860BFF34F8F68
:10437000BFF36F8F00F054FD00F038FD2868846DA6
:10438000002034B116B12968886502E02A68611EF0
:104390009165296881F85C0000F042FD204670BDFF
:1043A0002DE9F0411E4615468846074600F01EFDE1
:1043B0005A4C206890F85C00022814D02068816D67
:1043C000B94381652168012081F85C005EB101215B
:1043D0003046FFF7F9F957494FF080500860BFF3B6
:1043E0004F8FBFF36F8F00F01BFD00F0FFFC15B186
:1043F0002068806D2860206890F85C0001280DD04E
:104400002068816D21EA080181650125216800206D
:1044100081F85C0000F004FD28463BE40025F5E748
:104420002DE9F0411F4690460D4604004FF001066D
:1044300007D141F2FD02AFF67C31AFF66C3003F0EC
:10444000DDF900F0D3FC0FB1A06D386094F85C008A
:10445000022184F85C10B8F1050F0ED2DFE808F0F5
:104460000D03060C0A00A16D294301E0A16D491C52
:10447000A16502E0022803D0A565012802D02AE048
:10448000002628E0201DFEF7A7FA244DE06A01214E
:104490002A69814011432961214900EB800001EB29
:1044A0008000211DFEF774FAA06A38B141F235127E
:1044B000AFF6F831AFF6E83003F0A0F9E06A29680A
:1044C000C96A884207D91B494FF080500860BFF382
:1044D0004F8FBFF36F8F00F0A3FC304688E52DE9C6
:1044E000F0471F46DDF8209092460D4604004FF03D
:1044F000010807D141F26812AFF64041AFF63040F3
:1045000003F07CF900F0B1FC3020EFF3118680F36A
:104510001188BFF34F8FBFF36F8F0DE0680000204D
:10452000FC030020092563092575092575092575F2
:104530000D0A000004ED00E00FB1A06D386094F8A2
:104540005C00022184F85C10BAF1050F0ED2DFE89E
:104550000AF00D03060C0A00A16D294301E0A16DCC
:10456000491CA16502E0022803D0A565012803D0FB
:1045700031E04FF000082EE0A06A38B141F2AF12EE
:10458000AFF6C841AFF6B84003F038F98D4D286B4F
:10459000012778B104F118018B48FEF7F9F9E06AB8
:1045A0002968C96A884216D9B9F1000F12D0C9F832
:1045B000007010E0201DFEF70FFAE06A2A6907FA82
:1045C00000F11143296100EB8001804800EB81007C
:1045D000211DE2E7EF6186F31188404611E42DE9E1
:1045E000F0418846040007D141F2E312AFF634519E
:1045F000AFF6245003F002F900F037FC3020EFF35F
:10460000118780F31188BFF34F8FBFF36F8F94F83A
:104610005C00022184F85C10A16D491CA165012891
:104620002ED1A06A38B141F20922AFF67051AFF62F
:10463000605003F0E3F8634D286B012678B104F174
:1046400018016148FEF7A4F9E06A2968C96A88423E
:1046500016D9B8F1000F12D0C8F8006010E0201D84
:10466000FEF7BAF9E06A2A6906FA00F111432961F6
:10467000564900EB800001EB8000211DE2E7EE616E
:1046800087F31188B4E410B558B1044600F0AEFBCE
:1046900094F85C00022807D0002400F0C1FB2046FB
:1046A00010BD48480468F1E7002084F85C0001244C
:1046B000F3E72DE9F0470E46DDE909841746824607
:1046C00091009946089DA522206B03F0D3FA6FF064
:1046D0000301206B01EB8701084420F007077807EE
:1046E00005D040F22B323AA13EA003F087F800201B
:1046F0002218315C82F83410315C11B1401C14284E
:10470000F6D3002684F84760202D00D31F25E562EC
:10471000C4E91456201DFEF738F904F11800FEF71D
:1047200034F92461C5F120006462A061A66584F8B3
:104730005C604A465146384600F0F9FA2060B8F10C
:10474000000F01D0C8F8004048E71E48416B0968D7
:1047500029B1416BC968C9684968816270474FF0E7
:10476000FF31FAE710B50446006B00F05AFC204612
:10477000BDE8104000F055BC70B5134E114D143615
:104780001CE0FFF754F8306820B10024FEF7C1FFA9
:10479000A4B901E00124F9E700F028FBF068C4683F
:1047A000201DFEF719F9A868401EA8606868401E21
:1047B000686000F035FB2046FFF7D4FF68680028EA
:1047C000DFD170BD68000020A4060020FC0300209B
:1047D0002E2E5C4672656552544F535C7461736B48
:1047E000732E63004572726F723A25732C25640D27
:1047F0000A00000070B500244160F74D006191424D
:1048000006D8D11A8269914206D2011D286907E0B3
:104810009A4203D2994201D3012403E0011DE868C2
:10482000FEF7C2F8204670BD2DE9FF479946DDF836
:1048300030A090460D4606004FF0000705D14FF41A
:10484000D372E6A1EBA002F0D9FFE34C206880B15F
:10485000CDE900580296062D11DAFFF76FFC022809
:104860004FF0000309D0002269462068FEF7D6F910
:10487000074604B03846BDE8F0875246F4E7002307
:104880004A466946FEF7C2FBF2E770B586B0D24EE3
:1048900053E00198002806DADDE90301029A904707
:1048A0000198002849DB039C606910B1201DFEF7C8
:1048B00093F805A800F04DF9054601980A283CD266
:1048C000DFE800F00505053B273805053B27029882
:1048D000A169034601442A462046FFF78BFF0028C2
:1048E0002BD0616A20468847E069012825D1002045
:1048F00000900298A1690023421819462046FFF74C
:1049000093FFD0B940F22132B4A1BAA002F076FFF1
:1049100013E00298A06128B94FF44E72AFA1B5A080
:1049200002F06CFFA0692B4641191A462046FFF79A
:1049300061FF02E0204600F074FB00231A4601A943
:104940003068FEF770FA0028A3D106B070BDA24C03
:10495000E068016839B1002139B1002000F00BF99D
:10496000FFF793FFF4E70121F6E7C0680068F5E779
:1049700010B500F03BFA984C2068A0B9A148FDF7AB
:10498000F9FFA0481430FDF7F5FF9E48E0601430B1
:104990002061002210210520FEF770F8206010B180
:1049A00099A1FEF7F4FCBDE8104000F039BA1CB53F
:1049B0000024FFF7DDFF8848006868B186491F20A2
:1049C000091DCDE9000100234FF4827290A19248A5
:1049D000FEF7CAFD040005D140F233127FA185A085
:1049E00002F00CFF20461CBD2DE9F0470746994612
:1049F00016460D462C20DDF820A000F0A7FA040092
:104A000014D0B8464F46D1462DB94FF4C67283A193
:104A100088A002F0F3FEFFF7ABFF04F11801C4F821
:104A2000008081E8E002201DFDF7AFFF204622E76D
:104A300010B5694C606828B94FF4E87267A16DA0A1
:104A400002F0DCFE606810BD10B5040005D140F234
:104A5000D91262A167A002F0D1FEA06910BD10B505
:104A6000040005D140F2E3125CA162A002F0C6FE90
:104A7000606810BD10B5040005D140F2ED1257A1D9
:104A80005CA002F0BBFE206810BD10B5040005D18B
:104A900040F2DA3251A157A002F0B0FE00F0A6F9C0
:104AA000606908B1012400E0002400F0B9F9204653
:104AB00010BD10B5040005D140F2EF3247A14DA062
:104AC00002F09CFE00F092F9246A00F0A9F9204659
:104AD00010BD70B50D46040005D140F2FF323FA174
:104AE00044A002F08BFE00F081F92562BDE8704021
:104AF00000F096B97FB56FF0010401AE009486E82E
:104B0000070035481D4600232A4669460068FEF71F
:104B10007DFA04B070BD2DE9FF412F4C0746984641
:104B2000206815460E4628B940F22B422BA131A031
:104B300002F064FE4FF0FF30CDE90007CDE90265D9
:104B40000023424669462068FEF768F804B0BDE8D5
:104B5000F08170B50546FFF7FAF81F4E0446B068BD
:104B6000844203D200F070F8012000E000202860A9
:104B70002046B46070BDF8B50D460646FEF757FEF8
:104B80006846FFF7E6FF0446009810B1FEF7C1FD46
:104B9000F8BD1148ADB101690968D9B10025311BD3
:104BA0002A460068FEF714FCFEF7B3FD0028EFD19B
:104BB00024494FF080500860BFF34F8FBFF36F8FD1
:104BC000F8BDA642EBD8FEF7A4FD2146304600F022
:104BD0006EF8F8BD0125E2E7A40000202E2E5C4609
:104BE00072656552544F535C74696D6572732E63C0
:104BF000000000004572726F723A25732C25640D17
:104C00000A000000E0060020546D72510000000010
:104C1000546D7220537663004F4900082E2E5C4677
:104C200072656552544F535C74696D6572732E637F
:104C3000000000004572726F723A25732C25640DD6
:104C40000A00000004ED00E0F8B52F4E27E0C06830
:104C5000C4680568201DFDF7BFFE616A20468847CD
:104C6000E06901281BD1A0692844A84206D9246123
:104C70006060211DF068FDF797FE10E000200346FC
:104C8000014600902A462046FFF7CEFD38B940F293
:104C90009232AFF27801AFF2640002F0AFFDF0683B
:104CA00001680029D3D13169C6E90310F8BDF8B510
:104CB000054615480E46C068C068C468201DFDF74B
:104CC0008BFEE069012818D1A0692B4641193246B4
:104CD0002046FFF78FFD80B100200346014600907B
:104CE0002A462046FFF7A0FD38B94FF40272AFF212
:104CF000D401AFF2C00002F081FD616A01B020462C
:104D0000BDE8F04008470000A40000206948406862
:104D1000401C04D0F42268A172A002F06FFD302084
:104D200080F31188BFF34F8FBFF36F8FFEE710B58D
:104D3000031F4FF080741C601B1F21F001011960DC
:104D4000191F6C4B0B60143940380A6010BD6A485B
:104D50004FF47A710068B0FBF1F14FF0E020491E8A
:104D600041610721016170471CB5644908780190D1
:104D7000FF20087008788DF800009DF800004D4A6B
:104D800000F0300010700720906007E09068401E2F
:104D900090609DF8000040008DF800009DF8000034
:104DA0000006F3D4107A000200F4E06090600198ED
:104DB00008705348016841F470010160016841F0D6
:104DC00070410160FFF7C3FF00205060FBF748FA15
:104DD00000201CBD37484068B0F57A7F05D04FF4FD
:104DE000B57235A13FA002F009BD7047302080F3B5
:104DF0001188BFF34F8FBFF36F8F2E494868401C57
:104E0000486001280BD13E481C38006810F0FF0FA5
:104E100005D04FF4BD7228A132A002F0EFBC70475C
:104E200010B5244C606828B940F2811222A12DA04F
:104E300002F0E4FC6068401E606001D180F31188DC
:104E400010BD10B5302080F31188BFF34F8FBFF332
:104E50006F8FFEF701FC20B129494FF080501C39BB
:104E60000860002080F3118810BD10B5FBF72EFA02
:104E7000104C10280CD300F1E02090F8F0032178BA
:104E8000884205D24FF42A720BA116A002F0B6FC9C
:104E90001B4814380068A16800F4E060884207D914
:104EA000BDE810404FF42E7203A10EA002F0A6BC84
:104EB00010BD0000B80000202E2E5C4672656552C1
:104EC000544F535C706F727461626C655C525644EF
:104ED000535C41524D5F434D335C706F72742E636F
:104EE000000000004572726F723A25732C25640D24
:104EF0000A0000000D4D00080000002000E400E062
:104F000020ED00E030B5744900E011460A688242A5
:104F1000FBD34B685C18844203D140681844486056
:104F2000084643681C18944209D16B4C103C246815
:104F3000A24209D052681A4442600A6812680260AC
:104F4000814200D0086030BD0460F9E72DE9F041EE
:104F500005460026FEF76BFC5F4F103F386808B926
:104F600000F098F8F86805424ED1002D4CD0083575
:104F700068070BD005F00700C0F10800054468077A
:104F800004D0BF2255A15FA002F038FC002D3BD019
:104F90007868854238D850490846046801E02146BF
:104FA00004466068A84202D220680028F7D1386819
:104FB000B846844228D00E682068086060680836C9
:104FC000401B10280ED96719780704D0EC2243A1A2
:104FD0004CA002F013FC6068401B786038466560A6
:104FE000FFF790FF6168D8F804004246401AC8F8FD
:104FF0000400D8F80830984200D29060D8F80C002D
:1050000001430020C4E90001FEF783FB700705D0CF
:105010004FF4967231A13BA002F0F0FB3046BDE8A0
:10502000F08170B500282BD02B4DA0F10804103D65
:105030006068E968084205D14FF4A07227A131A049
:1050400002F0DCFB206828B140F2411223A12DA020
:1050500002F0D4FB6068E968084211D02268002A97
:105060000ED188436060FEF7E2FB6068696808441F
:1050700068602046FFF746FFBDE87040FEF749BB79
:1050800070BD154810384068704713481038806864
:10509000704770471F484FF4A041420706D0C01D1B
:1050A0001C4920F00700411AC1F5A0410A4A00231B
:1050B0000144C2E900030839103A21F007011160E8
:1050C0004B600B600B1AC0E9001393604FF0004077
:1050D0005360D06070470000D40000202E2E5C4644
:1050E00072656552544F535C706F727461626C6587
:1050F0005C4D656D4D616E675C686561705F342EF7
:10510000630000004572726F723A25732C25640D9E
:105110000A0000000807002070B52F2102F031FDC1
:10512000441C14D0204602F037FD401C02F00FFB57
:1051300005000AD0204602F02FFD411C284602F04F
:10514000A1FD2146284602F0F8FC284670BD00204B
:1051500070BD70B5FA4D0C46B0B1012825D1286A52
:10516000002822D054B101F014F80646214605F17A
:10517000300000F08FFA304601F010F8A86ABDE860
:105180007040022100F0CBBF286800280DD054B138
:1051900000F0FFFF0646EA482146103000F07AFA98
:1051A000304600F0FBFFA868E9E770BD2DE9F84F35
:1051B0000468002781464FF4807A48344CE07E2A08
:1051C00059D14618484600F074FA0546B04201D35A
:1051D000A81B05E02068871B281A07F5807738444C
:1051E000009040F2C112D7A1801C01F0B3F95FEA30
:1051F000000840D0B54202D33146009A07E03A4653
:10520000314602F0F2FC216808EB07006A1A02F04E
:10521000ECFCD9F80000006800282AD00125C9A0BC
:10522000FFF77AFF0646024640F2DD13CB49CCA0D9
:1052300002F0E4FACDA0009902F0E0FA304602F064
:10524000B5FA6A464146284601F072F84FF4F17209
:10525000BCA1404601F0C0FAD4E90101524600F079
:10526000D2FB012807DBA1682068425C232AA8D072
:10527000A5E70025D3E7BDE8F88F97E70446B1A07E
:10528000FFF74AFFB5490546024640F237130E467E
:10529000B3A002F0B3FAB9A002F0B0FA284602F0C7
:1052A00085FA4FF49F7500224146606800F050FF78
:1052B0000028F8D1A3A0FFF72FFF074602462B4690
:1052C0003146A7A002F09AFAB4A002F097FA384645
:1052D00002F06CFA2046FFF769FFE4E72DE9F0479A
:1052E000054600F0C0FF064600F053FF074605F1F3
:1052F00010093CE0484600F0D5F908B1002400E070
:105300002C69384600F04AFFA06808B101282BD16B
:10531000218A6069A2690144286800F0D2FB218AD1
:10532000084480B22082A16988421AD34FF40572E2
:1053300084A1606901F050FA0027278200F029FF5C
:105340008046D4E900014160D4E90001086027608B
:10535000214606F10C00676000F09CF9404600F021
:105360001DFF286800F0CEFB00F013FF07464846FB
:1053700000F098F90028BDD03846BDE8F04700F0AD
:105380000DBF04466FA0FFF7C7FE064602464FF466
:10539000A573724972A002F031FA88A002F02EFAC9
:1053A000304602F003FA00222946A06800F0D0FE41
:1053B0000028F8D12046FFF791FFF4E7674D044637
:1053C00000264FF48A7800223146606800F0C0FE63
:1053D0000028F8D15BA0FFF79FFE07460246434630
:1053E00029465FA002F00AFA7CA002F007FA3846CC
:1053F00002F0DCF92046FFF7D9FEE4E7574D0446FA
:1054000000264FF4937800223146A06800F0A0FEF9
:105410000028F8D14BA0FFF77FFE0746024643461F
:1054200029464FA002F0EAF973A002F0E7F93846E6
:1054300002F0BCF92046FFF751FFE4E7404910B500
:10544000203130B1886810B1022100F068FE0020E0
:1054500010BD4FF0FF3010BD394910B5203130B1CB
:10546000486810B1012100F05AFE002010BD4FF035
:10547000FF3010BD10B5324930B1886810B102213B
:1054800000F04DFE002010BD4FF0FF3010BD10B5F4
:105490002B4930B1486810B1012100F040FE0020D6
:1054A00010BD4FF0FF3010BD2DE9FC41050004D0C8
:1054B000012D10D00020BDE8FC81214C2021204688
:1054C00002F002FC534820600020534900F0D1FB59
:1054D000002052490EE01A4C20212034204602F0D0
:1054E000F3FB4C484E4984302060012000F0C1FBA2
:1054F00001204C4900F0C6FB04F110002061002699
:105500004FF400776061D5B10520CDE90006234650
:105510003A4645A14748FEF727F80620CDE90006A0
:1055200023463A4644A14748FEF71EF8201D00F0E6
:10553000E4FD04F1080000F0E0FD2046BBE783E055
:10554000085700202E2E5C5441534B5C6D705F75E4
:105550006172745F7461736B2E6300001801002028
:105560005B25732D25732D25645D0900636D645FD4
:105570006C656E203D2025640A0000002121217405
:105580006C735F756172745F325F72785F746173A0
:105590006B2073746172742121210A002121212161
:1055A0002121556172743220526563762044617402
:1055B000612121212121210A0000000021212174E3
:1055C0006C735F756172745F325F74785F7461735E
:1055D0006B2073746172742121210A002121212121
:1055E0002121556172743120527820446174612107
:1055F00021212121210A0000212121212121556180
:105600007274312054782044617461212121212158
:10561000210A0000485700208F54000875540008E4
:10562000595400083D54000855415254325F5458B3
:10563000000000008353000855415254325F525815
:10564000000000007D5200080720CDE90006234637
:105650003A4637A13948FDF787FF0820CDE9000613
:1056600023463A4636A139485EE710B500F0FBFD07
:1056700004464021364802F027FB0021084600F08E
:10568000A2FA002805D1FFF70FFF002801D031480A
:10569000606110BD40680268C1E900200268516085
:1056A000016070470168814201D1012070470020EC
:1056B000704770B5024604681268D4E91310926C02
:1056C00048340244814207D9091A104600F02CF8E8
:1056D000050013D001460EE0C0F58071104600F0C1
:1056E00023F80500F6D1D4E9000100F01DF805000B
:1056F00004D005F58071204600F00AF82168A06802
:10570000095C0D2902D1401CC0B2A060284670BDC2
:10571000036882681344C91A802901D9416801E0ED
:105720001144C9B2816070470A460D2102F053BA94
:1057300055415254315F545800000000FD53000899
:1057400055415254315F525800000000BD530008CB
:105750000857002053510008010900F00F0001EB29
:10576000810100EB4100C0B2704730B50446002013
:10577000014601228D0024FA05F303F00F0303FB19
:10578000020002EB8202491C5200C9B20829F1D37F
:1057900030BD0A21B0FBF1F2B2FBF1F301FB1322A1
:1057A000B0FBF1F301FB130000EB0210C0B2704735
:1057B0006421B0FBF1F3002242EA0322B0FBF1F3D3
:1057C00001FB13000A21B0FBF1F342EA0312B0FB24
:1057D000F1F301FB1300104370474FF47A71B0FBF3
:1057E000F1F3002242EA0332B0FBF1F301FB1300B4
:1057F0006421B0FBF1F342EA0322B0FBF1F301FBB9
:1058000013000A21B0FBF1F342EA0312B0FBF1F3FB
:1058100001FB130092B21043704710B50022401EE6
:1058200080B2824206D28B5C0C5C8C54521C0B54AE
:1058300092B2F4E710BD4FF6FF7202EA002008436F
:10584000704700090A2801D337307047303070475D
:1058500000F00F000A2801D337307047303070470E
:1058600000B50346FFF7EDFF02461846FFF7F0FFCD
:105870000A70487000BD30B500F00F02C0F3032479
:105880000D461046FFF7ECFFA91C2046BDE830404E
:10589000E6E730B5C2B2C0F307440D461046FFF745
:1058A000EAFF291D2046BDE83040E4E7A0F13001C1
:1058B000092901D8C8B27047A0F14101052901D8D2
:1058C000373804E0A0F161010529F4D85738C0B297
:1058D000704700B50B46FFF7E9FF02461846FFF791
:1058E000E5FF40EA0210C0B200BDF0B54F08044623
:1058F0000646002509E014F8010B14F8011BFFF718
:10590000E8FF6D1C06F8010BADB2BD42F3D3F0BD4C
:10591000A0F14101192901D82030C0B2704710B55B
:105920000C460246002306E01078FFF7F1FF5B1CEF
:1059300002F8010B9BB2A342F6D310BD034610B58B
:105940000020024605E013F8014B521C204480B2AF
:1059500092B28A42F7D310BD70B5064600240DE01E
:1059600012F8010B4140002011F0010F4FEA5101E4
:1059700000D07140401C0828F6DB641C9C42EFDB21
:10598000084670BDF0B51E4617468C46059C054678
:10599000324639466046A31EFFF7DEFF4FF6FF731F
:1059A000311955B111F8022D497803EA0222114448
:1059B00089B2884208D10120F0BD11F8012C11F8FC
:1059C000021C03EA0222F2E70020F0BD70B52F218D
:1059D00002F0D7F8441C14D0204602F0DDF8401C39
:1059E00001F0B5FE05000AD0204602F0D5F8411CB2
:1059F000284602F047F92146284602F09EF828463C
:105A000070BD002070BD401A521E104070470B46FA
:105A1000411C1846F7E72DE9F0410E46FF4900EB1F
:105A2000401001EB800505F148044FF48072D4E981
:105A30000101FFF7ECFF022812DC686C401C68646F
:105A4000F7A0FFF7C3FF074602462123FA49FBA050
:105A500001F0D4FEFCA001F0D1FE384601F0A6FE14
:105A6000D4E9000146542079401CC0B26060E86A65
:105A7000401CE862BDE8F081E84900EB401001EB12
:105A8000800101F148004A6F002A05D00368806850
:105A9000898D184489B210477047816840684FF477
:105AA0008072B0E7D0E90110814201D10120704736
:105AB00000207047D94900EB401001EB800000F056
:105AC00010BA2DE9F04100F15405406D16468846A4
:105AD000002708B9781ECDE7A64200D23446002C34
