:020000040800F2
:10000000D8760020D1110008E7020008E9020008B4
:10001000EB020008ED020008EF02000800000000FB
:100020000000000000000000000000003D02000889
:10003000F10200080000000081020008C90D00085C
:10004000EB110008EB110008EB110008EB110008A0
:10005000EB110008EB110008EB110008EB11000890
:10006000910D0008EB110008EB110008EB110008DE
:10007000EB110008EB110008EB110008EB11000870
:10008000EB110008EB110008EB110008EB11000860
:10009000EB110008EB110008EB110008BF0C000881
:1000A000EB110008EB110008EB110008EB11000840
:1000B000EB110008EB110008EB110008EB11000830
:1000C000EB110008EB110008EB110008EB11000820
:1000D000EB110008F910000877110008EB11000877
:1000E0005F0D0008EB110008EB110008EB11000890
:1000F000EB110008EB110008EB110008EB110008F0
:10010000EB110008EB110008EB110008EB110008DF
:10011000EB110008EB110008EB110008EB110008CF
:10012000EB110008EB110008EB110008EB110008BF
:1001300000F002F800F072F80AA090E8000C824487
:100140008344AAF10107DA4501D100F067F8AFF264
:10015000090EBAE80F0013F0010F18BFFB1A43F0A5
:100160000103184788700000A87000000A444FF08F
:10017000000C10F8013B13F0070408BF10F8014B06
:100180001D1108BF10F8015B641E05D010F8016B4B
:10019000641E01F8016BF9D113F0080F1EBF10F8AF
:1001A000014BAD1C0C1B09D16D1E58BF01F801CBD2
:1001B000FAD505E014F8016B01F8016B6D1EF9D555
:1001C0009142D6D37047000000230024002500266A
:1001D000103A28BF78C1FBD8520728BF30C148BFAA
:1001E0000B607047702906F0F583642906F082835E
:1001F000752906F07F83782906F0DF83632906F0EE
:100200006C86732906F07186002070471FB59DE843
:10021000030006F0ABFD1FBD10B510BD06F0D7FE04
:100220001146FFF7F3FF00F055F806F0F5FE03B4B2
:10023000FFF7F2FF03BC00F033FE0000224B196809
:100240000868B0E8F00F80F30988BFF36F8F4FF0B4
:10025000000080F311884EF00D0E70470000000082
:1002600006480068006880F3088862B661B6BFF38C
:100270004F8FBFF36F8F00DF00BF00BF08ED00E0BE
:10028000EFF30980BFF36F8F0F4B1A6820E9F00F6F
:10029000106008B54FF0300080F31188BFF34F8F26
:1002A000BFF36F8F02F02AFD4FF0000080F311883A
:1002B000BDE8084019680868B0E8F00F80F30988C5
:1002C000BFF36F8F704700BF4C000020EFF3058035
:1002D0007047000010B500F0C8F800F0B7F802F061
:1002E00025FE002010BD7047FEE7FEE7FEE7FEE7B3
:1002F000704700000CB500224C4800920192016842
:1003000041F4803101604FF4A063016801F40031D1
:1003100001910099491C0091019911B900999942E4
:10032000F3D10168890333D50121019140490A685D
:1003300042F010020A600A6822F003020A600A68AA
:1003400042F002020A6041684160416841604168D0
:1003500041F480614160416821F47C114160416851
:1003600041F4E8114160016841F080710160016869
:100370008901FCD5416821F003014160416841F0E9
:10038000020141604168C1F381010229FAD10CBD2B
:1003900001920CBD254810B5016841F001010160D2
:1003A0004168244A114041600168234A11400160BC
:1003B000016821F480210160416821F4FE0141605F
:1003C0004FF41F018160FFF795FF1C494FF000605B
:1003D000086010BD154A10B55068194B10F00C019B
:1003E000184803D0042901D0082901D0036012E085
:1003F0005168536801F470114FF0020413F4803F08
:1004000004EB914102D053689B0301D50E4B00E0F1
:100410000B4B5943016051680A4AC1F30311121D85
:10042000515C0268CA40026010BD0000001002402A
:10043000002002400000FFF8FFFFF6FE08ED00E09C
:1004400000127A000000002000093D0010B504F001
:1004500033F904F0FCFF04F049FA04F04FFA04F019
:1004600063FABDE8104004F01BBA10B54FF44070B9
:1004700000F0CEFE00F0B2FC00F002F8012010BD4A
:100480007CB5644E0124346000F0C6F8684600F084
:10049000CDFA9DF8060040F6980100F5FA60884212
:1004A00013D98DF804408DF805400A2000258DF8F9
:1004B00006000095684600F009FB684600F0B6FAB1
:1004C0009DF806000A2800D035607CBD02784FF008
:1004D000FF313C2A0BD242783C2A08D28278182A73
:1004E00005D202791F2A02D840790C2801D9084682
:1004F00070470020704710B5044600F0E7FA38B1A5
:10050000204600F0E3FA18B142490020086010BD0F
:10051000012010BD2DE9F04100243E4E074625463E
:10052000384600F083FA20B1384600F07FFA00B177
:100530003560641CE4B23846FFF7C8FF08B1042CEC
:10054000EED3042C02D00120BDE8F081384600F043
:1005500031F80020F8E72DE9F0418E7905460C4688
:1005600006F5FA66300A294604F063FA29466D1C3E
:10057000F0B204F05EFA29466D1C607904F059FA75
:1005800029466D1C207904F054FA29466D1CE07848
:1005900004F04FFA29466D1CA07804F04AFA294667
:1005A0006D1C607804F045FA20782946BDE8F041DA
:1005B00004F03FBA04E03C3901704178491C4170B5
:1005C00001783C29F7D204E03C3941708178491C1C
:1005D000817041783C29F7D204E0183981700179A3
:1005E000491C017181781829F7D204E01F39017183
:1005F0004179491C417101791F29F7D804E00C3970
:1006000041718179491C817141790C29F7D8002009
:10061000704700001400002038B50121402001F08F
:100620008EF80820ADF8000003248DF80240102059
:10063000FD4D8DF803006946284600F098FE042120
:10064000ADF800108DF8024014208DF803006946C3
:10065000284600F08CFE38BD70B500F038FAF24C38
:100660000421204600F0EDFE0821204600F0E9FEBE
:1006700000F03CFA0421204600F0CFFE4FF0FF3599
:1006800050B10421204600F0DEFE00F02FFA0421D4
:10069000204600F0C2FE08B1284670BD0821204661
:1006A00000F0D1FE00F022FA002070BD10B500F07D
:1006B0000EFADD4C0421204600F0C5FE082120463C
:1006C00000F0C1FE00F012FA0821204600F0B9FE49
:1006D00000F00CFA2046BDE81040042100F0B1BE45
:1006E00038B5D14DFF240821284600F0ACFE042186
:1006F000284600F0A6FE0421ADF8001003218DF875
:10070000021048208DF803006946284600F02FFEAD
:1007100000F0ECF90821284600F093FE00F0E6F91D
:1007200003E0641E14F0FF040BD00421284600F0FF
:1007300074FE0028F5D10821284600F084FE002030
:1007400038BD0821284600F07EFE4FF0FF3038BD4E
:10075000F8B508240546B44E05271BE000F073FEEB
:1007600000970098401E00900028FADC28064FF001
:100770000401304602D500F064FE01E000F063FEA3
:1007800000F0B4F90821304600F05BFE00F0AEF94D
:100790006806050E641EE4B24FF008013046DDD253
:1007A000BDE8F84000F04FBE2DE9F0418046FFF76C
:1007B00053FF4FF0FF3410B12046BDE8F0816520B3
:1007C000FFF7C6FFFFF78CFF10B1FFF76FFFF3E7EE
:1007D000954F0025002408260421384600F031FEFC
:1007E00018E06006040E0821384600F02CFE00F0E8
:1007F0007DF900F07BF90821384600F022FE00F078
:1008000075F900F073F90421384600F006FE08B1CE
:1008100044F00104761EF6B2E3D20821384600F017
:1008200012FE08F80540062D15D000F050F90421FD
:10083000384600F008FE0821384600F004FE00F0BB
:1008400055F90821384600F0FCFD00F04FF9082169
:10085000384600F0F8FD6D1CEDB2072DBAD300F05C
:1008600036F90421384600F0ECFD0821384600F046
:10087000EAFD00F03BF90821384600F0E2FD00F007
:1008800035F90821384600F0DEFDFFF70FFF0020A4
:1008900093E770B5054600F036F9FFF7DDFE4FF03F
:1008A000FF3408B1204670BD6420FFF751FFFFF709
:1008B00017FF10B1FFF7FAFEF4E700F008F9002087
:1008C000FFF746FFFFF70CFF00F001F928780A2434
:1008D000B0FBF4F104FB1101B0FBF4F041EA0010AD
:1008E000C0B2FFF735FFFFF7FBFE00F0F0F86878C5
:1008F000B0FBF4F104FB1101B0FBF4F041EA00108D
:10090000C0B2FFF725FFFFF7EBFE00F0E0F8A87894
:10091000B0FBF4F104FB1101B0FBF4F041EA00106C
:10092000C0B240F08000FFF713FFFFF7D9FE00F0E0
:10093000CEF8E878B0FBF4F104FB1101B0FBF4F061
:1009400041EA0010C0B2FFF703FFFFF7C9FE00F055
:10095000BEF82879B0FBF4F104FB1101B0FBF4F010
:1009600041EA0010C0B2FFF7F3FEFFF7B9FE00F056
:10097000AEF86879B0FBF4F104FB1101B0FBF4F0C0
:1009800041EA0010C0B2FFF7E3FEFFF7A9FE00F056
:100990009EF8A879B0FBF4F104FB1101B0FBF4F070
:1009A00041EA0010C0B2FFF7D3FEFFF799FEFFF750
:1009B0007DFEFFF751FE6420FFF7CAFEFFF790FEB1
:1009C00000F085F81220FFF7C3FEFFF789FE00F064
:1009D0007EF80020FFF7BCFEFFF782FEFFF766FE01
:1009E000FFF73AFE38B96420FFF7B2FEFFF778FE52
:1009F00018B1FFF75BFE002070BD00F068F80F2013
:100A0000FFF7A6FEFFF76CFE00F061F80020FFF78D
:100A10009FFEFFF765FE00F05AF80020FFF798FEF2
:100A2000FFF75EFEE5E700000018014010B5044640
:100A3000FFF7BAFE10B14FF0FF3010BD207800F084
:100A40000F01C0F3021000EB800001EB40002070AA
:100A5000607800F00F01C0F3021000EB800001EBA2
:100A600040006070A07800F00F01C0F3021000EBAE
:100A7000800001EB4000A070E07800F00F01C0F3AF
:100A8000021000EB800001EB4000E070207900F0E4
:100A90000F01C0F3021000EB800001EB4000207159
:100AA000607900F00F01C0F3021000EB800001EB51
:100AB00040006071A07900F00F01C0F3021000EB5C
:100AC000800001EB4000A071002010BDE1E608B5F8
:100AD0000420ADF8000003208DF8020014208DF8EA
:100AE00003006946254800F042FC08BD08B5002017
:100AF0008DF800009DF80000082803D29DF8000042
:100B0000401CF5E708BD10B5FFF7A6FD4FF0FF3418
:100B100008B1204610BD6420FFF71AFEFFF7E0FD84
:100B200010B1FFF7C3FDF4E7FFF7D1FF1020FFF787
:100B30000FFEFFF7D5FDFFF7CAFF8020FFF708FE85
:100B4000FFF7CEFDFFF7B2FDFFF786FD6420FFF74C
:100B5000FFFDFFF7C5FDFFF7BAFF0F20FFF7F8FD18
:100B6000FFF7BEFDFFF7B3FF8420FFF7F1FDFFF7AE
:100B7000B7FDFFF79BFD002010BD000000180140ED
:100B80007FB50121312000F0DAFD4FF40070ADF89F
:100B900000008B4D04248DF803406946284600F080
:100BA000E6FB0921032000F096FCA001ADF800004F
:100BB0008DF803406946284600F0D9FB0821032040
:100BC00000F089FCADF800408DF8034069462846E6
:100BD00000F0CDFB0221032000F07DFCA002ADF867
:100BE00000008DF803406946764800F0C0FB0C21F8
:100BF000022000F070FC4020ADF800008DF80340AA
:100C00006946284600F0B3FB0621032000F063FC90
:100C10002020ADF800008DF803406946284600F01A
:100C2000A6FB0521032000F056FC41F264300024AD
:100C300002908DF80C4010208DF80D0001258DF8E4
:100C40000E5002A800F06CFF17208DF804008DF8FC
:100C500005408DF806408DF8075001A800F0DDFA38
:100C600028208DF804008DF805408DF806408DF899
:100C7000075001A800F0D1FA08208DF804008DF883
:100C800005408DF806408DF8075001A800F0C5FA20
:100C90007FBD08B50121202000F051FD4FF48050A8
:100CA000ADF8000003208DF8020014208DF8030039
:100CB0006946434800F05BFBBDE8084060E770B55B
:100CC0004FF48075284600F07BFF3D4C60B128460C
:100CD00000F084FF2946204600F09FFB10B101215F
:100CE000002011E00021FBE74FF40075284600F0DA
:100CF00067FF58B1284600F071FF2946204600F0F2
:100D00008CFB90B10121012005F00CFD202000F0AA
:100D100057FF70B1202000F061FF2021204600F035
:100D20007CFB20B10121002012E00021EBE7002133
:100D3000F9E7402000F044FF00280FD0402000F0E9
:100D40004DFF4021204600F068FB28B10121012021
:100D5000BDE8704005F0F7BC0021F8E770BD10B5A4
:100D60004FF48054204600F02BFF00280FD020467F
:100D700000F034FF2146134800F04FFB28B1012159
:100D8000BDE81040002005F0D8BC0021F8E710BDF8
:100D900010B5042000F014FF00280FD0042000F04C
:100DA0001DFF0421064800F038FB28B10121BDE8F1
:100DB0001040012005F0C1BC0021F8E710BD000083
:100DC000001401400010014010B502F0F3FA0128B0
:100DD00003D0BDE8104003F070B910BD10B5042079
:100DE00000F05BFA2B482C492C4A0068B0FBF1F369
:100DF000B0FBF1F14FF47A70414313700120508041
:100E00004FF0E020026942F0020202614161016993
:100E100041F00101016110BD70B54FF0E0250021E6
:100E20006C691E4AAB6912785043AA699A42FCD099
:100E300002D2A3EB020302E0A4EB020633441944FE
:100E400013468142F1D370BD70B5044602F0B2FA88
:100E500001280CD0114D6888844203D3B4FBF0F014
:100E600001F080FE6888B4FBF0F100FB11444FF400
:100E70007A706043BDE87040CEE770B50546002447
:100E80004FF47A7603E03046FFF7C6FF641CAC42AD
:100E9000F9D370BD0000002040420F001800002070
:100EA0007047C4490A885206FCD5C24AC1B2121D15
:100EB000118070477047FEB50121880300F03FFCA8
:100EC0000121042000F03BFC4FF40070ADF800005D
:100ED00018208DF80300B84F03248DF802406946AE
:100EE000384600F044FA3815ADF8000004208DF8BB
:100EF00003006946384600F03AFA25208DF80400D0
:100F00008DF8054000268DF8066001208DF8070059
:100F100001A800F082F90121042000F010FCFD146A
:100F2000ADF808508DF80A4010208DF80B0002A98A
:100F3000384600F01CFA2946384600F084FA9F48EB
:100F40000670FEBD1CB50121480400F001FC012122
:100F5000084600F0F4FB0121202000F0F0FB012105
:100F6000082000F08FFA2020ADF8000018208DF83E
:100F700003000320924C8DF802006946204600F0E1
:100F8000F6F94021ADF8001004218DF803106946F0
:100F9000204600F0ECF926208DF8040000208DF8A2
:100FA00005008DF8060001208DF8070001A800F06B
:100FB00034F91CBD1CB50121880400F0C9FB0121D6
:100FC000084600F0BCFB0121202000F0B8FB012105
:100FD0007C4800F057FA4FF48070ADF800001820FC
:100FE0008DF803000320764C8DF8020069462046F8
:100FF00000F0BDF96115ADF8001004218DF8031063
:101000006946204600F0B3F927208DF8040000203F
:101010008DF805008DF8060001208DF8070001A865
:1010200000F0FBF81CBD1CB50121080500F090FB89
:101030000121302000F083FB4FF48050ADF8000018
:1010400018208DF8030003208DF8020069465E48E1
:1010500000F08DF90420ADF800008DF8030069461A
:10106000574800F084F935208DF8040000208DF8F1
:1010700005008DF8060001208DF8070001A800F09A
:10108000CCF81CBD4B490A881206FCD54949091DFC
:101090000880704710B5474A141D06E013881B06E8
:1010A000FCD510F8013B2380491E0029F6D110BD64
:1010B0004249091D002251F8200040F2255100F05C
:1010C0003ABC3E49091D012251F8200040F2255149
:1010D00000F031BC3949091D002251F8200040F2CE
:1010E000266100F028BC3549091D012251F8200075
:1010F00040F2266100F01FBC2DE9F0412D4E40F278
:1011000027773946304600F0CDFC2C4C002520B125
:101110003946304600F0E5FC257040F22557394647
:10112000304600F0BFFC70B10120207039463046D7
:1011300000F0D7FC304600F04EFCBDE8F041C1B2F3
:10114000002003F052BD40F224473946304600F0FB
:10115000A9FC00280AD03946304600F0C2FC3046CF
:1011600000F039FC002003F071FD2570BDE8F0812E
:1011700012480078704770B5144C40F22551204653
:1011800000F090FC40F2244120B12046BDE87040C0
:1011900000F0A7BC0D46204600F084FC002808D0D3
:1011A0002946204600F09DFC2046BDE8704000F036
:1011B00012BC70BD00380140000801401C00002036
:1011C00000140140300014000010014000440040B1
:1011D0000948804709480047FEE7FEE7FEE7FEE7CB
:1011E000FEE7FEE7FEE7FEE7FEE7FEE70448054907
:1011F000054A064B704700009503000831010008BE
:10120000D86E0020D8760020D8720020D872002036
:101210002849084328490860704730B50F23C27831
:1012200001780125F2B1244A126801F1E02102F4AB
:10123000E062C2F5E062120AC2F10404D3404278CF
:10124000A24084781C401443220181F800240078D5
:1012500000F01F018D404009800000F1E020C0F83F
:10126000005130BD01F01F0085404809800000F1A9
:10127000E020C0F8805130BD104A114001430E48B3
:10128000001F016070470C4A121D0029116801D02F
:10129000014300E08143116070474FF0E0210428D2
:1012A000086903D020F004000861704740F0040092
:1012B000FAE700000000FA050CED00E080FFFF1FD8
:1012C0008F4910B5884206D10121042000F049FA67
:1012D000002104203BE08B49884206D101210820EF
:1012E00000F03FFA0021082031E08749884206D10A
:1012F0000121102000F035FA0021102027E0834959
:10130000884206D10121202000F02BFA0021202064
:101310001DE07F49884206D10121402000F021FADA
:101320000021402013E07B49884206D10121802022
:1013300000F017FA0021802009E0774988420AD19D
:1013400084150121204600F00CFA00212046BDE85A
:10135000104000F006BA10BD10B50121084600F09B
:1013600000FA0021BDE81040012000F0FAB9F0B504
:10137000CC78002204F00F03E40601D58C782343D7
:101380000C784FF00F0C14F0FF0F4FF0010E1BD034
:1013900005680E880EFA02F42640A64210D1960087
:1013A0000CFA06F725EA070703FA06F5CE783D435F
:1013B000282E02D0482E02D002E0446100E00461F1
:1013C000521C082AE5D305600A88FF2A1CD9446804
:1013D000002202F108060EFA06F50E882E40AE42F3
:1013E0000ED196000CFA06F7BC4303FA06F7CE7846
:1013F0003C43282E00D14561CE78482E00D10561AE
:10140000521C082AE5D34460F0BD4FF6FF710180FD
:10141000022181700421C170704702460020926849
:101420000A4200D001207047806880B270470246AF
:101430000020D2680A4200D001207047C06880B204
:10144000704701617047416170470AB1016170479F
:1014500041617047C160704741F4803282618161AF
:1014600082618169806970472C4B10B51A684FF60C
:101470008074224042EA00100843186010BD2849D9
:10148000C8617047F0B5254C002801DAE36900E037
:101490006368450D2E0185B2C0F30157B540C0F316
:1014A0000342032F05D0C6020AD503269640B34354
:1014B00007E023F07062636823F07063636002E00A
:1014C000AB4343F0706201B12A43002801DAE261C4
:1014D000F0BD6260F0BD10B58A0721F003040F492A
:1014E000120F21440F238C6893409C438C608B68BF
:1014F000904003438B6010BD0949C1F8DC00704780
:1015000000080140000C014000100140001401409F
:1015100000180140001C0140002001400000014073
:1015200000002042A548016841F0010101604168C6
:10153000A34A114041600168A24A1140016001685C
:1015400021F480210160416821F4FE0141604FF4E3
:101550001F018160704799490A6822F480320A604D
:101560000A6822F480220A60B0F5803F07D0B0F507
:10157000802F03D1086840F4A020086070470868F5
:1015800040F48030F9E70346002059098B4A0129CD
:101590000AD002290AD0516A03F01F0201239340A6
:1015A0000B4200D0012070471168F5E7116AF3E79C
:1015B00018B500204FF4A06400903120FFF7E3FF3E
:1015C0000099491C0091A14201D00028F5D031209A
:1015D000FFF7D9FF002800D0012018BD774A116815
:1015E00021F0F80141EAC0001060704776490860B8
:1015F0007047724B5A68084322F47C1210435860BB
:1016000070477149086670476C4A516821F00301C0
:101610000143516070476948406800F00C00704712
:10162000664A516821F0F001014351607047634AF6
:10163000516821F4E0610143516070475F4A51688D
:1016400021F4605141EAC000506070475B4A0029B4
:10165000517A01D0014300E08143517270475A49E9
:10166000C1F8D8007047554A516821F44041014300
:10167000516070475149002281F8202081F82020D4
:10168000012802D0042802D1052081F820007047EB
:101690004E490860704749490A6A02430A62704726
:1016A0004A4944390860704730B5444A5168484B4C
:1016B00011F00C0103D0042901D0082901D00360E6
:1016C00012E05168536801F470114FF0020413F4F2
:1016D000803F04EB914102D053689B0301D53D4B01
:1016E00000E03B4B5943016051680F2303EA11119D
:1016F000394B5C5C0168E14041605468072505EAAC
:1017000014241C5D21FA04F48460546805EAD4248E
:101710001B5DD940C1605268032303EA92322E4B0D
:101720001B1F9A5CB1FBF2F1016130BD234A002915
:10173000516901D0014300E08143516170471F4A64
:101740000029916901D0014300E081439161704714
:101750001A4A0029D16901D0014300E08143D161D7
:101760007047164A0029D16801D0014300E0814347
:10177000D1607047114A0029116901D0014300E08E
:1017800081431161704711494039086070470E4923
:10179000C86470470949C87170470848416A41F0F8
:1017A000807141627047054A0146002092680A42F2
:1017B00000D0012070470149887270470010024034
:1017C0000000FFF8FFFFF6FE0000424280044242A4
:1017D00000127A0000093D003C000020C44910B509
:1017E00088420AD101218C032046FFF7BAFF204628
:1017F000BDE810400021FFF7B4BFBE49884202D1C6
:1018000001214C0410E0BC49884202D101218C0422
:101810000AE0BA49884202D10121CC0404E0B84967
:1018200088420AD101210C052046FFF7A3FF20467C
:10183000BDE810400021FFF79DBF10BD30B5044644
:10184000008A85B00D464CF6FF710840E9880143D7
:101850002182A0894EF6F3110840A9882A891143F4
:101860006A8902431143A181A08A4FF6FF410840D3
:10187000A9890143A1826846FFF716FF9C4884426C
:1018800001D1039800E00298A189090400EBC0018E
:1018900001EB0010296801D5490000E08900B0FB88
:1018A000F1F06422B0FBF2F109010B096FF01805A9
:1018B0006B4300EB8300A3891D044FF0320306D570
:1018C00003EBC000B0FBF2F000F0070005E003EB13
:1018D0000010B0FBF2F000F00F000843208105B0CB
:1018E00030BD4FF41651016000218180C18001811B
:1018F0000C2242818181704710B5028A4FF2FF03AA
:101900001A400B884C8823438C88C9880C43234396
:101910001343038210BD0021018041808180C1807A
:1019200070470029818902D041F4005101E021F47F
:1019300000518181704710B5C1F3421301F01F04BB
:101940000121A140012B07D0022B07D01430002A1F
:10195000026805D00A4304E00C30F8E71030F6E7DF
:101960008A43026010BD002A828A01D00A4300E047
:101970008A4382827047028A22F00F020282028A20
:101980000A4302827047828922F40062828182893E
:101990000A43828170470029818902D041F0020107
:1019A00001E021F0020181817047028A22F02002C9
:1019B0000282028A0A43028270470029018A02D009
:1019C00041F4804101E021F4804101827047C1F37C
:1019D0000801818070478088C0F3080070478189C2
:1019E00041F0010181817047028BD2B20283028BE8
:1019F00042EA012101837047028B02F47F42028395
:101A0000028B0A43028370470029818A02D041F089
:101A1000200101E021F02001818270470029818AA4
:101A200002D041F0100101E021F0100181827047E5
:101A30000029818A02D041F0080101E021F008016B
:101A4000818270470029818902D041F4004101E080
:101A5000C1F30E01818170470029818A02D041F4CF
:101A6000006101E021F4006181827047828A22F0E6
:101A700004028282828A0A43828270470029818A14
:101A800002D041F0020101E021F0020181827047A1
:101A90000246002012880A4200D001207047C94344
:101AA0000180704770B501F01F0501260024C1F3C5
:101AB000421306FA05F2012B0FD0022B0FD0838AB6
:101AC0004FEA11210088134206FA01F600EA0600E7
:101AD00001D000B10124204670BD8389F0E7038A5C
:101AE000EEE70A0A01219140C943018070470000D6
:101AF000003801400044004000480040004C0040D5
:101B000000500040374900200860091D0860091D89
:101B10000860091D08603349334814310860704774
:101B200030B5304A8379016853B313688B4313602F
:101B3000111D0B680468A3430B60017911440B6805
:101B4000046823430B60274B083319680468A143DA
:101B500019601C1D21680568A9432160417910297D
:101B600005D011440A68006802430A6030BD196854
:101B7000026811431960216800680143216030BD8B
:101B80000079104402688A43026030BD0021016080
:101B900001710C22427181717047124910310A683B
:101BA00002430A60704701460E4A00201432126850
:101BB0000A4200D0012070470A491431086070477A
:101BC000084A014600201268064B0A4014331B687D
:101BD0000B4202D0002A00D0012070470149143185
:101BE0000860704700040140FFFF0F0000F108018A
:101BF0004FF0FF32C0E90112C160016100210160B4
:101C0000704700210161704742684A6093688B60A9
:101C100093685960916008610168491C01607047D0
:101C200030B50C68621C02D000F1080202E00269C3
:101C300004E01A4653681D68A542FAD953684B6000
:101C400099608A60516008610168491C016030BD7B
:101C5000D0E9013201699A60D0E901235A604A68EB
:101C6000824201D182684A60002202610868401EF7
:101C70000860704770B50D46040005D140F21B1294
:101C8000F2A1F7A004F0C4FD02F0ECF9D4E90F20B2
:101C9000216802FB001161600021A1632168A1603D
:101CA0000A46D4E90F01401E00FB0121E1602146F4
:101CB0004FF0FF3001F8440F487004F110004DB1AF
:101CC000FFF794FF04F12400FFF790FF02F0E4F91E
:101CD000012070BD21690029F8D001F0A3FA002885
:101CE000F4D0E3494FF080500860BFF34F8FBFF34B
:101CF0006F8FEBE72DE9F04117460E46050005D141
:101D00004FF4C472D1A1D6A004F082FDBEB105FB90
:101D100006F0543002F056FA04000ED004F15400DC
:101D20007EB12060C4E90F5620460121FFF7A2FFD3
:101D300084F8507000212046A164BDE8F0810020A5
:101D4000E7E72460EEE72DE9F041856B174604468E
:101D50000026026C82B1C7B1E06804F050FFE16870
:101D6000206C091AE1602268914202D26168081A67
:101D7000E060022F16D017E02068A8B9606801F073
:101D800062FB0646002060600EE0A06804F037FFAA
:101D9000216CA0680844A0606168884204D3206870
:101DA000A06001E005B16D1E6D1CA5633046C4E75F
:101DB0002DE9F3410F4600980026846C2CB940F6BB
:101DC000CE12A2A1A6A004F023FDA06BE16B884275
:101DD00005D340F6CF129DA1A1A004F019FDA06B80
:101DE000E16B88420CD294F945503A466946204648
:101DF000FFF7A9FF0646681C05D06D1C84F8455006
:101E00003046BDE8FC81606A0028F9D004F1240066
:101E100001F008FA0028F3D00126F1E72DE9F0419E
:101E2000044602F01FF994F9455004F1240610E02D
:101E3000A06C20B100212046FFF7BAFF04E0606AE1
:101E400048B1304601F0EEF908B101F0A4FA6D1E78
:101E50006DB2002DECDC4FF0FF3684F8456002F0E7
:101E60001BF902F0FFF894F9445004F1100709E05F
:101E7000206948B1384601F0D5F908B101F08BFA74
:101E80006D1E6DB2002DF3DC84F84460BDE8F041B6
:101E900002F002B92DE9FF4F83B099468B4604004A
:101EA0004FF0000605D140F2D92268A16CA004F0E1
:101EB000AFFCBBF1000F07D1206C28B140F2DA2251
:101EC00062A167A004F0A4FCB9F1020F08D1E06B95
:101ED000012805D040F2DB225CA161A004F098FC4F
:101EE00001F068FA38B9059828B140F2DE2257A10E
:101EF0005BA004F08DFC4FF0000A4FF08057DFF834
:101F0000708102F0AFF8A06BE16B884206D3B9F1A3
:101F1000020F03D0059800B316B325E04A46594690
:101F20002046FFF710FFA16C21B149462046FFF77C
:101F30003FFF05E0616A19B104F1240001F072F974
:101F400028B1C8F80070BFF34F8FBFF36F8F02F056
:101F5000A3F8012007B0BDE8F08F02F09DF821E062
:101F6000684601F0CEF9012602F096F800F09BFDDC
:101F700002F078F894F94400401C01D184F844A0A0
:101F800094F94500401C01D184F845A002F084F882
:101F900005A9684601F0C6F930B12046FFF73EFFBB
:101FA00000F0F3FC0020D5E702F05CF8A06BE16BD9
:101FB000884201D1012500E0002502F06DF895B1BD
:101FC00004F11000059901F0D4F82046FFF726FF30
:101FD00000F0DBFC002894D1C8F80070BFF34F8FED
:101FE000BFF36F8F8DE72046FFF718FF00F0CDFCA1
:101FF00087E710B5024600210120FFF77BFE041E93
:1020000007D00021416001600B460A46C160FFF71E
:1020100041FF204610BD10B5040005D140F2412219
:102020000AA10FA004F0F4FB01F0C1F96168884235
:1020300020D1E068401EE06005D100231A46194611
:102040002046FFF727FF012010BD00002E2E5C4622
:1020500072656552544F535C71756575652E6300EA
:102060004572726F723A25732C25640D0A000000C8
:1020700004ED00E00020E7E730B4026C0B46002AD4
:102080000BD0C1681144C1604468A14201D301680A
:10209000C16030BC184604F0B2BD30BC70472DE9B9
:1020A000FF4F83B09B468A4604004FF0000607D1DD
:1020B00040F2DC42AFF26C01AFF25C0004F0A8FB2E
:1020C000BAF1000F09D1206C38B140F2DD42AFF215
:1020D0008401AFF2740004F09BFB01F06BF948B986
:1020E000059838B14FF49C62AFF2A001AFF29000B6
:1020F00004F08EFB4FF000094FF08057DFF8188690
:1021000001F0B0FFA56B35B351462046E668FFF7F6
:10211000B3FFBBF1000F11D0E660606A50B104F16B
:10212000240001F07FF828B1C8F80070BFF34F8F8A
:10213000BFF36F8F01F0B0FF01200BE76D1EA563A9
:10214000206810B901F02FFA606020690028F1D0F2
:1021500004F11000E5E7059808B11EB106E001F0B2
:102160009BFF27E0684601F0CCF8012601F094FFC0
:1021700000F099FC01F076FF94F94400401C01D175
:1021800084F8449094F94500401C01D184F84590AE
:1021900001F082FF05A9684601F0C4F80028204636
:1021A0000AD0FFF73BFE00F0F0FB204600F0A6FA55
:1021B0000028A5D00020CDE600F0A0FAD8B1206814
:1021C00030B901F04FFF606801F0FFF801F064FFE3
:1021D00004F12400059900F0CCFF2046FFF71EFE15
:1021E00000F0D3FB00288BD1C8F80070BFF34F8FED
:1021F000BFF36F8F84E72046FFF710FE00F0C5FBAA
:102200007EE770B50D46040007D14FF41E72AFF2A1
:10221000C411AFF2B41004F0FBFA01F0C8F8616821
:10222000884204D1E068401CE060012070BD0023BA
:102230002A4619462046FFF732FF0028F6D0E1680B
:10224000491CE16070BD70B50C46050007D140F235
:10225000BD22AFF20821AFF2F81004F0D9FAAC4277
:1022600007D940F2BE22AFF21C21AFF20C2004F0DD
:10227000CFFA022200212846FFF73CFD002800D0BB
:10228000846370BD2DE9F0479846154689460400E1
:1022900007D140F29F32AFF24C21AFF23C2004F064
:1022A000B7FAB9F1000F09D1206C38B14FF4687258
:1022B000AFF26821AFF2582004F0AAFAB8F1020F89
:1022C0000AD1E06B012807D040F2A132AFF284219D
:1022D000AFF2742004F09CFA01F003FF3020EFF31A
:1022E000118780F31188BFF34F8FBFF36F8FA06BFF
:1022F000E16B884207D3B8F1020F04D0002087F3C6
:102300001188BDE8F08794F9456042464946204669
:10231000FFF719FD701C04D0761C84F8456001207D
:10232000EDE7A06C012620B141462046FFF740FDB5
:1023300006E0606A0028F2D004F1240000F072FF89
:102340000028ECD0002DEAD02E60E8E72DE9F0411E
:102350000D46040007D140F23C42AFF21031AFF21B
:10236000003004F055FA206C38B14FF48862AFF2B7
:102370002431AFF2143004F04BFA206848B9606899
:1023800038B140F24542AFF23C31AFF22C3004F0AC
:102390003FFA01F0A6FE3020EFF3118680F311889A
:1023A000BFF34F8FBFF36F8FA16BE06B88421FD9D4
:1023B00094F94500491CA163411C04D0401C84F8D9
:1023C0004500012015E0A06C012720B10021204626
:1023D000FFF7EEFC06E0606A0028F2D004F124006A
:1023E00000F020FF0028ECD0002DEAD02F60E8E7B5
:1023F000002086F31188A0E42DE9F0479046894635
:10240000040007D14FF4B462AFF2C031AFF2B03084
:1024100004F0FEF9B9F1000F09D1206C38B140F297
:10242000A152AFF2D831AFF2C83004F0F1F901F0A7
:1024300058FE3020EFF3118780F31188BFF34F8FE0
:10244000BFF36F8FA66BF6B194F94450494620460E
:10245000FFF712FE761EA663681C04D06D1C84F87C
:102460004450012010E020690028FAD004F1100047
:1024700000F0D8FE0028F4D0B8F1000FF1D001210F
:10248000C8F80010EDE7002087F3118839E72DE93F
:10249000F0410E46040007D140F2FC52AFF2544125
:1024A000AFF2444004F0B4F94EB9206C48B140F2A8
:1024B000FD52AFF26841AFF2584004F0A9F9206C28
:1024C00038B940F2FE52AFF27C41AFF26C4004F0FA
:1024D0009FF901F006FE3020EFF3118580F311889B
:1024E000BFF34F8FBFF36F8FA06B30B131462046E3
:1024F000E768FFF7C1FD0120E76085F311881CE460
:1025000010B5040007D140F22F62AFF2C041AFF224
:10251000B04004F07DF901F0A5FDA46B01F0BCFD15
:10252000204691E510B5040007D140F24162AFF2B8
:10253000E441AFF2D44004F06BF901F093FDD4E92B
:102540000E10441A01F0A8FD20467DE510B50400E8
:1025500007D140F25162AFF20C51AFF2FC4004F0EF
:1025600057F9A06B70E56D4A002102EBC1035B686F
:10257000834206D1002042F8310002EBC1014860DD
:102580007047491C0829F0D3704710B5040007D1E3
:1025900040F25D62AFF24C51AFF23C5004F038F9BA
:1025A0002046FFF7E0FF2046BDE8104001F075BE71
:1025B000C06C7047C164704790F85000704710B508
:1025C000040007D140F29372AFF28051AFF2705025
:1025D00004F01EF9A06B08B1002035E5012033E5B9
:1025E00010B5040007D140F2BA72AFF2A051AFF2B9
:1025F000905004F00DF9A06BE16B884201D10120ED
:1026000022E5002020E510B5444B002253F832406B
:102610001CB1521C082AF9D316E543F8321003EB1B
:10262000C201486010E510B500243C4A214602EB87
:10263000C1035B68834202D152F8314002E0491C79
:102640000829F4D32046FFE470B515460E4604462B
:1026500001F008FD94F944100020491C01D184F8D0
:10266000440094F94510491C01D184F8450001F05B
:1026700013FDA06B28B92A46314604F1240000F06E
:10268000B6FD2046BDE87040FFF7C8BB002204211C
:10269000FFF730BB70B50D46044601F0E3FCA06CBB
:1026A00008B9A06B08B1002401E0A564012401F081
:1026B000F3FC204670BD10B50446806C884201D101
:1026C000A06B08B10020BFE401F0CCFC0020A064A6
:1026D00001F0E2FC0120B7E408B500230A46694690
:1026E0000093FFF7DCFC009808BD08B500210A46FE
:1026F00000916946FFF780FE009808BD10B50446BA
:1027000001F0B0FCA06B20B1002401F0C5FC204614
:102710009AE40124F9E7000004ED00E06C030020D6
:102720002DE9F041054601F09DFCFE4EB068401CCD
:10273000B0603068FC4F10B1706930B32BE0356089
:10274000B068012827D1002404EB840007EB800047
:10275000FFF74CFA641C202CF6D3F448FFF746FA36
:10276000F2481430FFF742FAF0482830FFF73EFAFB
:10277000EE483C30FFF73AFAEC485030FFF736FAB3
:10278000EA4870631430B06305E03068E96AC06AF3
:10279000884200D83560706A0121401C7062A864CC
:1027A000E86A326981401143316100EB800007EB38
:1027B0008000291DFFF728FA01F06EFC70690028DF
:1027C0000CD03068E96AC06A884207D2D8494FF015
:1027D00080500860BFF34F8FBFF36F8FBDE8F0816B
:1027E0002DE9FF5F8346DDE90E87994616468A4646
:1027F000900001F0E7FC05001AD0602001F0E2FC37
:10280000040012D025630021CDE90241CDE9008703
:102810004B4632465146584601F087F82046FFF7AE
:102820007FFF012004B0BDE8F09F284601F035FD90
:102830004FF0FF30F6E770B5044601F013FCB94DD8
:1028400004B92C68201DFFF703FA58B9E06AB64AAC
:1028500000EB800152F8211021B901218140286943
:1028600088432861A06A18B104F11800FFF7F0F955
:10287000686A401C68622868844208D1AB48211D00
:102880003C30FFF7C1F96868401C686007E0A86841
:10289000401EA860204601F0A1F801F092F801F076
:1028A000FBFB6869002812D0286884420FD1286B8E
:1028B00028B140F265429FA1A3A003F0A9FF9C4963
:1028C0004FF080500860BFF34F8FBFF36F8F70BD24
:1028D0002DE9F041934F0026386B38B1B869401CA0
:1028E000B861F86900B10126304677E7FD686D1CD4
:1028F000FD6011D1786B006828B140F6D9128DA126
:1029000091A003F085FF786BB96B7963B863386A7F
:10291000401C386201F055F8B86ADFF80C82854235
:1029200009D3786B006880B1786BC068C468606850
:1029300085420DD2B8623868C06A00EB800158F851
:1029400021000128CDD90126CBE74FF0FF30F1E778
:10295000201DFFF77DF9A06A18B104F11800FFF7F8
:1029600077F9E06A01213A6981401143396100EB4E
:10297000800108EB8100211DFFF746F9E06A396804
:10298000C96A8842CDD30126CBE72DE9F047654DD2
:1029900000242746286B28B94FF4FD6265A16AA080
:1029A00003F036FF01F05EFB286B401E2863286BA6
:1029B000F0BBA8685D4928310126C8B3DFF86891EB
:1029C0008846D8F80010E9B1D8F80C00C46804F1C2
:1029D0001800FFF73DF9201DFFF73AF9E06A2A6970
:1029E00006FA00F11143296100EB800109EB810037
:1029F000211DFFF709F9E06A2968C96A8842E0D316
:102A0000EE61DEE70CB100F0DCFFAC693CB1FFF732
:102A10005FFF00B1EE61641EF9D10020A861E86992
:102A200030B14349012738070860BFF34F8F00E0FA
:102A300001E0BFF36F8F01F02FFB3846BDE8F08750
:102A40002DE9F041374E0F460446F5683068001D09
:102A5000FFF7FEF838B9306890F82C100120884054
:102A6000316981433161601C08D13FB13168BDE8F3
:102A7000F0412E485030091DFFF7C6B830682C448D
:102A8000AC424460316805D2B06BBDE8F041091D2D
:102A9000FFF7C6B8706B091DFFF7C2F8B06A844231
:102AA00000D2B4629AE61F48016B491C016370476B
:102AB0002DE9F0410E4605004FF0000405D140F22B
:102AC00079421CA120A003F0A3FE2EB940F27A4265
:102AD00018A11DA003F09CFE124F386B28B140F2E4
:102AE0007B4214A118A003F093FEFFF7DCFFFA6805
:102AF00028688119904202D9884202D804E08842AD
:102B000001D8914200D9012429601CB1881A002102
:102B1000FFF796FFFFF739FF002822D14FF08050D2
:102B2000034919E04C000020AC0300202C060020D3
:102B300004ED00E02E2E5C4672656552544F535CE6
:102B40007461736B732E63004572726F723A2573F2
:102B50002C25640D0A0000000860BFF34F8FBFF3FF
:102B60006F8F3BE610B5040014D0FE49096B39B1F4
:102B700040F2CF42AFF24401AFF2340003F048FE1E
:102B8000FFF791FF00212046FFF75AFFFFF7FDFEF8
:102B9000002807D1F4494FF080500860BFF34F8FF1
:102BA000BFF36F8F10BD70B5050007D140F2FB4237
:102BB000AFF28001AFF2700003F02AFEE94E3068F8
:102BC000854201D1002070BD01F04CFA6C6901F022
:102BD00063FA706B844202D0B06B844201D1022050
:102BE00070BDE248844204D1A86A0028F7D10320CE
:102BF00070BDDE481438844202D00CB1012070BD93
:102C0000042070BD10B5044601F02CFA0CB9D5486B
:102C10000468E46A01F040FA204610BD10B504468D
:102C200001F05FFA3020EFF3118180F31188BFF3D8
:102C30004F8FBFF36F8F0CB9CA480468E06A81F305
:102C4000118810BD2DE9F04100260D4604462029CB
:102C500008D34FF4B062AFF22411AFF2141003F0B6
:102C6000D7FD1F2501F0FEF9BE4F04B93C68206D69
:102C7000A8423FD03968854206D98C4207D03968CE
:102C8000C96AA94202D902E08C4200D10126E16A58
:102C90008846884200D1E5622565A069002802DBEC
:102CA000C5F12000A061B24D08EB8800616905EB19
:102CB0008000814215D1201DFEF7CAFF012120B9F5
:102CC0003A6901FA08F082433A61E06A3A69814060
:102CD0001143396100EB800005EB8000211DFEF7F8
:102CE00093FF3EB1A0494FF080500860BFF34F8F73
:102CF000BFF36F8FBDE8F04101F0CEB970B5994DCB
:102D0000286B10B10120E86170BD0020E8612869DE
:102D1000974EB0FA80F0C0F11F0000EB800456F827
:102D2000240038B940F6F622AFF2F811AFF2E810FD
:102D300003F06EFD06EB840000F10802416849686B
:102D40004160914201D149684160C868286070BD06
:102D500070B5044601F086F9824D04B92C68201D37
:102D6000FEF776FF58B9E06A814A00EB800152F81D
:102D7000211021B901218140286988432861A06A76
:102D800018B104F11800FEF763FF211D7748FEF724
:102D90003BFF01F081F9686928B101F063F900F0A7
:102DA00010FE01F079F92868844213D1686990B166
:102DB000286B38B140F25762AFF28821AFF2782029
:102DC00003F026FD68494FF080500860BFF34F8F35
:102DD000BFF36F8F70BD6548A9680068884202D153
:102DE0000020286070BDBDE8704087E770B5002501
:102DF000040007D140F28162AFF2C821AFF2B820DF
:102E000003F006FD59496069884205D1A06A283956
:102E1000884201D000B90125284670BD70B5040074
:102E20002BD0504D2868844231D001F01BF9204648
:102E3000FFF7DCFFE8B1201DFEF70AFFE06A012181
:102E40002A69814011432961494900EB800001EB67
:102E50008000211DFEF7D8FEE06A2968C96A884211
:102E600007D341494FF080500860BFF34F8FBFF345
:102E70006F8FBDE8704001F00FB940F2AB62AFF266
:102E80004C31AFF23C30BDE8704003F0C1BC70BDC6
:102E90002DE9F0410026040007D140F2E262AFF2D2
:102EA0006C31AFF25C3003F0B3FC01F01AF9302062
:102EB000EFF3118580F31188BFF34F8FBFF36F8F4E
:102EC0002046FFF793FFF0B1264F386B20B127481B
:102ED00004F11801283814E0E06A3968C96A8842A8
:102EE00000D30126201DFEF7B3FEE06A01213A69F6
:102EF0008140114339611E4900EB800001EB8000E5
:102F0000211DFEF781FE85F31188304666E4184ED8
:102F10004FF08054144D00F06BFD30680128FAD951
:102F20002C60BFF34F8FBFF36F8FF4E71CB50D48D4
:102F300000242C30CDE90040234682220DA10F4809
:102F4000FFF74EFC012803D100F06DFE01281BD0D5
:102F5000401C2BD140F28472AFF22841AFF21840EE
:102F600002B00DE04C00002004ED00E07C060020E3
:102F7000AC03002049444C45000000000F2F00081E
:102F8000BDE8104003F044BC302080F31188BFF34B
:102F90004F8FBFF36F8FFA484FF0FF3181620121ED
:102FA0004161C460BDE81C4001F01AB81CBD30206E
:102FB00080F31188BFF34F8FBFF36F8FF04900206C
:102FC000486101F043B8EE48C068704710B501F0A1
:102FD00088F8EB48C06810BDE9488068704710B5B4
:102FE00010B104461CB10AE0E5480468FAE740F66F
:102FF0008C02AFF2C041AFF2B04003F009FC04F123
:10300000340010BD2DE9F0471E4691460C460700DE
:103010000ED0054605F13400C4E90050E86A20618D
:10302000286BE061A86CA060207B032803D00AE035
:10303000D3480568EEE7FFF736FDA86A08B102201D
:103040002073FFF7A2FC4FF00008286DC4E90508C3
:10305000052E01D0267303E03846FFF7A4FD207348
:10306000B9F1000F0AD00021286B01E0401C491C77
:103070000278A52AFAD088082084DFE4A4F820800A
:10308000DCE42DE9F0478146086892460C460025AD
:10309000F8B1486801F1080640684860B04201D1C3
:1030A00040684860D0F80C80606842686260B24254
:1030B00001D151686160606805EBC50109EB8101D0
:1030C000C768534601223846FFF79CFF6D1C4745F1
:1030D000EAD12846B2E42DE9F04717460A460646EB
:1030E00000242025FFF7DFFCDFF89482D8F80800E1
:1030F00082423AD3DFF88C926D1E05EB850104EB1A
:10310000C40009EB810106EB80000122FFF7B9FF43
:103110000444002DF0D104EBC40006EB8000022231
:103120004546D8F83410FFF7ACFF044404EBC40064
:1031300006EB80000222A96BFFF7A3FF044404EB17
:10314000C40006EB800004228F49FFF79AFF044475
:103150008D4904EBC40006EB800003221431FFF715
:1031600090FF04440FB100203860FFF70EFC2046AA
:1031700064E470B50D46040007D140F60632AFF2A4
:103180004C61AFF23C6003F043FB7D480168204690
:103190001831FEF745FD2846BDE8704001214FE497
:1031A0002DE9F04117460E46050007D140F61732CB
:1031B000AFF28061AFF2706003F02AFB704C206BBD
:1031C00038B940F61B32AFF29461AFF2846003F07D
:1031D0001FFB216846F000408861216828461831AD
:1031E000FEF712FD3846BDE8F041012128E470B534
:1031F00014460E46050007D140F63132AFF2CC61DD
:10320000AFF2BC6003F004FB5D480168284618314A
:10321000FEF7FAFC0CB14FF0FF3621463046BDE810
:1032200070400DE42DE9F041C068C4683CB940F637
:103230006132AFF20071AFF2F06003F0E9FA04F12D
:1032400018000746FEF704FD4D4D286B012660B1BE
:103250004D4839461438FEF7D7FCE06A2968C96A38
:10326000884212D90120EE611CE4201DFEF7F0FC1B
:10327000E06A2A6906FA00F111432961414900EB2D
:10328000800001EB8000211DE5E700200AE470B515
:103290003B4D06460C46286B38B940F69932AFF2E2
:1032A0006C71AFF25C7003F0B3FA44F00040306030
:1032B000F4683CB940F6A132AFF28871AFF2787091
:1032C00003F0A6FA3046FEF7C3FC201DFEF7C0FC53
:1032D000E06A01262A6906FA00F1114329612949A9
:1032E00000EB800001EB8000211DFEF78DFCE06A01
:1032F0002968C96A884202D90120EE6170BD0020A8
:1033000070BD10B5040007D140F6C132AFF2DC71D8
:10331000AFF2CC7003F07CFA1948016A2160C068F2
:10332000606010BD70B50D46040007D140F6CB3289
:10333000AFF60001AFF2F07003F06AFA3DB940F663
:10334000CC32AFF61001AFF6000003F061FA00F0E6
:1033500089FE0B4AD06829684B1C0FD02368126A7B
:10336000934202D06268824210D96268801A884211
:103370000CD2081A28602046FFF7C3FF002406E09D
:103380004C000020AC03002068060020012400F05F
:1033900083FE204670BDFF490120C86170470028A8
:1033A00000D0C06C7047002800D0C1647047F94855
:1033B00000687047F748416919B1006B18B10020E7
:1033C0007047012070470220704770B5040039D063
:1033D000F04DE06A2968C96A884233D2A0690028A2
:1033E00004DB2868C06AC0F12000A061E06AEA4EF0
:1033F00000EB8000616906EB800081421FD1201D37
:10340000FEF726FC012150B9E06A00EB800256F875
:10341000222022B92A6901FA00F082432A61286831
:10342000C06AE0622A6981401143296100EB800093
:1034300006EB8000211DBDE87040FEF7E5BB286863
:10344000C06AE06270BD70B504004FF0000640D065
:10345000D04D2868844207D040F6C762AFF62C11E1
:10346000AFF61C1003F0D4F9606D38B940F6C962AC
:10347000AFF64011AFF6301003F0CAF9606D401E90
:103480006065226DE16A914223D010BB201DFEF7DA
:10349000DFFBC149012250B9E06A00EB800351F81B
:1034A000233023B92B6902FA00F083432B61206D8E
:1034B000E062C0F12000A061E06A2B6982401A43FB
:1034C0002A6100EB800001EB8000211DFEF79CFBD0
:1034D0000126304670BD2DE9FF41002705460770E3
:1034E000AC4881680291806800EBC000800000F069
:1034F00069FE06004BD000220299FFF7ECFDCDE9F2
:10350000020738463AE000EBC00006EB8001087B7A
:1035100001280FD002280FD003280FD004280FD085
:1035200000244968284603F012FB284603F03EFBBE
:10353000202109E05224F4E74224F2E75324F0E783
:103540004424EEE72954401C1328FBD32F54054490
:10355000039800EBC00006EB80008268018CCDE987
:103560000012036922468DA1284603F05DF9284622
:1035700003F01CFB05440398401C03900299884209
:10358000C1D304B03046BDE8F04100F086BEBDE8CE
:10359000FF81804908680A688069D26A0968C2F1B7
:1035A00020028A6170477B49086818B10868426D3B
:1035B000521C42650868704770B50C46064600F01C
:1035C00051FD744D2868806D80B92968012081F80B
:1035D0005C005CB101212046FFF732FA73494FF0DD
:1035E00080500860BFF34F8FBFF36F8F00F054FD22
:1035F00000F038FD2868846D002034B116B12968C8
:10360000886502E02A68611E9165296881F85C007E
:1036100000F042FD204670BD2DE9F0411E461546E2
:103620008846074600F01EFD5A4C206890F85C0062
:10363000022814D02068816DB9438165216801207A
:1036400081F85C005EB101213046FFF7F9F9574976
:103650004FF080500860BFF34F8FBFF36F8F00F0C3
:103660001BFD00F0FFFC15B12068806D286020680C
:1036700090F85C0001280DD02068816D21EA0801D6
:10368000816501252168002081F85C0000F004FDBF
:1036900028463BE40025F5E72DE9F0411F4690461A
:1036A0000D4604004FF0010607D141F2FD02AFF6CE
:1036B0007C31AFF66C3003F0ABF800F0D3FC0FB107
:1036C000A06D386094F85C00022184F85C10B8F1B9
:1036D000050F0ED2DFE808F00D03060C0A00A16DFD
:1036E000294301E0A16D491CA16502E0022803D035
:1036F000A565012802D02AE0002628E0201DFEF75B
:10370000A7FA244DE06A01212A6981401143296109
:10371000214900EB800001EB8000211DFEF774FAC7
:10372000A06A38B141F23512AFF6F831AFF6E830A1
:1037300003F06EF8E06A2968C96A884207D91B4914
:103740004FF080500860BFF34F8FBFF36F8F00F0D2
:10375000A3FC304688E52DE9F0471F46DDF82090B0
:1037600092460D4604004FF0010807D141F268125D
:10377000AFF64041AFF6304003F04AF800F0B1FC3C
:103780003020EFF3118680F31188BFF34F8FBFF322
:103790006F8F0DE04C000020AC0300200925630969
:1037A00025750925750925750D0A000004ED00E051
:1037B0000FB1A06D386094F85C00022184F85C10B1
:1037C000BAF1050F0ED2DFE80AF00D03060C0A006D
:1037D000A16D294301E0A16D491CA16502E0022809
:1037E00003D0A565012803D031E04FF000082EE09A
:1037F000A06A38B141F2AF12AFF6C841AFF6B84097
:1038000003F006F88D4D286B012778B104F11801FB
:103810008B48FEF7F9F9E06A2968C96A884216D927
:10382000B9F1000F12D0C9F8007010E0201DFEF7AA
:103830000FFAE06A2A6907FA00F11143296100EBE7
:103840008001804800EB8100211DE2E7EF6186F3F3
:103850001188404611E42DE9F0418846040007D163
:1038600041F2E312AFF63451AFF6245002F0D0FF2C
:1038700000F037FC3020EFF3118780F31188BFF39D
:103880004F8FBFF36F8F94F85C00022184F85C10B7
:10389000A16D491CA16501282ED1A06A38B141F261
:1038A0000922AFF67051AFF6605002F0B1FF634DE0
:1038B000286B012678B104F118016148FEF7A4F9DC
:1038C000E06A2968C96A884216D9B8F1000F12D097
:1038D000C8F8006010E0201DFEF7BAF9E06A2A6916
:1038E00006FA00F111432961564900EB800001EB13
:1038F0008000211DE2E7EE6187F31188B4E410B582
:1039000058B1044600F0AEFB94F85C00022807D0E2
:10391000002400F0C1FB204610BD48480468F1E7D0
:10392000002084F85C000124F3E72DE9F0470E46FF
:10393000DDE909841746824691009946089DA52233
:10394000206B03F0A1F96FF00301206B01EB8701FD
:10395000084420F00707780705D040F22B323AA13F
:103960003EA002F055FF00202218315C82F834108E
:10397000315C11B1401C1428F6D3002684F847604E
:10398000202D00D31F25E562C4E91456201DFEF743
:1039900038F904F11800FEF734F92461C5F120006C
:1039A0006462A061A66584F85C604A465146384668
:1039B00000F0F9FA2060B8F1000F01D0C8F800401B
:1039C00048E71E48416B096829B1416BC968C9685D
:1039D0004968816270474FF0FF31FAE710B504463D
:1039E000006B00F05AFC2046BDE8104000F055BCCA
:1039F00070B5134E114D14361CE0FFF754F83068C3
:103A000020B10024FEF7C1FFA4B901E00124F9E7C9
:103A100000F028FBF068C468201DFEF719F9A868BB
:103A2000401EA8606868401E686000F035FB2046B4
:103A3000FFF7D4FF68680028DFD170BD4C0000207C
:103A400054060020AC0300202E2E5C4672656552A1
:103A5000544F535C7461736B732E63004572726FC5
:103A6000723A25732C25640D0A00000070B50024FD
:103A70004160F74D0061914206D8D11A82699142A6
:103A800006D2011D286907E09A4203D2994201D368
:103A9000012403E0011DE868FEF7C2F8204670BD6E
:103AA0002DE9FF479946DDF830A090460D46060007
:103AB0004FF0000705D14FF4D372E6A1EBA002F05E
:103AC000A7FEE34C206880B1CDE900580296062D90
:103AD00011DAFFF76FFC02284FF0000309D0002233
:103AE00069462068FEF7D6F9074604B03846BDE8B7
:103AF000F0875246F4E700234A466946FEF7C2FBC8
:103B0000F2E770B586B0D24E53E00198002806DA8D
:103B1000DDE90301029A90470198002849DB039CE4
:103B2000606910B1201DFEF793F805A800F04DF96B
:103B3000054601980A283CD2DFE800F00505053B60
:103B4000273805053B270298A169034601442A4608
:103B50002046FFF78BFF00282BD0616A204688475C
:103B6000E069012825D1002000900298A169002376
:103B7000421819462046FFF793FFD0B940F2213290
:103B8000B4A1BAA002F044FE13E00298A06128B9E3
:103B90004FF44E72AFA1B5A002F03AFEA0692B46D9
:103BA00041191A462046FFF761FF02E0204600F067
:103BB00074FB00231A4601A93068FEF770FA00284A
:103BC000A3D106B070BDA24CE068016839B10021F4
:103BD00039B1002000F00BF9FFF793FFF4E7012162
:103BE000F6E7C0680068F5E710B500F03BFA984CBE
:103BF0002068A0B9A148FDF7F9FFA0481430FDF7EF
:103C0000F5FF9E48E060143020610022102105205D
:103C1000FEF770F8206010B199A1FEF7F4FCBDE842
:103C2000104000F039BA1CB50024FFF7DDFF8848CA
:103C3000006868B186491F20091DCDE900010023F5
:103C40004FF4827290A19248FEF7CAFD040005D19C
:103C500040F233127FA185A002F0DAFD20461CBDA0
:103C60002DE9F0470746994616460D462C20DDF80B
:103C700020A000F0A7FA040014D0B8464F46D14661
:103C80002DB94FF4C67283A188A002F0C1FDFFF7E1
:103C9000ABFF04F11801C4F8008081E8E002201DA8
:103CA000FDF7AFFF204622E710B5694C606828B9E0
:103CB0004FF4E87267A16DA002F0AAFD606810BD24
:103CC00010B5040005D140F2D91262A167A002F03C
:103CD0009FFDA06910BD10B5040005D140F2E312AC
:103CE0005CA162A002F094FD606810BD10B50400F4
:103CF00005D140F2ED1257A15CA002F089FD2068C9
:103D000010BD10B5040005D140F2DA3251A157A020
:103D100002F07EFD00F0A6F9606908B1012400E020
:103D2000002400F0B9F9204610BD10B5040005D1FB
:103D300040F2EF3247A14DA002F06AFD00F092F987
:103D4000246A00F0A9F9204610BD70B50D460400A4
:103D500005D140F2FF323FA144A002F059FD00F02E
:103D600081F92562BDE8704000F096B97FB56FF02B
:103D7000010401AE009486E8070035481D46002383
:103D80002A4669460068FEF77DFA04B070BD2DE949
:103D9000FF412F4C07469846206815460E4628B925
:103DA00040F22B422BA131A002F032FD4FF0FF3048
:103DB000CDE90007CDE90265002342466946206847
:103DC000FEF768F804B0BDE8F08170B50546FFF76E
:103DD000FAF81F4E0446B068844203D200F070F82F
:103DE000012000E0002028602046B46070BDF8B5D6
:103DF0000D460646FEF757FE6846FFF7E6FF044607
:103E0000009810B1FEF7C1FDF8BD1148ADB10169D0
:103E10000968D9B10025311B2A460068FEF714FC59
:103E2000FEF7B3FD0028EFD124494FF08050086021
:103E3000BFF34F8FBFF36F8FF8BDA642EBD8FEF7ED
:103E4000A4FD2146304600F06EF8F8BD0125E2E7FA
:103E5000880000202E2E5C4672656552544F535CDC
:103E600074696D6572732E63000000004572726F95
:103E7000723A25732C25640D0A000000900600207C
:103E8000546D725100000000546D7220537663002F
:103E9000C73B00082E2E5C4672656552544F535C3A
:103EA00074696D6572732E63000000004572726F55
:103EB000723A25732C25640D0A00000004ED00E021
:103EC000F8B52F4E27E0C068C4680568201DFDF7CF
:103ED000BFFE616A20468847E06901281BD1A069BE
:103EE0002844A84206D924616060211DF068FDF7CE
:103EF00097FE10E000200346014600902A46204627
:103F0000FFF7CEFD38B940F29232AFF27801AFF24E
:103F1000640002F07DFCF06801680029D3D13169AA
:103F2000C6E90310F8BDF8B5054615480E46C06849
:103F3000C068C468201DFDF78BFEE069012818D118
:103F4000A0692B46411932462046FFF78FFD80B10C
:103F500000200346014600902A462046FFF7A0FDB8
:103F600038B94FF40272AFF2D401AFF2C00002F0E0
:103F70004FFC616A01B02046BDE8F04008470000F0
:103F80008800002069484068401C04D0F42268A1E1
:103F900072A002F03DFC302080F31188BFF34F8FF8
:103FA000BFF36F8FFEE710B5031F4FF080741C60E6
:103FB0001B1F21F001011960191F6C4B0B60143994
:103FC00040380A6010BD6A484FF47A710068B0FB4F
:103FD000F1F14FF0E020491E416107210161704776
:103FE0001CB5644908780190FF20087008788DF8A6
:103FF00000009DF800004D4A00F0300010700720CE
:10400000906007E09068401E90609DF800004000BE
:104010008DF800009DF800000006F3D4107A00022D
:1040200000F4E0609060019808705348016841F422
:1040300070010160016841F070410160FFF7C3FF4A
:1040400000205060FCF70CF900201CBD3748406888
:10405000B0F57A7F05D04FF4B57235A13FA002F0DC
:10406000D7BB7047302080F31188BFF34F8FBFF369
:104070006F8F2E494868401C486001280BD13E488C
:104080001C38006810F0FF0F05D04FF4BD7228A156
:1040900032A002F0BDBB704710B5244C606828B94F
:1040A00040F2811222A12DA002F0B2FB6068401EF6
:1040B000606001D180F3118810BD10B5302080F30D
:1040C0001188BFF34F8FBFF36F8FFEF701FC20B154
:1040D00029494FF080501C390860002080F3118876
:1040E00010BD10B5FCF7F2F8104C10280CD300F1FD
:1040F000E02090F8F0032178884205D24FF42A722C
:104100000BA116A002F084FB1B4814380068A168BC
:1041100000F4E060884207D9BDE810404FF42E72E9
:1041200003A10EA002F074BB10BD00009C00002093
:104130002E2E5C4672656552544F535C706F7274DC
:1041400061626C655C525644535C41524D5F434D15
:10415000335C706F72742E63000000004572726FE2
:10416000723A25732C25640D0A000000853F000873
:104170000000002000E400E020ED00E030B57449CC
:1041800000E011460A688242FBD34B685C18844207
:1041900003D1406818444860084643681C1894429C
:1041A00009D16B4C103C2468A24209D052681A44D1
:1041B00042600A6812680260814200D0086030BD27
:1041C0000460F9E72DE9F04105460026FEF76BFC97
:1041D0005F4F103F386808B900F098F8F86805425A
:1041E0004ED1002D4CD0083568070BD005F00700E4
:1041F000C0F108000544680704D0BF2255A15FA0A4
:1042000002F006FB002D3BD07868854238D8504933
:104210000846046801E0214604466068A84202D2CC
:1042200020680028F7D13868B846844228D00E6844
:104230002068086060680836401B10280ED967198E
:10424000780704D0EC2243A14CA002F0E1FA6068A8
:10425000401B786038466560FFF790FF6168D8F8CA
:1042600004004246401AC8F80400D8F808309842C2
:1042700000D29060D8F80C0001430020C4E900018E
:10428000FEF783FB700705D04FF4967231A13BA077
:1042900002F0BEFA3046BDE8F08170B500282BD0A0
:1042A0002B4DA0F10804103D6068E968084205D173
:1042B0004FF4A07227A131A002F0AAFA206828B119
:1042C00040F2411223A12DA002F0A2FA6068E96831
:1042D000084211D02268002A0ED188436060FEF7A0
:1042E000E2FB60686968084468602046FFF746FFA3
:1042F000BDE87040FEF749BB70BD154810384068F6
:104300007047134810388068704770471F484FF453
:10431000A041420706D0C01D1C4920F00700411AE9
:10432000C1F5A0410A4A00230144C2E9000308394B
:10433000103A21F0070111604B600B600B1AC0E9C5
:10434000001393604FF000405360D060704700004E
:10435000B80000202E2E5C4672656552544F535CA7
:10436000706F727461626C655C4D656D4D616E67F6
:104370005C686561705F342E630000004572726F87
:10438000723A25732C25640D0A000000B80600203F
:1043900070B52F2102F0FFFB441C14D0204602F020
:1043A00005FC401C02F0DDF905000AD0204602F0B1
:1043B000FDFB411C284602F06FFC2146284602F016
:1043C000C6FB284670BD002070BD70472DE9F8433C
:1043D000046800278146483450E07E2A5DD10E18DB
:1043E000401C00F07F00A060484600F082F90546BE
:1043F000B04201D3A81B04E02068871B281A80372D
:10440000384400904FF4D372DAA1801C01F094F983
:104410005FEA000841D0B54202D33146009A07E076
:104420003A46314602F0EBFB216808EB07006A1AB6
:1044300002F0E5FBD9F80000006800282BD0012528
:10444000CCA0FFF7A5FF064602464FF4E173CF4923
:10445000CFA002F0DDF92A46D0A0009902F0D8F9E9
:10446000304602F0ADF96A464146284601F053F85D
:1044700040F2C712BFA1404601F0A0FAD4E9010101
:10448000802200F0AAFB012807DB2168A0680A5CF3
:10449000232AA4D0A1E70025D2E7BDE8F88395E759
:1044A0000446B4A0FFF774FFB8490546024640F23F
:1044B00017130E46B6A002F0ABF9C0A002F0A8F99F
:1044C000284602F07DF94FF48F750022414660685E
:1044D00000F030FF0028F8D1A6A0FFF759FF0746EB
:1044E00002462B463146AAA002F092F9BBA002F088
:1044F0008FF9384602F064F92046FFF767FFE4E7DA
:1045000070B5044600F0A1FF00F035FF05461034F9
:1045100008E0204600F0E6F8284600F031FF00F001
:104520002AFF0546204600F0DDF80028F1D0284695
:10453000BDE8704000F024BF04468EA0FFF728FFBE
:10454000064602464FF49573904991A002F060F937
:10455000AAA002F05DF9304602F032F900222946A5
:10456000A06800F0E7FE0028F8D12046FFF7C8FF5A
:10457000F4E7864D0446002600223146606800F0CC
:10458000D9FE0028F8D17BA0FFF702FF07460246BC
:10459000F32329467EA002F03BF9A0A002F038F9EF
:1045A000384602F00DF92046FFF710FFE4E710B59A
:1045B000A24930B1886810B1022100F0A2FE0020AB
:1045C00010BD4FF0FF3010BD10B59C4930B14868A8
:1045D00010B1012100F095FE002010BD4FF0FF301A
:1045E00010BD964910B5203930B1886810B102214C
:1045F00000F087FE002010BD4FF0FF3010BD8F4946
:1046000010B5203930B1486810B1012100F079FEB1
:10461000002010BD4FF0FF3010BD7CB5050003D069
:10462000012D10D000207CBD844C2021203C204650
:1046300002F054FB824820600020824900F00CFC0C
:10464000002081490DE07D4C2021204602F046FBF0
:104650007B487E4984302060012000F0FDFB012072
:104660007B4900F002FC04F110002061002660612B
:10467000D5B10620CDE900062346802275A17848F1
:10468000FEF7AEF80520CDE900062346802275A18D
:104690007748FEF7A5F8201D00F021FE04F1080080
:1046A00000F01DFE20467CBD0720CDE90006234614
:1046B000802270A17248ECE710B500F0C6FE0446F7
:1046C0005E484021203802F009FB0021084600F036
:1046D0006EFB002805D1FFF7A0FF002801D0694834
:1046E000206110BD0168814201D101207047002086
:1046F000704770B5024604681268D4E91310926CD2
:1047000048340244814207D9091A104600F02EF8B5
:10471000050013D001460EE0C0F18001104600F004
:1047200025F80500F6D1D4E9000100F01FF80500D6
:1047300004D005F18001204600F00BF82168A06844
:10474000095C0D2903D1401C00F07F00A0602846C1
:1047500070BD036882681344C91A802901D9416871
:1047600002E0114401F07F01816070470A460D218B
:1047700002F03BBA2E2E5C5441534B5C6D705F755A
:104780006172745F7461736B2E630000FC00002023
:104790005B25732D25732D25645D0900636D645FB2
:1047A0006C656E203D2025642C756172745F747990
:1047B0007065203D2025640A00000000212121743D
:1047C0006C735F756172745F325F72785F7461736E
:1047D0006B2073746172742121210A00212121212F
:1047E00021215561727432205265637620446174D0
:1047F000612121212121210A0000000021212174B1
:104800006C735F756172745F325F74785F7461732B
:104810006B2073746172742121210A0021212121EE
:104820002121556172743120526563762044617490
:10483000612121212121210A00000000D8560020F9
:10484000F8560020FF450008E3450008C945000868
:10485000AF45000855415254325F545800000000E3
:104860003945000855415254325F5258000000004B
:10487000A144000855415254315F525800000000D5
:1048800073450008CB43000840F6B8342046FCF7D7
:10489000DBFAFBE741F288342046FCF7D5FAFBE768
:1048A0001CB500240320CDE900042346802207A183
:1048B0000948FDF795FF0920CDE900040023802277
:1048C00006A10948FDF78CFF1CBD000049444C457A
:1048D0005F5441534B00000095480008425553591E
:1048E0005F5441534B0000008948000870470000A6
:1048F0000020401CC0B20428FBD3F9E71CB501F02E
:1049000028FF00210320CDE900010B46802202A1EF
:104910000448FDF765FF1CBD434152445F544153B9
:104920004B000000F14800087047010900F00F003B
:1049300001EB810100EB4100C0B2704730B5044685
:104940000020014601228D0024FA05F303F00F0335
:1049500003FB020002EB8202491C5200C9B2082983
:10496000F1D330BD0A21B0FBF1F2B2FBF1F301FB50
:104970001322B0FBF1F301FB130000EB0210C0B2F5
:1049800070476421B0FBF1F3002242EA0322B0FB3E
:10499000F1F301FB13000A21B0FBF1F342EA031229
:1049A000B0FBF1F301FB1300104370474FF47A7131
:1049B000B0FBF1F3002242EA0332B0FBF1F301FB5A
:1049C00013006421B0FBF1F342EA0322B0FBF1F3E0
:1049D00001FB13000A21B0FBF1F342EA0312B0FB22
:1049E000F1F301FB130092B21043704710B500229F
:1049F000401E80B2824206D28B5C0C5C8C54521CEE
:104A00000B5492B2F4E710BD4FF6FF7202EA002099
:104A10000843704700090A2801D337307047303007
:104A2000704700F00F000A2801D33730704730304C
:104A3000704700B50346FFF7EDFF02461846FFF743
:104A4000F0FF0A70487000BD30B500F00F02C0F3EF
:104A500003240D461046FFF7ECFFA91C2046BDE8D5
:104A60003040E6E730B5C2B2C0F307440D46104609
:104A7000FFF7EAFF291D2046BDE83040E4E7A0F13A
:104A80003001092901D8C8B27047A0F141010529B8
:104A900001D8373804E0A0F161010529F4D857386E
:104AA000C0B2704700B50B46FFF7E9FF0246184653
:104AB000FFF7E5FF40EA0210C0B200BDF0B54F08B5
:104AC00004460646002509E014F8010B14F8011B02
:104AD000FFF7E8FF6D1C06F8010BADB2BD42F3D342
:104AE000F0BDA0F14101192901D82030C0B27047B2
:104AF00010B50C460246002306E01078FFF7F1FFE0
:104B00005B1C02F8010B9BB2A342F6D310BD034617
:104B100010B50020024605E013F8014B521C20445A
:104B200080B292B28A42F7D310BD70B50646002417
:104B30000DE012F8010B4140002011F0010F4FEA87
:104B4000510100D07140401C0828F6DB641C9C42D7
:104B5000EFDB084670BDF0B51E4617468C46059C37
:104B60000546324639466046A31EFFF7DEFF4FF684
:104B7000FF73311955B111F8022D497803EA022269
:104B8000114489B2884208D10120F0BD11F8012CEE
:104B900011F8021C03EA0222F2E70020F0BD000037
:104BA00070B52F2101F0F7FF441C14D0204601F00E
:104BB000FDFF401C01F0D5FD05000AD0204601F0A4
:104BC000F5FF411C284602F067F82146284601F00F
:104BD000BEFF284670BD002070BD401A521E104016
:104BE00070470B46411C1846F7E72DE9F0410E4689
:104BF000F94900EB401001EB800505F148048022E3
:104C0000D4E90101FFF7EDFF022812DC686C401CBB
:104C10006864F2A0FFF7C4FF074602462123F54966
:104C2000F5A001F0F5FDF7A001F0F2FD384601F026
:104C3000C7FDD4E9000146542079401C00F07F00F4
:104C40006060E86A401CE862BDE8F081E24900EB80
:104C5000401001EB800101F148004A6F002A05D0A5
:104C600003688068898D184489B21047704781684D
:104C700040688022B1E7D0E90110814201D10120D2
:104C8000704700207047D44900EB401001EB8000D2
:104C900000F018BA2DE9F04100F15405406D1646B8
:104CA0008846002708B9781ECEE7A64200D23446CF
:104CB000002C0FDDD5E9000108442246414601F0F1
:104CC0009EFF2879A044204400F07F00361B274433
:104CD0006860EAE73846B7E72DE9F041064600F19B
:104CE0005404202500F047FB07460CE0A16820682B
:104CF000405CFCF7C7F9207A401C00F07F00A06000
:104D0000306B401C30632046FFF7B5FF18B9281EF2
:104D1000A5F10105EADC3846BDE8F04100F030BB02
:104D20007FB5B44E044614360D4656F824000021D3
:104D3000FCF7F7FD34B1012C07D0032C08D0042C6C
:104D400009D00AE0FCF7B7F807E0FCF7FBF804E04D
:104D5000FCF730F901E0FCF766F928680090A888B4
:104D6000ADF804006889ADF80600E888ADF80800E1
:104D70002889ADF80C000C20ADF80A0056F8240084
:104D80006946FCF75BFD56F824000121FCF7C9FDDC
:104D900056F82400012240F22551FCF7CCFD56F8CC
:104DA0002400012240F22441FCF7C5FD7FBD2DE91E
:104DB000FE430F4605004FF0FF3802D0012D06D00C
:104DC00041E08421844801F089FF834C05E082485A
:104DD00084218430044601F081FF002625602FB332
:104DE00039462846FFF79CFF01202075F8227BA159
:104DF000802000F0A1FC050025D0802101F04CFFAF
:104E0000C4E9125640F2051274A18020266500F014
:104E100093FC070019D0802101F03EFFC4E915760C
:104E20001020E665A0610020BDE8FE834FF4E1306C
:104E3000ADF80460ADF808600090ADF80660ADF81C
:104E40000A606946CDE74046EEE74FF4847263A1FD
:104E5000284600F0B3FDF6E75F4A20B1012801D1F2
:104E6000C2F8F8107047516770475B4A20B10128BB
:104E700001D1C2F800117047D16770472DE9F041A8
:104E800014460D46070018D0BCB1D4E901018022B8
:104E9000FFF7A3FEA84200DA0546A0684119802961
:104EA0000ED92168C0F1800601443246384601F02F
:104EB000A6FEAA1BB819216806E04FF0FF30C3E632
:104EC00021682A460144384601F099FE207A284498
:104ED00000F07F00A0602846B6E610B53E4C0120E9
:104EE000802184F8EC00D4F8CC00843401F0D4FEA6
:104EF0000020E0642065E062616FC4E91D01E16F9C
:104F0000C4E91F0110BD70B5334C0025802184F821
:104F1000EC5054F8CC0F01F0BFFE6560A560206B2B
:104F2000C4E90B05A06BC4E90D0570BD10B5040004
:104F300013D0B4F8702072B1E16EFFF7ABFE002819
:104F400009DBB4F87010814205DB091AA4F870106F
:104F5000E16E0844E066002010BD4FF0FF3010BD48
:104F600070B51D4C0B46050004F1840403D013B149
:104F7000B4F8700010B14FF0FF3070BD0020206316
:104F800024490120FFF771FFE5661A46A4F8703046
:104F900029462046FFF77EFE00280EDBB4F870108D
:104FA00081420ADBE16E0144E166B4F87010081A30
:104FB000A4F870002046FFF78FFE002070BD064861
:104FC000B0F8F40008B10020704701207047024893
:104FD000D0F8B40070470000F85600202E2E5C5523
:104FE0005345524C49425C6D705F756172742E631B
:104FF00000000000740100205B25732D25732D2512
:10500000645D0900727820627566206F7665727241
:10501000756E0A002D4F000870B5434C06460D46CC
:10502000D4F8E8000021843400F0CFF8A8B1AFF242
:105030005400FFF7B5FD3D49044640F259230246AE
:10504000AFF24C0001F0E4FB39A001F0E1FB204697
:1050500001F0B6FB4FF0FF3070BD29463046FFF738
:105060007FFF0021606E00F0C0F8606E00F0B8F8BD
:105070000020606670BD2C4ACC32FFE6014601205C
:10508000EAE601460120F0E6511A0844521E10409B
:1050900088429FDB08469DE7101A401E0144521EBD
:1050A0001140814201DC084694E7401C92E7101A47
:1050B000401E0144521E1140814201DA084689E730
:1050C000401C87E770B5054600F154044026204691
:1050D000FFF7D1FD98B1686E002824D0BDE870407C
:1050E00000F094B8A1682068405CFBF7CBFF207A01
:1050F000401C00F07F00A060286B401C2863204605
:10510000FFF7B9FD18B9301EA6F10106EADC20460A
:10511000FFF7ADFD402806DAE96F002903D02846E5
:10512000BDE87040084770BDF856002038010020E7
:105130000A74782073656D206372656174652066FA
:1051400061696C0A0000000010B50120FCF751FFF6
:1051500008B1002010BD012010BD10B5FDF715FAF3
:10516000002010BD10B549B10A4600231946FCF7CE
:1051700096FFC0B2012804D0012010BD4FF0FF32CD
:10518000F3E7002010BD38B5054600200090FBF77E
:10519000EFFF04000CD069462846FDF7D7F8C5B2EA
:1051A000009801280BD1012C09D1FDF7A7FD06E0DD
:1051B00000231A4619462846FCF76CFEC5B2012D9D
:1051C00001D0012038BD002038BD10B504460520AF
:1051D000FDF739F8206008B1002010BD012010BD96
:1051E00010B5FDF7D2F9002010BD10B549B10A463F
:1051F00000231946FCF753FFC0B2012804D0012058
:1052000010BD4FF0FF32F3E7002010BD38B5044663
:1052100000200090FBF7ACFF20B169462046FDF767
:1052200095F805E000231A4619462046FCF732FEA1
:10523000C0B2012801D0012038BD002038BD10B512
:105240000B460446002204211846FCF753FD20605B
:1052500008B1002010BD012010BD10B5FDF795F973
:10526000002010BD13B582B0044600200090FBF76B
:105270007FFF4FF0000328B16A4603A92046FDF7DF
:1052800001F804E0002203A92046FCF703FEC0B2A7
:10529000012802D0012004B010BD0020FBE7F8B5C2
:1052A000064600200D4600904AB11446FBF760FF09
:1052B00040B16A4629463046FDF79EF808E04FF0B7
:1052C000FF34F3E70023224629463046FCF7E7FE89
:1052D000C0B2012801D00120F8BD0020F8BD10B5F2
:1052E0000446032200210120FCF704FD206008B1E0
:1052F000002010BD012010BD10B5FDF746F90020BB
:1053000010BD38B5044600200090FBF731FF20B1F6
:1053100069462046FDF71AF805E000231A461946AB
:105320002046FCF7B7FDC0B2012801D0012038BDEE
:10533000002038BD38B50546002000904AB114461B
:10534000FBF716FF40B16A4600212846FDF754F8E6
:1053500008E04FF0FF34F3E70023224619462846C1
:10536000FCF79DFEC0B2012801D0012038BD00200D
:1053700038BDFDF72BBE10B5FEF774FE012010BD41
:10538000FEF78ABE38B5044604981D4601B90121CE
:10539000009000232846FEF763FC206008B100203F
:1053A00038BD012038BD38B505460024FDF70BFE99
:1053B00002460023012128460094FEF771FB38BD08
:1053C00038B50546002401B901210A46002304210D
:1053D0000094FEF765FBFDF7F6FD02460023012170
:1053E00028460094FEF75CFB38BD08B500210B464B
:1053F0000A4600910321FEF753FB08BD08B50A21B8
:10540000002300911A460521FEF74AFB08BD000063
:1054100070B52F2101F0BFFB441C14D0204601F0D1
:10542000C5FB401C01F09DF905000AD0204601F0A3
:10543000BDFB411C284601F02FFC2146284601F007
:1054400086FB284670BD002070BD6C48704710B5C3
:105450006A481C2101F042FC012010BD70B50446D1
:10546000FFF789FF054604F10800064600F0BEF884
:1054700008B1002409E0304600F0B8F808B1002473
:1054800000E0A468204600F0A7F82846FFF778FF60
:10549000204670BD70B5FFF76EFF0546574800F017
:1054A000A5F808B100240AE0544800F09FF808B1BC
:1054B000002401E051480468204600F08DF8284699
:1054C000FFF75EFF204670BD012070472DE9F047D1
:1054D0004A4C15460E0082464FF0FF3919D0C5B12F
:1054E00000274FF0010810B1BAF1010F0ED120468C
:1054F000FFF7B4FF01000CD00F82C1F80880C1E9AA
:105500000565236913B10022504698470020BDE885
:10551000F0874846FBE72DE9F04395B040279046D9
:1055200089464FF0FF34149708B1012822D1982200
:1055300033A1402000F000F9394E05001ED0502163
:10554000684601F0CBFB42464946684600F07EFEC5
:105550000446022823D0012C2DD014AA29466846DF
:10556000149700F0CAFF040004D0C72224A12846E3
:1055700000F024FA15B02046BDE8F08320A0FFF724
:1055800047FF054602469C23314626A001F040F91C
:1055900027A001F03DF9284601F012F9EAE718A02A
:1055A000FFF736FF07460246A62331461DA001F04D
:1055B0002FF926A00AE012A0FFF72AFF07460246AD
:1055C000AC23314617A001F023F926A001F020F901
:1055D000384601F0F5F8C8E7D0E900124A60D0E992
:1055E0000012116000210160416070470168814232
:1055F00001D10120704700207047000000580020B2
:105600002E2E5C555345524C49425C6D705F707252
:105610006F746F636F6C5F686F737469662E63007D
:10562000B00100205B25732D25732D25645D0900D5
:10563000636D647273705F62756620616C6C6F631A
:10564000206661696C65640A00000000636D642077
:10565000636865636B2073756D206572726F720A83
:105660000000000072657475726E20766572736951
:105670006F6E206572720A0010B5164C0020411C36
:1056800024F8101088B20428F9D3124812A1083067
:1056900001F05DFA0F4812A10F3001F058FA0D48E1
:1056A00011A1163001F053FA0A4815A12B3001F070
:1056B0004EFA1648206410BD7047042801D9002016
:1056C0007047044931F810007047024A22F8101060
:1056D000704700001C5800205630312E3133000036
:1056E0005630312E30300000B4B4C1A6B5E7D7D360
:1056F000B9C9B7DDD3D0CFDEB9ABCBBE0000000057
:10570000CBABC3C5BFD8D6C6C6F70000E8F7FF1FAE
:105710007CB5FB4E012534680BE0D4E90401CDE9EA
:1057200000012946F7A0A368A26901F071F8246876
:105730006D1CB442F1D17CBD2DE9FE4F92468B46E3
:1057400006460024FFF717FEED4D8046143D2878ED
:10575000E0B901202870014605F11000FFF735FD82
:1057600010B1F6A001F054F8E54800604060083040
:1057700000604060FE4FC4EBC40007EB8001E048CE
:10578000083000F01EFB641CC82CF4DB4046FFF719
:10579000F7FD0021A8462869FFF727FDFFF7EBFD7D
:1057A000029006F00300C0F1040706EB070909F1B7
:1057B000080000F0D6FF040047D0D148083000F0C0
:1057C00012FB88B1EBA001F023F8FFF7A1FF204600
:1057D00000F0F6FF0298FFF7D3FDD8F81000FFF7AE
:1057E00015FD0020BDE8FE8FC548083000F0FBFA2B
:1057F00008B1002502E0C24808300568284600F0DC
:10580000E8FA2946BE4800F0DCFAD8F8042009EB93
:1058100002000830C8F80400D8F80820521CC8F864
:105820000820D8F80C20904201D9C8F80C00C5F81F
:1058300008B0C5E90564C5E9037AD4482060A01919
:105840003844D349241D41600BE0D8E90101CDE97A
:105850000001334652465946CE4800F0D9FFFFF7C3
:1058600057FF0298FFF78CFDD8F81000FFF7CEFC29
:105870002046B7E72DE9FF4F83B08846064600244F
:10588000FFF779FD9E4D8146143D2878E0B901204F
:105890002870014605F11000FFF797FC10B1A7A092
:1058A00000F0B6FF9648B24F0060406008300060DC
:1058B0004060C4EBC40007EB80019148083000F061
:1058C00080FA641CC82CF4DB4846FFF759FD002120
:1058D000A9462869FFF789FCFFF74DFD06FB08FA8A
:1058E00002900AF00300C0F1040707F1080B06FB61
:1058F00008B000F036FF04004BD08148083000F0BB
:1059000072FA90B19BA000F083FFFFF701FF2046E1
:1059100000F056FF0298FFF733FDD9F81000FFF7AB
:1059200075FC002007B0BDE8F08F7548083000F026
:105930005AFA08B1002502E0714808300568284687
:1059400000F047FA29466E4800F03BFAD9F80420E7
:1059500006FB082202EB0B00C9F80400D9F8082066
:10596000521CC9F80820D9F80C20904201D9C9F876
:105970000C00EF600598A8600698AC61C5E9040AC0
:105980008248206006FB08403F1D8149C151241D0B
:105990000BE0D9E90101CDE90001DDE9051253462B
:1059A0007C4800F035FFFFF7B3FE0298FFF7E8FCF4
:1059B000D9F81000FFF72AFC2046B3E72DE9F05F85
:1059C0004F4E8B46143E80460027051F92463946AF
:1059D0003069FFF70AFCFFF7CEFC814648480468AF
:1059E00005E0A169A94201D1012704E024688442AD
:1059F000F7D1002F54D0204600F0EBF94048214663
:105A0000083000F0DEF9E168606908447168091A3D
:105A100008397160B168491EB160002F40D000EBB9
:105A200008075A492868884215D053465A464146C5
:105A300059A000F0EDFE2946634800F0E9FE63A09E
:105A4000296800F0E5FED4E9042366A0A16800F00F
:105A5000DFFEFFF75DFE4E493868884215D0534699
:105A60005A4641464CA000F0D3FE29466BA000F0F8
:105A7000CFFE79A0396800F0CBFED4E9042359A009
:105A8000A16800F0C5FEFFF743FE284600F098FE2F
:105A90004846FFF775FC3069BDE8F05FFFF7B6BB1D
:105AA00053465A46294672A000F0B2FE41467EA0F7
:105AB00000F0AEFE12490831486808E08269AA4247
:105AC00004D1294681A000F0A3FE02E0406888428C
:105AD000F4D1FFF71DFEDBE72DE9F0471E469046A7
