:020000040800F2
:100000003073002079080008E7020008E9020008C0
:10001000EB020008ED020008EF02000800000000FB
:100020000000000000000000000000003D02000889
:10003000F1020008000000008102000871040008BD
:100040009308000893080008930800089308000824
:100050009308000893080008930800089308000814
:100060009308000893080008930800089308000804
:1000700093080008930800089308000893080008F4
:1000800093080008930800089308000893080008E4
:1000900093080008930800089308000893080008D4
:1000A00093080008930800089308000893080008C4
:1000B00093080008930800089308000893080008B4
:1000C00093080008930800089308000893080008A4
:1000D00093080008A10700081F08000893080008FB
:1000E0009308000893080008930800089308000884
:1000F0009308000893080008930800089308000874
:100100009308000893080008930800089308000863
:100110009308000893080008930800089308000853
:100120009308000893080008930800089308000843
:1001300000F002F800F072F80AA090E8000C824487
:100140008344AAF10107DA4501D100F067F8AFF264
:10015000090EBAE80F0013F0010F18BFFB1A43F0A5
:1001600001031847EC5800000C5900000A444FF0F6
:10017000000C10F8013B13F0070408BF10F8014B06
:100180001D1108BF10F8015B641E05D010F8016B4B
:10019000641E01F8016BF9D113F0080F1EBF10F8AF
:1001A000014BAD1C0C1B09D16D1E58BF01F801CBD2
:1001B000FAD505E014F8016B01F8016B6D1EF9D555
:1001C0009142D6D37047000000230024002500266A
:1001D000103A28BF78C1FBD8520728BF30C148BFAA
:1001E0000B607047702905F06780642904F0F4877C
:1001F000752904F0F187782905F05180632905F00D
:10020000A882732905F0AD82002070471FB59DE8D4
:10021000030005F0E7F91FBD10B510BD05F013FB95
:100220001146FFF7F3FF00F055F805F031FB03B47A
:10023000FFF7F2FF03BC00F087F90000224B1968BA
:100240000868B0E8F00F80F30988BFF36F8F4FF0B4
:10025000000080F311884EF00D0E70470000000082
:1002600006480068006880F3088862B661B6BFF38C
:100270004F8FBFF36F8F00DF00BF00BF08ED00E0BE
:10028000EFF30980BFF36F8F0F4B1A6820E9F00F6F
:10029000106008B54FF0300080F31188BFF34F8F26
:1002A000BFF36F8F02F00AF84FF0000080F311885F
:1002B000BDE8084019680868B0E8F00F80F30988C5
:1002C000BFF36F8F704700BF48000020EFF3058039
:1002D0007047000010B500F0C2F800F0B7F802F067
:1002E00005F9002010BD7047FEE7FEE7FEE7FEE7D8
:1002F000704700000CB500224C4800920192016842
:1003000041F4803101604FF4A063016801F40031D1
:1003100001910099491C0091019911B900999942E4
:10032000F3D10168890333D50121019140490A685D
:1003300042F010020A600A6822F003020A600A68AA
:1003400042F002020A6041684160416841604168D0
:1003500041F480614160416821F47C114160416851
:1003600041F4E8114160016841F080710160016869
:100370008901FCD5416821F003014160416841F0E9
:10038000020141604168C1F381010229FAD10CBD2B
:1003900001920CBD254810B5016841F001010160D2
:1003A0004168244A114041600168234A11400160BC
:1003B000016821F480210160416821F4FE0141605F
:1003C0004FF41F018160FFF795FF1C494FF000605B
:1003D000086010BD154A10B55068194B10F00C019B
:1003E000184803D0042901D0082901D0036012E085
:1003F0005168536801F470114FF0020413F4803F08
:1004000004EB914102D053689B0301D50E4B00E0F1
:100410000B4B5943016051680A4AC1F30311121D85
:10042000515C0268CA40026010BD0000001002402A
:10043000002002400000FFF8FFFFF6FE08ED00E09C
:1004400000127A000000002000093D0010B503F002
:10045000E9FB03F07FFABDE8104003F0FABC10B5E9
:100460004FF4407000F028FA00F00CF8012010BDA5
:1004700010B502F07FFA012803D0BDE8104003F068
:10048000FCB810BD10B5042000F05BFA2B482C49D5
:100490002C4A0068B0FBF1F3B0FBF1F14FF47A7035
:1004A00041431370012050804FF0E020026942F078
:1004B000020202614161016941F00101016110BD67
:1004C00070B54FF0E02500216C691E4AAB691278C7
:1004D0005043AA699A42FCD002D2A3EB020302E085
:1004E000A4EB02063344194413468142F1D370BD94
:1004F00070B5044602F03EFA01280CD0114D688810
:10050000844203D3B4FBF0F001F00CFE6888B4FB26
:10051000F0F100FB11444FF47A706043BDE8704085
:10052000CEE770B5054600244FF47A7603E03046F6
:10053000FFF7C6FF641CAC42F9D370BD0000002079
:1005400040420F00140000207047C4490A88520638
:10055000FCD5C24AC1B2121D118070477047FEB56A
:100560000121880300F03FFC0121042000F03BFC46
:100570004FF40070ADF8000018208DF80300B84F5C
:1005800003248DF802406946384600F044FA3815D5
:10059000ADF8000004208DF803006946384600F0ED
:1005A0003AFA25208DF804008DF8054000268DF8D4
:1005B000066001208DF8070001A800F082F90121F2
:1005C000042000F010FCFD14ADF808508DF80A402E
:1005D00010208DF80B0002A9384600F01CFA2946BD
:1005E000384600F084FA9F480670FEBD1CB5012114
:1005F000480400F001FC0121084600F0F4FB012151
:10060000202000F0F0FB0121082000F08FFA2020CC
:10061000ADF8000018208DF803000320924C8DF8EF
:1006200002006946204600F0F6F94021ADF80010BE
:1006300004218DF803106946204600F0ECF92620CD
:100640008DF8040000208DF805008DF806000120CB
:100650008DF8070001A800F034F91CBD1CB501217C
:10066000880400F0C9FB0121084600F0BCFB012111
:10067000202000F0B8FB01217C4800F057FA4FF42D
:100680008070ADF8000018208DF803000320764C30
:100690008DF802006946204600F0BDF96115ADF8FD
:1006A000001004218DF803106946204600F0B3F9CC
:1006B00027208DF8040000208DF805008DF8060035
:1006C00001208DF8070001A800F0FBF81CBD1CB547
:1006D0000121080500F090FB0121302000F083FB90
:1006E0004FF48050ADF8000018208DF8030003206F
:1006F0008DF8020069465E4800F08DF90420ADF8DF
:1007000000008DF803006946574800F084F9352051
:100710008DF8040000208DF805008DF806000120FA
:100720008DF8070001A800F0CCF81CBD4B490A88E1
:100730001206FCD54949091D0880704710B5474A83
:10074000141D06E013881B06FCD510F8013B23801E
:10075000491E0029F6D110BD4249091D002251F859
:10076000200040F2255100F03ABC3E49091D01220B
:1007700051F8200040F2255100F031BC3949091DE3
:10078000002251F8200040F2266100F028BC3549D3
:10079000091D012251F8200040F2266100F01FBC23
:1007A0002DE9F0412D4E40F227773946304600F0D2
:1007B000CDFC2C4C002520B13946304600F0E5FC3C
:1007C000257040F225573946304600F0BFFC70B125
:1007D000012020703946304600F0D7FC304600F04A
:1007E0004EFCBDE8F041C1B2002003F0BCBC40F2B9
:1007F00024473946304600F0A9FC00280AD0394683
:10080000304600F0C2FC304600F039FC002003F016
:10081000DBFC2570BDE8F08112480078704770B5A8
:10082000144C40F22551204600F090FC40F2244147
:1008300020B12046BDE8704000F0A7BC0D46204620
:1008400000F084FC002808D02946204600F09DFCDA
:100850002046BDE8704000F012BC70BD0038014079
:10086000000801401800002000140140300014006E
:1008700000100140004400400948804709480047F3
:10088000FEE7FEE7FEE7FEE7FEE7FEE7FEE7FEE740
:10089000FEE7FEE704480549054A064B704700009D
:1008A0009503000831010008306D002030730020EE
:1008B000306F0020306F0020284908432849086025
:1008C000704730B50F23C27801780125F2B1244A70
:1008D000126801F1E02102F4E062C2F5E062120A5E
:1008E000C2F10404D3404278A24084781C401443EF
:1008F000220181F80024007800F01F018D4040099A
:10090000800000F1E020C0F8005130BD01F01F0070
:1009100085404809800000F1E020C0F8805130BDDA
:10092000104A114001430E48001F016070470C4AF5
:10093000121D0029116801D0014300E081431160BC
:1009400070474FF0E0210428086903D020F004002C
:100950000861704740F00400FAE700000000FA0563
:100960000CED00E080FFFF1F8F4910B5884206D1D3
:100970000121042000F049FA002104203BE08B49CA
:10098000884206D10121082000F03FFA002108200A
:1009900031E08749884206D10121102000F035FA64
:1009A0000021102027E08349884206D10121202020
:1009B00000F02BFA002120201DE07F49884206D15B
:1009C0000121402000F021FA0021402013E07B4962
:1009D000884206D10121802000F017FA00218020F2
:1009E00009E0774988420AD184150121204600F0A8
:1009F0000CFA00212046BDE8104000F006BA10BDF8
:100A000010B50121084600F000FA0021BDE81040B1
:100A1000012000F0FAB9F0B5CC78002204F00F0301
:100A2000E40601D58C7823430C784FF00F0C14F0BA
:100A3000FF0F4FF0010E1BD005680E880EFA02F46E
:100A40002640A64210D196000CFA06F725EA0707C1
:100A500003FA06F5CE783D43282E02D0482E02D068
:100A600002E0446100E00461521C082AE5D30560FD
:100A70000A88FF2A1CD94468002202F108060EFAEF
:100A800006F50E882E40AE420ED196000CFA06F7FF
:100A9000BC4303FA06F7CE783C43282E00D14561CB
:100AA000CE78482E00D10561521C082AE5D3446057
:100AB000F0BD4FF6FF710180022181700421C170E9
:100AC00070470246002092680A4200D00120704719
:100AD000806880B2704702460020D2680A4200D087
:100AE00001207047C06880B2704701617047416162
:100AF00070470AB10161704741617047C16070473A
:100B000041F48032826181618261816980697047CC
:100B10002C4B10B51A684FF68074224042EA001040
:100B20000843186010BD2849C8617047F0B5254CCE
:100B3000002801DAE36900E06368450D2E0185B203
:100B4000C0F30157B540C0F30342032F05D0C602DE
:100B50000AD503269640B34307E023F0706263682A
:100B600023F07063636002E0AB4343F0706201B155
:100B70002A43002801DAE261F0BD6260F0BD10B5E1
:100B80008A0721F003040F49120F21440F238C68B8
:100B900093409C438C608B68904003438B6010BDF6
:100BA0000949C1F8DC00704700080140000C014011
:100BB000001001400014014000180140001C0140D9
:100BC000002001400000014000002042A5480168CB
:100BD00041F0010101604168A34A11404160016890
:100BE000A24A11400160016821F48021016041683E
:100BF00021F4FE0141604FF41F0181607047994963
:100C00000A6822F480320A600A6822F480220A60AC
:100C1000B0F5803F07D0B0F5802F03D1086840F4CD
:100C2000A02008607047086840F48030F9E7034668
:100C3000002059098B4A01290AD002290AD0516A99
:100C400003F01F02012393400B4200D001207047A4
:100C50001168F5E7116AF3E718B500204FF4A064B6
:100C600000903120FFF7E3FF0099491C0091A14259
:100C700001D00028F5D03120FFF7D9FF002800D09F
:100C8000012018BD774A116821F0F80141EAC0003F
:100C900010607047764908607047724B5A68084385
:100CA00022F47C12104358607047714908667047FF
:100CB0006C4A516821F00301014351607047694853
:100CC000406800F00C007047664A516821F0F0015E
:100CD000014351607047634A516821F4E061014368
:100CE000516070475F4A516821F4605141EAC00089
:100CF000506070475B4A0029517A01D0014300E0FF
:100D00008143517270475A49C1F8D8007047554A1B
:100D1000516821F44041014351607047514900221C
:100D200081F8202081F82020012802D0042802D157
:100D3000052081F8200070474E49086070474949F6
:100D40000A6A02430A6270474A4944390860704798
:100D500030B5444A5168484B11F00C0103D00429C6
:100D600001D0082901D0036012E05168536801F4F2
:100D700070114FF0020413F4803F04EB914102D054
:100D800053689B0301D53D4B00E03B4B5943016049
:100D900051680F2303EA1111394B5C5C0168E14093
:100DA00041605468072505EA14241C5D21FA04F407
:100DB0008460546805EAD4241B5DD940C160526840
:100DC000032303EA92322E4B1B1F9A5CB1FBF2F114
:100DD000016130BD234A0029516901D0014300E07F
:100DE0008143516170471F4A0029916901D0014335
:100DF00000E08143916170471A4A0029D16901D00E
:100E0000014300E08143D1617047164A0029D1684F
:100E100001D0014300E08143D1607047114A0029AD
:100E2000116901D0014300E081431161704711490C
:100E30004039086070470E49C86470470949C87155
:100E400070470848416A41F0807141627047054A25
:100E50000146002092680A4200D0012070470149F3
:100E600088727047001002400000FFF8FFFFF6FE96
:100E7000000042428004424200127A0000093D0014
:100E800038000020C44910B588420AD101218C03E2
:100E90002046FFF7BAFF2046BDE810400021FFF7CB
:100EA000B4BFBE49884202D101214C0410E0BC49C4
:100EB000884202D101218C040AE0BA49884202D159
:100EC0000121CC0404E0B84988420AD101210C0573
:100ED0002046FFF7A3FF2046BDE810400021FFF7A2
:100EE0009DBF10BD30B50446008A85B00D464CF656
:100EF000FF710840E98801432182A0894EF6F31171
:100F00000840A9882A8911436A8902431143A181B3
:100F1000A08A4FF6FF410840A9890143A182684693
:100F2000FFF716FF9C48844201D1039800E0029825
:100F3000A189090400EBC00101EB0010296801D56B
:100F4000490000E08900B0FBF1F06422B0FBF2F14F
:100F500009010B096FF018056B4300EB8300A389AF
:100F60001D044FF0320306D503EBC000B0FBF2F0D6
:100F700000F0070005E003EB0010B0FBF2F000F01A
:100F80000F000843208105B030BD4FF416510160B9
:100F900000218180C18001810C22428181817047C2
:100FA00010B5028A4FF2FF031A400B884C88234386
:100FB0008C88C9880C4323431343038210BD00214E
:100FC000018041808180C18070470029818902D0E1
:100FD00041F4005101E021F400518181704710B5C6
:100FE000C1F3421301F01F040121A140012B07D0DE
:100FF000022B07D01430002A026805D00A4304E00F
:101000000C30F8E71030F6E78A43026010BD002A82
:10101000828A01D00A4300E08A4382827047028AB2
:1010200022F00F020282028A0A43028270478289FA
:1010300022F40062828182890A43828170470029FA
:10104000818902D041F0020101E021F00201818199
:101050007047028A22F020020282028A0A43028238
:1010600070470029018A02D041F4804101E021F457
:10107000804101827047C1F30801818070478088F8
:10108000C0F308007047818941F0010181817047F8
:10109000028BD2B20283028B42EA012101837047A4
:1010A000028B02F47F420283028B0A430283704761
:1010B0000029818A02D041F0200101E021F02001C5
:1010C000818270470029818A02D041F0100101E03D
:1010D00021F01001818270470029818A02D041F0FD
:1010E000080101E021F0080181827047002981890F
:1010F00002D041F4004101E0C1F30E01818170474B
:101100000029818A02D041F4006101E021F40061EC
:1011100081827047828A22F004028282828A0A4394
:10112000828270470029818A02D041F0020101E0E9
:1011300021F00201818270470246002012880A4293
:1011400000D001207047C9430180704770B501F09D
:101150001F0501260024C1F3421306FA05F2012BF4
:101160000FD0022B0FD0838A4FEA1121008813423F
:1011700006FA01F600EA060001D000B1012420467B
:1011800070BD8389F0E7038AEEE70A0A01219140E6
:10119000C94301807047000000380140004400400E
:1011A00000480040004C00400050004000F10801A1
:1011B0004FF0FF32C0E90112C160016100210160FE
:1011C000704700210161704742684A6093688B60F4
:1011D00093685960916008610168491C016070471B
:1011E00030B50C68621C02D000F1080202E002690E
:1011F00004E01A4653681D68A542FAD953684B604B
:1012000099608A60516008610168491C016030BDC5
:10121000D0E9013201699A60D0E901235A604A6835
:10122000824201D182684A60002202610868401E41
:101230000860704770B50D46040005D140F21B12DE
:10124000F2A1F7A003F058FF02F0ECF9D4E90F2067
:10125000216802FB001161600021A1632168A16087
:101260000A46D4E90F01401E00FB0121E16021463E
:101270004FF0FF3001F8440F487004F110004DB1F9
:10128000FFF794FF04F12400FFF790FF02F0E4F968
:10129000012070BD21690029F8D001F0A3FA0028CF
:1012A000F4D0E3494FF080500860BFF34F8FBFF395
:1012B0006F8FEBE72DE9F04117460E46050005D18B
:1012C0004FF4C472D1A1D6A003F016FFBEB105FB46
:1012D00006F0543002F056FA04000ED004F1540027
:1012E0007EB12060C4E90F5620460121FFF7A2FF1E
:1012F00084F8507000212046A164BDE8F0810020F0
:10130000E7E72460EEE72DE9F041856B17460446D8
:101310000026026C82B1C7B1E06804F0ACF8E16865
:10132000206C091AE1602268914202D26168081AB1
:10133000E060022F16D017E02068A8B9606801F0BD
:1013400062FB0646002060600EE0A06804F093F89F
:10135000216CA0680844A0606168884204D32068BA
:10136000A06001E005B16D1E6D1CA5633046C4E7A9
:101370002DE9F3410F4600980026846C2CB940F605
:10138000CE12A2A1A6A003F0B7FEA06BE16B88422B
:1013900005D340F6CF129DA1A1A003F0ADFEA06B36
:1013A000E16B88420CD294F945503A466946204692
:1013B000FFF7A9FF0646681C05D06D1C84F8455050
:1013C0003046BDE8FC81606A0028F9D004F12400B1
:1013D00001F008FA0028F3D00126F1E72DE9F041E9
:1013E000044602F01FF994F9455004F1240610E078
:1013F000A06C20B100212046FFF7BAFF04E0606A2C
:1014000048B1304601F0EEF908B101F0A4FA6D1EC2
:101410006DB2002DECDC4FF0FF3684F8456002F031
:101420001BF902F0FFF894F9445004F1100709E0A9
:10143000206948B1384601F0D5F908B101F08BFABE
:101440006D1E6DB2002DF3DC84F84460BDE8F04100
:1014500002F002B92DE9FF4F83B099468B46040094
:101460004FF0000605D140F2D92268A16CA003F02C
:1014700043FEBBF1000F07D1206C28B140F2DA2205
:1014800062A167A003F038FEB9F1020F08D1E06B4A
:10149000012805D040F2DB225CA161A003F02CFE04
:1014A00001F068FA38B9059828B140F2DE2257A158
:1014B0005BA003F021FE4FF0000A4FF08057DFF8E9
:1014C000708102F0AFF8A06BE16B884206D3B9F1EE
:1014D000020F03D0059800B316B325E04A465946DB
:1014E0002046FFF710FFA16C21B149462046FFF7C7
:1014F0003FFF05E0616A19B104F1240001F072F9BF
:1015000028B1C8F80070BFF34F8FBFF36F8F02F0A0
:10151000A3F8012007B0BDE8F08F02F09DF821E0AC
:10152000684601F0CEF9012602F096F800F09BFD26
:1015300002F078F894F94400401C01D184F844A0EA
:1015400094F94500401C01D184F845A002F084F8CC
:1015500005A9684601F0C6F930B12046FFF73EFF05
:1015600000F0F3FC0020D5E702F05CF8A06BE16B23
:10157000884201D1012500E0002502F06DF895B107
:1015800004F11000059901F0D4F82046FFF726FF7A
:1015900000F0DBFC002894D1C8F80070BFF34F8F37
:1015A000BFF36F8F8DE72046FFF718FF00F0CDFCEB
:1015B00087E710B5024600210120FFF77BFE041EDD
:1015C00007D00021416001600B460A46C160FFF769
:1015D00041FF204610BD10B5040005D140F2412264
:1015E0000AA10FA003F088FD01F0C1F961688842EB
:1015F00020D1E068401EE06005D100231A4619465C
:101600002046FFF727FF012010BD00002E2E5C466C
:1016100072656552544F535C71756575652E630034
:101620004572726F723A25732C25640D0A00000012
:1016300004ED00E00020E7E730B4026C0B46002A1E
:101640000BD0C1681144C1604468A14201D3016854
:10165000C16030BC184603F00EBF30BC70472DE9A6
:10166000FF4F83B09B468A4604004FF0000607D127
:1016700040F2DC42AFF26C01AFF25C0003F03CFDE3
:10168000BAF1000F09D1206C38B140F2DD42AFF25F
:101690008401AFF2740003F02FFD01F06BF948B93B
:1016A000059838B14FF49C62AFF2A001AFF2900000
:1016B00003F022FD4FF000094FF08057DFF8188645
:1016C00001F0B0FFA56B35B351462046E668FFF741
:1016D000B3FFBBF1000F11D0E660606A50B104F1B6
:1016E000240001F07FF828B1C8F80070BFF34F8FD5
:1016F000BFF36F8F01F0B0FF01200BE76D1EA563F4
:10170000206810B901F02FFA606020690028F1D03C
:1017100004F11000E5E7059808B11EB106E001F0FC
:101720009BFF27E0684601F0CCF8012601F094FF0A
:1017300000F099FC01F076FF94F94400401C01D1BF
:1017400084F8449094F94500401C01D184F84590F8
:1017500001F082FF05A9684601F0C4F80028204680
:101760000AD0FFF73BFE00F0F0FB204600F0A6FA9F
:101770000028A5D00020CDE600F0A0FAD8B120685E
:1017800030B901F04FFF606801F0FFF801F064FF2D
:1017900004F12400059900F0CCFF2046FFF71EFE5F
:1017A00000F0D3FB00288BD1C8F80070BFF34F8F37
:1017B000BFF36F8F84E72046FFF710FE00F0C5FBF4
:1017C0007EE770B50D46040007D14FF41E72AFF2EC
:1017D000C411AFF2B41003F08FFC01F0C8F86168D7
:1017E000884204D1E068401CE060012070BD002305
:1017F0002A4619462046FFF732FF0028F6D0E16856
:10180000491CE16070BD70B50C46050007D140F27F
:10181000BD22AFF20821AFF2F81003F06DFCAC422C
:1018200007D940F2BE22AFF21C21AFF20C2003F028
:1018300063FC022200212846FFF73CFD002800D06F
:10184000846370BD2DE9F04798461546894604002B
:1018500007D140F29F32AFF24C21AFF23C2003F0AF
:101860004BFCB9F1000F09D1206C38B14FF468720C
:10187000AFF26821AFF2582003F03EFCB8F1020F3E
:101880000AD1E06B012807D040F2A132AFF28421E7
:10189000AFF2742003F030FC01F003FF3020EFF3CF
:1018A000118780F31188BFF34F8FBFF36F8FA06B49
:1018B000E16B884207D3B8F1020F04D0002087F310
:1018C0001188BDE8F08794F94560424649462046B4
:1018D000FFF719FD701C04D0761C84F845600120C8
:1018E000EDE7A06C012620B141462046FFF740FD00
:1018F00006E0606A0028F2D004F1240000F072FFD4
:101900000028ECD0002DEAD02E60E8E72DE9F04168
:101910000D46040007D140F23C42AFF21031AFF265
:10192000003003F0E9FB206C38B14FF48862AFF26D
:101930002431AFF2143003F0DFFB206848B960684F
:1019400038B140F24542AFF23C31AFF22C3003F0F7
:10195000D3FB01F0A6FE3020EFF3118680F311884F
:10196000BFF34F8FBFF36F8FA16BE06B88421FD91E
:1019700094F94500491CA163411C04D0401C84F823
:101980004500012015E0A06C012720B10021204670
:10199000FFF7EEFC06E0606A0028F2D004F12400B4
:1019A00000F020FF0028ECD0002DEAD02F60E8E7FF
:1019B000002086F31188A0E42DE9F047904689467F
:1019C000040007D14FF4B462AFF2C031AFF2B030CF
:1019D00003F092FBB9F1000F09D1206C38B140F24D
:1019E000A152AFF2D831AFF2C83003F085FB01F05D
:1019F00058FE3020EFF3118780F31188BFF34F8F2B
:101A0000BFF36F8FA66BF6B194F944504946204658
:101A1000FFF712FE761EA663681C04D06D1C84F8C6
:101A20004450012010E020690028FAD004F1100091
:101A300000F0D8FE0028F4D0B8F1000FF1D0012159
:101A4000C8F80010EDE7002087F3118839E72DE989
:101A5000F0410E46040007D140F2FC52AFF254416F
:101A6000AFF2444003F048FB4EB9206C48B140F25D
:101A7000FD52AFF26841AFF2584003F03DFB206CDD
:101A800038B940F2FE52AFF27C41AFF26C4003F045
:101A900033FB01F006FE3020EFF3118580F311884F
:101AA000BFF34F8FBFF36F8FA06B30B1314620462D
:101AB000E768FFF7C1FD0120E76085F311881CE4AA
:101AC00010B5040007D140F22F62AFF2C041AFF26F
:101AD000B04003F011FB01F0A5FDA46B01F0BCFDCB
:101AE000204691E510B5040007D140F24162AFF203
:101AF000E441AFF2D44003F0FFFA01F093FDD4E9E2
:101B00000E10441A01F0A8FD20467DE510B5040032
:101B100007D140F25162AFF20C51AFF2FC4003F03A
:101B2000EBFAA06B70E56D4A002102EBC1035B6824
:101B3000834206D1002042F8310002EBC101486027
:101B40007047491C0829F0D3704710B5040007D12D
:101B500040F25D62AFF24C51AFF23C5003F0CCFA70
:101B60002046FFF7E0FF2046BDE8104001F075BEBB
:101B7000C06C7047C164704790F85000704710B552
:101B8000040007D140F29372AFF28051AFF270506F
:101B900003F0B2FAA06B08B1002035E5012033E56F
:101BA00010B5040007D140F2BA72AFF2A051AFF203
:101BB000905003F0A1FAA06BE16B884201D10120A3
:101BC00022E5002020E510B5444B002253F83240B6
:101BD0001CB1521C082AF9D316E543F8321003EB66
:101BE000C201486010E510B500243C4A214602EBD2
:101BF000C1035B68834202D152F8314002E0491CC4
:101C00000829F4D32046FFE470B515460E46044675
:101C100001F008FD94F944100020491C01D184F81A
:101C2000440094F94510491C01D184F8450001F0A5
:101C300013FDA06B28B92A46314604F1240000F0B8
:101C4000B6FD2046BDE87040FFF7C8BB0022042166
:101C5000FFF730BB70B50D46044601F0E3FCA06C05
:101C600008B9A06B08B1002401E0A564012401F0CB
:101C7000F3FC204670BD10B50446806C884201D14B
:101C8000A06B08B10020BFE401F0CCFC0020A064F0
:101C900001F0E2FC0120B7E408B500230A466946DA
:101CA0000093FFF7DCFC009808BD08B500210A4648
:101CB00000916946FFF780FE009808BD10B5044604
:101CC00001F0B0FCA06B20B1002401F0C5FC20465F
:101CD0009AE40124F9E7000004ED00E0200200206E
:101CE0002DE9F041054601F09DFCFE4EB068401C18
:101CF000B0603068FC4F10B1706930B32BE03560D4
:101D0000B068012827D1002404EB840007EB800091
:101D1000FFF74CFA641C202CF6D3F448FFF746FA80
:101D2000F2481430FFF742FAF0482830FFF73EFA45
:101D3000EE483C30FFF73AFAEC485030FFF736FAFD
:101D4000EA4870631430B06305E03068E96AC06A3D
:101D5000884200D83560706A0121401C7062A86416
:101D6000E86A326981401143316100EB800007EB82
:101D70008000291DFFF728FA01F06EFC7069002829
:101D80000CD03068E96AC06A884207D2D8494FF05F
:101D900080500860BFF34F8FBFF36F8FBDE8F081B5
:101DA0002DE9FF5F8346DDE90E87994616468A4690
:101DB000900001F0E7FC05001AD0602001F0E2FC81
:101DC000040012D025630021CDE90241CDE900874E
:101DD0004B4632465146584601F087F82046FFF7F9
:101DE0007FFF012004B0BDE8F09F284601F035FDDB
:101DF0004FF0FF30F6E770B5044601F013FCB94D23
:101E000004B92C68201DFFF703FA58B9E06AB64AF6
:101E100000EB800152F8211021B90121814028698D
:101E200088432861A06A18B104F11800FFF7F0F99F
:101E3000686A401C68622868844208D1AB48211D4A
:101E40003C30FFF7C1F96868401C686007E0A8688B
:101E5000401EA860204601F0A1F801F092F801F0C0
:101E6000FBFB6869002812D0286884420FD1286BD8
:101E700028B140F265429FA1A3A003F03DF99C491F
:101E80004FF080500860BFF34F8FBFF36F8F70BD6E
:101E90002DE9F041934F0026386B38B1B869401CEA
:101EA000B861F86900B10126304677E7FD686D1C1E
:101EB000FD6011D1786B006828B140F6D9128DA170
:101EC00091A003F019F9786BB96B7963B863386A3C
:101ED000401C386201F055F8B86ADFF80C82854280
:101EE00009D3786B006880B1786BC068C46860689B
:101EF00085420DD2B8623868C06A00EB800158F89C
:101F000021000128CDD90126CBE74FF0FF30F1E7C2
:101F1000201DFFF77DF9A06A18B104F11800FFF742
:101F200077F9E06A01213A6981401143396100EB98
:101F3000800108EB8100211DFFF746F9E06A39684E
:101F4000C96A8842CDD30126CBE72DE9F047654D1C
:101F500000242746286B28B94FF4FD6265A16AA0CA
:101F600003F0CAF801F05EFB286B401E2863286B63
:101F7000F0BBA8685D4928310126C8B3DFF8689135
:101F80008846D8F80010E9B1D8F80C00C46804F10C
:101F90001800FFF73DF9201DFFF73AF9E06A2A69BA
:101FA00006FA00F11143296100EB800109EB810081
:101FB000211DFFF709F9E06A2968C96A8842E0D360
:101FC000EE61DEE70CB100F0DCFFAC693CB1FFF77D
:101FD0005FFF00B1EE61641EF9D10020A861E869DD
:101FE00030B14349012738070860BFF34F8F00E045
:101FF00001E0BFF36F8F01F02FFB3846BDE8F0879B
:102000002DE9F041374E0F460446F5683068001D53
:10201000FFF7FEF838B9306890F82C10012088409E
:10202000316981433161601C08D13FB13168BDE83D
:10203000F0412E485030091DFFF7C6B830682C44D7
:10204000AC424460316805D2B06BBDE8F041091D77
:10205000FFF7C6B8706B091DFFF7C2F8B06A84427B
:1020600000D2B4629AE61F48016B491C01637047B5
:102070002DE9F0410E4605004FF0000405D140F275
:1020800079421CA120A003F037F82EB940F27A4221
:1020900018A11DA003F030F8124F386B28B140F2A0
:1020A0007B4214A118A003F027F8FFF7DCFFFA68C1
:1020B00028688119904202D9884202D804E08842F7
:1020C00001D8914200D9012429601CB1881A00214D
:1020D000FFF796FFFFF739FF002822D14FF080501D
:1020E000034919E04800002060020020E0040020BD
:1020F00004ED00E02E2E5C4672656552544F535C31
:102100007461736B732E63004572726F723A25733C
:102110002C25640D0A0000000860BFF34F8FBFF349
:102120006F8F3BE610B5040014D0FE49096B39B13E
:1021300040F2CF42AFF24401AFF2340002F0DCFFD4
:10214000FFF791FF00212046FFF75AFFFFF7FDFE42
:10215000002807D1F4494FF080500860BFF34F8F3B
:10216000BFF36F8F10BD70B5050007D140F2FB4281
:10217000AFF28001AFF2700002F0BEFFE94E3068AE
:10218000854201D1002070BD01F04CFA6C6901F06C
:1021900063FA706B844202D0B06B844201D102209A
:1021A00070BDE248844204D1A86A0028F7D1032018
:1021B00070BDDE481438844202D00CB1012070BDDD
:1021C000042070BD10B5044601F02CFA0CB9D548B6
:1021D0000468E46A01F040FA204610BD10B50446D8
:1021E00001F05FFA3020EFF3118180F31188BFF323
:1021F0004F8FBFF36F8F0CB9CA480468E06A81F350
:10220000118810BD2DE9F04100260D460446202915
:1022100008D34FF4B062AFF22411AFF2141002F001
:102220006BFF1F2501F0FEF9BE4F04B93C68206D1D
:10223000A8423FD03968854206D98C4207D0396818
:10224000C96AA94202D902E08C4200D10126E16AA2
:102250008846884200D1E5622565A069002802DB36
:10226000C5F12000A061B24D08EB8800616905EB63
:102270008000814215D1201DFEF7CAFF012120B93F
:102280003A6901FA08F082433A61E06A3A698140AA
:102290001143396100EB800005EB8000211DFEF742
:1022A00093FF3EB1A0494FF080500860BFF34F8FBD
:1022B000BFF36F8FBDE8F04101F0CEB970B5994D15
:1022C000286B10B10120E86170BD0020E861286929
:1022D000974EB0FA80F0C0F11F0000EB800456F872
:1022E000240038B940F6F622AFF2F811AFF2E81048
:1022F00002F002FF06EB840000F108024168496821
:102300004160914201D149684160C868286070BD50
:1023100070B5044601F086F9824D04B92C68201D81
:10232000FEF776FF58B9E06A814A00EB800152F867
:10233000211021B901218140286988432861A06AC0
:1023400018B104F11800FEF763FF211D7748FEF76E
:102350003BFF01F081F9686928B101F063F900F0F1
:1023600010FE01F079F92868844213D1686990B1B0
:10237000286B38B140F25762AFF28821AFF2782073
:1023800002F0BAFE68494FF080500860BFF34F8FEB
:10239000BFF36F8F70BD6548A9680068884202D19D
:1023A0000020286070BDBDE8704087E770B500254B
:1023B000040007D140F28162AFF2C821AFF2B82029
:1023C00002F09AFE59496069884205D1A06A28390D
:1023D000884201D000B90125284670BD70B50400BF
:1023E0002BD0504D2868844231D001F01BF9204693
:1023F000FFF7DCFFE8B1201DFEF70AFFE06A0121CC
:102400002A69814011432961494900EB800001EBB1
:102410008000211DFEF7D8FEE06A2968C96A88425B
:1024200007D341494FF080500860BFF34F8FBFF38F
:102430006F8FBDE8704001F00FB940F2AB62AFF2B0
:102440004C31AFF23C30BDE8704002F055BE70BD7B
:102450002DE9F0410026040007D140F2E262AFF21C
:102460006C31AFF25C3002F047FE01F01AF9302017
:10247000EFF3118580F31188BFF34F8FBFF36F8F98
:102480002046FFF793FFF0B1264F386B20B1274865
:1024900004F11801283814E0E06A3968C96A8842F2
:1024A00000D30126201DFEF7B3FEE06A01213A6940
:1024B0008140114339611E4900EB800001EB80002F
:1024C000211DFEF781FE85F31188304666E4184E23
:1024D0004FF08054144D00F06BFD30680128FAD99C
:1024E0002C60BFF34F8FBFF36F8FF4E71CB50D481F
:1024F00000242C30CDE90040234682220DA10F4854
:10250000FFF74EFC012803D100F06DFE01281BD01F
:10251000401C2BD140F28472AFF22841AFF2184038
:1025200002B00DE04800002004ED00E0300500207E
:102530006002002049444C4500000000CF24000800
:10254000BDE8104002F0D8BD302080F31188BFF301
:102550004F8FBFF36F8FFA484FF0FF318162012137
:102560004161C460BDE81C4001F01AB81CBD3020B8
:1025700080F31188BFF34F8FBFF36F8FF0490020B6
:10258000486101F043B8EE48C068704710B501F0EB
:1025900088F8EB48C06810BDE9488068704710B5FE
:1025A00010B104461CB10AE0E5480468FAE740F6B9
:1025B0008C02AFF2C041AFF2B04002F09DFD04F1D9
:1025C000340010BD2DE9F0471E4691460C46070029
:1025D0000ED0054605F13400C4E90050E86A2061D8
:1025E000286BE061A86CA060207B032803D00AE080
:1025F000D3480568EEE7FFF736FDA86A08B1022068
:102600002073FFF7A2FC4FF00008286DC4E905080D
:10261000052E01D0267303E03846FFF7A4FD207392
:10262000B9F1000F0AD00021286B01E0401C491CC1
:102630000278A52AFAD088082084DFE4A4F8208054
:10264000DCE42DE9F0478146086892460C460025F7
:10265000F8B1486801F1080640684860B04201D10D
:1026600040684860D0F80C80606842686260B2429E
:1026700001D151686160606805EBC50109EB81011A
:10268000C768534601223846FFF79CFF6D1C47453B
:10269000EAD12846B2E42DE9F04717460A46064635
:1026A00000242025FFF7DFFCDFF89482D8F808002B
:1026B00082423AD3DFF88C926D1E05EB850104EB64
:1026C000C40009EB810106EB80000122FFF7B9FF8E
:1026D0000444002DF0D104EBC40006EB800002227C
:1026E0004546D8F83410FFF7ACFF044404EBC400AF
:1026F00006EB80000222A96BFFF7A3FF044404EB62
:10270000C40006EB800004228F49FFF79AFF0444BF
:102710008D4904EBC40006EB800003221431FFF75F
:1027200090FF04440FB100203860FFF70EFC2046F4
:1027300064E470B50D46040007D140F60632AFF2EE
:102740004C61AFF23C6002F0D7FC7D480168204646
:102750001831FEF745FD2846BDE8704001214FE4E1
:102760002DE9F04117460E46050007D140F6173215
:10277000AFF28061AFF2706002F0BEFC704C206B73
:1027800038B940F61B32AFF29461AFF2846002F0C8
:10279000B3FC216846F00040886121682846183162
:1027A000FEF712FD3846BDE8F041012128E470B57E
:1027B00014460E46050007D140F63132AFF2CC6127
:1027C000AFF2BC6002F098FC5D4801682846183101
:1027D000FEF7FAFC0CB14FF0FF3621463046BDE85B
:1027E00070400DE42DE9F041C068C4683CB940F682
:1027F0006132AFF20071AFF2F06002F07DFC04F1E3
:1028000018000746FEF704FD4D4D286B012660B108
:102810004D4839461438FEF7D7FCE06A2968C96A82
:10282000884212D90120EE611CE4201DFEF7F0FC65
:10283000E06A2A6906FA00F111432961414900EB77
:10284000800001EB8000211DE5E700200AE470B55F
:102850003B4D06460C46286B38B940F69932AFF22C
:102860006C71AFF25C7002F047FC44F000403060E5
:10287000F4683CB940F6A132AFF28871AFF27870DB
:1028800002F03AFC3046FEF7C3FC201DFEF7C0FC08
:10289000E06A01262A6906FA00F1114329612949F3
:1028A00000EB800001EB8000211DFEF78DFCE06A4B
:1028B0002968C96A884202D90120EE6170BD0020F2
:1028C00070BD10B5040007D140F6C132AFF2DC7123
:1028D000AFF2CC7002F010FC1948016A2160C068A8
:1028E000606010BD70B50D46040007D140F6CB32D4
:1028F000AFF60001AFF2F07002F0FEFB3DB940F61A
:10290000CC32AFF61001AFF6000002F0F5FB00F09C
:1029100089FE0B4AD06829684B1C0FD02368126AC5
:10292000934202D06268824210D96268801A88425B
:102930000CD2081A28602046FFF7C3FF002406E0E7
:1029400048000020600200201C050020012400F047
:1029500083FE204670BDFF490120C86170470028F2
:1029600000D0C06C7047002800D0C1647047F9489F
:1029700000687047F748416919B1006B18B1002031
:102980007047012070470220704770B5040039D0AD
:10299000F04DE06A2968C96A884233D2A0690028EC
:1029A00004DB2868C06AC0F12000A061E06AEA4E3A
:1029B00000EB8000616906EB800081421FD1201D81
:1029C000FEF726FC012150B9E06A00EB800256F8C0
:1029D000222022B92A6901FA00F082432A6128687C
:1029E000C06AE0622A6981401143296100EB8000DE
:1029F00006EB8000211DBDE87040FEF7E5BB2868AE
:102A0000C06AE06270BD70B504004FF0000640D0AF
:102A1000D04D2868844207D040F6C762AFF62C112B
:102A2000AFF61C1002F068FB606D38B940F6C96261
:102A3000AFF64011AFF6301002F05EFB606D401E45
:102A40006065226DE16A914223D010BB201DFEF724
:102A5000DFFBC149012250B9E06A00EB800351F865
:102A6000233023B92B6902FA00F083432B61206DD8
:102A7000E062C0F12000A061E06A2B6982401A4345
:102A80002A6100EB800001EB8000211DFEF79CFB1A
:102A90000126304670BD2DE9FF410027054607702D
:102AA000AC4881680291806800EBC000800000F0B3
:102AB00069FE06004BD000220299FFF7ECFDCDE93C
:102AC000020738463AE000EBC00006EB8001087BC5
:102AD00001280FD002280FD003280FD004280FD0D0
:102AE00000244968284602F078FC284602F0A4FC3D
:102AF000202109E05224F4E74224F2E75324F0E7CE
:102B00004424EEE72954401C1328FBD32F540544DA
:102B1000039800EBC00006EB80008268018CCDE9D1
:102B20000012036922468DA1284602F0F1FA2846D8
:102B300002F082FC05440398401C039002998842ED
:102B4000C1D304B03046BDE8F04100F086BEBDE818
:102B5000FF81804908680A688069D26A0968C2F101
:102B600020028A6170477B49086818B10868426D85
:102B7000521C42650868704770B50C46064600F066
:102B800051FD744D2868806D80B92968012081F855
:102B90005C005CB101212046FFF732FA73494FF027
:102BA00080500860BFF34F8FBFF36F8F00F054FD6C
:102BB00000F038FD2868846D002034B116B1296812
:102BC000886502E02A68611E9165296881F85C00C9
:102BD00000F042FD204670BD2DE9F0411E4615462D
:102BE0008846074600F01EFD5A4C206890F85C00AD
:102BF000022814D02068816DB943816521680120C5
:102C000081F85C005EB101213046FFF7F9F95749C0
:102C10004FF080500860BFF34F8FBFF36F8F00F00D
:102C20001BFD00F0FFFC15B12068806D2860206856
:102C300090F85C0001280DD02068816D21EA080120
:102C4000816501252168002081F85C0000F004FD09
:102C500028463BE40025F5E72DE9F0411F46904664
:102C60000D4604004FF0010607D141F2FD02AFF618
:102C70007C31AFF66C3002F03FFA00F0D3FC0FB1BC
:102C8000A06D386094F85C00022184F85C10B8F103
:102C9000050F0ED2DFE808F00D03060C0A00A16D47
:102CA000294301E0A16D491CA16502E0022803D07F
:102CB000A565012802D02AE0002628E0201DFEF7A5
:102CC000A7FA244DE06A01212A6981401143296154
:102CD000214900EB800001EB8000211DFEF774FA12
:102CE000A06A38B141F23512AFF6F831AFF6E830EC
:102CF00002F002FAE06A2968C96A884207D91B49CA
:102D00004FF080500860BFF34F8FBFF36F8F00F01C
:102D1000A3FC304688E52DE9F0471F46DDF82090FA
:102D200092460D4604004FF0010807D141F26812A7
:102D3000AFF64041AFF6304002F0DEF900F0B1FCF2
:102D40003020EFF3118680F31188BFF34F8FBFF36C
:102D50006F8F0DE048000020600200200925630904
:102D600025750925750925750D0A000004ED00E09B
:102D70000FB1A06D386094F85C00022184F85C10FB
:102D8000BAF1050F0ED2DFE80AF00D03060C0A00B7
:102D9000A16D294301E0A16D491CA16502E0022853
:102DA00003D0A565012803D031E04FF000082EE0E4
:102DB000A06A38B141F2AF12AFF6C841AFF6B840E1
:102DC00002F09AF98D4D286B012778B104F11801B2
:102DD0008B48FEF7F9F9E06A2968C96A884216D972
:102DE000B9F1000F12D0C9F8007010E0201DFEF7F5
:102DF0000FFAE06A2A6907FA00F11143296100EB32
:102E00008001804800EB8100211DE2E7EF6186F33D
:102E10001188404611E42DE9F0418846040007D1AD
:102E200041F2E312AFF63451AFF6245002F064F9E8
:102E300000F037FC3020EFF3118780F31188BFF3E7
:102E40004F8FBFF36F8F94F85C00022184F85C1001
:102E5000A16D491CA16501282ED1A06A38B141F2AB
:102E60000922AFF67051AFF6605002F045F9634D9C
:102E7000286B012678B104F118016148FEF7A4F926
:102E8000E06A2968C96A884216D9B8F1000F12D0E1
:102E9000C8F8006010E0201DFEF7BAF9E06A2A6960
:102EA00006FA00F111432961564900EB800001EB5D
:102EB0008000211DE2E7EE6187F31188B4E410B5CC
:102EC00058B1044600F0AEFB94F85C00022807D02D
:102ED000002400F0C1FB204610BD48480468F1E71B
:102EE000002084F85C000124F3E72DE9F0470E464A
:102EF000DDE909841746824691009946089DA5227E
:102F0000206B02F0FDFA6FF00301206B01EB8701EB
:102F1000084420F00707780705D040F22B323AA189
:102F20003EA002F0E9F800202218315C82F834104B
:102F3000315C11B1401C1428F6D3002684F8476098
:102F4000202D00D31F25E562C4E91456201DFEF78D
:102F500038F904F11800FEF734F92461C5F12000B6
:102F60006462A061A66584F85C604A4651463846B2
:102F700000F0F9FA2060B8F1000F01D0C8F8004065
:102F800048E71E48416B096829B1416BC968C968A7
:102F90004968816270474FF0FF31FAE710B5044687
:102FA000006B00F05AFC2046BDE8104000F055BC14
:102FB00070B5134E114D14361CE0FFF754F830680D
:102FC00020B10024FEF7C1FFA4B901E00124F9E714
:102FD00000F028FBF068C468201DFEF719F9A86806
:102FE000401EA8606868401E686000F035FB2046FF
:102FF000FFF7D4FF68680028DFD170BD48000020CB
:1030000008050020600200202E2E5C467265655285
:10301000544F535C7461736B732E63004572726F0F
:10302000723A25732C25640D0A00000070B5002447
:103030004160F74D0061914206D8D11A82699142F0
:1030400006D2011D286907E09A4203D2994201D3B2
:10305000012403E0011DE868FEF7C2F8204670BDB8
:103060002DE9FF479946DDF830A090460D46060051
:103070004FF0000705D14FF4D372E6A1EBA002F0A8
:103080003BF8E34C206880B1CDE900580296062D4C
:1030900011DAFFF76FFC02284FF0000309D000227D
:1030A00069462068FEF7D6F9074604B03846BDE801
:1030B000F0875246F4E700234A466946FEF7C2FB12
:1030C000F2E770B586B0D24E53E00198002806DAD8
:1030D000DDE90301029A90470198002849DB039C2F
:1030E000606910B1201DFEF793F805A800F04DF9B6
:1030F000054601980A283CD2DFE800F00505053BAB
:10310000273805053B270298A169034601442A4652
:103110002046FFF78BFF00282BD0616A20468847A6
:10312000E069012825D1002000900298A1690023C0
:10313000421819462046FFF793FFD0B940F22132DA
:10314000B4A1BAA001F0D8FF13E00298A06128B999
:103150004FF44E72AFA1B5A001F0CEFFA0692B468F
:1031600041191A462046FFF761FF02E0204600F0B1
:1031700074FB00231A4601A93068FEF770FA002894
:10318000A3D106B070BDA24CE068016839B100213E
:1031900039B1002000F00BF9FFF793FFF4E70121AC
:1031A000F6E7C0680068F5E710B500F03BFA984C08
:1031B0002068A0B9A148FDF7F9FFA0481430FDF739
:1031C000F5FF9E48E06014302061002210210520A8
:1031D000FEF770F8206010B199A1FEF7F4FCBDE88D
:1031E000104000F039BA1CB50024FFF7DDFF884815
:1031F000006868B186491F20091DCDE90001002340
:103200004FF4827290A19248FEF7CAFD040005D1E6
:1032100040F233127FA185A001F06EFF20461CBD55
:103220002DE9F0470746994616460D462C20DDF855
:1032300020A000F0A7FA040014D0B8464F46D146AB
:103240002DB94FF4C67283A188A001F055FFFFF796
:10325000ABFF04F11801C4F8008081E8E002201DF2
:10326000FDF7AFFF204622E710B5694C606828B92A
:103270004FF4E87267A16DA001F03EFF606810BDD9
:1032800010B5040005D140F2D91262A167A001F087
:1032900033FFA06910BD10B5040005D140F2E31260
:1032A0005CA162A001F028FF606810BD10B50400A9
:1032B00005D140F2ED1257A15CA001F01DFF20687E
:1032C00010BD10B5040005D140F2DA3251A157A06B
:1032D00001F012FF00F0A6F9606908B1012400E0D6
:1032E000002400F0B9F9204610BD10B5040005D146
:1032F00040F2EF3247A14DA001F0FEFE00F092F93E
:10330000246A00F0A9F9204610BD70B50D460400EE
:1033100005D140F2FF323FA144A001F0EDFE00F0E4
:1033200081F92562BDE8704000F096B97FB56FF075
:10333000010401AE009486E8070035481D460023CD
:103340002A4669460068FEF77DFA04B070BD2DE993
:10335000FF412F4C07469846206815460E4628B96F
:1033600040F22B422BA131A001F0C6FE4FF0FF30FE
:10337000CDE90007CDE90265002342466946206891
:10338000FEF768F804B0BDE8F08170B50546FFF7B8
:10339000FAF81F4E0446B068844203D200F070F879
:1033A000012000E0002028602046B46070BDF8B520
:1033B0000D460646FEF757FE6846FFF7E6FF044651
:1033C000009810B1FEF7C1FDF8BD1148ADB101691B
:1033D0000968D9B10025311B2A460068FEF714FCA4
:1033E000FEF7B3FD0028EFD124494FF0805008606C
:1033F000BFF34F8FBFF36F8FF8BDA642EBD8FEF738
:10340000A4FD2146304600F06EF8F8BD0125E2E744
:10341000840000202E2E5C4672656552544F535C2A
:1034200074696D6572732E63000000004572726FDF
:10343000723A25732C25640D0A0000004405002013
:10344000546D725100000000546D72205376630079
:10345000873100082E2E5C4672656552544F535CCE
:1034600074696D6572732E63000000004572726F9F
:10347000723A25732C25640D0A00000004ED00E06B
:10348000F8B52F4E27E0C068C4680568201DFDF719
:10349000BFFE616A20468847E06901281BD1A06908
:1034A0002844A84206D924616060211DF068FDF718
:1034B00097FE10E000200346014600902A46204671
:1034C000FFF7CEFD38B940F29232AFF27801AFF299
:1034D000640001F011FEF06801680029D3D1316960
:1034E000C6E90310F8BDF8B5054615480E46C06894
:1034F000C068C468201DFDF78BFEE069012818D163
:10350000A0692B46411932462046FFF78FFD80B156
:1035100000200346014600902A462046FFF7A0FD02
:1035200038B94FF40272AFF2D401AFF2C00001F02B
:10353000E3FD616A01B02046BDE8F04008470000A5
:103540008400002069484068401C04D0F42268A12F
:1035500072A001F0D1FD302080F31188BFF34F8FAE
:10356000BFF36F8FFEE710B5031F4FF080741C6030
:103570001B1F21F001011960191F6C4B0B601439DE
:1035800040380A6010BD6A484FF47A710068B0FB99
:10359000F1F14FF0E020491E4161072101617047C0
:1035A0001CB5644908780190FF20087008788DF8F0
:1035B00000009DF800004D4A00F030001070072018
:1035C000906007E09068401E90609DF80000400009
:1035D0008DF800009DF800000006F3D4107A000278
:1035E00000F4E0609060019808705348016841F46D
:1035F00070010160016841F070410160FFF7C3FF95
:1036000000205060FCF72CFE00201CBD37484068AD
:10361000B0F57A7F05D04FF4B57235A13FA001F027
:103620006BBD7047302080F31188BFF34F8FBFF31D
:103630006F8F2E494868401C486001280BD13E48D6
:103640001C38006810F0FF0F05D04FF4BD7228A1A0
:1036500032A001F051BD704710B5244C606828B904
:1036600040F2811222A12DA001F046FD6068401EAB
:10367000606001D180F3118810BD10B5302080F357
:103680001188BFF34F8FBFF36F8FFEF701FC20B19E
:1036900029494FF080501C390860002080F31188C0
:1036A00010BD10B5FCF712FE104C10280CD300F121
:1036B000E02090F8F0032178884205D24FF42A7276
:1036C0000BA116A001F018FD1B4814380068A16872
:1036D00000F4E060884207D9BDE810404FF42E7234
:1036E00003A10EA001F008BD10BD0000980000204D
:1036F0002E2E5C4672656552544F535C706F727427
:1037000061626C655C525644535C41524D5F434D5F
:10371000335C706F72742E63000000004572726F2C
:10372000723A25732C25640D0A0000004535000807
:103730000000002000E400E020ED00E030B5744916
:1037400000E011460A688242FBD34B685C18844251
:1037500003D1406818444860084643681C189442E6
:1037600009D16B4C103C2468A24209D052681A441B
:1037700042600A6812680260814200D0086030BD71
:103780000460F9E72DE9F04105460026FEF76BFCE1
:103790005F4F103F386808B900F098F8F8680542A4
:1037A0004ED1002D4CD0083568070BD005F007002E
:1037B000C0F108000544680704D0BF2255A15FA0EE
:1037C00001F09AFC002D3BD07868854238D85049EA
:1037D0000846046801E0214604466068A84202D217
:1037E00020680028F7D13868B846844228D00E688F
:1037F0002068086060680836401B10280ED96719D9
:10380000780704D0EC2243A14CA001F075FC60685D
:10381000401B786038466560FFF790FF6168D8F814
:1038200004004246401AC8F80400D8F8083098420C
:1038300000D29060D8F80C0001430020C4E90001D8
:10384000FEF783FB700705D04FF4967231A13BA0C1
:1038500001F052FC3046BDE8F08170B500282BD055
:103860002B4DA0F10804103D6068E968084205D1BD
:103870004FF4A07227A131A001F03EFC206828B1CE
:1038800040F2411223A12DA001F036FC6068E968E6
:10389000084211D02268002A0ED188436060FEF7EA
:1038A000E2FB60686968084468602046FFF746FFED
:1038B000BDE87040FEF749BB70BD15481038406840
:1038C0007047134810388068704770471F484FF49E
:1038D000A041420706D0C01D1C4920F00700411A34
:1038E000C1F5A0410A4A00230144C2E90003083996
:1038F000103A21F0070111604B600B600B1AC0E910
:10390000001393604FF000405360D0607047000098
:10391000B40000202E2E5C4672656552544F535CF5
:10392000706F727461626C655C4D656D4D616E6740
:103930005C686561705F342E630000004572726FD1
:10394000723A25732C25640D0A0000006C050020D6
:1039500015487047704770B500F0CBFF0546124818
:1039600000F01AF808B1002410E00F4800F014F835
:1039700008B1002401E00C480468D4E9000141606A
:10398000D4E900010860002020606060284600F053
:10399000B5FF204670BD70470168814201D101200A
:1039A00070470020704700006C55002070B52F2133
:1039B00001F037FD441C14D0204601F03DFD401CB1
:1039C00001F043FB05000AD0204601F035FD411C03
:1039D000284601F09DFD2146284601F0FEFC2846C0
:1039E00070BD002070BD704700F039B90446B2A028
:1039F000FFF7DCFFB6490546024640F21F130E46AC
:103A0000B4A001F079FBB6A001F076FB284601F0E6
:103A10004BFB4FF4937500224146606800F048FF6D
:103A20000028F8D1A4A0FFF7C1FF074602462B46A5
:103A30003146A8A001F060FBB1A001F05DFB384663
:103A400001F032FB204600F00AF9E4E770B50446C5
:103A5000FFF77EFF00F04DFF0546103408E02046DA
:103A600000F0F6F8284600F049FF00F042FF054656
:103A7000204600F0EDF80028F1D02846BDE870405F
:103A800000F03CBF04468CA0FFF790FF06460246BC
:103A90004FF499738E498FA001F02EFBA0A001F086
:103AA0002BFB304601F000FB00222946A06800F005
:103AB000FFFE0028F8D12046FFF7C8FFF4E7844D49
:103AC0000446002600223146606800F0F1FE00281E
:103AD000F8D179A0FFF76AFF07460246FB23294683
:103AE0007CA001F009FB96A001F006FB384601F02E
:103AF000DBFA204600F0B3F8E4E710B5984930B19E
:103B0000886810B1022100F0BAFE002010BD4FF00D
:103B1000FF3010BD10B5924930B1486810B1012195
:103B200000F0ADFE002010BD4FF0FF3010BD8C49FD
:103B300010B5203930B1886810B1022100F09FFE25
:103B4000002010BD4FF0FF3010BD70B5844C203CFC
:103B5000B0B159A0FFF72AFF05460246BA235C49D7
:103B60005CA001F0C9FA7FA001F0C6FA284601F076
:103B70009BFA606810B1012100F081FE002070BD49
:103B80004FF0FF3070BD7CB5050003D0012D10D083
:103B900000207CBD724C2021203C204601F0DAFC44
:103BA000744820600020744900F014FC0020734920
:103BB0000DE06B4C2021204601F0CCFC6D48704993
:103BC00084302060012000F005FC01206D4900F0E8
:103BD0000AFC04F11000206100266061D5B10620C6
:103BE000CDE900062346802267A16A48FEF7D8F88F
:103BF0000520CDE900062346802267A16948FEF72B
:103C0000CFF8201D00F029FE04F1080000F025FE89
:103C100020467CBD0720CDE900062346802262A114
:103C20006448ECE710B5FFF793FE04464C4840218A
:103C3000203801F08FFC0021084600F076FB0028B8
:103C400005D1FFF7A0FF002801D05B48606110BDDF
:103C50000168814201D1012070470020704770B592
:103C60000468002548341CE0A1682068425C232ACF
:103C700017D1491C01F07F010844A1608178407888
:103C800000F0CFF9A168206808440179C07800F0FD
:103C9000C8F9A168206808448179407900F0C1F929
:103CA0000025D4E90101802200F055FA022801DB49
:103CB000002DD9D070BD00002E2E5C5441534B5CBA
:103CC0006D705F756172745F7461736B2E63000059
:103CD000F80000205B25732D25732D25645D0900F8
:103CE000212121746C735F756172745F325F727829
:103CF0005F7461736B2073746172742121210A00F7
:103D0000212121212121556172743220526563766F
:103D100020446174612121212121210A0000000039
:103D2000212121746C735F756172745F325F7478E6
:103D30005F7461736B2073746172742121210A00B6
:103D40002121212121215561727431205265637630
:103D500020446174612121212121210A00000000F9
:103D6000C85500206E6968616F2077656977736157
:103D7000640A0000E85500204B3B00082F3B000878
:103D8000153B0008FB3A000855415254325F545825
:103D900000000000853A000855415254325F5258E5
:103DA00000000000ED39000855415254315F52586F
:103DB00000000000BF3A0008E739000870B52F2165
:103DC00001F02FFB441C14D0204601F035FB401CB1
:103DD00001F03BF905000AD0204601F02DFB411C03
:103DE000284601F095FB2146284601F0F6FA2846C0
:103DF00070BD002070BD214D4FF47A7620A0FFF7F2
:103E0000DDFF044602464123294623A001F074F950
:103E100024A001F071F9204601F046F93046FCF784
:103E200067FBEBE7154D4FF47A7615A0FFF7C6FF59
:103E3000044602463723294617A001F05DF91FA06A
:103E400001F05AF9204601F02FF93046FCF750FBFB
:103E5000EBE71CB500240320CDE9000423468022B3
:103E60001CA11F48FDF79CFF0920CDE90004002399
:103E700080221CA11E48FDF793FF1CBD5C010020A1
:103E80002E2E5C5441534B5C6D705F69646C655FB2
:103E90007461736B2E6300005B25732D25732D25D4
:103EA000645D090048657265206973207468652047
:103EB000627573795F7461736B0A0000486572659F
:103EC000206973207468652069646C655F74617330
:103ED0006B0A000049444C455F5441534B000000BD
:103EE000253E0008425553595F5441534B00000092
:103EF000F73D0008010900F00F0001EB810100EB24
:103F00004100C0B2704730B504460020014601228E
:103F10008D0024FA05F303F00F0303FB020002EB0C
:103F20008202491C5200C9B20829F1D330BD0A21CE
:103F3000B0FBF1F2B2FBF1F301FB1322B0FBF1F3A2
:103F400001FB130000EB0210C0B270476421B0FB0C
:103F5000F1F3002242EA0322B0FBF1F301FB13006C
:103F60000A21B0FBF1F342EA0312B0FBF1F301FBCB
:103F70001300104370474FF47A71B0FBF1F3002245
:103F800042EA0332B0FBF1F301FB13006421B0FB02
:103F9000F1F342EA0322B0FBF1F301FB13000A2123
:103FA000B0FBF1F342EA0312B0FBF1F301FB1300A3
:103FB00092B21043704710B50022401E80B2824278
:103FC00006D28B5C0C5C8C54521C0B5492B2F4E7FE
:103FD00010BD4FF6FF7202EA002008437047000947
:103FE0000A2801D3373070473030704700F00F0097
:103FF0000A2801D33730704730307047A0F13001C4
:10400000092901D8C8B27047A0F14101052901D89A
:10401000373804E0A0F161010529F4D85738C0B25F
:10402000704700B50B46FFF7E9FF02461846FFF759
:10403000E5FF40EA0210C0B200BDF0B54F080446EB
:104040000646002509E014F8010B14F8011BFFF7E0
:10405000E8FF6D1C06F8010BADB2BD42F3D3F0BD15
:10406000A0F14101192901D82030C0B2704710B524
:104070000C460246002306E01078FFF7F1FF5B1CB8
:1040800002F8010B9BB2A342F6D310BD034610B554
:104090000020024605E013F8014B521C204480B278
:1040A00092B28A42F7D310BD70B5064600240DE0E7
:1040B00012F8010B4140002011F0010F4FEA5101AD
:1040C00000D07140401C0828F6DB641C9C42EFDBEA
:1040D000084670BDF0B51E4617468C46059C054641
:1040E000324639466046A31EFFF7DEFF4FF6FF73E8
:1040F000311955B111F8022D497803EA0222114411
:1041000089B2884208D10120F0BD11F8012C11F8C4
:10411000021C03EA0222F2E70020F0BD70B52F2155
:1041200001F07FF9441C14D0204601F085F9401CB1
:1041300000F08BFF05000AD0204601F07DF9411CFC
:10414000284601F0E5F92146284601F046F92846BF
:1041500070BD002070BD401A521E104070470B46C3
:10416000411C1846F7E72DE9F0410E46F94900EBEE
:10417000401001EB800505F148048022D4E90101DB
:10418000FFF7EDFF022812DC686C401C6864F2A0A7
:10419000FFF7C4FF074602462123F549F5A000F0CA
:1041A000ABFFF7A000F0A8FF384600F07DFFD4E990
:1041B000000146542079401C00F07F006060E86AEE
:1041C000401CE862BDE8F081E24900EB401001EBE1
:1041D000800101F148004A6F002A05D00368806819
:1041E000898D184489B210477047816840688022E1
:1041F000B1E7D0E90110814201D1012070470020D0
:104200007047D44900EB401001EB800000F018BA71
:104210002DE9F04100F15405406D1646884600270F
:1042200008B9781ECEE7A64200D23446002C0FDD36
:10423000D5E9000108442246414601F01CF92879DD
:10424000A044204400F07F00361B27446860EAE762
:104250003846B7E72DE9F041064600F15404202521
:1042600000F047FB07460CE0A1682068405CFCF7C3
:104270005DFA207A401C00F07F00A060306B401C8B
:1042800030632046FFF7B5FF18B9281EA5F10105D8
:10429000EADC3846BDE8F04100F030BB7FB5B44EF3
:1042A000044614360D4656F824000021FCF78DFE16
:1042B00034B1012C07D0032C08D0042C09D00AE01B
:1042C000FCF74DF907E0FCF791F904E0FCF7C6F9BB
:1042D00001E0FCF7FCF928680090A888ADF804001C
:1042E0006889ADF80600E888ADF808002889ADF8BF
:1042F0000C000C20ADF80A0056F824006946FCF7C3
:10430000F1FD56F824000121FCF75FFE56F8240069
:10431000012240F22551FCF762FE56F824000122EA
:1043200040F22441FCF75BFE7FBD2DE9FE430F46C2
:1043300005004FF0FF3802D0012D06D041E0842166
:10434000844801F007F9834C05E0824884218430D9
:10435000044601F0FFF8002625602FB339462846B1
:10436000FFF79CFF01202075F7227BA1802000F041
:10437000DBFA050025D0802101F0CAF8C4E9125605
:104380004FF4827274A18020266500F0CDFA0700F8
:1043900019D0802101F0BCF8C4E915761020E6653B
:1043A000A0610020BDE8FE834FF4E130ADF8046069
:1043B000ADF808600090ADF80660ADF80A60694697
:1043C000CDE74046EEE740F2071263A1284600F031
:1043D000EDFBF6E75F4A20B1012801D1C2F8F810E1
:1043E0007047516770475B4A20B1012801D1C2F87C
:1043F00000117047D16770472DE9F04114460D4612
:10440000070018D0BCB1D4E901018022FFF7A3FE58
:10441000A84200DA0546A068411980290ED9216812
:10442000C0F1800601443246384601F024F8AA1B48
:10443000B819216806E04FF0FF30C3E621682A462C
:104440000144384601F017F8207A284400F07F0034
:10445000A0602846B6E610B53E4C0120802184F8C5
:10446000EC00D4F8CC00843401F052F80020E06471
:104470002065E062616FC4E91D01E16FC4E91F01BD
:1044800010BD70B5334C0025802184F8EC5054F8F1
:10449000CC0F01F03DF86560A560206BC4E90B0509
:1044A000A06BC4E90D0570BD10B5040013D0B4F8BD
:1044B000702072B1E16EFFF7ABFE002809DBB4F8A3
:1044C0007010814205DB091AA4F87010E16E0844EF
:1044D000E066002010BD4FF0FF3010BD70B51D4CE0
:1044E0000B46050004F1840403D013B1B4F8700046
:1044F00010B14FF0FF3070BD00202063244901202F
:10450000FFF771FFE5661A46A4F870302946204689
:10451000FFF77EFE00280EDBB4F8701081420ADB44
:10452000E16E0144E166B4F87010081AA4F8700056
:104530002046FFF78FFE002070BD0648B0F8F4005B
:1045400008B100207047012070470248D0F8B4003D
:1045500070470000E85500202E2E5C555345524C04
:1045600049425C6D705F756172742E6300000000DB
:10457000D40100205B25732D25732D25645D090072
:10458000727820627566206F76657272756E0A00A9
:10459000A944000870B5434C06460D46D4F8E8001F
:1045A0000021843400F0CFF8A8B1AFF25400FFF737
:1045B000B5FD3D4904464FF416730246AFF24C0078
:1045C00000F09AFD39A000F097FD204600F06CFD48
:1045D0004FF0FF3070BD29463046FFF77FFF0021C6
:1045E000606E00F0C0F8606E00F0B8F80020606601
:1045F00070BD2C4ACC32FFE601460120EAE60146B6
:104600000120F0E6511A0844521E104088429FDBF8
:1046100008469DE7101A401E0144521E1140814277
:1046200001DC084694E7401C92E7101A401E014442
:10463000521E1140814201DA084689E7401C87E793
:1046400070B5054600F1540440262046FFF7D1FD21
:1046500098B1686E002824D0BDE8704000F094B88E
:10466000A1682068405CFCF761F8207A401C00F0EB
:104670007F00A060286B401C28632046FFF7B9FD2F
:1046800018B9301EA6F10106EADC2046FFF7ADFDA1
:10469000402806DAE96F002903D02846BDE87040BB
:1046A000084770BDE8550020980100200A74782062
:1046B00073656D20637265617465206661696C0A5B
:1046C0000000000010B50120FCF773FF08B10020C6
:1046D00010BD012010BD10B5FDF737FA002010BD48
:1046E00010B549B10A4600231946FCF7B8FFC0B21D
:1046F000012804D0012010BD4FF0FF32F3E7002065
:1047000010BD38B5054600200090FCF785F8040080
:104710000CD069462846FDF7F9F8C5B20098012883
:104720000BD1012C09D1FDF7C9FD06E000231A4683
:1047300019462846FCF78EFEC5B2012D01D0012096
:1047400038BD002038BD10B504460520FDF75BF8E4
:10475000206008B1002010BD012010BD10B5FDF78C
:10476000F4F9002010BD10B549B10A4600231946DE
:10477000FCF775FFC0B2012804D0012010BD4FF036
:10478000FF32F3E7002010BD38B50446002000904A
:10479000FCF742F820B169462046FDF7B7F805E07E
:1047A00000231A4619462046FCF754FEC0B20128E1
:1047B00001D0012038BD002038BD10B50B4604469D
:1047C000002204211846FCF775FD206008B1002086
:1047D00010BD012010BD10B5FDF7B7F9002010BDC8
:1047E00013B582B0044600200090FCF715F84FF096
:1047F000000328B16A4603A92046FDF723F804E028
:10480000002203A92046FCF725FEC0B2012802D0F1
:10481000012004B010BD0020FBE7F8B506460020DB
:104820000D4600904AB11446FBF7F6FF40B16A46C8
:1048300029463046FDF7C0F808E04FF0FF34F3E7B3
:104840000023224629463046FCF709FFC0B2012862
:1048500001D00120F8BD0020F8BD10B504460322A8
:1048600000210120FCF726FD206008B1002010BDCA
:10487000012010BD10B5FDF768F9002010BD38B556
:10488000044600200090FBF7C7FF20B16946204690
:10489000FDF73CF805E000231A4619462046FCF7D0
:1048A000D9FDC0B2012801D0012038BD002038BD9B
:1048B00038B50546002000904AB11446FBF7ACFF1E
:1048C00040B16A4600212846FDF776F808E04FF02F
:1048D000FF34F3E70023224619462846FCF7BFFEC3
:1048E000C0B2012801D0012038BD002038BDFDF73D
:1048F0004DBE10B5FEF796FE012010BDFEF7ACBE12
:104900007CB5FB4E012534680BE0D4E90401CDE908
:1049100000012946F7A0A368A26900F0EDFB246816
:104920006D1CB442F1D17CBD2DE9FE4F92468B4601
:1049300006460024FFF7DDFFED4D8046143D287844
:10494000E0B901202870014605F11000FFF7FBFED9
:1049500010B1F6A000F0D0FBE548006040600830E0
:1049600000604060FE4FC4EBC40007EB8001E048EC
:10497000083000F01EFB641CC82CF4DB4046FFF737
:10498000BDFF0021A8462869FFF7EDFEFFF7B1FF44
:10499000029006F00300C0F1040706EB070909F1D5
:1049A000080000F052FB040047D0D148083000F066
:1049B00012FB88B1EBA000F09FFBFFF7A1FF2046A0
:1049C00000F072FB0298FFF799FFD8F81000FFF78C
:1049D000DBFE0020BDE8FE8FC548083000F0FBFA82
:1049E00008B1002502E0C24808300568284600F0FA
:1049F000E8FA2946BE4800F0DCFAD8F8042009EBB2
:104A000002000830C8F80400D8F80820521CC8F882
:104A10000820D8F80C20904201D9C8F80C00C5F83D
:104A200008B0C5E90564C5E9037AD4482060A01937
:104A30003844D349241D41600BE0D8E90101CDE998
:104A40000001334652465946CE4800F055FBFFF769
:104A500057FF0298FFF752FFD8F81000FFF794FEB7
:104A60002046B7E72DE9FF4F83B08846064600246D
:104A7000FFF73FFF9E4D8146143D2878E0B90120A5
:104A80002870014605F11000FFF75DFE10B1A7A0E8
:104A900000F032FB9648B24F006040600830006082
:104AA0004060C4EBC40007EB80019148083000F07F
:104AB00080FA641CC82CF4DB4846FFF71FFF002176
:104AC000A9462869FFF74FFEFFF713FF06FB08FA18
:104AD00002900AF00300C0F1040707F1080B06FB7F
:104AE00008B000F0B2FA04004BD08148083000F062
:104AF00072FA90B19BA000F0FFFAFFF701FF204689
:104B000000F0D2FA0298FFF7F9FED9F81000FFF78B
:104B10003BFE002007B0BDE8F08F7548083000F07C
:104B20005AFA08B1002502E07148083005682846A5
:104B300000F047FA29466E4800F03BFAD9F8042005
:104B400006FB082202EB0B00C9F80400D9F8082084
:104B5000521CC9F80820D9F80C20904201D9C9F894
:104B60000C00EF600598A8600698AC61C5E9040ADE
:104B70008248206006FB08403F1D8149C151241D29
:104B80000BE0D9E90101CDE90001DDE90512534649
:104B90007C4800F0B1FAFFF7B3FE0298FFF7AEFED3
:104BA000D9F81000FFF7F0FD2046B3E72DE9F05FDC
:104BB0004F4E8B46143E80460027051F92463946CD
:104BC0003069FFF7D0FDFFF794FE8146484804683E
:104BD00005E0A169A94201D1012704E024688442CB
:104BE000F7D1002F54D0204600F0EBF94048214681
:104BF000083000F0DEF9E168606908447168091A5C
:104C000008397160B168491EB160002F40D000EBD7
:104C100008075A492868884215D053465A464146E3
:104C200059A000F069FA2946634800F065FA63A0CC
:104C3000296800F061FAD4E9042366A0A16800F0B5
:104C40005BFAFFF75DFE4E493868884215D053463F
:104C50005A4641464CA000F04FFA29466BA000F09E
:104C60004BFA79A0396800F047FAD4E9042359A037
:104C7000A16800F041FAFFF743FE284600F014FA5D
:104C80004846FFF73BFE3069BDE8F05FFFF77CBDAB
:104C900053465A46294672A000F02EFA41467EA09D
:104CA00000F02AFA12490831486808E08269AA42ED
:104CB00004D1294681A000F01FFA02E04068884232
:104CC000F4D1FFF71DFEDBE72DE9F0471E469046C5
:104CD0000D460446FFF70DFE814632464146284602
:104CE000FFF722FE070002D004B1FDE005E10AE172
:104CF00010020020426C6F636B28253264293A2031
:104D0000616464723C25703E2C2066696C653C25AC
:104D1000733E2C206C696E653C25643E2C206C65CE
:104D20006E6774683C25643E0A0000006D656D5F27
:104D3000616C6C6F635F64656275673A20746C7355
:104D40005F6F735F73656D5F637265617465206D1E
:104D5000656D5F73656D206572726F720A00000089
:104D6000F05600204D656D6F727920626C6F636B39
:104D70007320656D707479210A0000001284027638
:104D800027563983B05900084D656D6F727920251B
:104D90007020776173206465616C6C6F636174650A
:104DA000642066726F6D202573206174206C696EBB
:104DB00065202564200A0000085A000848656164DF
:104DC0006572207061747465726E203028307825A9
:104DD00078290A004D656D6F7279207761732061C3
:104DE0006C6C6F63617465642066726F6D202573EF
:104DF000206174206C696E65202564207769746871
:104E0000206C656E6774682025640A004D656D6FBF
:104E10007279207461696C657220636F727275704B
:104E200074696F6E2064756520746F206F7665728B
:104E3000666C6F7720646574656374656420617463
:104E40002025700A000000005461696C65722070B2
:104E500061747465726E20302830782578290A00D4
:104E60004D656D6F727920426C6F636B20257020E9
:104E7000776173206465616C6C6F63617465642035
:104E800066726F6D202573206174206C696E6520D9
:104E90002564200A000000004D656D6F72792025A1
:104EA0007020686173206265656E206465616C6C5A
:104EB0006F6361746564210A000000004D656D6FC9
:104EC000727920426C6F636B2025702068617320BB
:104ED0006265656E207075742066726565206C6908
:104EE0007374210A000000002A46214600F0C3FA2C
:104EF000324641462046FFF759FE4846FFF7FEFC82
:104F00003846BDE8F087294636A000F0F5F80020C5
:104F1000F7E72DE9FC47984691460F460446B0F561
:104F2000C02F02D30120BDE8FC87374D002128693E
:104F3000FFF719FCFFF7DDFC05F11403064601211C
:104F4000186826E0826902F1040CA44516D8D0F84E
:104F500014C094440CF1040CA4450FD343692744B6
:104F600002EB030C0CF1040CBC4509D20769CDE936
:104F700000738368254800F0BFF80CE0A24206D910
:104F80003046FFF7BBFC2869FFF7FEFBCAE7006865
:104F9000491C9842D6D13046FFF7B0FC2869FFF78C
:104FA000F3FB43464A46214619A000F0A5F800202D
:104FB000B9E740680268C1E90020026851600160F9
:104FC0007047D0E900124A60D0E900121160002158
:104FD0000160416070470168814201D10120704742
:104FE000002070476D656D5F7265616C6C6F635F0B
:104FF0006465627567206661696C65642873697AA7
:10500000653D2564292E0A00FC0100206459000832
:105010003D3D3E4D656D6F7279206973206E6F74F2
:10502000207361666520616464723C25703E2C20AB
:1050300066696C653C25733E2C206C696E653C2569
:10504000643E2E0A00000000704770B5064600F06E
:10505000ADFA056806F10B0020F00704B4429CBFCE
:10506000002070BD2B466A68BAB11068A04210D308
:1050700004F1080188423CBF5068586007D351686A
:10508000101941601168091B016058601460101DFF
:1050900070BD13465268002AE7D12146284600F029
:1050A0008DFA0028DED170BD70B50446051F00F0F2
:1050B0007DFA0068002C14BF446870BD002C18BF36
:1050C000AC423CBF20466468F8D301680A18AA4283
:1050D00018BF456003D12A6805461144016028685D
:1050E0004119A1421CBF6C6070BD61686960216894
:1050F0000844286070BD00000FB4044910B503AA2D
:10510000029800F033FB10BC5DF814FB3000002067
:105110000FB41CB5074B06AA7B446946009005985E
:1051200000F0F5FA0020694600F004FB1CBC5DF8B5
:1051300014FB00001906000070B50446856900687C
:10514000C10601D5302600E02026C00707D070BD7B
:10515000D4E9012130469047206A401C20626D1E30
:10516000F6D570BD70B5044685690078C00707D1D3
:1051700070BDD4E9012120209047206A401C2062A4
:105180006D1EF6D570BD70B50C460546012A05D0DA
:105190002878800600D5EA69002302E0012305E0B3
:1051A0005B1C934202D2E05C0028F9D1A869E618A2
:1051B000C01AA861286A184428622846FFF7BCFF75
:1051C00004E0D5E9012114F8010B9047B442F8D36B
:1051D0002846FFF7C7FF70BD2DE9F04106460024C1
:1051E00010687529314616A510D0AFF3008000284D
:1051F00002DA404213A507E031688A0701D512A5FB
:1052000002E0490704D511A5012401E0AFF30080B5
:1052100000210A2206F1240709E0B0FBF2FCB0FBF2
:10522000F2F302FB1C00303078541846491C002869
:10523000F3D123462A463046BDE8F04100F008BAD3
:10524000000000002D0000002B00000020000000E6
:10525000F0B40D460188090502D51B4C7C4402E0E0
:10526000194C7C440E34002100F1240305E002F0C7
:105270000F061209A65D5E54491C002AF7D1027878
:105280000023120704D5702D06D009B10223113472
:105290002246F0BC00F0DCB901231034F8E770B509
:1052A00004460D4621461068AFF3008002462946A9
:1052B0002046BDE87040CBE70368126843F0200346
:1052C00003600823C361C3E7DC0600002DE9F04753
:1052D0004FF0000A89460446C0F820A02046E16845
:1052E0008847002876D0252806D0D4E901219047A8
:1052F000206A401C2062F1E7E168204600258847CB
:10530000C4F81CA006460027C4F818A02A2E09D00D
:10531000304600F00CFB38B304EB8708303EC8F889
:10532000186019E059F8041B204604EB87029161CC
:10533000E1688847012F064618D1E069002820DA85
:1053400025F020051DE0D8F8180000EB800006EBE2
:1053500040003038C8F818002046E1688847064603
:1053600000F0E5FA0028EED1012F0AD02E2E08D148
:105370002046E16888477F1C0646022F45F020053D
:10538000C4DBA069002803DA404245F00105A061B2
:10539000E80701D025F01005B6B1A6F141001928A3
:1053A00002D8203645F400654A463146204625603D
:1053B0004D46FAF717FF58B1012806D0ED1D25F02C
:1053C000070000F1080989E704E005F1040985E711
:1053D00030468AE7206ABDE8F08740EA01030246CA
:1053E00030B59B0710D14FF0013400E008C208C966
:1053F0001D1B9D4315EAC41FF8D013F0FF0102F8EE
:10540000011B0DD01B0AF8E711F8013B002B02F835
:10541000013B05D011F8013B002B02F8013BF3D111
:1054200030BD0022CBB210F8011B994200D1421EC0
:105430000029F8D11046704710B5431C02E010F85F
:10544000011B71B18107FAD14FF0013202C88C1AE9
:105450008C4314EAC211F9D0C01A0A0603D0C01E48
:1054600010BDC01A10BD0A0401D0801E10BD090273
:10547000FCD0401E10BD032A40F2308010F0030C17
:1054800000F0158011F8013BBCF1020F624498BF97
:1054900011F801CB00F8013B38BF11F8013BA2F134
:1054A000040298BF00F801CB38BF00F8013B11F0AF
:1054B000030300F06D81083AC0F0088051F8043B06
:1054C000083A51F804CBA0E80810F5E7121D5CBFBC
:1054D00051F8043B40F8043BAFF30080D20724BFEF
:1054E00011F8013B11F801CB48BF11F8012B24BF83
:1054F00000F8013B00F801CB48BF00F8012B7047D2
:1055000002F0FF0343EA032242EA024200F002B83B
:105510004FF000020429C0F0128010F0030C00F0DC
:105520001B80CCF1040CBCF1020F18BF00F8012B5A
:10553000A8BF20F8022BA1EB0C0100F00DB85FEA28
:10554000C17C24BF00F8012B00F8012B48BF00F8F4
:10555000012B70474FF0000200B513469446964663
:10556000203922BFA0E80C50A0E80C50B1F1200176
:10557000BFF4F7AF090728BFA0E80C5048BF0CC024
:105580005DF804EB890028BF40F8042B08BF704782
:1055900048BF20F8022B11F0804F18BF00F8012BF4
:1055A0007047704770477047704700000048704769
:1055B000D86C0020704770477047704738B5044674
:1055C0000A4600206946AFF30080002808BF38BDB6
:1055D00002460099204600F011F9012038BD012053
:1055E00000F02AB9F8B5AFF30080054600200C465C
:1055F000102000BF0646A819A0420DD932466946C0
:105600000020AFF30080070008BF00F015F90098F4
:10561000A04218BF0546C419FFF7C8FF056007463A
:10562000F01D20F007004619284600F00AF8B442A1
:1056300008BFF8BDA21B31463868BDE8F84000F04D
:10564000DDB800210160C0E90110704710207047EB
:105650002DE9F0470D4699469246044600F124088C
:105660000168880604D5E06921F01001216000E09E
:105670000120A84201DD471B00E00027A1697A193B
:1056800002EB0900081AA0612078C00602D4204667
:10569000FFF752FD002608E0D4E901211AF80600C0
:1056A0009047206A401C761C20624E45F4DB20782F
:1056B000C0060AD52046FFF73FFD06E0D4E90121E8
:1056C00030209047206A401C2062381EA7F1010755
:1056D000F4DC07E0D4E9012118F805009047206ABE
:1056E000401C2062281EA5F10105F3DC2046FFF7CF
:1056F00039FD2078000602D50220BDE8F0870120A0
:10570000FBE7000001694A1C02610878704700B598
:105710008FB0CDE901310021059105497944CDE9EA
:10572000031011466846FFF7D1FD0FB000BD000021
:10573000E5FFFFFF0A6802F8010B0A60704710B529
:10574000436913B1AFF3008001E0FFF71CFD0120B6
:1057500010BD127800F124010A7000224A70012263
:10576000EDE711684FF0FF32E9E70000074B70B535
:105770000D467B44FFF7CBFF0446284600F058F85F
:1057800010B14FF0FF3070BD204670BDD5ADFFFFAA
:1057900010B5203AC0F00B80B1E81850203AA0E8CC
:1057A0001850B1E81850A0E81850BFF4F5AF5FEA00
:1057B000027C24BFB1E81850A0E8185044BF18C9B3
:1057C00018C0BDE810405FEA827C24BF51F8043B5A
:1057D00040F8043B08BF7047D20728BF31F8023BAE
:1057E00048BF11F8012B28BF20F8023B48BF00F842
:1057F000012B704700487047D06C0020034640687A
:105800008C46002818BF88423CBF03464068F8D346
:1058100018681844884207D00CF1030020F00700F4
:10582000001D411A521A0146081D0A60FFF73CBCD0
:10583000007B00F08000704710B500F037F8BDE83D
:10584000104000F02EB87546FFF7D4FFAE460500B5
:105850006946534620F00700854618B020B5FBF78F
:1058600019F8BDE820404FF000064FF000074FF058
:1058700000084FF0000B21F00701AC46ACE8C0096E
:10588000ACE8C009ACE8C009ACE8C0098D46704777
:1058900010B50446AFF300802046BDE81040FAF78B
:1058A000C6BC002801D0FAF74FBE704710B50128DA
:1058B00005D0002103A000F021F8012010BD09A1AE
:1058C000F8E7000053494752544D454D3A204F7573
:1058D00074206F662068656170206D656D6F7279E8
:1058E000000000003A2048656170206D656D6F72A0
:1058F0007920636F727275707465640070B50546C7
:105900000C460A2000E06D1CFAF728FE35B1287815
:105910000028F8D102E0641CFAF720FE14B12078C8
:105920000028F8D1BDE870400A20FAF717BE3038D9
:105930000A2801D2012070470020704730313233ED
:1059400034353637383941424344454640305800B3
:1059500030313233343536373839616263646566E5
:10596000403078003D3D3E4D656D6F7279206F7619
:10597000657273697A652E20426C6F636B282532DD
:1059800064293A20616464723C25703E2C2066696B
:105990006C653C25733E2C206C696E653C25643E2D
:1059A0002C206C656E6774683C25643E0A0000001C
:1059B0003D3D3E4D656D6F72792077617320616C5E
:1059C0006C6F63617465642066726F6D202573204F
:1059D0006174206C696E6520256420776974682085
:1059E0006C656E6774682025642C20616C6C6F6335
:1059F000617465642073697A652025642C20636F67
:105A0000756E742025640A004D656D6F727920688B
:105A1000656164657220636F7272757074696F6E10
:105A20002064756520746F20756E646572666C6F96
:105A300077206465746563746564206174206D65A6
:105A40006D6F727920626C6F636B2025700A0000A5
:105A5000705A000800000020200200006C010008BD
:105A6000D05A00082002002010710000C801000870
:105A70001184A24A049009010203040607080914CC
:105A8000380140124412401A48041A4C041A5004B7
:105A9000316D0204060830F934014B1AAA01011CC9
:105AA000F66572726F7205107761726E0510696E1D
:105AB000666F0623646562756709C6641114380150
:105AC00040124412401A48041A4C041A500401238C
:0400000508000131BD
:00000001FF
