:020000040800F2
:10000000887A0020D9160008EF020008F1020008E3
:10001000F5020008F9020008FD02000800000000D7
:100020000000000000000000000000004502000881
:1000300001030008000000008902000861120008A6
:10004000F3160008F3160008F3160008F31600086C
:10005000F3160008F3160008F3160008F31600085C
:10006000BB110008E51100082F120008F316000864
:10007000F3160008F3160008F3160008F31600083C
:10008000F3160008F3160008F3160008F31600082C
:10009000F3160008F3160008F3160008F31600081C
:1000A000F3160008F3160008F3160008F31600080C
:1000B000F3160008F3160008F3160008F3160008FC
:1000C000F3160008F3160008F3160008F3160008EC
:1000D000F3160008F51500087B160008F316000853
:1000E000F3160008F3160008F3160008F3160008CC
:1000F000F3160008F3160008F3160008F3160008BC
:10010000F3160008F3160008F3160008F3160008AB
:10011000F3160008F3160008F3160008F31600089B
:10012000F3160008F3160008F3160008F31600088B
:1001300000F002F800F076F80AA090E8000C824483
:100140008344AAF10107DA4501D100F06BF8AFF260
:10015000090EBAE80F0013F0010F18BFFB1A43F0A5
:10016000010318470CA700002CA7000010F8013B62
:100170000A4413F0030408BF10F8014B1D1108BF17
:1001800010F8015B641E05D010F8016B641E01F8C5
:10019000016BF9D1002D15D010F8014B03F00C03C1
:1001A0000C2BA1EB04040ABF10F8013BA4EB831451
:1001B000A4EB032405F1010314F8016B5B1E01F8A5
:1001C000016BF9D5914238BF10F8013BD1D370478C
:1001D0000023002400250026103A28BF78C1FBD850
:1001E000520728BF30C148BF0B607047702909F023
:1001F0003D87642909F0CA86752909F0C7867829E0
:1002000009F0278763290AF0B48173290AF0B981BC
:10021000002070471FB59DE803000AF0F3F81FBDEA
:1002200010B510BD0AF01FFA1146FFF7F3FF00F0FA
:1002300055F80AF03DFA03B4FFF7F2FF03BC01F0F2
:1002400091F80000224B19680868B0E8F00F80F3BD
:100250000988BFF36F8F4FF0000080F311884EF0D4
:100260000D0E70470000000006480068006880F32B
:10027000088862B661B6BFF34F8FBFF36F8F00DFA0
:1002800000BF00BF08ED00E0EFF30980BFF36F8F00
:100290000F4B1A6820E9F00F106008B54FF03000DE
:1002A00080F31188BFF34F8FBFF36F8F04F0FFFA15
:1002B0004FF0000080F31188BDE808401968086815
:1002C000B0E8F00F80F30988BFF36F8F704700BF6D
:1002D0005C000020EFF305807047000010B500F0CF
:1002E0003BFA00F0FFF804F064FC002010BD7047FA
:1002F00000BFFEE700BFFEE700BFFEE700BFFEE76E
:10030000704700000CB50020019000906C48006818
:1003100040F480306A49086000BF6948006800F412
:10032000003000900198401C0190009818B9019885
:10033000B0F5A06FF1D16248006800F4003010B150
:100340000120009001E0002000900098012843D196
:100350005C48006840F010005A4908600846006890
:1003600020F0030008600846006840F002000860C2
:10037000534840685249486008464068486008460B
:10038000406840F4806048600846406820F47C1073
:1003900048600846406840F4E81048600846006835
:1003A00040F08070086000BF4548006800F00070B1
:1003B0000028F9D04248406820F0030040494860D6
:1003C0000846406840F00200486000BF3C48406872
:1003D00000F00C000828F9D10CBD10B5FFF792FF12
:1003E00010BD10B53648006840F00100344908607F
:1003F000084640683449084031494860084600686A
:10040000324908402E4908600846006820F48020E0
:1004100008600846406820F4FE0048604FF41F0062
:100420008860FFF7DAFF4FF000602949086010BDCF
:1004300010B5002100200022214B5B6803F00C0165
:1004400021B1042906D0082928D107E0214B224CEC
:10045000236027E01F4B204C236023E0184B5B6890
:1004600003F47010164B5B6803F48032022303EB35
:10047000904022B9194B4343174C23600DE0104BB9
:100480005B6803F4003323B1144B4343124C2360E5
:1004900003E0104B4343104C236003E00D4B0E4C24
:1004A000236000BF00BF064B5B68C3F303130C4C13
:1004B000E15C094B1B68CB40074C236010BD00007A
:1004C00000100240002002400000FFF8FFFFF6FE8F
:1004D00008ED00E000127A000000002000093D0055
:1004E0000400002010B507F0E6F806F0BBF908F0AC
:1004F000DCFA10BD08B50121482001F097FC4FF44B
:100500008070ADF8000010208DF8030003208DF8F6
:1005100002006946874801F0CDF94FF480718548A3
:1005200001F075FA0120ADF800006946824801F03B
:10053000C1F90121804801F06AFA08BD08B501211E
:10054000242001F073FC4FF48070ADF800001020FF
:100550008DF8030003208DF802006946774801F00A
:10056000A9F94FF48071754801F051FA0420ADF8F3
:1005700000006946724801F09DF90421704801F0BD
:1005800046FA08BD70B505460C4665B92CB14FF466
:100590008071684801F03DFA11E04FF480716548C0
:1005A00001F035FA0BE0012D09D124B10121624897
:1005B00001F02FFA03E001215F4801F028FA70BD35
:1005C00010B504465F48007880F002005D4908706D
:1005D0000846007800F002010120FFF7D3FF10BDAC
:1005E00010B504465748007880F00100554908705E
:1005F0000846007800F001010020FFF7C3FF10BD9E
:1006000038B504460D4624BB4E48007800F0100073
:1006100058B14C48007840F001004A490870002168
:100620004948006806F0BFFF11E04648007840F0F6
:1006300011004449087045480023012229460090D2
:10064000414806F076FF4048006806F08DFF012023
:1006500038BD012C24D13B48007800F0200058B16F
:100660003848007840F002003649087000213848C8
:10067000006806F098FF11E03248007840F0220050
:100680003049087033480023012229460090304841
:1006900006F04FFF2E48006806F066FF0120D7E7FE
:1006A0000020D5E710B54FF496710020FFF7A8FFA2
:1006B0004FF416710120FFF7A3FF10BD10B50446DB
:1006C000CCB900210846FFF75DFF1E48007800F016
:1006D000100070B11B48007820F001001949087023
:1006E0000846007820F0100008701748006806F0EF
:1006F0008EFF012010BD012C19D100210120FFF730
:1007000041FF1048007800F0200070B10D480078DB
:1007100020F002000B4908700846007820F0200005
:1007200008700B48006806F072FF0120E2E7002025
:10073000E0E70000000C0140001801400008014003
:10074000001401401500002018000020E1050008F9
:100750001C000020C105000810B54FF4407000F0E7
:10076000DBFF00F085FD012010BD10B5FFF79AFFFB
:1007700000F053F810BD0000002105E0082100BF83
:100780000A1EA1F10101FBD1021EA0F10100F5D169
:10079000704708B50121042001F048FB4FF4805058
:1007A000ADF8000003208DF8020014208DF803003E
:1007B0006946254801F07EF808BD10B5FFF7E9FF4E
:1007C0004FF48051204801F022F910BD2DE9F0418D
:1007D00005460C46002616E04FF480511A4801F0F9
:1007E00018F91A48B0FBF4F73846FFF7C5FF4FF485
:1007F0008051154801F00BF91448B0FBF4F7384666
:10080000FFF7BAFF761C05FB04F04FF4FA61B0FB6A
:10081000F1F0B042E0D8BDE8F08110B54FF47A7144
:10082000FA20FFF7D3FF642000F069FD4FF47A71DE
:10083000FA20FFF7CBFF322000F061FD4FF47A7110
:10084000FA20FFF7C3FF10BD0008014040420F002F
:100850001CB501207249086000F022F9684600F0DA
:1008600084FB9DF8060000F5FA6040F69801884286
:1008700021DD00208DF800008DF801008DF80200C8
:100880008DF8030001208DF804008DF805000A2082
:100890008DF80600684600F0C0FB684600F065FB76
:1008A0009DF8060000F5FA6040F2DA71884202D045
:1008B00000205B4908601CBD014608783C2802DB2B
:1008C0004FF0FF30704748783C2802DB4FF0FF3094
:1008D000F8E78878182802DB4FF0FF30F2E7087954
:1008E0001F2802DD4FF0FF30ECE748790C2802DDCD
:1008F0004FF0FF30E6E70020E4E7014605E0087826
:100900003C3808704878401C487008783C28F6DA73
:1009100005E048783C3848708878401C88704878F2
:100920003C28F6DA05E08878183888700879401C89
:10093000087188781828F6DA05E008791F380871F8
:100940004879401C487108791F28F6DC05E0487991
:100950000C3848718879401C887148790C28F6DC7D
:100960000020704710B50446204600F056FB38B111
:10097000204600F052FB18B100202949086010BD44
:100980000120FCE770B50546002400BF284600F0B2
:10099000ECFA30B1284600F0E8FA10B10020204906
:1009A0000860601CC4B22846FFF786FF08B1042C1B
:1009B000ECDB042C04D12846FFF79FFF002070BD1C
:1009C0000120FCE770B504460D46A87900F5FA66EB
:1009D0003012214606F03DF82146641CF0B206F0C4
:1009E00038F82146641C687906F033F82146641C07
:1009F000287906F02EF82146641CE87806F029F8DC
:100A00002146641CA87806F024F82146641C687806
:100A100006F01FF82146641C287806F01AF870BD0D
:100A20002000002008B50121402001F0FFF9082036
:100A3000ADF8000003208DF8020010208DF80300AF
:100A40006946FE4800F036FF0420ADF800000320A0
:100A50008DF8020014208DF803006946F74800F075
:100A600029FF08BD08B50420ADF8000003208DF86B
:100A7000020048208DF803006946F04800F01AFF94
:100A800008BD08B50420ADF8000003208DF8020071
:100A900014208DF803006946E84800F00BFF08BDFC
:100AA00010B5FFF7BFFF10BD08B50020009004E0AF
:100AB0009DF80000401CC0B200909DF800000A287C
:100AC000F6DB08BD10B5FFF7DCFF0421DB4800F0C2
:100AD0009EFF0821D94800F09AFFFFF7E5FF0421A7
:100AE000D64800F07AFF10B94FF0FF3010BD042156
:100AF000D24800F08EFFFFF7D7FF02E04FF0FF3043
:100B0000F4E70421CD4800F068FF0028F6D1082161
:100B1000CA4800F07EFFFFF7C7FF0020E6E710B5E8
:100B2000FFF7AFFF0421C54800F073FF0821C34859
:100B300000F06FFFFFF7B8FF0821C04800F067FF23
:100B4000FFF7B2FF0421BD4800F061FF10BD10B5F2
:100B5000FFF797FF0421B94800F05BFF0821B74871
:100B600000F057FFFFF7A0FF0821B44800F04FFF47
:100B7000FFF79AFF0821B14800F04BFF10BD10B5F8
:100B8000FFF77FFF0421AD4800F041FF0821AB488B
:100B900000F03FFFFFF788FF0821A84800F037FF6B
:100BA000FFF782FF0821A54800F033FF10BD10B504
:100BB000FF240821A14800F02CFF04219F4800F0E9
:100BC00026FFFFF74FFFFFF76FFF08219B4800F05C
:100BD0001EFFFFF769FF09E0601EC4B234B90821A7
:100BE000964800F016FF4FF0FF3010BD04219348E7
:100BF00000F0F3FE0028EFD10821904800F009FF33
:100C00000020F2E738B50446082522E008218B4889
:100C100000F0FFFE0520009002E00098401E0090CA
:100C200000980028F9DC04F0800020B104218348FA
:100C300000F0EDFE03E00421804800F0EAFEFFF73B
:100C400033FF08217D4800F0E2FEFFF72DFF60062C
:100C5000040E281EA5F10101CDB2D7D10821774895
:100C600000F0D7FE38BD70B5002408250421734874
:100C700000F0CDFE18E06006040E08216F4800F079
:100C8000C8FEFFF711FFFFF70FFF08216B4800F0C8
:100C9000BEFEFFF709FFFFF707FF0421674800F0DA
:100CA0009CFE08B144F00104281EA5F10101CDB25B
:100CB000E1D10821614800F0ACFE204670BD70B55E
:100CC0000546FFF7FFFE10B14FF0FF3070BD652005
:100CD000FFF798FFFFF76BFF20B1FFF720FF4FF002
:100CE000FF30F3E7002408E0FFF7BDFF2855062C8E
:100CF00001D0FFF72CFF601CC4B2072CF4DBFFF718
:100D00003EFFFFF70CFF0020E0E710B5FFF7DAFE2B
:100D100010B14FF0FF3010BD6420FFF773FFFFF7F5
:100D200046FF20B1FFF7FBFE4FF0FF30F3E7FFF780
:100D3000A8FE0F20FFF766FFFFF739FFFFF7A1FEC0
:100D40000020FFF75FFFFFF732FFFFF79AFE00205A
:100D5000FFF758FFFFF72BFFFFF7E1FE0020DAE770
:100D600010B5FFF7AFFE10B14FF0FF3010BD64209B
:100D7000FFF748FFFFF71BFF20B1FFF7D0FE4FF052
:100D8000FF30F3E7FFF77DFE1020FFF73BFFFFF793
:100D90000EFFFFF776FE8020FFF734FFFFF707FF17
:100DA000FFF7BDFEFFF78EFE6420FFF72BFFFFF776
:100DB000FEFEFFF766FE0F20FFF724FFFFF7F7FEAA
:100DC000FFF75FFE8420FFF71DFFFFF7F0FEFFF740
:100DD000A6FE0020CAE770B50446FFF7C1FFFFF783
:100DE00071FE10B14FF0FF3070BD6420FFF70AFFB5
:100DF000FFF7DDFE20B1FFF792FE4FF0FF30F3E783
:100E0000FFF73FFE0020FFF7FDFEFFF7D0FEFFF7E4
:100E100038FE20780A2190FBF1F201FB12002178C4
:100E20000A2291FBF2F140EA0110C5B22846FFF711
:100E3000E9FEFFF7BCFEFFF724FE01E000180140C9
:100E400060780A2190FBF1F201FB120061780A221E
:100E500091FBF2F140EA0110C5B22846FFF7D2FE3D
:100E6000FFF7A5FEFFF70DFEA0780A2190FBF1F237
:100E700001FB1200A1780A2291FBF2F140EA011075
:100E8000C0B240F080052846FFF7BCFEFFF78FFE9A
:100E9000FFF7F7FDE0780A2190FBF1F201FB120069
:100EA000E1780A2291FBF2F140EA0110C5B228462E
:100EB000FFF7A8FEFFF77BFEFFF7E3FD20790A218D
:100EC00090FBF1F201FB120021790A2291FBF2F171
:100ED00040EA0110C5B22846FFF794FEFFF767FE0F
:100EE000FFF7CFFD60790A2190FBF1F201FB1200C0
:100EF00061790A2291FBF2F140EA0110C5B228465D
:100F0000FFF780FEFFF753FEFFF7BBFDA0790A2134
:100F100090FBF1F201FB1200A1790A2291FBF2F1A0
:100F200040EA0110C5B22846FFF76CFEFFF73FFE0E
:100F3000FFF7F5FDFFF7C6FD6420FFF763FEFFF73F
:100F400036FEFFF79EFD1220FFF75CFEFFF72FFE37
:100F5000FFF797FD0020FFF755FEFFF728FEFFF78C
:100F6000DEFDFFF7D2FE00203EE710B50446204626
:100F7000FFF7A5FE10B14FF0FF3010BD207800F054
:100F80000F002178C1F3021101EB810100EB410058
:100F90002070607800F00F006178C1F3021101EB5E
:100FA000810100EB41006070A07800F00F00A17893
:100FB000C1F3021101EB810100EB4100A070E07868
:100FC00000F00F00E178C1F3021101EB810100EBA9
:100FD0004100E070207900F00F002179C1F3021187
:100FE00001EB810100EB41002071607900F00F00FE
:100FF0006179C1F3021101EB810100EB41006071E5
:10100000A07900F00F00A179C1F3021101EB810179
:1010100000EB4100A0710020AFE710B50446204668
:10102000FFF7D9FE10BD00001FB50121312000F0EF
:10103000FDFE0C20ADF8080004208DF80B0002A97D
:10104000854800F037FC0221084600F049FD0321E5
:10105000022000F045FD0C20009000208DF80400D7
:1010600010208DF8050001208DF80600684602F07A
:1010700061F81820ADF8080004208DF80B0002A9D3
:10108000764800F017FC0321084600F029FD0421F2
:10109000032000F025FD1820009000208DF80400AA
:1010A00010208DF8050001208DF80600684602F03A
:1010B00041F808208DF80C0000208DF80D008DF807
:1010C0000E0001208DF80F0003A800F02AFB092074
:1010D0008DF80C0000208DF80D008DF80E00012019
:1010E0008DF80F0003A800F01CFB0A208DF80C00FF
:1010F00000208DF80D008DF80E0001208DF80F00F6
:1011000003A800F00EFB1FBD08B50121202000F050
:101110008DFE41F20200ADF8000003208DF80200C0
:1011200014208DF8030069464C4800F0C3FB0221EF
:101130004A4800F06CFC4FF48051484800F067FCCE
:1011400008BD10B5FFF7E0FFFFF76EFF10BD1FB53C
:101150000121084600F077FE4FF0804001F0CEF804
:10116000C820ADF8040048F69F40ADF8000000200C
:10117000ADF80600ADF8020069464FF0804001F07E
:1011800091F90121880701F0AFFF01221146900774
:1011900001F0FFFC0121880701F0E0FC1C208DF824
:1011A0000C0000208DF80D008DF80E0001208DF848
:1011B0000F0003A800F0B5FA1FBD10B504212748A1
:1011C00000F00BFC28B900221146104608F078FD0B
:1011D00004E001220021084608F072FD042002F01C
:1011E00020F810BD10B508211C4800F0F6FB28B906
:1011F00000220121104608F063FD04E0012211469F
:10120000002008F05DFD0821134800F0E6FB28B936
:1012100000221146012008F053FD04E001220021C4
:10122000104608F04DFD082001F0FBFF10BD10B581
:101230001021094800F0D1FB28B9002201210846FD
:1012400008F03EFD04E001221146104608F038FD8A
:10125000102001F0E6FF10BD001001400014014015
:1012600010B503F058FF012801D004F0A9FE10BD0D
:1012700010B5042000F09FFA364800683649B0FBEC
:10128000F1F036490870334800683349B0FBF1F497
:101290004FF47A7044430120314908804FF0E02038
:1012A000006940F002004FF0E02108610846446107
:1012B000006940F00100086110BD70B503460022CE
:1012C0004FF0E0267569254E367803FB06F44FF0A3
:1012D000E026B16910E04FF0E026B06988420BD0FB
:1012E000884202D20E1A324402E02E1A0E443244D0
:1012F0000146A24200D300E0EDE700BF70BD70B52B
:10130000044603F008FF012810D0154800888442E5
:1013100006D313480088B4FBF0F5284603F09EF985
:101320000F480088B4FBF0F100FB11444FF47A71D0
:1013300004FB01F0FFF7C1FF70BD30B50446002586
:1013400004E04FF47A70FFF7B8FF6D1CA542F8D3A4
:1013500030BD00000000002040420F0024000020AB
:101360002600002000BF704700BFD24A128802F05A
:101370004002002AF9D0C2B2CE4B1B1D1A80704722
:10138000014600BF704708B50121042000F04EFD62
:101390004FF40060ADF8000003208DF8020010202B
:1013A0008DF803006946C44800F084FA4FF40061E8
:1013B000C14800F02EFB08BD1CB50121880300F0D8
:1013C00035FD0121042000F031FD4FF40070ADF82F
:1013D000040018208DF8070003208DF8060001A9ED
:1013E000B54800F067FA4FF48060ADF804000420BF
:1013F0008DF8070001A9B04800F05CFA25208DF8AF
:10140000000003208DF8010000208DF8020001206B
:101410008DF80300684600F084F9FFF7B4FF002060
:10142000A64908701CBD1CB50121480400F00BFD45
:101430000121084600F0FAFC0121202000F0F6FC12
:101440000121082000F007FB2020ADF8040018203F
:101450008DF8070003208DF8060001A9984800F0D8
:1014600029FA4020ADF8040004208DF8070001A9F6
:10147000934800F01FFA26208DF8000000208DF818
:1014800001008DF8020001208DF80300684600F08D
:1014900048F91CBD1CB50121880400F0D4FC0121D1
:1014A000084600F0C3FC0121202000F0BFFC012110
:1014B000844800F0D0FA4FF48070ADF80400182092
:1014C0008DF8070003208DF8060001A97C4800F084
:1014D000F1F94FF40070ADF8040004208DF8070016
:1014E00001A9774800F0E6F927208DF800000020D8
:1014F0008DF801008DF8020001208DF80300684688
:1015000000F00FF91CBD1CB50121080500F09BFC83
:101510000121302000F08AFC4FF48050ADF8040027
:1015200018208DF8070003208DF8060001A96648F1
:1015300000F0C0F90420ADF804008DF8070001A9FF
:101540005F4800F0B7F935208DF8000000208DF8D5
:1015500001008DF8020001208DF80300684600F0BC
:10156000E0F81CBD00BF5349098801F08001002943
:10157000F9D05049091D088070470CE000BF4D4A62
:10158000128802F08002002AF9D00278494B1B1D14
:101590001A80401C491E0029F0D1704710B504463E
:1015A0004A4951F82400002240F2255100F07DFD07
:1015B00010BD10B50446454951F82400012240F2FF
:1015C000255100F072FD10BD10B504463F4951F899
:1015D0002400002240F2266100F067FD10BD10B526
:1015E00004463A4951F82400012240F2266100F0F5
:1015F0005CFD10BD10B540F227712E4800F03AFE98
:1016000038B140F227712B4800F05EFE00202B49D4
:10161000087040F22551274800F02CFEA8B10120A7
:101620002649087040F22551224800F04DFE21481D
:1016300000F0A0FD264908701E4800F09BFDC4B2D2
:101640002146002005F015FB13E040F22441194823
:1016500000F010FE68B140F22441164800F034FE5C
:10166000144800F087FD002005F023FB00201349FB
:10167000087010BD11480078704710B540F2255130
:10168000144800F0F7FD28B140F22441114800F061
:101690001BFE0DE040F224410E4800F0EBFD38B196
:1016A00040F224410B4800F00FFE0A4800F062FDB2
:1016B00010BD000000380140000801402C0000204F
:1016C00000140140300014000010014030000020E0
:1016D0004400002000440040094880470948004772
:1016E000FEE7FEE7FEE7FEE7FEE7FEE7FEE7FEE7D2
:1016F000FEE7FEE704480549054A064B704700002F
:10170000E30300083101000888720020887A002075
:10171000887600208876002031490143314A1160E3
:10172000704770B5002100230F22C47804B32D4CFC
:10173000246804F4E064C4F5E064210AC1F1040300
:10174000CA40447804FA03F1847814402143090123
:10175000254C0678A155047804F01F050124AC40FF
:1017600005786D11AD0005F1E025C5F8004109E0EF
:10177000047804F01F050124AC401C4D0678761156
:1017800045F8264070BD1A4A0A400243154B1B1FFC
:101790001A60704739B1134A121D12680243114B87
:1017A0001B1D1A6006E00F4A121D126882430D4B82
:1017B0001B1D1A607047042808D14FF0E021096909
:1017C00041F004014FF0E022116107E04FF0E02109
:1017D000096921F004014FF0E02211617047000017
:1017E0000000FA050CED00E000E400E080E100E01C
:1017F00080FFFF1F10B50446CC48844208D1012168
:10180000042000F02DFB0021042000F029FB46E01D
:10181000C748844208D10121082000F021FB0021A3
:10182000082000F01DFB3AE0C248844208D10121A3
:10183000102000F015FB0021102000F011FB2EE01D
:10184000BD48844208D10121202000F009FB00217D
:10185000202000F005FB22E0B848844208D1012195
:10186000402000F0FDFA0021402000F0F9FA16E0D7
:10187000B348844208D10121802000F0F1FA002110
:10188000802000F0EDFA0AE0AE48844207D1012141
:10189000801500F0E5FA0021A01500F0E1FA10BD76
:1018A00010B50121084600F0DBFA0021012000F00C
:1018B000D7FA10BD2DE9F041024600250026002090
:1018C00000230024002791F803C00CF00F0591F8C5
:1018D00003C00CF0100CBCF1000F03D091F802C053
:1018E0004CEA050591F800C0BCF1000F31D0146836
:1018F00000202BE04FF0010C0CFA00F3B1F800C00F
:101900000CEA03069E4220D183004FF00F0C0CFA24
:1019100003F7BC4305FA03FC4CEA040491F803C046
:10192000BCF1280F06D14FF0010C0CFA00FCC2F8F4
:1019300014C00AE091F803C0BCF1480F05D14FF084
:10194000010C0CFA00FCC2F810C0401C0828D1D3CE
:101950001460B1F800C0BCF1FF0F34DD5468002002
:101960002EE000F1080C4FF0010808FA0CF3B1F872
:1019700000C00CEA03069E4221D183004FF00F0CF9
:101980000CFA03F7BC4305FA03FC4CEA040491F893
:1019900003C0BCF1280F05D100F1080C08FA0CF8BF
:1019A000C2F8148091F803C0BCF1480F07D100F1D0
:1019B000080C4FF0010808FA0CF8C2F81080401C1F
:1019C0000828CED35460BDE8F0814FF6FF71018046
:1019D000022181700421C170704702460020936883
:1019E0000B400BB1012000E00020704701468868E1
:1019F00080B2704702460020D3680B400BB1012033
:101A000000E0002070470146C86880B2704701615D
:101A10007047416170470AB1016100E04161704760
:101A2000C16070474FF480320A43826181618261F4
:101A300082698269704702460020434B18684FF65E
:101A40008073184040EA021008433F4B186070470B
:101A50003E49C8617047F0B50A46002300240021C2
:101A6000002500F00046B6F1004F02D1364EF16974
:101A700001E0354E7168C0F3034583B200F44016AF
:101A8000B6F5401F08D121F070612F4E766826F020
:101A900070662D4F7E6012E000F48016B6F5801F50
:101AA00006D1032606FA05F4A14341F0706106E071
:101AB000460D360103FA06F6B14341F0706122B1DA
:101AC000460D360103FA06F6314300F00046B6F142
:101AD000004F02D11C4EF16101E01B4E7160F0BD60
:101AE00030B500228B071C0F0F2303FA04F2164BAC
:101AF00008338C1053F824309343134C08348D1062
:101B000044F8253023468C1053F824308C07240FDA
:101B100000FA04F423430C4C08348D1044F82530AB
:101B200030BD0A49DC310860704700000008014000
:101B3000000C014000100140001401400018014059
:101B4000001C014000200140000001400000204234
:101B5000DF48006840F00100DD4908600846406841
:101B6000DC490840DA49486008460068DA4908401C
:101B7000D74908600846006820F4802008600846BD
:101B8000406820F4FE0048604FF41F0088607047F2
:101B9000CF49096821F48031CD4A116011460968A6
:101BA00021F480211160B0F5803F03D0B0F5802F83
:101BB0000ED106E0C649096841F48031C44A11607B
:101BC00007E0C349096841F4A021C14A116000E05F
:101BD00000BF00BF704710B501460022002300205F
:101BE0004A11012A02D1BA4C236806E0022A02D126
:101BF000B74C236A01E0B64C636A01F01F0201246E
:101C000094401C400CB1012000E0002010BD38B50C
:101C1000002000900024002500BF3120FFF7DBFFEB
:101C200005460098401C00900098B0F5A06F01D0C8
:101C3000002DF2D03120FFF7CEFF08B1012400E0E3
:101C40000024204638BD01460020A14A106820F03B
:101C5000F80040EAC10010607047A0490860704772
:101C6000024600209A4B586820F47C1042EA010397
:101C70001843974B5860704798490866704701466B
:101C80000020934A506820F00300084350607047DA
:101C90008F48406800F00C007047014600208C4AD5
:101CA000506820F0F0000843506070470146002063
:101CB000874A506820F4E06008435060704701464E
:101CC0000020834A506820F4605040EAC100506010
:101CD000704729B17E4A527A02437D4B5A7204E022
:101CE0007B4A527A82437A4B5A7270477B49D83189
:101CF0000860704701460020754A506820F4404053
:101D00000843506070470021714A20321170704AB8
:101D100082F82010012802D004280AD104E0012111
:101D20006B4A2032117005E00521694A203211709A
:101D300000E000BF00BF7047694908607047644910
:101D4000096A0143624A1162704765494439086073
:101D5000704730B500210022002400235C4D6D68DF
:101D600005F00C0121B1042905D0082923D105E093
:101D70005C4D056022E05B4D05601FE0544D6D68D1
:101D800005F47012524D6D6805F48034022505EBA0
:101D900092421CB9544D554305600BE04C4D6D68A3
:101DA00005F400351DB1504D5543056002E04D4D21
:101DB0005543056002E04B4D056000BF00BF444D38
:101DC0006D6805F0F0010909484D6B5C0568DD4060
:101DD00045603F4D6D6805F4E061090A434D6B5C59
:101DE0004568DD4085603A4D6D6805F46051C90A6B
:101DF0003E4D6B5C4568DD40C560354D6D6805F452
:101E00004041890B3A4D6B5CC568B5FBF3F5056144
:101E100030BD29B12E4A526902432D4B5A6104E06C
:101E20002B4A526982432A4B5A61704729B1284A8A
:101E300092690243264B9A6104E0254A92698243E3
:101E4000234B9A61704729B1214AD2690243204B42
:101E5000DA6104E01E4AD26982431D4BDA617047A1
:101E600029B11B4AD2680243194BDA6004E0184AD0
:101E7000D2688243164BDA60704729B1144A12695E
:101E80000243134B1A6104E0114A12698243104B5A
:101E90001A61704712494039086070470F49C86499
:101EA00070470B49C87170470948406A40F080701C
:101EB00007494862704701460020054A92680A4077
:101EC0000AB1012000E00020704701498872704784
:101ED000001002400000FFF8FFFFF6FE0000424243
:101EE0008004424200127A0000093D0045000020B3
:101EF0005500002010B50446FB48844209D1012159
:101F00008803FFF7ADFF00214FF48040FFF7A8FFE3
:101F100032E0F648844209D101214804FFF7ADFFC1
:101F200000214FF40030FFF7A8FF25E0F04884427D
:101F300009D101218804FFF7A0FF00214FF4802080
:101F4000FFF79BFF18E0EB48844209D10121C80448
:101F5000FFF793FF00214FF40020FFF78EFF0BE007
:101F6000E548844208D101210805FFF786FF0021DA
:101F70004FF48010FFF781FF10BD2DE9F04786B0C8
:101F800005460E460024A24600BFA1460027B089A0
:101F900000B100BF2F462C8A4CF6FF700440F08839
:101FA00004432C82AC894EF6F3100440B08831898A
:101FB0000843718908430443AC81AC8A4FF6FF4063
:101FC0000440B0890443AC8201A8FFF7C2FEC648B2
:101FD000874202D1DDF810A001E0DDF80CA0A8894D
:101FE00000F4004040B10AEBCA0000EB0A1031686F
:101FF0004900B0FBF1F807E00AEBCA0000EB0A1059
:1020000031688900B0FBF1F86420B8FBF0F00401FE
:102010002009642101FB1089A88900F4004040B127
:10202000322000EBC900B0FBF1F000F007000443E0
:1020300008E0322000EB09106421B0FBF1F000F061
:102040000F0004432C8106B0BDE8F0874FF4165111
:10205000016000218180C18001810C21418100212A
:102060008181704710B502460020108A4FF2FF03AD
:1020700018400B884C8823438C882343CC88234307
:102080001843108210BD0021018041808180C180F1
:10209000704721B1828942F40052828104E0828932
:1020A0004DF6FF731A4082817047F0B50346002455
:1020B00000260025002040F66A17B94200D100BF73
:1020C0001846C1F3421401F01F06012707FA06F56E
:1020D000012C01D10C3004E0022C01D1103000E0C1
:1020E00014301AB107682F43076002E00768AF4356
:1020F0000760F0BD1AB1838A0B43838202E0838AB2
:102100008B4383827047028A4FF6F0731A40028233
:10211000028A0A430282704782894FF2FF731A4093
:10212000828182890A438281704721B1828942F08B
:102130000202828104E082894FF6FD731A40828197
:102140007047028A4FF6DF731A400282028A0A43FE
:102150000282704721B1028A42F48042028204E086
:10216000028A4BF6FF731A4002827047C1F30802DD
:102170008280704701468888C0F3080070478189D3
:1021800041F0010181817047028BD2B20283028B40
:1021900042EA012202837047028B02F47F420283EB
:1021A000028B0A430283704721B1828A42F02002E7
:1021B000828204E0828A4FF6DF731A40828270477F
:1021C00021B1828A42F01002828204E0828A4FF6B4
:1021D000EF731A408282704721B1828A42F008026E
:1021E000828204E0828A4FF6F7731A408282704737
:1021F00021B1828942F40042828103E08289C2F3E4
:102200000E028281704721B1828A42F4006282828A
:1022100004E0828A4FF2FF731A4082827047828AFA
:102220004FF6FB731A408282828A0A438282704789
:1022300021B1828A42F00202828204E0828A4FF651
:10224000FD731A408282704702460020B1F5007F7C
:1022500000D100BF13880B400BB1012000E000202B
:10226000704701F40072B2F5007F00D100BFCA438D
:102270000280704770B5024600240023002500202C
:1022800040F66A16B14200D100BFC1F3421501F019
:102290001F03012606FA03F3012D02D1968933406C
:1022A00006E0022D02D1168A334001E0968A3340BF
:1022B0000C12012606FA04F41688344013B10CB14E
:1022C000012000E0002070BD10B50022002340F680
:1022D0006A14A14200D100BF0A1201249440A3B2A3
:1022E000DC43048010BD0000003801400044004081
:1022F00000480040004C00400050004010B504462B
:10230000FE48844208D10121C014FFF7A9FD002135
:10231000E014FFF7A5FDC4E0B4F1804F08D101211E
:102320000846FFF7AAFD00210120FFF7A6FDB8E04F
:10233000F348844208D101210220FFF79EFD0021CD
:102340000220FFF79AFDACE0EE48844208D101215B
:102350000420FFF792FD00210420FFF78EFDA0E08E
:10236000E948844208D101210820FFF786FD0021B9
:102370000820FFF782FD94E0E448844208D101215F
:102380001020FFF77AFD00211020FFF776FD88E08E
:10239000DF48844208D101212020FFF76EFD002193
:1023A0002020FFF76AFD7CE0DA48844208D1012151
:1023B0004014FFF755FD00216014FFF751FD70E058
:1023C000D548844209D10121C804FFF749FD002105
:1023D0004FF40020FFF744FD63E0D048844209D168
:1023E00001210805FFF73CFD00214FF48010FFF7A5
:1023F00037FD56E0CA48844209D101214805FFF75C
:102400002FFD00214FF40010FFF72AFD49E0C548D9
:10241000844208D101214020FFF72FFD00214020F8
:10242000FFF72BFD3DE0C048844208D10121802008
:10243000FFF723FD00218020FFF71FFD31E0BB489F
:10244000844208D101218015FFF717FD0021A01556
:10245000FFF713FD25E0B648844209D101210804A5
:10246000FFF7FEFC00214FF48030FFF7F9FC18E085
:10247000B048844209D101214804FFF7F1FC002152
:102480004FF40030FFF7ECFC0BE0AB48844208D17E
:1024900001218804FFF7E4FC00214FF48020FFF7BE
:1024A000DFFC10BD00220288944B98420ED0994B5D
:1024B00098420BD0B0F1804F08D0914B984205D094
:1024C000904B984202D0904B984204D14FF68F73B4
:1024D0001A404B881A438D4B984207D08C4B984238
:1024E00004D04FF6FF431A40CB881A4302808B88F2
:1024F00083850B880385814B98420BD0854B98428E
:1025000008D08B4B984205D08A4B984202D08A4B18
:10251000984201D10B7A038601238382704770B5FC
:10252000002400220023058C4FF6FE7635400584FA
:10253000028C8388048B4FF68F752C40B51E2C407F
:102540000D882C43751E2A400D892A434D882A4345
:102550006A4DA8420BD06F4DA84208D0744DA842D6
:1025600005D0744DA84202D0734DA84213D14FF646
:10257000F7752A404D892A434FF6FB752A408D880E
:102580002A434FF6FF652B404FF6FF552B408D89B0
:102590002B43CD892B4383800483CD888586028499
:1025A00070BD70B5002400220023058C4FF6EF7635
:1025B00035400584028C8388048B48F6FF752C40D7
:1025C0004FF6FF452C400D884FF6FF7606EA0525AD
:1025D0002C434FF6DF752A400D8906EA05152A437C
:1025E0004D8806EA05152A43444DA84202D0494DBC
:1025F000A8421DD14FF67F752A404D894FF6FF76D0
:1026000006EA05152A434FF6BF752A408D8806EA6B
:1026100005152A434FF6FF352B404FF2FF752B402F
:102620008D8906EA85052B43CD8906EA85052B436E
:1026300083800483CD880587028470BD70B5002433
:1026400000220023058C4FF6FF6635400584028C7E
:102650008388848B4FF68F752C404FF6FC752C4089
:102660000D882C434FF6FF552A400D894FF6FF7613
:1026700006EA05252A434D8806EA05252A431F4D0B
:10268000A84202D0234DA8421DD14FF2FF752A4027
:102690004D894FF6FF7606EA05252A434FF6FF35AA
:1026A0002A408D8806EA05252A434EF6FF752B4001
:1026B0004DF6FF752B408D8906EA05152B43CD8914
:1026C00006EA05152B4383808483CD8885870284A1
:1026D00070BD70B5002200230024058C4EF6FF76F5
:1026E00035400584038C8488828B48F6FF752A4028
:1026F0004FF6FF452A400D8820E00000002C0140E5
:102700000004004000080040000C004000100040A1
:102710000014004000340140004C014000500140D2
:102720000054014000180040001C00400020004000
:102730000040014000440140004801404FF6FF7650
:1027400006EA05252A434DF6FF752B400D8906EA5A
:1027500005352B434D8806EA05352B43FA4DA84233
:1027600002D0FA4DA84208D14BF6FF752C408D8956
:102770004FF6FF7606EA85152C4384808283CD8848
:10278000A0F84050038470BD828B4FF2FF331A4093
:102790008283828B4FF6FF7303EA01231A438283FD
:1027A0007047F0B50C461546002200210026078C24
:1027B0004EF6FF7C07EA0C070784828B018C4FF6EC
:1027C000FF7707EA043640F6FF473A404FF6FF77B7
:1027D00007EA05273A434FF6FF7707EA03373A43FC
:1027E000D94FB8420ED0D94FB8420BD0B0F1804F7C
:1027F00008D0D74FB84205D0D64FB84202D0D64FF6
:10280000B84206D14DF6FF77394046F48057394338
:1028100005E047F6FF57394044F480573943828337
:102820000184F0BD828B4FF6F3731A408283828B52
:102830000A4382837047F0B50C46154600220021FA
:102840000026078C4FF6FF6C07EA0C070784828B83
:10285000018C4FF6FF7707EA04264FF60C773A40D3
:102860004FF6FF7707EA03172F433A43B64FB842B4
:102870000ED0B64FB8420BD0B0F1804F08D0B44F55
:10288000B84205D0B34FB84202D0B34FB84206D1D8
:102890004FF6FF57394046F48077394305E04FF251
:1028A000FF57394044F48077394382830184F0BD77
:1028B000028B4FF2FF331A400283028B4FF6FF73F5
:1028C00003EA01231A4302837047F0B50C4615460C
:1028D000002200210026078C4FF6EF7C07EA0C0748
:1028E0000784028B018C4FF6FF7707EA041640F647
:1028F000FF473A404FF6FF7707EA03373A434FF670
:10290000FF7707EA05273A438F4FB8420ED08F4F23
:10291000B8420BD0B0F1804F08D08D4FB84205D0EF
:102920008C4FB84202D08C4FB84206D14FF6DF77B9
:10293000394046F01007394305E04FF65F773940DC
:1029400044F01007394302830184F0BD028B4FF637
:10295000F3731A400283028B0A4302837047F0B577
:102960000C46154600220021068C4FF6FE773E40AD
:102970000684028B018C4FF60C7632407E1C06EAF0
:1029800003162E433243704EB0420ED06F4EB0420B
:102990000BD0B0F1804F08D06D4EB04205D06D4ED7
:1029A000B04202D06C4EB04206D14FF6FD763140B7
:1029B00044F00106314305E04FF6F576314044F02E
:1029C0000106314302830184F0BD70B505460C4613
:1029D0005D4885420ED05D4885420BD0B5F1804FF1
:1029E00008D05B48854205D05A48854202D05A48F3
:1029F000854200D100E000BF208850B92389A28819
:102A000061882846FFF7ABFFE1882846FFF79EFF65
:102A100025E0208804280AD12389A28861882846D5
:102A2000FFF753FFE1882846FFF742FF17E02088B1
:102A300008280AD12389A28861882846FFF7FBFE6F
:102A4000E1882846FFF7EEFE09E02389A288618825
:102A50002846FFF7A6FEE1882846FFF795FE70BDE1
:102A60002DE9F04105460C4600260127608808B98B
:102A7000022600E00026A088012801D1022700E0FC
:102A800001272088A0B92389A28861882846FFF7FA
:102A900066FFE1882846FFF759FF23893A46314609
:102AA0002846FFF712FFE1882846FFF701FF13E0F1
:102AB0002389A28861882846FFF707FFE188284616
:102AC000FFF7F6FE23893A4631462846FFF747FFCF
:102AD000E1882846FFF73AFFBDE8F0810A884B8875
:102AE0001A438B881A43CB881A430B891A434B89A4
:102AF0001A438B891A43A0F8442070474FF6FF71A0
:102B0000818000210180C1804180017270470021D5
:102B1000018041808180C180018141818181C181A9
:102B20007047002101804180012181800021C18006
:102B3000018170470021018041808180C180018135
:102B40004181818170470000002C01400034014028
:102B50000004004000080040000C004021B1028841
:102B600042F00102028004E002884FF6FE731A4030
:102B70000280704731B1B0F8442042F40042A0F81E
:102B8000442005E0B0F84420C2F30E02A0F844202F
:102B900070471AB183890B43838102E083898B4399
:102BA000838170478182704741EA0203A0F8483070
:102BB00070471AB183890B43838102E083898B4379
:102BC0008381704701894FF6F87211400181704787
:102BD0000A46002101894FF68F7319401143018184
:102BE000704730B504460D4629462046FFF7F0FFF2
:102BF000208940F00700208130BD2DE9F0410446D6
:102C00000D4616461F46602D06D13B460122314631
:102C10002046FFF75AFE05E03B460122314620469A
:102C2000FFF79DFE29462046FFF7D2FF208940F09E
:102C300007002081BDE8F08130B50C4600210189F4
:102C4000C9B24FF6FF7505EA03251543254329430D
:102C5000018130BD2DE9F04105460E4617469846E4
:102C6000002443463A4631462846FFF7E5FF2C89C3
:102C70004FF6F870044044F007044FF68F7004409C
:102C800044F070042C81BDE8F081F0B504460D4697
:102C900016461F463B46324629462046FFF7CCFFE4
:102CA000208940F480402081F0BD018582827047F8
:102CB0000A46002101884FF68F73194011430180A5
:102CC0007047F0B50C4615461E4600210022002331
:102CD0000189028B038C4FF6F877394021434FF678
:102CE000FC473A4040F201173A434FF6DD773B404C
:102CF0004FF6FF7707EA06172F433B430181028314
:102D00000384F0BD0A460021018B4FF68F731940F2
:102D10001143018370470A460021018B48F6FF7377
:102D200019404FF6FF7303EA0223194301837047EA
:102D30000A460021818B4FF68F731940114381831E
:102D400070470A460021818B48F6FF7319404FF601
:102D5000FF7303EA022319438183704721B102887C
:102D600042F08002028004E002884FF67F731A402E
:102D70000280704721B1828842F00402828004E020
:102D800082884FF6FB731A408280704721B1828897
:102D900042F00802828004E082884FF6F7731A40FE
:102DA0008280704721B1828842F00102828004E073
:102DB00082884FF6FE731A40828070470A460021CF
:102DC000018B4FF6F77319401143018370470A4690
:102DD0000021018B4FF2FF7319404FF6FF7303EA96
:102DE00002231943018370470A460021818B4FF665
:102DF000F77319401143818370470A460021818B84
:102E00004FF2FF7319404FF6FF7303EA0223194391
:102E1000818370470A460021018B4FF6FB731940EE
:102E20001143018370470A460021018B4FF6FF339F
:102E300019404FF6FF7303EA0223194301837047D9
:102E40000A460021818B4FF6FB73194011438183A1
:102E500070470A460021818B4FF6FF3319404FF629
:102E6000FF7303EA02231943818370470A46002156
:102E7000018B4FF67F7319401143018370470A4657
:102E80000021018BC1F30E014FF6FF7303EA022309
:102E90001943018370470A460021818B4FF67F73E7
:102EA00019401143818370470A460021818BC1F389
:102EB0000E014FF6FF7303EA022319438183704723
:102EC0000A460021018C4FF6FD731940114301841D
:102ED00070470A460021018C4FF6F77319401143E1
:102EE000018470470A460021018C4FF6DF731940B8
:102EF0004FF6FF7303EA02131943018470470A4631
:102F00000021018C4FF67F7319404FF6FF7303EADF
:102F100002131943018470470A460021018C4FF6C1
:102F2000FF5319404FF6FF7303EA0223194301844C
:102F300070470A460021018C4FF2FF7319404FF68B
:102F4000FF7303EA02231943018470470A460021F4
:102F5000018C4DF6FF7319404FF6FF7303EA0233FD
:102F600019430184704730B5002301248C40A3B27B
:102F7000048C9C430484048C02FA01F5ADB22C430A
:102F8000048430BD30B5002304248C40A3B2048CEB
:102F90009C430484048C02FA01F5ADB22C430484F2
:102FA00030BD70B5034600200024184618300125B6
:102FB0008D40ACB21D8CA5431D8409B1082909D1EF
:102FC00000EB6100056825F0700505600568154394
:102FD00005600EE00D1FC5F34E052844056825F475
:102FE000E045056005684FF6FF7606EA02263543A0
:102FF000056070BD21B1028842F00202028004E047
:1030000002884FF6FD731A400280704721B1028892
:1030100042F00402028004E002884FF6FB731A407B
:103020000280704721B1828842F08002828004E0F1
:1030300082884FF67F731A408280704702884FF66D
:10304000F7731A40028002880A4302807047828820
:103050004FF68F731A40828082880A4382807047BD
:1030600002894FF6F8731A40028102890A430281ED
:10307000704702894FF67F731A40028102890A4322
:1030800002817047818470478185704781867047CF
:103090000187704781877047A0F840107047028809
:1030A0004FF6FF431A40028002880A4302807047AD
:1030B0000146888E70470146088F70470146888F09
:1030C00070470146B1F8400070470146888C704750
:1030D0000146088D704702460020138A0B400BB151
:1030E000012000E000207047CA430282704730B5DB
:1030F0000246002000230024158A05EA0103958971
:1031000005EA010413B10CB1012000E0002030BD3C
:10311000CA43028270470000002044490860091D2C
:103120000860091D0860091D086041483F491431C5
:103130000860704700213D498279002A3AD00A464A
:10314000126803689A430B461A600A1D12680368E6
:103150009A430B1D1A60027911440A6803681A43E6
:103160000A60324A0832126803689A432F4B0833C8
:103170001A601A1D126803689A432C4B0C331A60AC
:103180004279102A0ED11A1F126803681A43274B7E
:1031900008331A601A1D126803681A43234B0C3354
:1031A0001A600DE02149427911440A6803681A4304
:1031B0000A6005E0027911440A6803689A430A60CC
:1031C00070470021016001710C2141710021817162
:1031D00070471649103109680143144A10321160D2
:1031E000704701460020114A143212680A400AB1A1
:1031F000012000E0002070470C491431086070473E
:10320000014600200022094B1B6803EA0102074B1C
:1032100014331B680B4013B10AB1012000E00020F9
:1032200070470249143108607047000000040140F3
:10323000FFFF0F0000F1080141604FF0FF31816096
:1032400000F10801C16001610021016070470021A7
:103250000161704742684A6093688B609368596067
:103260009160086103685B1C0360704710B50246FB
:103270000B685C1C0CB9106907E002F1080000E063
:103280004068446824689C42FAD944684C604C68A1
:10329000A160886041600A611468641C146010BDFC
:1032A00001460A69D1E901309860D1E9010358600B
:1032B0005068884201D18868506000200861106819
:1032C000401E10601068704770B505460E462C46CB
:1032D0002CB940F21B12FAA1FEA006F0E5FD02F0A7
:1032E00034FED4E90F12206801FB02006060002068
:1032F000A0632068A060E06B401E226C216800FB88
:103300000210E060FF2084F8440084F845009EB974
:10331000206908B9012000E00020A8B904F11000DC
:1033200001F0F9FD80B14FF08050EE490860BFF325
:103330004F8FBFF36F8F07E004F11000FFF77AFFA4
:1033400004F12400FFF776FF02F022FE012070BD99
:103350002DE9F04106460D4617469846069C0DB9E4
:10336000246000E02760E663256401212046FFF722
:10337000ABFF84F850800020A064BDE8F0812DE907
:10338000F84305460E4690460DB1012000E00020AE
:1033900028B94FF4C472CAA1CEA006F085FD0EB9BB
:1033A000002701E005FB06F707F1540002F0D9FE03
:1033B000044644B104F1540943464A46314628467E
:1033C0000094FFF7C5FF2046BDE8F8832DE9F041E2
:1033D00004460F4615464FF00008A66B206C40B916
:1033E000206860BB606801F0F4FE804600206060E9
:1033F00025E07DB93946226CA06806F04CFF216CAF
:10340000A0680844A060D4E90110884217D320685E
:10341000A06014E03946226CE06806F03CFF216CA5
:10342000E068401AE0602168E068884203D2216CBD
:103430006068401AE060022D01D106B1761E701C52
:10344000A0634046BDE8F0812DE9F3410D460098A8
:10345000846C00272CB940F6CE1299A19DA006F0ED
:1034600023FDA06BE16B884201D2012000E0002027
:1034700028B940F6CF1292A196A006F015FDA06BD8
:10348000E16B88421BD294F945602A466946204682
:10349000FFF79CFF0746701C60B9606A08B90120FD
:1034A00000E0002050B904F1240001F034FD28B1FF
:1034B000012703E0701C40B284F8450000BF384685
:1034C000BDE8FC8170B5044602F03FFD94F945501B
:1034D0001AE0A06C38B100212046FFF7B5FF88B193
:1034E00001F0EDFD0EE0606A08B9012000E0002067
:1034F00038B904F1240001F00EFD18B101F0DFFD30
:1035000000E003E0681E45B2002DE2DC00BFFF20B2
:1035100084F8450002F03CFD02F017FD94F9445098
:1035200010E0206908B9012000E0002048B904F14A
:10353000100001F0F0FC08B101F0C1FD681E45B2B9
:1035400000E001E0002DECDC00BFFF2084F8440027
:1035500002F01EFD70BD70B5054602F0F6FCA86BCA
:10356000E96B884201D1012400E0002402F010FD43
:10357000204670BD2DE9FF4383B0064688461D46B0
:103580004FF0000934462CB940F2D9224CA151A089
:1035900006F08AFCB8F1000F01D1206C08B90120B7
:1035A00000E0002028B940F2DA2245A149A006F047
:1035B0007BFC022D02D1E06B012801D1012000E04B
:1035C000002028B940F2DB223DA142A006F06CFCAD
:1035D00001F0A1FD08B9059808B9012000E000201C
:1035E00028B940F2DE2236A13AA006F05DFC00BF09
:1035F00002F0ABFCA06BE16B884201D3022D38D105
:103600002A4641462046FFF7E1FE0746A06C68B116
:1036100029462046FFF718FF28B34FF08050314964
:103620000860BFF34F8FBFF36F8F1CE0606A08B96B
:10363000012000E0002068B904F1240001F06BFCD7
:1036400088B14FF0805027490860BFF34F8FBFF318
:103650006F8F08E03FB14FF0805022490860BFF300
:103660004F8FBFF36F8F02F093FC012007B0BDE8CE
:10367000F083059818B902F08BFC0020F6E7B9F149
:10368000000F04D101A801F0CAFC4FF0010902F0BB
:103690007FFC00F082FF02F058FC94F94400401CCB
:1036A00010B9002084F8440094F94500401C10B97A
:1036B000002084F8450002F06BFC05A901A813E086
:1036C0002E2E5C4672656552544F535C717565755C
:1036D000652E63004572726F723A25732C25640D56
:1036E0000A00000004ED00E001F0ABFCF8B9204650
:1036F000FFF731FFA8B104F11000059901F0ADFB0F
:103700002046FFF7DFFE00F09DFE00287FF470AF3B
:103710004FF08050FA490860BFF34F8FBFF36F8FAF
:1037200066E72046FFF7CEFE00F08CFE60E72046FD
:10373000FFF7C8FE00F086FE002097E710B50446AC
:103740004CB1002060602060E06000231A461946FA
:103750002046FFF70FFF10BD2DE9F041044601267A
:103760000027224600210120FFF709FE05462846D2
:10377000FFF7E4FF2846BDE8F08170B50646344601
:103780003CB940F24122AFF2C801AFF2B80006F0F6
:103790008BFB01F0BDFC616888420CD1E068401EE3
:1037A000E060E06828B900231A4619462046FFF772
:1037B000E1FE012500E00025284670BD70B50546F4
:1037C00002F0C3FBA86B08B9012400E0002402F05A
:1037D000DFFB204670BD70B504460D46206C70B10D
:1037E000216CE0680844E0606168E068884201D3C9
:1037F0002068E0602846226CE16806F04CFD70BD50
:103800002DE9FF4782B005460E461F464FF0000ADD
:103810002C463CB940F2DC42AFF25C11AFF24C10E6
:1038200006F042FB0EB9206C08B9012000E0002030
:1038300038B940F2DD42AFF27811AFF2681006F00D
:1038400033FB01F068FC08B9049808B9012000E0D6
:10385000002038B94FF49C62AFF29C11AFF28C108B
:1038600006F022FB00BF02F070FBD4F83890B9F1EB
:10387000000F3DD0D4F80C8031462046FFF7ABFF57
:10388000DFB9A9F10100A063206810B901F080FD43
:103890006060206908B9012000E0002010BB04F13D
:1038A000100001F038FBE8B14FF0805094490860F7
:1038B000BFF34F8FBFF36F8F14E0C4F80C80606AC2
:1038C00008B9012000E0002060B904F1240001F0F3
:1038D00022FB38B14FF0805089490860BFF34F8F09
:1038E000BFF36F8F02F054FB012006B0BDE8F087F4
:1038F000049818B902F04CFB0020F6E7BAF1000F6B
:1039000004D1684601F08BFB4FF0010A02F040FB46
:1039100000F043FE02F019FB94F94400401C10B97A
:10392000002084F8440094F94500401C10B90020A0
:1039300084F8450002F02CFB04A9684601F081FBE5
:1039400040BB2046FFF73AFFF0B1206830B902F0E3
:10395000FCFA606801F0EBFB02F01AFB04F12400B2
:10396000049901F07AFA2046FFF7ACFD00F06AFDF9
:1039700000287FF478AF4FF0805061490860BFF3B2
:103980004F8FBFF36F8F6EE72046FFF79BFD00F070
:1039900059FD68E72046FFF795FD00F053FD2046EE
:1039A000FFF70CFF0028EED000209EE72DE9F04144
:1039B00006460F4634463CB94FF41E72AFF2003152
:1039C000AFF2F02006F070FA01F0A2FB61688842C5
:1039D00004D1E068401CE06001250AE000233A467B
:1039E00019462046FFF70CFF054615B1E068401C5C
:1039F000E0602846BDE8F08170B505460E460DB181
:103A0000012000E0002038B940F2BD22AFF2503171
:103A1000AFF2403006F048FAAE4201D8012000E093
:103A2000002038B940F2BE22AFF26C31AFF25C3008
:103A300006F03AFA022200212846FFF7A0FC0446CD
:103A400004B1A663204670BD2DE9F05F80468A462A
:103A500015461E4644463CB940F29F32AFF2A031B3
:103A6000AFF2903006F020FABAF1000F01D1206CCD
:103A700008B9012000E0002038B94FF46872AFF2B5
:103A8000C031AFF2B03006F00FFA022E02D1E06B77
:103A9000012801D1012000E0002038B940F2A13214
:103AA000AFF2E431AFF2D43006F0FEF902F0A0FA42
:103AB00000BF3021EFF3118081F31188BFF34F8FE6
:103AC000BFF36F8F00BF0746A06BE16B884201D345
:103AD000022E2ED194F945B0324651462046FFF7CA
:103AE00075FC0BF10100E0B9A06C58B131462046DD
:103AF000FFF7AAFCD0B1CDB10120286016E000008C
:103B000004ED00E0606A08B9012000E0002068B917
:103B100004F1240001F0FFF940B13DB1012028601B
:103B200004E00BF1010040B284F845004FF00109B8
:103B300001E04FF0000900BF87F3118800BF48463D
:103B4000BDE8F09F2DE9F04707460D463C463CB9DD
:103B500040F23C42AFF29841AFF2884006F0A4F93F
:103B6000206C08B9012000E0002038B94FF48862C9
:103B7000AFF2B441AFF2A44006F096F9206808B95C
:103B8000606808B9012000E0002038B940F24542E1
:103B9000AFF2D441AFF2C44006F086F902F028FA41
:103BA00000BF3021EFF3118081F31188BFF34F8FF5
:103BB000BFF36F8F00BF0646D4F83890E06B4845DE
:103BC00029D994F945A009F10100A0630AF1010087
:103BD000C8B9A06C40B100212046FFF735FCB8B150
:103BE000B5B10120286013E0606A08B9012000E047
:103BF000002068B904F1240001F08DF940B13DB115
:103C00000120286004E00AF1010040B284F8450078
:103C10004FF0010801E04FF0000800BF86F3118863
:103C200000BF4046BDE8F0872DE9F05F06468946B3
:103C3000174634463CB94FF4B462AFF27C51AFF250
:103C40006C5006F031F9B9F1000F01D1206C08B9C0
:103C5000012000E0002038B940F2A152AFF2A0519B
:103C6000AFF2905006F020F902F0C2F900BF302107
:103C7000EFF3118081F31188BFF34F8FBFF36F8F84
:103C800000BF0546D4F838A0BAF1000F22D094F94D
:103C900044B049462046FFF79EFDAAF10100A0630B
:103CA0000BF1010070B9206908B9012000E0002083
:103CB00068B904F1100001F02EF940B13FB10120C4
:103CC000386004E00BF1010040B284F844004FF08A
:103CD000010801E04FF0000800BF85F3118800BF24
:103CE0004046BDE8F09F2DE9F04706468846344639
:103CF0003CB940F2FC52AFF23861AFF2286006F0F6
:103D0000D3F8B8F1000F01D1206C08B9012000E010
:103D1000002038B940F2FD52AFF25C61AFF24C6066
:103D200006F0C2F8206C08B1012000E0002038B98C
:103D300040F2FE52AFF27861AFF2686006F0B4F87C
:103D400002F056F900BF3021EFF3118081F31188A2
:103D5000BFF34F8FBFF36F8F00BF0546A06B48B115
:103D6000D4F80C9041462046FFF735FDC4F80C907E
:103D7000012700E0002700BF85F3118800BF384607
:103D8000BDE8F08770B504463CB940F22F62AFF24F
:103D9000D061AFF2C06006F087F802F0D6F8A56BEC
:103DA00002F0F6F8284670BD70B5044625463DB9C8
:103DB00040F24162AFF2F861AFF2E86006F074F8E9
:103DC00002F0C3F8D5E90E10461A02F0E1F83046C9
:103DD00070BD70B504463CB940F25162AFF220713B
:103DE000AFF2107006F060F8A56B284670BD014672
:103DF00000200EE0764A02EBC00252688A4207D1E8
:103E00000022734B43F8302003EBC0035A6002E0FA
:103E1000401C0828EED300BF704770B50446254605
:103E20003DB940F25D62AFF26871AFF2587006F0D2
:103E30003BF82846FFF7DBFF284602F015FA70BD75
:103E40000146C86C7047C1647047014691F8500044
:103E5000704770B505463DB940F29372AFF2A0715C
:103E6000AFF2907006F020F8A86B08B9012400E0CA
:103E70000024204670BD70B504463CB940F2BA72C9
:103E8000AFF2C471AFF2B47006F00EF8A06BE16B44
:103E9000884201D1012500E00025284670BD024678
:103EA00000200BE04A4B53F8303033B9484B43F80D
:103EB000301003EBC0035A6002E0401C0828F1D325
:103EC00000BF70470246002000210AE0404B03EB90
:103ED000C1035B68934203D13D4B53F8310002E0CC
:103EE000491C0829F2D300BF70472DE9F04105466F
:103EF0000E4617462C4602F028F894F94400401C60
:103F000010B9002084F8440094F94500401C10B911
:103F1000002084F8450002F03BF8A06B28B93A462F
:103F2000314604F1240000F0DBFF2046FFF7CAFA17
:103F3000BDE8F08170B50446002204212046FFF759
:103F40001EFA0546284670BD70B504460E4601F0BF
:103F5000FCFFA06C08B1002505E0A06B08B10025AE
:103F600001E0A664012502F013F8284670BD2DE992
:103F7000F04105460F462E46B06CB84201D00024F1
:103F80000AE0B06B08B1002406E001F0DEFF00207B
:103F9000B06401F0FDFF01242046BDE8F08138B592
:103FA00005460C460020009000232246694628461C
:103FB000FFF726FC009838BD38B504460020009075
:103FC000002269462046FFF72FFE009838BD00000A
:103FD0006C04002010B5002407E004EB8401FB4AC8
:103FE00002EB8100FFF726F9641C202CF5D3F8487A
:103FF000FFF720F9F748FFF71DF9F748FFF71AF91F
:10400000F648FFF717F9F648FFF714F9F048F549B5
:104010000860F048F449086010BD10B5044601F08E
:1040200094FFF2480068401CF0490860F0480068BE
:1040300040B9EF4804600846006801280DD1FFF739
:10404000C9FF0AE0EB48006838B9E9480068C06A6F
:10405000E16A884201D8E6480460E7480068401CED
:10406000E549086008460068A06494F82C10012017
:104070008840E24909680843E0490860E16A01EBC9
:104080008101D24A02EB8100211DFFF7E3F801F024
:104090007FFFD848006868B1D5480068C06AE16A07
:1040A000884207D24FF08050D5490860BFF34F8F48
:1040B000BFF36F8F10BD2DE9F05F82460F4690462B
:1040C0009B460A9E0C9C4FEA8801A522206B06F0B5
:1040D00027F9A8F10100216B01EB800929F00709FC
:1040E00009F0070008B9012000E0002028B940F2DB
:1040F0002B32C4A1C8A005F0D7FE002507E0795DEA
:1041000004F134004155785D00B902E06D1C142DB6
:10411000F5D300BF002147200155202E00D31F26D4
:10412000E662266500206065201DFFF790F804F127
:104130001800FFF78CF82461C6F12000A0616462CA
:104140000020A06584F85C005A465146484601F0BC
:1041500089FE20600B9808B10B980460BDE8F09FC1
:104160002DE9FF4F85B0804689461746DDE912AB41
:10417000B80001F0F6FF064656B1602001F0F1FFED
:1041800004460CB1266304E0304602F06DF800E00E
:1041900000247CB10020CDE900ABCDE902403A46D5
:1041A00049464046089BFFF786FF2046FFF735FF4C
:1041B000012501E04FF0FF35284609B0BDE8F08F3A
:1041C00088490968096809B9012100E0002121B185
:1041D0004FF0FF31944A116006E082490968C968CE
:1041E000C868914A41681160704710B50446206B59
:1041F00002F03AF8204602F037F810BD70B50546D7
:1042000001F0A3FE15B97A48006800E0284604468C
:10421000201DFFF745F878B9E06A00EB80006B4994
:1042200051F8200040B994F82C10012088407349BF
:104230000968814371480160A06A18B104F118004F
:10424000FFF72EF86C480068401C6B49086068480E
:104250000068844209D1211D6048FEF7FBFF7348C6
:104260000068401C7149086009E060480068401E11
:104270005E4908602046FFF7B8FFFFF7A1FF01F095
:1042800087FE5C480068C0B159480068844214D178
:104290006748006808B9012000E0002028B940F212
:1042A000654258A15CA005F0FFFD4FF080505449D5
:1042B0000860BFF34F8FBFF36F8F70BD2DE9F041E2
:1042C0004FF000085A480068002872D15948006829
:1042D000451C58480560EDB942480068006808B9B7
:1042E000012000E0002028B940F6D91245A14AA0DB
:1042F00005F0DAFD3B4807683B480068394908602B
:10430000394807604C480068401C4B490860FFF77B
:1043100057FF00BF4448006885423CD300BF314886
:104320000068006808B9012000E0002020B14FF0CB
:10433000FF303D4908602DE02A480068C068C46825
:104340006668B54202D23848066023E0201DFEF7B9
:10435000A7FFA06A18B104F11800FEF7A1FF94F8B6
:104360002C1001208840254909680843234908602A
:10437000E16A01EB8101154A02EB8100211DFEF784
:1043800069FF1B49E06A0968C96A8842C7D34FF0D0
:104390000108C4E700BF16480068C06A00EB80004F
:1043A0000A4951F82000012801D94FF0010805E021
:1043B000FFE722480068401C204908602048006848
:1043C00008B14FF001084046BDE8F081AC04002080
:1043D0002C07002040070020540700206807002019
:1043E0007C07002060000020640000206C0000209A
:1043F0005C0000207800002088000020740000206D
:1044000004ED00E02E2E5C4672656552544F535CFD
:104410007461736B732E63004572726F723A257309
:104420002C25640D0A0000008C000020680000208C
:104430009400002070000020840000207C000020F8
:104440008000002070B500240026FE48006838B9BE
:104450004FF4FD62AFF25401AFF2440005F024FDC9
:1044600001F073FDF7480068401EF64908600846F1
:10447000006800284FD1F448006800284BD024E0A1
:10448000F248C068C46804F11800FEF709FF201D57
:10449000FEF706FF94F82C1001208840EC490968CB
:1044A0000843EB490860E16A01EB8101E94A02EB4C
:1044B0008100211DFEF7CEFEE749E06A0968C96A5E
:1044C000884202D30120E5490860E048006808B945
:1044D000012000E000200028D2D00CB1FFF770FED0
:1044E000DF48056865B100BFFFF7E8FE10B10120A5
:1044F000DA4908606D1E002DF6D10020D849086009
:10450000D648006838B101263007D6490860BFF3A5
:104510004F8FBFF36F8F01F03BFD304670BD2DE92B
:10452000F04105460E46D0480768CB480068001D9C
:10453000FEF7B6FE50B9C848006890F82C1001206C
:104540008840C34909688143C1480160681C38B983
:1045500036B1C1480168091DC448FEF77BFE1AE068
:104560007C19BD4800684460BC4207D2BA48016863
:10457000091DBF480068FEF779FE0CE0B6480168E7
:10458000091DBC480068FEF771FEBB480068844204
:1045900001D2B9480460BDE8F081AA480068401C17
:1045A000A849086070472DE9F04704460F464FF0D0
:1045B00000093CB940F27942AFF2B811AFF2A8104D
:1045C00005F072FC0FB1012000E0002038B940F284
:1045D0007A42AFF2D011AFF2C01005F065FC9948F5
:1045E000006808B9012000E0002038B940F27B42A1
:1045F000AFF2F011AFF2E01005F056FCFFF7CDFF7F
:10460000994806682068C5192068B04207D9206813
:10461000A8420BD9B54209D94FF0010906E020683C
:10462000A84201D8B54201D94FF001092560B9F17E
:10463000000F03D0A81B0021FFF771FFFFF702FF57
:104640008046B8F1000F07D14FF0805085490860CF
:10465000BFF34F8FBFF36F8FBDE8F08770B504468F
:104660000025BCB17748006808B9012000E00020AF
:1046700038B940F2CF42AFF27421AFF2642005F0B6
:1046800013FCFFF78AFF00212046FFF748FFFFF7E2
:10469000D9FE05463DB94FF0805072490860BFF31E
:1046A0004F8FBFF36F8F70BD2DE9F04107463E4637
:1046B0003EB940F2FB42AFF2B421AFF2A42005F0C4
:1046C000F3FB65480068864201D100241EE001F03A
:1046D0003CFC756901F05CFC66480068854203D0CB
:1046E00063480068854201D102240FE05F4885429B
:1046F00005D1B06A08B9032408E0022406E05F4847
:10470000854200D00DB9042400E001242046BDE814
:10471000F08170B5044601F018FC14B94E480068E9
:1047200000E020460646F56A01F032FC284670BDDE
:104730002DE9F041054601F05BFC00BF3021EFF3AD
:10474000118081F31188BFF34F8FBFF36F8F00BFCC
:10475000044615B94048006800E028460746FE6A4E
:1047600000BF84F3118800BF3046BDE8F0812DE919
:10477000F04780460D464FF00009202D01D2012060
:1047800000E0002038B94FF4B062AFF28831AFF2E8
:10479000783005F089FB202D00D31F2501F0D5FBD3
:1047A000B8F1000F02D12C48006800E040460446F2
:1047B000266DAE4277D0B5420BD9274800688442B7
:1047C0000DD025480068C06AA84208D84FF00109FA
:1047D00005E021480068844201D14FF00109E76AF1
:1047E000E16A206D884200D1E5622565A06900F08C
:1047F000004010B9C5F12000A06107EB8701154A00
:1048000002EB81016069884201D1012000E00020B3
:10481000B0B3201DFEF744FD30B90120B8400C496B
:10482000096881430A48016094F82C1001208840EF
:1048300007490968084306490860E16A01EB8101FC
:10484000044A1FE0940000206C0000205407002060
:1048500074000020AC0400205C00002080000020D8
:104860007C00002004ED00E0700000207C070020A8
:1048700064000020600000208C00002068070020F9
:1048800005E010E002EB8100211DFEF7E3FCB9F129
:10489000000F07D04FF08050FB490860BFF34F8FE7
:1048A000BFF36F8F00BF01F073FBBDE8F08710B559
:1048B000F648006818B10120F54908602FE0002093
:1048C000F3490860F3480068B0FA80F0C0F11F04B3
:1048D00004EB8400F04951F8200008B1012000E009
:1048E000002038B940F6F622AFF2E841AFF2D840E6
:1048F00005F0DAFA04EB8401E74A02EB8100416833
:104900004968416000F1080142688A4202D1416869
:10491000496841604168C968E04A116000BF10BD44
:1049200070B5054601F011FB15B9DC48006800E0E0
:1049300028460446201DFEF7B3FC78B9E06A00EB78
:104940008000D54951F8200040B994F82C1001207E
:104950008840D04909688143CE480160A06A18B1F7
:1049600004F11800FEF79CFC211DCD48FEF772FCF7
:1049700001F00EFBCB48006828B101F0E6FAFFF722
:104980001FFC01F005FBC5480068844226D1C548DC
:104990000068B8B1BD48006808B9012000E00020F7
:1049A00038B940F25762AFF2A451AFF2945005F01B
:1049B0007BFA4FF08050B4490860BFF34F8FBFF3CC
:1049C0006F8F0BE0B6480068B7490968884203D189
:1049D0000020B249086001E0FFF769FF70BD70B5C3
:1049E000054600262C463DB940F28162AFF2EC51FB
:1049F000AFF2DC5005F058FAA9496069884201D14C
:104A0000012000E0002070B1A849A06A884201D1CD
:104A1000012000E0002030B9A06A08B9012000E0C0
:104A2000002000B10126304670BD70B505462C4609
:104A30003DB940F2AB62AFF23461AFF2246005F0F1
:104A400033FA74B39548006884422AD001F07DFAA5
:104A50002046FFF7C4FF10B3201DFEF721FC94F899
:104A60002C10012088408B49096808438949086057
:104A7000E16A01EB8101884A02EB8100211DFEF70A
:104A8000E9FB8649E06A0968C96A884207D34FF0A2
:104A900080507D490860BFF34F8FBFF36F8F01F0E7
:104AA00077FA70BD2DE9F0410646002734463EB93D
:104AB00040F2E262AFF2B461AFF2A46005F0F4F943
:104AC00001F096FA00BF3021EFF3118081F31188D5
:104AD000BFF34F8FBFF36F8F00BF05462046FFF730
:104AE0007EFF20B369480068E0B96C49E06A096854
:104AF000C96A884200D30127201DFEF7D1FB94F834
:104B00002C10012088406349096808436149086006
:104B1000E16A01EB8101604A02EB8100211DFEF791
:104B200099FB04E004F118016048FEF793FB00BF15
:104B300085F3118800BF3846BDE8F08170B523E0E9
:104B4000FFF72BFD5A48006808B9012000E000205B
:104B50000546FFF777FCBDB901F0F7F95448C06886
:104B6000C468201DFEF79CFB4F480068401E4E495C
:104B7000086050480068401E4E49086001F008FA7D
:104B80002046FFF732FB00BF4A4800680028D7D113
:104B900070BD00BFFFF7D2FF3F4800680128F9D978
:104BA0004FF0805038490860BFF34F8FBFF36F8FCD
:104BB000F0E71CB5404800210B468222CDE90010E9
:104BC0003EA14048FFF7CCFA0446012C02D100F088
:104BD000EDFF0446012C15D100BF302080F3118871
:104BE000BFF34F8FBFF36F8F00BF4FF0FF303649D9
:104BF000086001202B49086000203449086001F05A
:104C00004DF90DE0601C08B1012000E0002038B92A
:104C100040F28472AFF61401AFF6040005F044F9D7
:104C20001CBD10B500BF302080F31188BFF34F8F3B
:104C3000BFF36F8F00BF00201A49086001F074F9BC
:104C400010BD22490868704770B501F0D1F9002500
:104C50001E480468204670BD13480068704770B550
:104C6000044614B90D48006800E0204605463DB9E9
:104C700040F68C02AFF67401AFF6640005F014F94B
:104C800005F1340070BD000004ED00E09400002048
:104C90008000002074000020AC0400205C00002094
:104CA0007C070020780000206C00002054070020C2
:104CB00068070020680000209000002049444C450F
:104CC00000000000934B00088C00002070000020C2
:104CD0000246002101E0521C491C1078A528FAD098
:104CE000890888B270472DE9F04107460C46904686
:104CF0001E4617B9F748006800E0384605462560AB
:104D000005F134006060E86A2061286BE061A86CFE
:104D1000A060207B032807D1FFF73FFCA86A08B1F9
:104D200002202073FFF78EFB286D60610020A061D8
:104D3000052E01D0267303E03846FFF7B5FC20733B
:104D4000B8F1000F04D0286BFFF7C2FF208401E008
:104D500000202084BDE8F0812DE9F04707460C468D
:104D600090460026206848B3204641684968416063
:104D700000F1080142688A4202D1416849684160F5
:104D80004168D1F80C9000BF2046416849684160F5
:104D900000F1080142688A4202D1416849684160D5
:104DA0004168CD6806EBC60007EB8001434601224F
:104DB0002846FFF798FF761C4D45E5D13046BDE803
:104DC000F0872DE9F0410546884616460024202745
:104DD000FFF7E3FBC0480068804539D300BF7F1E62
:104DE00007EB8702BD4B03EB820104EBC40205EB2A
:104DF00082000122FFF7B0FF0444002FEFD104EB43
:104E0000C40105EB81000222B5490968FFF7A4FF40
:104E1000044404EBC40105EB81000222B149096896
:104E2000FFF79AFF044404EBC40105EB8100042260
:104E3000AD49FFF791FF044404EBC40105EB810089
:104E40000322AA49FFF788FF04440EB10020306016
:104E5000FFF7F8FA2046BDE8F08170B504460D462C
:104E60003CB940F60632AFF66421AFF6542005F0A7
:104E70001BF89848016818312046FEF7F7F9012120
:104E80002846FFF74CFB70BD70B504460D4616462C
:104E90003CB940F61732AFF69421AFF6842005F006
:104EA00003F89348006808B1012000E0002038B9F9
:104EB00040F61B32AFF6B421AFF6A42004F0F4FFA5
:104EC00045F00040834909688861824801681831CB
:104ED0002046FEF7BFF901213046FFF720FB70BDE9
:104EE00070B505460E4614463DB940F63132AFF670
:104EF000EC21AFF6DC2004F0D7FF764801681831CA
:104F00002846FEF7A7F90CB14FF0FF362146304690
:104F1000FFF705FB70BD70B50646F068C4683CB984
:104F200040F66132AFF62431AFF6143004F0BCFF26
:104F300004F11800FEF7B4F96D480068A8B9201D07
:104F4000FEF7AEF994F82C100120884069490968F1
:104F5000084368490860E16A01EB81015F4A02EB9E
:104F60008100211DFEF776F904E004F11801624882
:104F7000FEF770F95749E06A0968C96A884204D99E
:104F8000012501205D49086000E00025284670BD2C
:104F90002DE9F04105460F465548006808B101204B
:104FA00000E0002038B940F69932AFF6A831AFF6EC
:104FB000983004F079FF47F000402860EC683CB975
:104FC00040F6A132AFF6C431AFF6B43004F06CFF56
:104FD0002846FEF765F9201DFEF762F994F82C10BB
:104FE0000120884043490968084342490860E16A52
:104FF00001EB8101394A02EB8100211DFEF72AF9FC
:105000003449E06A0968C96A884204D90126012046
:105010003A49086000E000263046BDE8F08110B54E
:1050200004463CB940F6C132AFF62841AFF618400D
:1050300004F03AFF3248006820603248006860603F
:1050400010BD2DE9F04104460D463CB940F6CB3287
:10505000AFF65041AFF6404004F026FF3DB940F6B0
:10506000CC32AFF66041AFF6504004F01DFF00F0C7
:105070006CFF244807682868401C08B9002619E01E
:105080001F4920680968884204D06068B84201D886
:1050900001260FE06068381A2968884209D228681A
:1050A0006168791A401A28602046FFF7B8FF002689
:1050B00000E0012600F06CFF3046BDE8F0810120E1
:1050C0000E4908607047014611B10A46D06C00E0F5
:1050D000002070475C0000206C000020AC04002021
:1050E0006000002064000020680700207C0700208A
:1050F000940000207400002054070020800000204D
:10510000840000207000002008B10246D16470477E
:10511000FB4908687047FB49096809B9012005E0A7
:10512000F949096809B9022000E00020704770B50C
:1051300005462C46002D4BD0F149E06A0968C96A42
:10514000884245D2A06900F0004028B9EC480068C8
:10515000C06AC0F12000A061E16A01EB8101EB4A65
:1051600002EB81016069884201D1012000E000204A
:1051700050B3201DFEF794F878B9E06A00EB800088
:10518000E24951F8200040B994F82C1001208840E1
:10519000DF4909688143DE480160D9480068C06A78
:1051A000E06294F82C1001208840D949096808432E
:1051B000D7490860E16A01EB8101D44A02EB810022
:1051C000211DFEF747F803E0CD480068C06AE062A1
:1051D00070BD70B505462C460026002D4FD0C8483E
:1051E0000068844201D1012000E0002038B940F677
:1051F000C762AFF6F051AFF6E05004F055FE606DB7
:1052000038B940F6C962AFF60461AFF6F45004F065
:105210004BFE606D401E6065216DE06A88422ED0B5
:10522000606D60BB201DFEF73BF878B9E06A00EBCB
:105230008000B64951F8200040B994F82C100120A4
:105240008840B34909688143B1480160206DE0623C
:10525000E06AC0F12000A06194F82C100120884081
:10526000AB4909680843AA490860E16A01EB81017A
:10527000A64A02EB8100211DFDF7ECFF0126304616
:1052800070BD70B505460E463146284604F0ABFFAA
:10529000284604F0D7FF044602E020202855641C6D
:1052A000132CFAD300202855281970BD7FB5054668
:1052B000002028709748006803909649096801EB20
:1052C000C101880000F04DFF0446002C53D000229D
:1052D00020460399FFF775FD03900020029043E0FC
:1052E000029800EBC00004EB8000007B012806D090
:1052F000022806D0032806D0042808D105E052264B
:1053000007E0422605E0532603E0442601E000269C
:1053100000BF00BF029800EBC00004EB80004168B2
:105320002846FFF7AEFF0546029800EBC00004EBED
:1053300080008068029901EBC10104EB8101098CB6
:10534000CDE90010029800EBC00004EB800032466B
:1053500071A10369284604F0B3FD284604F072FFEA
:1053600005440298401C0290DDE902018842B7D34F
:10537000204600F079FF7FBD61490968886960496E
:105380000968C96AC1F120015D4A126891617047DC
:105390005B48006830B15A49096801F15400496D11
:1053A000491C016056480068704770B506460D46B6
:1053B00000F0CBFD52480068806D88B9012050494B
:1053C000096881F85C005DB101212846FFF7A7F864
:1053D0004FF0805054490860BFF34F8FBFF36F8F79
:1053E00000F0D6FD00F0B1FD45480068846D4CB179
:1053F00026B1002042490968886503E0601E4049E3
:105400000968886500203E49096881F85C0000F061
:10541000BFFD204670BD2DE9F04107468846144681
:105420001D4600F092FD3648006890F85C000228A6
:1054300018D03349096801F15800896DB9430160FA
:1054400001202F49096881F85C005DB101212846DF
:10545000FFF765F84FF0805033490860BFF34F8F76
:10546000BFF36F8F00F094FD00F06FFD1CB1244876
:105470000068806D20602248006890F85C00012878
:1054800001D1002608E01E49096801F15800896D24
:1054900021EA08010160012600201949096881F804
:1054A0005C0000F075FD3046BDE8F0812DE9F04765
:1054B00006460D46174698464FF0010A36B941F2A6
:1054C000FD021A4901F1140004F0EEFC344600F02C
:1054D0003CFDB8F1000F02D0A06DC8F8000094F8B0
:1054E0005C90022084F85C00052F30D2DFE807F0E2
:1054F0002E0320242600A06D2843A06527E000008D
:105500005C0000207800002094000020AC04002003
:10551000740000206C000020092563092575092509
:10552000750925750D0A000004ED00E0044400082B
:10553000A06D401CA0650AE0A56508E0B9F1020F66
:1055400001D0A56501E04FF0000A00E000BF00BFF8
:10555000B9F1010F2FD1201DFDF7A2FE94F82C10F8
:10556000012088409B49096808439A490860E16A1C
:1055700001EB8101984A02EB8100211DFDF76AFED3
:10558000A06A08B9012000E0002030B941F23512CC
:10559000924901F1140004F087FC9149E06A09681E
:1055A000C96A884207D94FF080508E490860BFF31E
:1055B0004F8FBFF36F8F00F0EBFC5046BDE8F087D4
:1055C0002DE9F84F07460E4690469946DDF828B07B
:1055D0000120009037B941F26812804901F11400AE
:1055E00004F062FC00F004FD3C4600BF3021EFF304
:1055F000118081F31188BFF34F8FBFF36F8F00BF0E
:105600000546B9F1000F02D0A06DC9F8000094F86A
:105610005CA0022084F85C00B8F1050F17D2DFE827
:1056200008F01503070B0D00A06D3043A0650EE0D8
:10563000A06D401CA0650AE0A66508E0BAF1020F63
:1056400001D0A66501E00020009000E000BF00BF8F
:10565000BAF1010F3AD1A06A08B9012000E0002098
:1056600030B941F2AF125D4901F1140004F01CFCA5
:105670005D480068A8B9201DFDF712FE94F82C10B3
:105680000120884053490968084352490860E16A8B
:1056900001EB8101504A02EB8100211DFDF7DAFD8B
:1056A00004E004F118015148FDF7D4FD4C49E06ACB
:1056B0000968C96A884209D9BBF1000F03D00120EB
:1056C000CBF8000002E001204949086000BF85F3E3
:1056D000118800BF0098BDE8F88F2DE9F04105461C
:1056E0000F4635B941F2E3123C4901F1140004F0D0
:1056F000DBFB00F07DFC2C4600BF3021EFF3118076
:1057000081F31188BFF34F8FBFF36F8F00BF064641
:1057100094F85C80022084F85C00A06D401CA065B9
:10572000B8F1010F37D1A06A08B9012000E00020CC
:1057300030B941F20922294901F1140004F0B4FB07
:1057400029480068A8B9201DFDF7AAFD94F82C107F
:10575000012088401F49096808431E490860E16A22
:1057600001EB81011C4A02EB8100211DFDF772FD56
:1057700004E004F118011D48FDF76CFD1849E06ACA
:105780000968C96A884206D917B10120386002E069
:1057900001201749086000BF86F3118800BFBDE8EB
:1057A000F08170B5054615B90D48006800E028463F
:1057B000064600F0CAFB96F85C00022804D10020DF
:1057C00086F85C00012400E0002400F0E1FB2046A4
:1057D00070BD000074000020AC04002004440008E8
:1057E0005C00002004ED00E094000020540700203D
:1057F000800000202DE9F04104460D4616461F4664
:105800004FF0000865602461B5420CD8F01BA16917
:10581000884202D34FF0010811E0211DF7480068CB
:10582000FDF724FD0BE0BE4204D2BD4202D34FF08F
:10583000010804E0211DF2480068FDF717FD40460D
:10584000BDE8F0812DE9FF4704460D4616461F4688
:10585000DDF830804FF000092CB94FF4D372E9A184
:10586000EEA004F021FBF148006810B3009501960A
:105870000294062D15DAFFF74EFC022808D100230A
:1058800042466946E9480068FDF774FE814610E02B
:1058900000231A466946E5480068FDF76BFE81461D
:1058A00007E000233A466946E0480068FEF7CCF876
:1058B0008146484604B0BDE8F0872DE9F8432DE065
:1058C000CF480068C0680568CD480068C068C468F3
:1058D000201DFDF7E5FC2046616A8847E069012844
:1058E0001CD1A0694619AE4207D966602461211D0A
:1058F000C3480068FDF7BAFC10E0002003462A46C2
:10590000014600902046FFF79DFF07462FB940F261
:105910009232BCA1C1A004F0C7FA00BFB848006829
:10592000006808B9012000E000200028C8D0B44871
:10593000D0F80080B1480068B1490860AF48C0F8AD
:105940000080BDE8F88370B50446FFF77AF9054694
:10595000B7480068854204D2FFF7AFFF01202060FE
:1059600001E000202060B2480560284670BDF0B517
:1059700087B070E0039800280CDA04AE2EB940F22C
:10598000E722A0A1A5A004F08FFAD6E90020B16813
:10599000904700BF039800285DDB059C606908B94B
:1059A000012000E0002010B9201DFDF779FC02A8BD
:1059B000FFF7C9FF054603980A284AD2DFE800F03E
:1059C0000905072C2E4506082D2F00BF00BF00BF7C
:1059D00000BF0498A269811803462A462046FFF7B3
:1059E00009FFC0B12046616A8847E069012812D1E9
:1059F000002000900498A16942180023194620460F
:105A0000FFF720FF07462FB940F221327DA183A086
:105A100004F04AFA00BF1DE000BF1BE000BF04987D
:105A2000A061A06908B1012000E0002028B94FF46E
:105A30004E7274A179A004F037FAA06941192B467F
:105A40002A462046FFF7D6FE04E0204600F00CFC74
:105A500000E000BF00BF00231A4603A97348006896
:105A6000FDF7CEFE002885D107B0F0BDF8B505469C
:105A70000F4663480068C068C468201DFDF710FC2D
:105A8000E069012818D1A06941192B463A46204601
:105A9000FFF7B0FE80B1002003462A460146009081
:105AA0002046FFF7CFFE06462EB94FF4027255A1ED
:105AB0005AA004F0F9F900BF2046616A8847F8BD92
:105AC000F8B505460C46FEF768FD6846FFF73BFF54
:105AD0000646009820BB44B9B54206D8FEF7B2FC92
