:020000040800F2
:10000000A80700209D170008F1020008F30200086D
:10001000F7020008FB020008FF02000800000000D1
:1000200000000000000000000000000003030008C2
:10003000050300080000000007030008090300088A
:10004000B7170008B7170008B7170008B717000858
:10005000B7170008B7170008B7170008B717000848
:10006000B7170008B7170008B7170008B717000838
:10007000B7170008B7170008B7170008B717000828
:10008000B7170008B7170008B7170008B717000818
:10009000B7170008B7170008B7170008B717000808
:1000A000B7170008B7170008B7170008B7170008F8
:1000B000B7170008B7170008B7170008B7170008E8
:1000C000B7170008B7170008B7170008B7170008D8
:1000D000B7170008B7170008B71700082F17000850
:1000E000B7170008B7170008B7170008B7170008B8
:1000F000B7170008B7170008B7170008B7170008A8
:10010000B7170008B7170008B7170008B717000897
:10011000B7170008B7170008B7170008B717000887
:10012000B7170008B7170008B7170008B717000877
:1001300000F002F800F03AF80AA090E8000C8244BF
:100140008344AAF10107DA4501D100F02FF8AFF29C
:10015000090EBAE80F0013F0010F18BFFB1A43F0A5
:1001600001031847C0260000E0260000103A24BF13
:1001700078C878C1FAD8520724BF30C830C144BF0C
:1001800004680C607047000000230024002500264E
:10019000103A28BF78C1FBD8520728BF30C148BFEA
:1001A0000B6070471FB51FBD10B510BD02F0FBFA04
:1001B0001146FFF7F7FF00F017F802F019FB03B440
:1001C000FFF7F2FF03BC01F051FA000008B5002070
:1001D000009004E09DF80000401CC0B200909DF823
:1001E00000000828F6DB08BD00244FF4407002F040
:1001F00079F801F0D1F94FF4165001F046FA00F009
:1002000075F900F00BFA00F07FFB01F0D3F801F074
:100210008DF90F212D4802F079FA0F212C4802F0B8
:1002200075FA00F06CFA804600BF05E018F804008B
:1002300028490855601C84B2032CF7DB2548407818
:10024000262800D100BF2448006802F040FA86B298
:100250002248006802F03BFA87B24FF480353246FC
:1002600029461D48006800F0AEFA3A461B4801686E
:10027000002000F0BAFB4FF47A7001F0CAF9FFF7E2
:10028000A5FF32462946114800F055FA3A46104972
:10029000002000F022FC124801F00DF914E04FF4A8
:1002A0007A7001F0B6F90F48006808B9012000E043
:1002B00000200C4908600C48D0F8800108B90120E2
:1002C00000E0002009490860E9E70000480000203C
:1002D000570000200800002000000020040000203B
:1002E0000B000020A0812142000023428001234214
:1002F000704700BFFEE700BFFEE700BFFEE700BF9C
:10030000FEE7704770477047704700000CB500204B
:10031000019000906C48006840F480306A490860A1
:1003200000BF6948006800F4003000900198401C4C
:100330000190009818B90198B0F5A06FF1D162480A
:10034000006800F4003010B10120009001E00020AE
:1003500000900098012843D15C48006840F01000EC
:100360005A4908600846006820F003000860084603
:10037000006840F0020008605348406852494860F5
:100380000846406848600846406840F4806048601D
:100390000846406820F47C1048600846406840F4F5
:1003A000E81048600846006840F08070086000BFB0
:1003B0004548006800F000700028F9D042484068C5
:1003C00020F00300404948600846406840F00200C1
:1003D000486000BF3C48406800F00C000828F9D194
:1003E0000CBD10B5FFF792FF10BD10B53648006880
:1003F00040F001003449086008464068344908402C
:100400003149486008460068324908402E49086072
:100410000846006820F4802008600846406820F400
:10042000FE0048604FF41F008860FFF7DAFF4FF0CE
:1004300000602949086010BD10B50021002000228D
:10044000214B5B6803F00C0121B1042906D0082977
:1004500028D107E0214B224C236027E01F4B204C82
:10046000236023E0184B5B6803F47010164B5B6845
:1004700003F48032022303EB904022B9194B43432B
:10048000174C23600DE0104B5B6803F4003323B17D
:10049000144B4343124C236003E0104B4343104C76
:1004A000236003E00D4B0E4C236000BF00BF064BE2
:1004B0005B68C3F303130C4CE15C094B1B68CB4036
:1004C000074C236010BD00000010024000200240D5
:1004D0000000FFF8FFFFF6FE08ED00E000127A00D2
:1004E0001400002000093D001800002008B501217B
:1004F000482001F08FFC4FF48070ADF80000102010
:100500008DF8030003208DF802006946094801F0C8
:10051000C5F94FF48071074801F06DFA0120ADF87C
:1005200000006946044801F0B9F90121024801F0D0
:1005300062FA08BD000C01400018014070B5054684
:10054000002405E0601CC4B2C82C01DD002070BD91
:1005500002212F4802F083F80028F3D029462C48C6
:1005600002F02AF8002405E0601CC4B2C82C01DDAA
:100570000020ECE70121264802F071F80028F3D0B2
:10058000234802F01BF8C0B2E1E708B5012141F2AF
:10059000040001F03FFCE020ADF8000018208DF8C9
:1005A000030003208DF8020069461A4801F076F92D
:1005B000E021184801F01FFA0020174908804FF485
:1005C00082704880002088800220C8800120088135
:1005D0004002488100208881C881072008820C4899
:1005E00001F014FF01210A4801F0B5FFFF20FFF7D9
:1005F000A5FF08BD10B5044607488481014604489C
:1006000001F004FF0121024801F0A5FF10BD000028
:1006100000300140000801406600002008B50121BB
:10062000142001F0F7FB1020ADF800008DF8030056
:1006300003208DF802006946AF4801F02FF9102021
:10064000ADF800008DF8030003208DF80200694624
:10065000AA4801F023F91021A74801F0CCF9102194
:10066000A64801F0C8F9FFF790FF0820FFF7C2FF86
:1006700008BD10B500240020A14908600520FFF73F
:100680005DFFFF20FFF75AFF044601209D49C1F896
:100690009001204610BD10B500BFFFF7EAFF00F043
:1006A00080000028F9D110BD70B504460025FFF781
:1006B000F2FF0020924908600120FFF73FFF20462B
:1006C000FFF73CFF01208F49C1F8900170BD10B5C4
:1006D00000208B4908600620FFF730FF0120894980
:1006E000C1F8900110BD10B50020854908600420B4
:1006F000FFF724FF01208349C1F8900110BD08B520
:1007000000207F4908609F20FFF718FFFF20FFF7B8
:1007100015FF8DF80000FF20FFF710FF8DF8010096
:10072000FF20FFF70BFF8DF8020001207549C1F88B
:100730009001684608BD2DE9F04106460C46174673
:10074000FFF7A9FF00206E4908600320FFF7F6FEBF
:10075000C4F30740FFF7F2FEC4F30720FFF7EEFEF5
:10076000E0B2FFF7EBFE002505E0FF20FFF7E6FE15
:100770007055681C85B2BD42F7DB012060490860F6
:10078000BDE8F0812DE9F0410446C4F30745C4F308
:100790000726E7B22846FFF7D1FE3046FFF7CEFE28
:1007A0003846FFF7CBFEBDE8F08170B504460D4634
:1007B00003E014F8010BFFF7C1FE281EA5F10101AB
:1007C0008DB2F6D170BD2DE9F04780460D46144636
:1007D000FFF761FFFFF77BFF002049490860022017
:1007E000FFF7ACFEB4F5807F18DCC5F30740FFF7D8
:1007F000A5FEC5F30720FFF7A1FEE8B2FFF79EFEB6
:100800004FF0000907E018F80900FFF797FE09F11B
:1008100001001FFA80F9A145F5DB2AE02046E11727
:1008200004EB1161C1F30727E11704EB1161091211
:10083000A4EB012101F0FF0A00260BE005EB0620E6
:10084000FFF7A0FF08EB06204FF48071FFF7ADFF24
:10085000701CC6B2BE42F1DBBAF1000F08D005EB46
:100860000720FFF78FFF08EB07205146FFF79DFF9A
:1008700000BF012022490860BDE8F08710B5FFF7EE
:1008800026FFFFF708FF00201D490860C720FFF77B
:1008900055FE01201B49C1F89001FFF7FCFE10BD79
:1008A00010B50446FFF713FFFFF7F5FE00201449CB
:1008B00008602020FFF742FEC4F30740FFF73EFE2A
:1008C000C4F30720FFF73AFEE0B2FFF737FE01203E
:1008D0000C49C1F89001FFF7DEFE10BD10B5FFF71F
:1008E000F6FE0020064908609820FFF727FE012049
:1008F0000449C1F8900110BD0008014000100140FA
:10090000900121420000214210B500F043F99848BF
:10091000006820F47000964908600846006840F4BA
:10092000401008602021924801F065F800209149AC
:10093000087010BDB0F5803F01D3000C00E000202E
:100940008C4A1070704770B504460D462046FFF77C
:10095000F1FFC4F310042021854801F04EF800F0A7
:1009600041F984490978A02242EA4101C8B200F065
:100970007BF9C4F3072000F077F9E0B200F074F9D6
:10098000284600F071F900F050F92021784801F074
:1009900032F870BD70B504462046FFF7CBFFC4F3B4
:1009A000100400F01FF973490978A02242EA4101BE
:1009B000C8B200F059F9C4F3072000F055F9E0B2CD
:1009C00000F052F900F00EF96A490978A02242EAD3
:1009D0004101491CC8B200F047F9112000F094F918
:1009E000054600F022F9284670BD2DE9F047824601
:1009F0000E4617465046FFF79DFFCAF3100505F057
:100A0000FF08C8F580782021594800F0F6FFB8F5B6
:100A1000807F1DD800F0E6F856490978A02242EA06
:100A20004101C8B200F020F9C5F3072000F01CF91D
:100A3000E8B200F019F9002407E0BC4200D306E058
:100A400016F8010B00F010F9641C4445F5D300BF03
:100A500000F0EBF80A2000F0DCFDA7EB080700240B
:100A6000A1462CE0CCB90AEB080000EB092528468A
:100A7000FFF760FFC5F3100500F0B4F83D490978B1
:100A8000A02242EA4101C8B200F0EEF8C5F3072007
:100A900000F0EAF8E8B200F0E7F816F8010B00F011
:100AA000E3F8641CFF2C09D9002409F1010000F0CF
:100AB000FF0900F0BAF80A2000F0ABFD7F1E002FFE
:100AC000D0DC24B100F0B1F80A2000F0A2FD202112
:100AD000274800F090FFBDE8F0872DE9F047054674
:100AE0000E4690462846FFF725FFC5F3100909F08A
:100AF000FF07C7F58077B7F5807F35D800F072F82B
:100B00001C490978A02242EA4101C8B200F0ACF8C1
:100B1000C5F3072000F0A8F8E8B200F0A5F800F04F
:100B200061F814490978A02242EA4101491CC8B27F
:100B300000F09AF8002414E0444500D313E0A8F133
:100B40000100A04202D0781EA04204D1112000F082
:100B5000DBF8307003E0102000F0D6F83070761C1F
:100B6000641CBC42E8D300BF00F05FF8BDE8F0872A
:100B7000000C01402800002008B50020009004E08F
:100B80009DF80000401CC0B200909DF800000828AD
:100B9000F6DB08BD08B50121082001F03BF9602013
:100BA000ADF8000010208DF8030003208DF802003E
:100BB00069467C4800F072FE8020ADF800001420E9
:100BC0008DF8030003208DF802006946754800F097
:100BD00065FE4021734800F00EFF8021714800F04F
:100BE0000AFF08BD10B56F48006820F070406D49DD
:100BF00008600846006840F040500860402169489D
:100C000000F0F9FE8021674800F0F5FEFFF7B4FF21
:100C10008021644800F0F1FEFFF7AEFF40216148FB
:100C200000F0EBFEFFF7A8FF10BD10B55D480068AF
:100C300020F070405B4908600846006840F0405072
:100C400008608021574800F0D8FEFFF795FF40214B
:100C5000544800F0D0FEFFF78FFF8021514800F08C
:100C6000CAFEFFF789FF10BD70B504464D48006805
:100C700020F070404B4908600846006840F0405042
:100C8000086000251BE004F0800020B98021454861
:100C900000F0B3FE03E08021424800F0ACFE4021AA
:100CA000404800F0A8FEFFF767FF40213D4800F0F4
:100CB000A4FEFFF761FF6006040E681CC5B2082D94
:100CC000E1DB3848006820F070403649086008468B
:100CD000006840F0004008604021324800F08BFE80
:100CE000FFF74AFF30480068C5B21DB120202F49E8
:100CF000087002E021202D4908704021294800F0A9
:100D00007CFEFFF739FF70BD2DE9F041054625480F
:100D1000006820F07040234908600846006840F0F1
:100D2000004008600024002615E06006040E402103
:100D30001C4800F060FEFFF71FFF1B480068C7B2A9
:100D40000FB144F001044021164800F056FEFFF7B1
:100D500013FF701CC6B2082EE7DB1248006820F0B3
:100D60007040104908600846006840F04050086034
:100D7000102D04D180210B4800F03FFE03E08021BC
:100D8000084800F038FE4021064800F034FEFFF726
:100D9000F3FE4021034800F030FEFFF7EDFE204651
:100DA000BDE8F081000C01401C8121422900002097
:100DB00008B50121402001F02DF80820ADF8000011
:100DC00003208DF8020010208DF803006946FE48CC
:100DD00000F064FD0420ADF8000003208DF802004F
:100DE00014208DF803006946F74800F057FD08BD50
:100DF00008B50420ADF8000003208DF8020048205B
:100E00008DF803006946F04800F048FD08BD08B5BC
:100E10000420ADF8000003208DF8020014208DF8A6
:100E200003006946E84800F039FD08BD10B5FFF73A
:100E3000BFFF10BD08B50020009004E09DF8000041
:100E4000401CC0B200909DF800000828F6DB08BDE9
:100E500010B5FFF7DCFF0421DB4800F0CCFD0821D2
:100E6000D94800F0C8FDFFF7E5FF0421D64800F09F
:100E7000A8FD10B94FF0FF3010BD0421D24800F09A
:100E8000BCFDFFF7D7FF02E04FF0FF30F4E704218D
:100E9000CD4800F096FD0028F6D10821CA4800F0A0
:100EA000ACFDFFF7C7FF0020E6E710B5FFF7AFFF87
:100EB0000421C54800F0A1FD0821C34800F09DFDB4
:100EC000FFF7B8FF0821C04800F095FDFFF7B2FF1B
:100ED0000421BD4800F08FFD10BD10B5FFF797FF4E
:100EE0000421B94800F089FD0821B74800F085FDCC
:100EF000FFF7A0FF0821B44800F07DFDFFF79AFF3F
:100F00000821B14800F079FD10BD10B5FFF77FFF53
:100F10000421AD4800F06FFD0821AB4800F06DFDE5
:100F2000FFF788FF0821A84800F065FDFFF782FF62
:100F30000821A54800F061FD10BD10B5FF2408216F
:100F4000A14800F05AFD04219F4800F054FDFFF72E
:100F50004FFFFFF76FFF08219B4800F04CFDFFF7A4
:100F600069FF09E0601EC4B234B90821964800F058
:100F700044FD4FF0FF3010BD0421934800F021FDE7
:100F80000028EFD10821904800F037FD0020F2E75B
:100F900038B50446082522E008218B4800F02DFDD5
:100FA0000520009002E00098401E00900098002864
:100FB000F9DC04F0800020B10421834800F01BFD1F
:100FC00003E00421804800F018FDFFF733FF0821FB
:100FD0007D4800F010FDFFF72DFF6006040E281E6F
:100FE000A5F10101CDB2D7D10821774800F005FD68
:100FF00038BD70B5002408250421734800F0FBFCBF
:1010000018E06006040E08216F4800F0F6FCFFF7B8
:1010100011FFFFF70FFF08216B4800F0ECFCFFF712
:1010200009FFFFF707FF0421674800F0CAFC08B179
:1010300044F00104281EA5F10101CDB2E1D108213F
:10104000614800F0DAFC204670BD70B50546FFF738
:10105000FFFE10B14FF0FF3070BD6520FFF798FF25
:10106000FFF76BFF20B1FFF720FF4FF0FF30F3E7F2
:10107000002408E0FFF7BDFF2855062C01D0FFF73C
:101080002CFF601CC4B2072CF4DBFFF73EFFFFF718
:101090000CFF0020E0E710B5FFF7DAFE10B14FF0CB
:1010A000FF3010BD6420FFF773FFFFF746FF20B14C
:1010B000FFF7FBFE4FF0FF30F3E7FFF7A8FE0F202E
:1010C000FFF766FFFFF739FFFFF7A1FE0020FFF7EC
:1010D0005FFFFFF732FFFFF79AFE0020FFF758FF90
:1010E000FFF72BFFFFF7E1FE0020DAE710B5FFF76F
:1010F000AFFE10B14FF0FF3010BD6420FFF748FF86
:10110000FFF71BFF20B1FFF7D0FE4FF0FF30F3E7F2
:10111000FFF77DFE1020FFF73BFFFFF70EFFFFF705
:1011200076FE8020FFF734FFFFF707FFFFF7BDFED5
:10113000FFF78EFE6420FFF72BFFFFF7FEFEFFF7A1
:1011400066FE0F20FFF724FFFFF7F7FEFFF75FFEB5
:101150008420FFF71DFFFFF7F0FEFFF7A6FE00203B
:10116000CAE770B50446FFF7C1FFFFF771FE10B183
:101170004FF0FF3070BD6420FFF70AFFFFF7DDFE80
:1011800020B1FFF792FE4FF0FF30F3E7FFF73FFE8D
:101190000020FFF7FDFEFFF7D0FEFFF738FE2078B6
:1011A0000A2190FBF1F201FB120021780A2291FB47
:1011B000F2F140EA0110C5B22846FFF7E9FEFFF759
:1011C000BCFEFFF724FE01E00018014060780A2110
:1011D00090FBF1F201FB120061780A2291FBF2F11F
:1011E00040EA0110C5B22846FFF7D2FEFFF7A5FE80
:1011F000FFF70DFEA0780A2190FBF1F201FB12002F
:10120000A1780A2291FBF2F140EA0110C0B240F04D
:1012100080052846FFF7BCFEFFF78FFEFFF7F7FDBE
:10122000E0780A2190FBF1F201FB1200E1780A223A
:1012300091FBF2F140EA0110C5B22846FFF7A8FE83
:10124000FFF77BFEFFF7E3FD20790A2190FBF1F227
:1012500001FB120021790A2291FBF2F140EA011010
:10126000C5B22846FFF794FEFFF767FEFFF7CFFDF4
:1012700060790A2190FBF1F201FB120061790A22E8
:1012800091FBF2F140EA0110C5B22846FFF780FE5B
:10129000FFF753FEFFF7BBFDA0790A2190FBF1F2A7
:1012A00001FB1200A1790A2291FBF2F140EA011040
:1012B000C5B22846FFF76CFEFFF73FFEFFF7F5FDCE
:1012C000FFF7C6FD6420FFF763FEFFF736FEFFF76A
:1012D0009EFD1220FFF75CFEFFF72FFEFFF797FD44
:1012E0000020FFF755FEFFF728FEFFF7DEFDFFF7B2
:1012F000D2FE00203EE710B504462046FFF7A5FECB
:1013000010B14FF0FF3010BD207800F00F002178B1
:10131000C1F3021101EB810100EB41002070607804
:1013200000F00F006178C1F3021101EB810100EBC5
:1013300041006070A07800F00F00A178C1F30211A5
:1013400001EB810100EB4100A070E07800F00F009C
:10135000E178C1F3021101EB810100EB4100E07083
:10136000207900F00F002179C1F3021101EB810116
:1013700000EB41002071607900F00F006179C1F34A
:10138000021101EB810100EB41006071A07900F0D6
:101390000F00A179C1F3021101EB810100EB4100C3
:1013A000A0710020AFE710B504462046FFF7D9FE34
:1013B00010BD00001CB5012051490860FFF736FD43
:1013C00000208DF800008DF801008DF802008DF8E6
:1013D000030001208DF804008DF805000A208DF827
:1013E00006006846FFF7DFFF1CBD014608783C2871
:1013F00002DB4FF0FF30704748783C2802DB4FF0AB
:10140000FF30F8E78878182802DB4FF0FF30F2E76A
:1014100008791F2802DD4FF0FF30ECE748790C28EF
:1014200002DD4FF0FF30E6E70020E4E7014605E08B
:1014300008783C3808704878401C487008783C2888
:10144000F6DA05E048783C3848708878401C8870A7
:1014500048783C28F6DA05E08878183888700879EA
:10146000401C087188781828F6DA05E008791F38DA
:1014700008714879401C487108791F28F6DC05E09E
:1014800048790C3848718879401C887148790C2853
:10149000F6DC0020704710B504462046FFF783FFB6
:1014A00038B12046FFF77FFF18B1002014490860CB
:1014B00010BD0120FCE770B50546002400BF28469A
:1014C000FFF719FF30B12846FFF715FF10B10020D4
:1014D0000B490860601CC4B22846FFF786FF08B1BC
:1014E000042CECDB042C04D12846FFF79FFF0020DE
:1014F00070BD0120FCE702468B7903F5FA60704766
:101500002C00002008B50121042000F083FC4FF4DA
:101510008050ADF8000003208DF8020014208DF8F3
:1015200003006946194800F0B9F908BD10B5FFF786
:10153000E9FF01201649086010BD70472DE9F04110
:1015400005460C46002616E04FF480510F4800F087
:1015500054FA1048B0FBF4F7384600F036F84FF470
:1015600080510A4800F047FA0A48B0FBF4F73846C1
:1015700000F02BF8761C05FB04F04FF4FA61B0FB89
:10158000F1F0B042E0D8BDE8F08100000008014071
:10159000B001214240420F0010B56FF0040000F08E
:1015A000F0FE2E4800682E49B0FBF1F02D4908707E
:1015B0000846007800EB4001C1EBC0104FF6FF7108
:1015C00001EAC0002849088010BD0146254A12786A
:1015D0004A434FF0E0235A6100229A611A46126989
:1015E00042F001021A6100BF4FF0E022106900F0E2
:1015F00001021AB100F48032002AF5D04FF0E02247
:10160000126922F001024FF0E0231A6100229A6170
:1016100070470146144A12884A434FF0E0235A614A
:1016200000229A611A46126942F001021A6100BF53
:101630004FF0E022106900F001021AB100F480328C
:10164000002AF5D04FF0E022126922F001024FF09B
:10165000E0231A6100229A61704700001400002004
:1016600000127A003000002032000020014600BF46
:10167000704700BF444A128802F04002002AF9D0A5
:10168000C2B2414B1B1D1A80704710B586B004468C
:1016900001213E4800F0BEFB4FF48070ADF814000D
:1016A00003208DF8160018208DF8170005A938487A
:1016B00000F0F4F84FF40070ADF8140004208DF839
:1016C000170005A9324800F0E9F827208DF800003E
:1016D00003208DF8010000208DF8020001208DF814
:1016E0000300684600F003FE01940020ADF80800F6
:1016F000ADF80A00ADF80C00ADF810000C20ADF804
:101700000E0001A9234800F02CFC012240F22551D3
:10171000204800F0BEFC012240F224411D4800F0A8
:10172000B8FC01211B4800F0A8FC06B010BD10B5A4
:1017300040F22551174800F091FD60B1154800F0C6
:101740000DFDC1B2144802780078401C124B18708D
:10175000181D815415E040F224410E4800F07EFD32
:1017600078B140F224410B4800F0A2FD094800F096
:10177000F5FC012008498870084600784870002070
:10178000087010BD04487047003801402000040074
:1017900000080140004800407800002009488047C8
:1017A00009480047FEE7FEE7FEE7FEE7FEE7FEE743
:1017B000FEE7FEE7FEE7FEE704480549054A064B5B
:1017C00070470000EB03000831010008A801002069
:1017D000A8070020A8030020A803002010B5044695
:1017E000CC48844208D10121042000F02DFB0021C7
:1017F000042000F029FB46E0C748844208D10121BB
:10180000082000F021FB0021082000F01DFB3AE039
:10181000C248844208D10121102000F015FB0021AC
:10182000102000F011FB2EE0BD48844208D10121B8
:10183000202000F009FB0021202000F005FB22E021
:10184000B848844208D10121402000F0FDFA00216F
:10185000402000F0F9FA16E0B348844208D1012193
:10186000802000F0F1FA0021802000F0EDFA0AE07B
:10187000AE48844207D10121801500F0E5FA00212D
:10188000A01500F0E1FA10BD10B50121084600F0E6
:10189000DBFA0021012000F0D7FA10BD2DE9F0415C
:1018A000024600250026002000230024002791F88E
:1018B00003C00CF00F0591F803C00CF0100CBCF144
:1018C000000F03D091F802C04CEA050591F800C062
:1018D000BCF1000F31D0146800202BE04FF0010C58
:1018E0000CFA00F3B1F800C00CEA03069E4220D1C6
:1018F00083004FF00F0C0CFA03F7BC4305FA03FC0E
:101900004CEA040491F803C0BCF1280F06D14FF053
:10191000010C0CFA00FCC2F814C00AE091F803C0F4
:10192000BCF1480F05D14FF0010C0CFA00FCC2F8D5
:1019300010C0401C0828D1D31460B1F800C0BCF11D
:10194000FF0F34DD546800202EE000F1080C4FF04A
:10195000010808FA0CF3B1F800C00CEA03069E4235
:1019600021D183004FF00F0C0CFA03F7BC4305FAAA
:1019700003FC4CEA040491F803C0BCF1280F05D124
:1019800000F1080C08FA0CF8C2F8148091F803C0B2
:10199000BCF1480F07D100F1080C4FF0010808FA1C
:1019A0000CF8C2F81080401C0828CED35460BDE863
:1019B000F0814FF6FF710180022181700421C17016
:1019C00070470246002093680B400BB1012000E0F5
:1019D000002070470146886880B2704702460020A8
:1019E000D3680B400BB1012000E000207047014696
:1019F000C86880B2704701617047416170470AB1A1
:101A0000016100E041617047C16070474FF480326E
:101A10000A438261816182618269826970470246FC
:101A20000020434B18684FF68073184040EA0210BC
:101A300008433F4B186070473E49C8617047F0B596
:101A40000A46002300240021002500F00046B6F1DC
:101A5000004F02D1364EF16901E0354E7168C0F396
:101A6000034583B200F44016B6F5401F08D121F0BB
:101A700070612F4E766826F070662D4F7E6012E002
:101A800000F48016B6F5801F06D1032606FA05F489
:101A9000A14341F0706106E0460D360103FA06F6F7
:101AA000B14341F0706122B1460D360103FA06F6EA
:101AB000314300F00046B6F1004F02D11C4EF161F7
:101AC00001E01B4E7160F0BD30B500228B071C0F8A
:101AD0000F2303FA04F2164B08338C1053F824300A
:101AE0009343134C08348D1044F8253023468C1052
:101AF00053F824308C07240F00FA04F423430C4CD1
:101B000008348D1044F8253030BD0A49DC310860B6
:101B10007047000000080140000C01400010014027
:101B20000014014000180140001C01400020014049
:101B30000000014000002042DF48006840F0010042
:101B4000DD49086008464068DC490840DA494860D9
:101B500008460068DA490840D74908600846006826
:101B600020F4802008600846406820F4FE004860A9
:101B70004FF41F0088607047CF49096821F4803115
:101B8000CD4A11601146096821F480211160B0F539
:101B9000803F03D0B0F5802F0ED106E0C64909681A
:101BA00041F48031C44A116007E0C349096841F437
:101BB000A021C14A116000E000BF00BF704710B50E
:101BC00001460022002300204A11012A02D1BA4C0A
:101BD000236806E0022A02D1B74C236A01E0B64C22
:101BE000636A01F01F02012494401C400CB10120E3
:101BF00000E0002010BD38B5002000900024002532
:101C000000BF3120FFF7DBFF05460098401C009025
:101C10000098B0F5A06F01D0002DF2D03120FFF771
:101C2000CEFF08B1012400E00024204638BD014663
:101C30000020A14A106820F0F80040EAC1001060BE
:101C40007047A04908607047024600209A4B5868C8
:101C500020F47C1042EA01031843974B5860704708
:101C600098490866704701460020934A506820F062
:101C700003000843506070478F48406800F00C0034
:101C80007047014600208C4A506820F0F00008435D
:101C90005060704701460020874A506820F4E06099
:101CA00008435060704701460020834A506820F482
:101CB000605040EAC1005060704729B17E4A527AB4
:101CC00002437D4B5A7204E07B4A527A82437A4B3C
:101CD0005A7270477B49D83108607047014600202E
:101CE000754A506820F44040084350607047002116
:101CF000714A20321170704A82F82010012802D0F7
:101D000004280AD104E001216B4A2032117005E059
:101D10000521694A2032117000E000BF00BF704702
:101D20006949086070476449096A0143624A11625F
:101D30007047654944390860704730B5002100227A
:101D4000002400235C4D6D6805F00C0121B10429CD
:101D500005D0082923D105E05C4D056022E05B4DEC
:101D600005601FE0544D6D6805F47012524D6D68AA
:101D700005F48034022505EB92421CB9544D5543BD
:101D800005600BE04C4D6D6805F400351DB1504DFC
:101D90005543056002E04D4D5543056002E04B4D53
:101DA000056000BF00BF444D6D6805F0F0010909F2
:101DB000484D6B5C0568DD4045603F4D6D6805F43E
:101DC000E061090A434D6B5C4568DD4085603A4D32
:101DD0006D6805F46051C90A3E4D6B5C4568DD4095
:101DE000C560354D6D6805F44041890B3A4D6B5C1B
:101DF000C568B5FBF3F5056130BD29B12E4A5269BE
:101E000002432D4B5A6104E02B4A526982432A4B0C
:101E10005A61704729B1284A92690243264B9A6158
:101E200004E0254A92698243234B9A61704729B1A5
:101E3000214AD2690243204BDA6104E01E4AD2698A
:101E400082431D4BDA61704729B11B4AD2680243B5
:101E5000194BDA6004E0184AD2688243164BDA6004
:101E6000704729B1144A12690243134B1A6104E006
:101E7000114A12698243104B1A6170471249403966
:101E8000086070470F49C86470470B49C8717047B4
:101E90000948406A40F0807007494862704701462F
:101EA0000020054A92680A400AB1012000E00020A3
:101EB0007047014988727047001002400000FFF827
:101EC000FFFFF6FE000042428004424200127A0008
:101ED00000093D00340000204400002010B50446F5
:101EE000FB48844209D101218803FFF7ADFF00219F
:101EF0004FF48040FFF7A8FF32E0F648844209D152
:101F000001214804FFF7ADFF00214FF40030FFF737
:101F1000A8FF25E0F048844209D101218804FFF799
:101F2000A0FF00214FF48020FFF79BFF18E0EB4853
:101F3000844209D10121C804FFF793FF00214FF427
:101F40000020FFF78EFF0BE0E548844208D1012115
:101F50000805FFF786FF00214FF48010FFF781FF8F
:101F600010BD2DE9F04786B005460E460024A24676
:101F700000BFA1460027B08900B100BF2F462C8AC0
:101F80004CF6FF700440F08804432C82AC894EF676
:101F9000F3100440B0883189084371890843044331
:101FA000AC81AC8A4FF6FF400440B0890443AC8258
:101FB00001A8FFF7C2FEC648874202D1DDF810A093
:101FC00001E0DDF80CA0A88900F4004040B10AEB64
:101FD000CA0000EB0A1031684900B0FBF1F807E0D5
:101FE0000AEBCA0000EB0A1031688900B0FBF1F877
:101FF0006420B8FBF0F004012009642101FB108982
:10200000A88900F4004040B1322000EBC900B0FBC9
:10201000F1F000F00700044308E0322000EB091063
:102020006421B0FBF1F000F00F0004432C8106B0F6
:10203000BDE8F0874FF41651016000218180C18016
:1020400001810C21418100218181704710B5024638
:102050000020108A4FF2FF0318400B884C8823435E
:102060008C882343CC8823431843108210BD002161
:10207000018041808180C180704721B1828942F412
:102080000052828104E082894DF6FF731A408281FA
:102090007047F0B50346002400260025002040F6D6
:1020A0006A17B94200D100BF1846C1F3421401F0CB
:1020B0001F06012707FA06F5012C01D10C3004E0B8
:1020C000022C01D1103000E014301AB107682F4300
:1020D000076002E00768AF430760F0BD1AB1838A6A
:1020E0000B43838202E0838A8B4383827047028A98
:1020F0004FF6F0731A400282028A0A430282704746
:1021000082894FF2FF731A40828182890A43828159
:10211000704721B1828942F00202828104E0828903
:102120004FF6FD731A4082817047028A4FF6DF73C3
:102130001A400282028A0A430282704721B1028A4F
:1021400042F48042028204E0028A4BF6FF731A4096
:1021500002827047C1F30802828070470146888876
:10216000C0F308007047818941F001018181704707
:10217000028BD2B20283028B42EA012202837047B1
:10218000028B02F47F420283028B0A430283704770
:1021900021B1828A42F02002828204E0828A4FF6D4
:1021A000DF731A408282704721B1828A42F01002A6
:1021B000828204E0828A4FF6EF731A40828270476F
:1021C00021B1828A42F00802828204E0828A4FF6BC
:1021D000F7731A408282704721B1828942F400422B
:1021E000828103E08289C2F30E028281704721B1AD
:1021F000828A42F40062828204E0828A4FF2FF7394
:102200001A4082827047828A4FF6FB731A4082829C
:10221000828A0A438282704721B1828A42F0020296
:10222000828204E0828A4FF6FD731A4082827047F0
:1022300002460020B1F5007F00D100BF13880B409B
:102240000BB1012000E00020704701F40072B2F5EC
:10225000007F00D100BFCA430280704770B50246BC
:10226000002400230025002040F66A16B14200D168
:1022700000BFC1F3421501F01F03012606FA03F364
:10228000012D02D19689334006E0022D02D1168A33
:10229000334001E0968A33400C12012606FA04F41A
:1022A0001688344013B10CB1012000E0002070BD4D
:1022B00010B50022002340F66A14A14200D100BFED
:1022C0000A1201249440A3B2DC43048010BD000034
:1022D000003801400044004000480040004C0040ED
:1022E0000050004031490143314A1160704770B5D8
:1022F000002100230F22C47804B32D4C246804F479
:10230000E064C4F5E064210AC1F10403CA404478E2
:1023100004FA03F18478144021430901254C06781E
:10232000A155047804F01F050124AC4005786D1117
:10233000AD0005F1E025C5F8004109E0047804F09E
:102340001F050124AC401C4D0678761145F8264047
:1023500070BD1A4A0A400243154B1B1F1A60704792
:1023600039B1134A121D12680243114B1B1D1A602A
:1023700006E00F4A121D126882430D4B1B1D1A60A6
:102380007047042808D14FF0E021096941F00401A9
:102390004FF0E022116107E04FF0E021096921F0E0
:1023A00004014FF0E0221161704700000000FA05BF
:1023B0000CED00E000E400E080E100E080FFFF1FA2
:1023C00010B50446BE48844208D101218014FFF7AD
:1023D0003BFD0021A014FFF737FD16E0B948844209
:1023E00008D101210014FFF73CFD00212014FFF764
:1023F00038FD0AE0B448844207D10121C013FFF739
:1024000030FD0021E013FFF72CFD10BD10B50022B8
:10241000028802F441520B884C8823438C88234362
:10242000CC8823430C8923434C8923438C89234341
:10243000CC8923431A430280838B4FF2FF742340DD
:1024400083830B8A038210BD2DE9F04F85B00546CA
:102450000C464FF0000902274FF000084FF0010B27
:102460000026B246A88B4FF240010840A883022004
:102470002884B5F81C90A068022801D100BF38E07C
:10248000A08810B94FF0010B01E04FF0020B8D480E
:10249000854200D100E000BF6846FFF74EFCDDF842
:1024A00000A0E088B0F5007F0AD14FEA1A2000EBC7
:1024B00080004000A168B0FBF1F0401D86B20BE047
:1024C0004FEA4B10BAFBF0F000EB80004000A1682F
:1024D000B0FBF1F0401D86B20A20B6FBF0F606F024
:1024E0000108A6EB0800C0F34F074FF6FF7000EAA3
:1024F0000828022F01DBFF2F02DD02274FF0000822
:10250000E08840EA080038432884A088A18908436D
:10251000618808432188084340F4006040EA0909C3
:10252000A5F81C9005B0BDE8F08F00210180418026
:102530008180C180018141818181C1810721018226
:1025400070470021018041808180C180022181602B
:1025500000218181704721B1028842F0400202804F
:1025600004E002884FF6BF731A400280704721B121
:10257000828B42F48062828304E0828B4FF6FF33C9
:102580001A408283704730B5002400230C110125C6
:10259000A540ABB21AB185881D43858002E08588CD
:1025A0009D43858030BD1AB183880B43838002E050
:1025B00083888B4383807047818170470146888977
:1025C00070474FF6FF62914204D0028842F4807255
:1025D000028004E002884FF6FF631A4002807047D1
:1025E00021B1828842F00402828004E082884FF6A2
:1025F000FB731A408280704702884FF2FF731A40C3
:10260000028002880A4302807047018841F48051A9
:102610000180704721B1028842F40052028004E038
:1026200002884DF6FF731A40028070470246002070
:10263000012901D0108B00E0908A70470146088A7A
:102640007047B1F5804F04D1028842F48042028085
:1026500004E002884BF6FF731A400280704702467E
:10266000002013890B400BB1012000E000207047CF
:10267000CA4302817047F0B50246002000240023BF
:10268000002501F00F070126BE40B4B20B11012650
:102690009E40B3B2968806EA03051689264016B115
:1026A0000DB1012000E00020F0BD10B5002201F0C6
:1026B0000F040123A3409AB2D343038110BD00004D
:1026C0000030014000380040003C0040704710B529
:1026D000431C02E010F8011B71B18107FAD14FF0E1
:1026E000013202C88C1A8C4314EAC211F9D0C01A04
:1026F0000A0603D0C01E10BDC01A10BD0A0401D0C6
:10270000801E10BD0902FCD0401E10BD4FF000021B
:102710000429C0F0128010F0030C00F01F80CCF1EF
:10272000040CBCF1020F18BF00F8012BA8BF20F861
:10273000022BA1EB0C0100F011B85FEAC17C24BFB1
:1027400000F8012B00F8012B48BF00F8012B70475F
:1027500070477047704770474FF0000200B513464E
:1027600094469646203922BFA0E80C50A0E80C50B1
:10277000B1F12001BFF4F7AF090728BFA0E80C5062
:1027800048BF0CC05DF804EB890028BF40F8042B5B
:1027900008BF704748BF20F8022B11F0804F18BFC8
:1027A00000F8012B7047754600F02CF8AE46050086
:1027B0006946534620F00700854618B020B5FEF75D
:1027C000FBFFBDE820404FF000064FF000074FF040
:1027D00000084FF0000B21F00701AC46ACE8C0093F
:1027E000ACE8C009ACE8C009ACE8C0098D46704748
:1027F00010B50446AFF300802046BDE81040FDF759
:10280000DEBC000000487047440100204D696E693D
:1028100053544D333200000049494320544553542A
:1028200000000000442800080000002048000000CC
:102830006C0100088C280008480000206007000098
:10284000880100080C280008182800080000000073
:10285000000000000000000000A24A040000000088
:102860000000000001020304060708090000000040
:10287000000000000000000000000000010203044E
:0C28800001020304060708090204060810
:0400000508000131BD
:00000001FF
