:020000040800F2
:100000009821002009180008490200084B02000846
:1000100073020008770200087B020008000000005D
:100020000000000000000000000000007F02000847
:100030008102000800000000830200087F1600080B
:1000400023180008231800082318000823180008A4
:100050002318000823180008231800082318000894
:100060002318000823180008231800082318000884
:100070002318000823180008231800082318000874
:100080002318000823180008231800082318000864
:100090002318000823180008231800082318000854
:1000A0002318000823180008231800082318000844
:1000B0002318000823180008231800082318000834
:1000C0002318000823180008231800082318000824
:1000D00023180008731300082318000823180008C9
:1000E0002318000823180008231800082318000804
:1000F00023180008231800082318000823180008F4
:1001000023180008231800082318000823180008E3
:1001100023180008231800082318000823180008D3
:1001200023180008231800082318000823180008C3
:1001300000F002F800F042F80AA090E8000C8244B7
:100140008344AAF10107DA4501D100F037F8AFF294
:10015000090EBAE80F0013F0010F18BFFB1A43F0A5
:10016000010318474819030068190300103A24BF17
:1001700078C878C1FAD8520724BF30C830C144BF0C
:1001800004680C607047000000230024002500264E
:10019000103A28BF78C1FBD8520728BF30C148BFEA
:1001A0000B607047642906F0A182732906F0218450
:1001B000002070471FB51FBD10B510BD06F034FC00
:1001C0001146FFF7F7FF00F017F806F052FC03B4F2
:1001D000FFF7F2FF03BC01F0D1F8000008B50020E2
:1001E000009004E09DF80000401CC0B200909DF813
:1001F00000000828F6DB08BD00BF00F073FE00F029
:1002000039FE00F018FB00F026FA0E4908700020B5
:1002100000F0F3FA00F032FE06F036F94FF4FA710E
:10022000012001F0BEF90BE000F06FFE012001F0AB
:1002300003FA28B1012001F09CFA022001F099FA9A
:10024000F2E700001200002070470EA100200CE031
:100250000A5C174B1A8000BF154A121F128802F061
:100260004002002AF8D0421CD0B22A28F0D300BFA6
:10027000FEE700BFFEE700BFFEE700BFFEE77047F6
:10028000704770470D0A456E74657220486172644C
:100290004661756C745F48616E646C65722C2053A6
:1002A000797374656D2048616C742E0D0A0000002E
:1002B000043801400CB50020019000906C480068A3
:1002C00040F480306A49086000BF6948006800F463
:1002D000003000900198401C0190009818B90198D6
:1002E000B0F5A06FF1D16248006800F4003010B1A1
:1002F0000120009001E0002000900098012843D1E7
:100300005C48006840F010005A49086008460068E0
:1003100020F0030008600846006840F00200086012
:10032000534840685249486008464068486008465B
:10033000406840F4806048600846406820F47C10C3
:1003400048600846406840F4E81048600846006885
:1003500040F08070086000BF4548006800F0007001
:100360000028F9D04248406820F003004049486026
:100370000846406840F00200486000BF3C484068C2
:1003800000F00C000828F9D10CBD10B5FFF792FF62
:1003900010BD10B53648006840F0010034490860CF
:1003A00008464068344908403149486008460068BA
:1003B000324908402E4908600846006820F4802031
:1003C00008600846406820F4FE0048604FF41F00B3
:1003D0008860FFF7DAFF4FF000602949086010BD20
:1003E00010B5002100200022214B5B6803F00C01B6
:1003F00021B1042906D0082928D107E0214B224C3D
:10040000236027E01F4B204C236023E0184B5B68E0
:1004100003F47010164B5B6803F48032022303EB85
:10042000904022B9194B4343174C23600DE0104B09
:100430005B6803F4003323B1144B4343124C236035
:1004400003E0104B4343104C236003E00D4B0E4C74
:10045000236000BF00BF064B5B68C3F303130C4C63
:10046000E15C094B1B68CB40074C236010BD0000CA
:1004700000100240002002400000FFF8FFFFF6FEDF
:1004800008ED00E000127A001400002000093D0091
:100490001800002070B50546002405E0601CC4B2B9
:1004A000C82C01DD002070BD02212F4802F00DF99B
:1004B0000028F3D029462C4802F0B4F8002405E0C7
:1004C000601CC4B2C82C01DD0020ECE701212648E5
:1004D00002F0FBF80028F3D0234802F0A5F8C0B2E0
:1004E000E1E708B5012141F2040001F0C9FCE02078
:1004F000ADF8000018208DF8030003208DF80200ED
:1005000069461A4801F000FAE021184801F0A9FAFA
:100510000020174908804FF48270488000208880AE
:100520000220C88001200881400248810020888183
:10053000C881072008820C4801F09EFF01210A486B
:1005400002F03FF8FF20FFF7A5FF08BD10B50446F5
:10055000074884810146044801F08EFF01210248CA
:1005600002F02FF810BD00000030014000080140EB
:10057000B000002008B50121142001F081FC1020FA
:10058000ADF800008DF8030003208DF802006946E5
:10059000B04801F0B9F91020ADF800008DF8030063
:1005A00003208DF802006946AB4801F0ADF9102137
:1005B000A84801F056FA1021A74801F052FAFFF7B7
:1005C00090FF0820FFF7C2FF08BD10B500240020EF
:1005D000A24908600520FFF75DFFFF20FFF75AFFE3
:1005E000044601209E49C1F89001204610BD10B577
:1005F00000BFFFF7EAFF00F080000028F9D110BD2E
:1006000070B504460025FFF7F2FF0020934908600B
:100610000120FFF73FFF2046FFF73CFF01209049F4
:10062000C1F8900170BD10B500208C49086006200B
:10063000FFF730FF01208A49C1F8900110BD10B5C5
:100640000020864908600420FFF724FF0120844928
:10065000C1F8900110BD08B50020804908609F20B6
:10066000FFF718FFFF20FFF715FF8DF80000FF20B0
:10067000FFF710FF8DF80100FF20FFF70BFF8DF84B
:10068000020001207649C1F890019DF8010008BDE3
:100690002DE9F04106460C461746FFF7A8FF00205B
:1006A0006E4908600320FFF7F5FEC4F30740FFF72B
:1006B000F1FEC4F30720FFF7EDFEE0B2FFF7EAFE1C
:1006C000002505E0FF20FFF7E5FE7055681C85B2A8
:1006D000BD42F7DB012061490860BDE8F0812DE9EA
:1006E000F0410446C4F30745C4F30726E7B22846A1
:1006F000FFF7D0FE3046FFF7CDFE3846FFF7CAFEC3
:10070000BDE8F08170B504460D4603E014F8010B16
:10071000FFF7C0FE281EA5F101018DB2F6D170BD14
:100720002DE9F04780460D461446FFF760FFFFF7BE
:100730007AFF0020494908600220FFF7ABFEB4F5BC
:10074000807F18DCC5F30740FFF7A4FEC5F3072040
:10075000FFF7A0FEE8B2FFF79DFE4FF0000907E0AB
:1007600018F80900FFF796FE09F101001FFA80F959
:10077000A145F5DB2AE02046E11704EB1161C1F346
:100780000727E11704EB11610912A4EB012101F025
:10079000FF0A00260BE005EB0620FFF7A0FF08EBA1
:1007A00006204FF48071FFF7ADFF701CC6B2BE4249
:1007B000F1DBBAF1000F08D005EB0720FFF78FFF40
:1007C00008EB07205146FFF79DFF00BF012023499A
:1007D0000860BDE8F08710B5FFF725FFFFF707FFBA
:1007E00000201E490860C720FFF754FE01201C4965
:1007F000C1F89001FFF7FBFE10BD10B50446FFF7EE
:1008000012FFFFF7F4FE0020144908602020FFF7D4
:1008100041FEC4F30740FFF73DFEC4F30720FFF796
:1008200039FEE0B2FFF736FE01200D49C1F8900114
:10083000FFF7DDFE10BD10B5FFF7F5FE00200749FC
:1008400008609820FFF726FE01200549C1F89001B5
:1008500010BD00000008014000100140900121423D
:100860000000214210B504462046FFF713FE10BDDC
:1008700010B504461021FB4801F0F5F82046FFF7BB
:10088000F1FF1021F74801F0ECF810BD70B50546F6
:100890000C461021F34801F0E6F82846FFF7E2FF86
:1008A0002046FFF7DFFF1021EE4801F0DAF870BDB7
:1008B00070B505460C461021EA4801F0D4F82846E8
:1008C000FFF7D0FF14F8010BFFF7CCFF14F8010B72
:1008D000FFF7C8FF2078FFF7C5FF1021E14801F0BE
:1008E000C0F870BD70B504461021DE4801F0BBF8B9
:1008F0002046FFF7B7FFFF20FFF7B4FF05461021A2
:10090000D84801F0AEF8284670BD2DE9F041074601
:100910000C4615461E461021D24801F0A4F8384670
:10092000FFF7A0FF14F8010BFFF79CFF14F8010B71
:10093000FFF798FF2078FFF795FF05E0FF20FFF70E
:1009400091FF05F8010B761E002EF7D11021C54846
:1009500001F087F82846BDE8F08110B50620FFF7C2
:1009600087FF10BD10B50420FFF782FF10BD10B542
:1009700000241021BB4801F076F80520FFF772FF34
:10098000FF20FFF76FFF04461021B64801F069F819
:10099000204610BD70B50026B34D00BFFFF7E7FF3E
:1009A000044604F08000802803D1281EA5F101052B
:1009B000F4D10DB9002600E00126304670BD10B517
:1009C0000446FFF7CAFF1021A64801F04CF80120A9
:1009D000FFF748FFFF20FFF745FF2046FFF742FFE4
:1009E0001021A04801F03DF810BD10B500241021E1
:1009F0009C4801F038F83520FFF734FFFF20FFF75F
:100A000031FF04461021974801F02BF8204610BD15
:100A100010B5FFF7A2FF1021924801F024F89820AA
:100A2000FFF720FF10218F4801F01BF8FFF79AFF16
:100A300010BD10B5002410218A4801F014F89F2041
:100A4000FFF710FFFF20FFF70DFF20430402FF20F8
:100A5000FFF708FF20430402FF20FFF703FF0443D2
:100A60001021804800F0FDFF204610BD38B5044637
:100A70000D46200C8DF80000200A8DF80100E0B230
:100A80008DF80200FFF769FF1021764800F0EBFFB8
:100A90002846FFF7E7FE9DF80000FFF7E3FE9DF80C
:100AA0000100FFF7DFFE9DF80200FFF7DBFE1021DB
:100AB0006C4800F0D6FFFFF76DFFFFF753FF38BD1E
:100AC00010B5044620212046FFF7D0FF10BD10B519
:100AD0000446D8212046FFF7C9FF10BD10B50446D3
:100AE000D8212046FFF7C2FF10BD10B50446D8211B
:100AF0002046FFF7BBFF10BD10B5FFF72EFFC72044
:100B0000FFF7B6FEFFF746FFFFF72CFF10BD2DE9FC
:100B1000F04104460E461746B7F5807F02D000200C
:100B2000BDE8F081FFF719FF10214E4800F09BFF50
:100B30000220FFF797FEC4F30740FFF793FEC4F3CC
:100B40000720FFF78FFEE0B2FFF78CFE002504E0E0
:100B5000705DFFF787FE681C85B2FF2DF8DD102160
:100B6000404800F07EFFFFF715FF08B90020D7E7E7
:100B7000FFF7F8FE0120D3E72DE9F04104460F46C8
:100B8000154615B90020BDE8F081B5F5807F01D983
:100B90000020F8E7FFF7E1FE1021324800F063FF84
:100BA0000220FFF75FFEC4F30740FFF75BFEC4F3CC
:100BB0000720FFF757FEE0B2FFF754FE002604E0DF
:100BC000B85DFFF74FFE701C86B2AE42F8D310211D
:100BD000244800F046FFFFF7DDFE08B90020D2E709
:100BE000FFF7C0FE0120CEE7F8B504460D461646D5
:100BF000200C8DF80000200A8DF80100E0B28DF87D
:100C0000020033462A4669460320FFF77EFEF8BD00
:100C10002DE9F74FADF5825D804615462DB90020D0
:100C200013B00DF5805DBDE8F08FE8B208B100208B
:100C3000F6E708F0FF0008B10020F1E7C8F30B0069
:100C40000DF58051C863C86BE8B10846C06BC0F5AC
:100C500080501FFA80FA554508D8AEB20027BB462F
:100C600022E0000000080140007102005646A81B67
:100C7000C0F30F374FF6FF7000EA0737A81BC01B01
:100C80001FFA80FB10E0B5F5805F03D2AEB20027FB
:100C9000BB4609E00026C5F30F374FF6FF7000EAA8
:100CA0000737E81B1FFA80FB86B34FEA18394FEA73
:100CB00009394FF480520EA94846FFF795FF0024EA
:100CC0000AE00DF58050406C005D04EB0801A1EBDB
:100CD00009010EAA5054641CB442F2D34846FFF7EF
:100CE000EFFE00240BE00EAA02EB042109EB042026
:100CF0004FF48072FFF70BFF00B902E0641C102C68
:100D0000F1D300BF102C02D2002089E700E0B044EC
:100D100000200DF5805188632FE04FEA18394FEA23
:100D200009394846FFF7CCFE002412E00DF5805249
:100D3000526C93190DF58052926B134403EB04210E
:100D400009EB04204FF48072FFF7E1FE00B902E0E6
:100D5000641C102CEAD300BF102C01D200205FE7E6
:100D600008F58058A7F5805087B20DF58050806B4C
:100D700000F580500DF580518863381EA7F1010100
:100D80008FB2CAD1BBF1000F2CD04FEA18394FEA0D
:100D900009394FF480520EA94846FFF725FF002479
:100DA00006E00DF58050406C005D0EA90855641CEE
:100DB000B442F6D34846FFF783FE00240BE00EAAA8
:100DC00002EB042109EB04204FF48072FFF79FFE31
:100DD00000B902E0641C102CF1D300BF102C01D22A
:100DE00000201DE701201BE770B504460D4616469E
:100DF0001021374800F037FE0B20FFF733FDC4F316
:100E00000740FFF72FFDC4F30720FFF72BFDE0B2EB
:100E1000FFF728FDFF20FFF725FD05E0FF20FFF786
:100E200021FD05F8010B761E002EF7D11021284870
:100E300000F017FE70BD70B504460025102124484F
:100E400000F011FE0320FFF70DFDC4F30740FFF78C
:100E500009FDC4F30720FFF705FDE0B2FFF702FD2F
:100E6000FF20FFF7FFFC05461021194800F0F9FDAF
:100E7000284670BD10B5FFF77DFB10BD2DE9F04190
:100E8000002714A6304605F009FD85B23846FFF765
:100E900017FE2A4631463846FFF76EFE2A461049AD
:100EA0003846FFF7A1FE002407E0305D0C49095DDC
:100EB000884200D003E0601C84B2AC42F5DB00BF86
:100EC000A54202D00120BDE8F0810020FBE7000030
:100ED0000008014048657469616E71690000000096
:100EE000C200002010B54FF4407001F031FA00F05C
:100EF000A5F800F00DFC00F05FFA40F2712104202B
:100F000000F06CFC10BD7047704710B500F078FC25
:100F100010BD000008B525208DF8000000208DF8D8
:100F200001008DF8020001208DF80300684601F0F1
:100F300014FA08BD08B50121042000F0A1FF032028
:100F40008DF8020010208DF80300C001ADF80000FC
:100F50006946FE4800F0D8FC08BD00B585B0012107
:100F6000052000F08DFF0121880300F089FF4FF478
:100F70000070ADF8100018208DF8130003208DF8D4
:100F8000120004A9F14800F0BFFC4FF48060ADF8F6
:100F9000100004208DF8130004A9EC4800F0B4FC04
:100FA0004FF4E13000900020ADF80400ADF80600E9
:100FB000ADF80800ADF80C000C20ADF80A00694649
:100FC000E34801F004F8012240F22551E04801F025
:100FD00096F80121DE4801F086F84021DC4801F056
:100FE0006AF905B000BD704710B54FF40061D748ED
:100FF00000F039FD10BD10B54FF40061D34800F08A
:1010000030FD10BDD248D3490860D3484860D3486A
:1010100088604FF480608881C881002008824882FF
:10102000C882088348838882AFF23500C861AFF276
:1010300047000862AFF251004862704710B5FFF7F1
:10104000E1FFFFF78AFFFFF775FFFFF763FF10BDB2
:10105000014609B9BF487047012901D11046FAE796
:10106000022901D10020F6E7032901D10020F2E78F
:10107000042901D10020EEE70020ECE7F8B5044692
:101080000E461746002529E00EE0012000F08EF9FB
:10109000A08A0090002000F089F9A089BDF8001016
:1010A000884200DD01E000BFEFE700BF705D228AEB
:1010B00061688854012000F079F9208A401C80B2D0
:1010C0002082A189884201DB00202082A08A401C66
:1010D000A082002000F06AF9681C85B2BD42D3DB13
:1010E000012240F22771206801F009F8F8BD2DE9CE
:1010F000F04105460E4617462846FFF7A9FF04466D
:101100000CB9BDE8F081E06908B1E06980473A4672
:1011100031462046FFF7B2FF00BFF2E713B50446A1
:10112000012201A92046FFF7E2FF1CBD70B504466D
:101130000D46012000F03AF9668B002000F036F9E8
:101140000EB9002070BD218BA068405C2870012082
:1011500000F02CF9208B401C80B22083E18988426A
:1011600001DB00202083608B401E6083002000F0A4
:101170001DF90120E6E770B505460E462846FFF743
:1011800067FF04460CB9002070BD31462046FFF7CA
:10119000CDFFF9E700B503461846FFF759FF0246B1
:1011A00002B900BD002010825082908200BFF8E793
:1011B00000B503461846FFF74BFF024602B900BDD3
:1011C0000020D0821083508300BFF8E71FB504468B
:1011D00000940020ADF80400ADF80600ADF808005A
:1011E000ADF80C000C20ADF80A0069465C4800F030
:1011F000EEFE1FBD1FB5044600940020ADF80400AC
:10120000ADF80600ADF80800ADF80C000C20ADF804
:101210000A006946524800F0DAFE1FBD1FB50446B9
:1012200000940020ADF80400ADF80600ADF8080009
:10123000ADF80C000C20ADF80A006946494800F0F2
:10124000C6FE1FBD70B504460D462A462146022043
:10125000FFF74DFF70BD70B50446204605F01EFB3C
:1012600085B229462046FFF7EDFF70BD70B50446F4
:1012700040F22551206801F027F8E0B1206800F025
:10128000A3FFC5B2E18AA0684554E08A401C80B241
:10129000E082E189884201DB0020E082608BE18905
:1012A000884202DA608B401C6083606A10B1284675
:1012B000616A884700BF40F22771206801F004F896
:1012C00008B3A08A60B9002240F22771206800F0BC
:1012D00016FF012240F22661206800F010FF47E06F
:1012E000638A6268D15C206800F06AFF608A401CF3
:1012F00080B26082A189884201DB00206082A08ADE
:10130000401EA08234E040F22661206800F0DCFF3D
:1013100050B3A08A50B9002240F22661206800F044
:10132000EEFE206A00B3206A804721E0638A62688B
:10133000D15C206800F044FF608A401C80B260826B
:10134000A189884201DB002060820EE00008014094
:1013500000380140E00000200801002008050020BE
:10136000004400400048004002E0A08A401EA082E5
:1013700070BD10B50F48FFF779FF10BD014600BFE3
:10138000704770B504460D46E1B20020FFF7C6FE77
:10139000204670BD38B5044600BF69460020FFF7FF
:1013A000EAFE0028F9D09DF8000038BD80F31088CF
:1013B00070470000E000002070B5002016E000211A
:1013C00000EB4002B14B03EB8202516000EB4002A4
:1013D00003EB8202916000EB400203EB820251704A
:1013E00000EB400203F82210411CC8B20428E6DBDF
:1013F000A74909684FF47A73B1FBF3F2B2F1807F29
:1014000000D31DE022F07F41491E4FF0E0235961D7
:1014100059170F23002907DA1C07260E9D4C01F0EF
:101420000F052D1F665503E01C07250E9A4C6554C9
:1014300000BF00214FF0E02399610721196100BF2F
:1014400070BD416851B14168491E416031B9012107
:1014500041700178012901D181684160704710B560
:101460008E48006840B18D480068401E8B49086076
:1014700010B901208A490870002408E004EB4401F7
:10148000824A02EB8100FFF7DCFF601CC4B2042C2F
:10149000F4DB84480068401C824908600846006804
:1014A0006FF00041884202D100207E490860FFF7BA
:1014B0002BFD7D480078401CC0B27B4908700A288B
:1014C00003DB00200870FFF71EFD10BD10B50446B9
:1014D00004B910BD012C00D10224012000F0D3F882
:1014E0006E48046000206E49087000F0CCF806E0F9
:1014F000FFF70BFD6A480078012800D100E0F7E70C
:1015000000BF00BFE5E7F0B5034600224FF0E0263C
:1015100075695F4E3668654FB6FBF7F606FB03F458
:1015200000BF4FF0E026B16910E04FF0E026B0694F
:1015300088420BD0884202D20E1A324402E02E1AA0
:101540000E4432440146A24200D300E0EDE700BF62
:10155000F0BD70B504460D46042C06DB544A55A177
:101560005BA005F053F800BFFEE7012000F08BF808
:1015700004EB4400454901EB8000456004EB440066
:1015800001EB80008560002004EB44013F4A02EB40
:101590008101487004EB440102F8210000F073F867
:1015A00070BD70B504460D46042C06DB504A41A1BF
:1015B00047A005F02BF800BFFEE7012000F063F81C
:1015C00004EB4400314901EB8000456004EB44002A
:1015D00001EB80008560002004EB44012B4A02EB04
:1015E00081014870012004EB440102F82100002031
:1015F00000F049F870BD10B50446042C06DB3D4AE6
:101600002CA133A005F002F800BFFEE7012000F096
:101610003AF8002004EB44011C4A02EB81014860C7
:1016200004EB440102EB8101487004EB440102F831
:10163000210000F028F810BD0146042901DB00203C
:10164000704701EB4100114A02EB8000407801280D
:1016500008D1002001EB41020C4B03EB82025070D9
:101660000120EDE70020EBE710B5012000F00BF8BA
:101670000C480468002000F006F8204610BD10B5A4
:10168000FFF7EDFE10BD80F31088704708090020B9
:101690001400002018ED00E000E400E02C00002021
:1016A00030000020340000203800002040420F00AD
:1016B0009A6A00082E2E5C48415244574152455CBC
:1016C0004253505C6273705F74696D65722E630083
:1016D0004572726F723A2066696C652025732C2002
:1016E00066756E6374696F6E20257328290D0A0074
:1016F000A96A0008BC6A0008012803D10102354A22
:10170000116004E0022802D10121334A11607047C0
:1017100008B50121482000F0B3FB0120FFF7ECFFE2
:101720000220FFF7E9FF10208DF8030003208DF859
:1017300002004FF48070ADF800006946254810386B
:1017400000F0E2F80120ADF80000694622481038A8
:1017500000F0DAF808BD012804D101021D4A121D6B
:10176000116005E0022803D101211B4A121D1160FE
:101770007047012808D11749091F096881F4807151
:10178000144A121F116009E0022807D11249091FEB
:10179000096881F00101104A121F1160704701466B
:1017A000012909D10B48001F006800F4807008B9B6
:1017B000012070470020FCE7022909D10648001FDC
:1017C000006800F0010008B90120F2E70020F0E70E
:1017D0000020EEE7100C01401018014070B50546DE
:1017E0000C4645F2555000F0A7FF284600F0A7FF31
:1017F000204600F0A7FF00F0A8FF00F0ABFF70BD8F
:1018000010B500F0A2FF10BD094880470948004705
:10181000FEE7FEE7FEE7FEE7FEE7FEE7FEE7FEE7A0
:10182000FEE7FEE704480549054A064B70470000FD
:101830009303000831010008981B00209821002024
:10184000981D0020981D002010B50446CC48844205
:1018500008D10121042000F02DFB0021042000F01C
:1018600029FB46E0C748844208D10121082000F046
:1018700021FB0021082000F01DFB3AE0C248844211
:1018800008D10121102000F015FB0021102000F0EC
:1018900011FB2EE0BD48844208D10121202000F038
:1018A00009FB0021202000F005FB22E0B84884421B
:1018B00008D10121402000F0FDFA0021402000F075
:1018C000F9FA16E0B348844208D10121802000F0E3
:1018D000F1FA0021802000F0EDFA0AE0AE488442DF
:1018E00007D10121801500F0E5FA0021A01500F0D4
:1018F000E1FA10BD10B50121084600F0DBFA002125
:10190000012000F0D7FA10BD2DE9F0410246002574
:101910000026002000230024002791F803C00CF0CB
:101920000F0591F803C00CF0100CBCF1000F03D0B0
:1019300091F802C04CEA050591F800C0BCF1000F17
:1019400031D0146800202BE04FF0010C0CFA00F3AA
:10195000B1F800C00CEA03069E4220D183004FF08C
:101960000F0C0CFA03F7BC4305FA03FC4CEA040421
:1019700091F803C0BCF1280F06D14FF0010C0CFA0E
:1019800000FCC2F814C00AE091F803C0BCF1480F93
:1019900005D14FF0010C0CFA00FCC2F810C0401C3D
:1019A0000828D1D31460B1F800C0BCF1FF0F34DDBA
:1019B000546800202EE000F1080C4FF0010808FAEE
:1019C0000CF3B1F800C00CEA03069E4221D183005B
:1019D0004FF00F0C0CFA03F7BC4305FA03FC4CEA7A
:1019E000040491F803C0BCF1280F05D100F1080CE4
:1019F00008FA0CF8C2F8148091F803C0BCF1480F43
:101A000007D100F1080C4FF0010808FA0CF8C2F8F1
:101A10001080401C0828CED35460BDE8F0814FF6FA
:101A2000FF710180022181700421C170704702465C
:101A3000002093680B400BB1012000E000207047AC
:101A40000146886880B2704702460020D3680B4088
:101A50000BB1012000E0002070470146C86880B249
:101A6000704701617047416170470AB1016100E050
:101A700041617047C16070474FF480320A43826110
:101A80008161826182698269704702460020434B0E
:101A900018684FF68073184040EA021008433F4B25
:101AA000186070473E49C8617047F0B50A46002388
:101AB00000240021002500F00046B6F1004F02D1BD
:101AC000364EF16901E0354E7168C0F3034583B2CB
:101AD00000F44016B6F5401F08D121F070612F4E7A
:101AE000766826F070662D4F7E6012E000F4801656
:101AF000B6F5801F06D1032606FA05F4A14341F08E
:101B0000706106E0460D360103FA06F6B14341F076
:101B1000706122B1460D360103FA06F6314300F03A
:101B20000046B6F1004F02D11C4EF16101E01B4EA0
:101B30007160F0BD30B500228B071C0F0F2303FA34
:101B400004F2164B08338C1053F824309343134C93
:101B500008348D1044F8253023468C1053F8243077
:101B60008C07240F00FA04F423430C4C08348D1026
:101B700044F8253030BD0A49DC3108607047000068
:101B800000080140000C0140001001400014014019
:101B900000180140001C01400020014000000140ED
:101BA00000002042DF48006840F00100DD49086085
:101BB00008464068DC490840DA4948600846006841
:101BC000DA490840D74908600846006820F48020B8
:101BD00008600846406820F4FE0048604FF41F008B
:101BE00088607047CF49096821F48031CD4A11607F
:101BF0001146096821F480211160B0F5803F03D0BF
:101C0000B0F5802F0ED106E0C649096841F4803155
:101C1000C44A116007E0C349096841F4A021C14AE0
:101C2000116000E000BF00BF704710B50146002200
:101C3000002300204A11012A02D1BA4C236806E091
:101C4000022A02D1B74C236A01E0B64C636A01F064
:101C50001F02012494401C400CB1012000E0002030
:101C600010BD38B5002000900024002500BF3120B1
:101C7000FFF7DBFF05460098401C00900098B0F588
:101C8000A06F01D0002DF2D03120FFF7CEFF08B1B8
:101C9000012400E00024204638BD01460020A14A6E
:101CA000106820F0F80040EAC10010607047A049B9
:101CB00008607047024600209A4B586820F47C1058
:101CC00042EA01031843974B5860704798490866E9
:101CD000704701460020934A506820F003000843F3
:101CE000506070478F48406800F00C007047014614
:101CF00000208C4A506820F0F00008435060704784
:101D000001460020874A506820F4E0600843506094
:101D1000704701460020834A506820F4605040EA32
:101D2000C1005060704729B17E4A527A02437D4B10
:101D30005A7204E07B4A527A82437A4B5A72704755
:101D40007B49D8310860704701460020754A5068C9
:101D500020F440400843506070470021714A20320F
:101D60001170704A82F82010012802D004280AD18C
:101D700004E001216B4A2032117005E00521694A17
:101D80002032117000E000BF00BF70476949086051
:101D900070476449096A0143624A116270476549A4
:101DA00044390860704730B5002100220024002328
:101DB0005C4D6D6805F00C0121B1042905D008299E
:101DC00023D105E05C4D056022E05B4D05601FE01E
:101DD000544D6D6805F47012524D6D6805F48034F1
:101DE000022505EB92421CB9544D554305600BE0AA
:101DF0004C4D6D6805F400351DB1504D55430560DF
:101E000002E04D4D5543056002E04B4D056000BFBB
:101E100000BF444D6D6805F0F0010909484D6B5C49
:101E20000568DD4045603F4D6D6805F4E061090AD5
:101E3000434D6B5C4568DD4085603A4D6D6805F447
:101E40006051C90A3E4D6B5C4568DD40C560354D4B
:101E50006D6805F44041890B3A4D6B5CC568B5FB74
:101E6000F3F5056130BD29B12E4A526902432D4B6D
:101E70005A6104E02B4A526982432A4B5A617047E7
:101E800029B1284A92690243264B9A6104E0254A07
:101E900092698243234B9A61704729B1214AD269E2
:101EA0000243204BDA6104E01E4AD26982431D4B93
:101EB000DA61704729B11B4AD2680243194BDA60D4
:101EC00004E0184AD2688243164BDA60704729B1A1
:101ED000144A12690243134B1A6104E0114A126951
:101EE0008243104B1A6170471249403908607047AD
:101EF0000F49C86470470B49C87170470948406A68
:101F000040F0807007494862704701460020054A4A
:101F100092680A400AB1012000E0002070470149A0
:101F200088727047001002400000FFF8FFFFF6FEC5
:101F3000000042428004424200127A0000093D0043
:101F4000390000204900002010B50446FB488442B7
:101F500009D101218803FFF7ADFF00214FF4804034
:101F6000FFF7A8FF32E0F648844209D10121480476
:101F7000FFF7ADFF00214FF40030FFF7A8FF25E089
:101F8000F048844209D101218804FFF7A0FF002115
:101F90004FF48020FFF79BFF18E0EB48844209D103
:101FA0000121C804FFF793FF00214FF40020FFF741
:101FB0008EFF0BE0E548844208D101210805FFF7B8
:101FC00086FF00214FF48010FFF781FF10BD2DE93F
:101FD000F04786B005460E460024A24600BFA14643
:101FE0000027B08900B100BF2F462C8A4CF6FF7045
:101FF0000440F08804432C82AC894EF6F310044070
:10200000B08831890843718908430443AC81AC8AA4
:102010004FF6FF400440B0890443AC8201A8FFF7AB
:10202000C2FEC648874202D1DDF810A001E0DDF80B
:102030000CA0A88900F4004040B10AEBCA0000EBF4
:102040000A1031684900B0FBF1F807E00AEBCA005A
:1020500000EB0A1031688900B0FBF1F86420B8FB8E
:10206000F0F004012009642101FB1089A88900F423
:10207000004040B1322000EBC900B0FBF1F000F0AD
:102080000700044308E0322000EB09106421B0FB94
:10209000F1F000F00F0004432C8106B0BDE8F0879A
:1020A0004FF41651016000218180C18001810C2113
:1020B000418100218181704710B502460020108ABD
:1020C0004FF2FF0318400B884C8823438C8823432E
:1020D000CC8823431843108210BD00210180418029
:1020E0008180C180704721B1828942F4005282818F
:1020F00004E082894DF6FF731A4082817047F0B583
:102100000346002400260025002040F66A17B94245
:1021100000D100BF1846C1F3421401F01F06012789
:1021200007FA06F5012C01D10C3004E0022C01D194
:10213000103000E014301AB107682F43076002E046
:102140000768AF430760F0BD1AB1838A0B438382EF
:1021500002E0838A8B4383827047028A4FF6F073D2
:102160001A400282028A0A430282704782894FF231
:10217000FF731A40828182890A438281704721B1AC
:10218000828942F00202828104E082894FF6FD7367
:102190001A4082817047028A4FF6DF731A4002822A
:1021A000028A0A430282704721B1028A42F48042C5
:1021B000028204E0028A4BF6FF731A4002827047E3
:1021C000C1F308028280704701468888C0F3080086
:1021D0007047818941F0010181817047028BD2B241
:1021E0000283028B42EA012202837047028B02F4CF
:1021F0007F420283028B0A430283704721B1828AA5
:1022000042F02002828204E0828A4FF6DF731A4095
:102210008282704721B1828A42F01002828204E0F9
:10222000828A4FF6EF731A408282704721B1828A08
:1022300042F00802828204E0828A4FF6F7731A4065
:102240008282704721B1828942F40042828103E098
:102250008289C2F30E028281704721B1828A42F4E0
:102260000062828204E0828A4FF2FF731A40828207
:102270007047828A4FF6FB731A408282828A0A4331
:102280008282704721B1828A42F00202828204E097
:10229000828A4FF6FD731A40828270470246002000
:1022A000B1F5007F00D100BF13880B400BB10120B6
:1022B00000E00020704701F40072B2F5007F00D109
:1022C00000BFCA430280704770B502460024002355
:1022D0000025002040F66A16B14200D100BFC1F3CC
:1022E000421501F01F03012606FA03F3012D02D166
:1022F0009689334006E0022D02D1168A334001E070
:10230000968A33400C12012606FA04F416883440EB
:1023100013B10CB1012000E0002070BD10B5002207
:10232000002340F66A14A14200D100BF0A12012422
:102330009440A3B2DC43048010BD0000003801408B
:102340000044004000480040004C00400050004065
:1023500031490143314A1160704770B500210023B3
:102360000F22C47804B32D4C246804F4E064C4F54F
:10237000E064210AC1F10403CA40447804FA03F17D
:102380008478144021430901254C0678A15504782E
:1023900004F01F050124AC4005786D11AD0005F176
:1023A000E025C5F8004109E0047804F01F05012488
:1023B000AC401C4D0678761145F8264070BD1A4A8F
:1023C0000A400243154B1B1F1A60704739B1134A6C
:1023D000121D12680243114B1B1D1A6006E00F4AC2
:1023E000121D126882430D4B1B1D1A607047042892
:1023F00008D14FF0E021096941F004014FF0E022DB
:10240000116107E04FF0E021096921F004014FF06C
:10241000E0221161704700000000FA050CED00E0B9
:1024200000E400E080E100E080FFFF1F10B50446FB
:10243000BE48844208D101218014FFF73BFD0021F2
:10244000A014FFF737FD16E0B948844208D10121F6
:102450000014FFF73CFD00212014FFF738FD0AE0CF
:10246000B448844207D10121C013FFF730FD002199
:10247000E013FFF72CFD10BD10B50022028802F416
:1024800041520B884C8823438C882343CC882343B8
:102490000C8923434C8923438C892343CC892343D0
:1024A0001A430280838B4FF2FF74234083830B8A8D
:1024B000038210BD2DE9F04F85B005460C464FF064
:1024C000000902274FF000084FF0010B0026B2462A
:1024D000A88B4FF240010840A88302202884B5F859
:1024E0001C90A068022801D100BF38E0A08810B974
:1024F0004FF0010B01E04FF0020B8D48854200D1F7
:1025000000E000BF6846FFF74EFCDDF800A0E08861
:10251000B0F5007F0AD14FEA1A2000EB800040009E
:10252000A168B0FBF1F0401D86B20BE04FEA4B1002
:10253000BAFBF0F000EB80004000A168B0FBF1F0C6
:10254000401D86B20A20B6FBF0F606F00108A6EBA5
:102550000800C0F34F074FF6FF7000EA0828022F6B
:1025600001DBFF2F02DD02274FF00008E08840EA80
:10257000080038432884A088A1890843618808435B
:102580002188084340F4006040EA0909A5F81C903E
:1025900005B0BDE8F08F0021018041808180C180BD
:1025A000018141818181C181072101827047002120
:1025B000018041808180C180022181600021818170
:1025C000704721B1028842F04002028004E0028894
:1025D0004FF6BF731A400280704721B1828B42F4DC
:1025E0008062828304E0828B4FF6FF331A4082833D
:1025F000704730B5002400230C110125A540ABB273
:102600001AB185881D43858002E085889D438580B9
:1026100030BD1AB183880B43838002E083888B43EB
:1026200083807047818170470146888970474FF6E3
:10263000FF62914204D0028842F48072028004E07A
:1026400002884FF6FF631A400280704721B18288EA
:1026500042F00402828004E082884FF6FB731A4045
:102660008280704702884FF2FF731A40028002880E
:102670000A4302807047018841F48051018070470D
:1026800021B1028842F40052028004E002884DF633
:10269000FF731A400280704702460020012901D0D2
:1026A000108B00E0908A70470146088A7047B1F5A8
:1026B000804F04D1028842F48042028004E0028804
:1026C0004BF6FF731A4002807047024600201389C0
:1026D0000B400BB1012000E000207047CA4302818B
:1026E0007047F0B50246002000240023002501F0C9
:1026F0000F070126BE40B4B20B1101269E40B3B2B3
:10270000968806EA03051689264016B10DB1012008
:1027100000E00020F0BD10B5002201F00F040123FD
:10272000A3409AB2D343038110BD000000300140A2
:1027300000380040003C00400E49086070470D49D9
:10274000486070470B49886070474AF6AA200949DB
:10275000086070474CF6CC40064908607047014657
:102760000020044AD2680A400AB1012000E000209B
:10277000704700000030004010B504461CB9FEF759
:1027800079FB002010BD0120FCE7014611B90022B1
:10279000104670470120FCE72DE9F04104460F4642
:1027A00015461E463CB9320328033946FEF71CFA8B
:1027B0000020BDE8F0810420FBE72DE9F04104464C
:1027C000884615461E4674B9002707E028034FF4D3
:1027D00080524146FEF7D0F9781CC7B2B742F5DB0C
:1027E0000020BDE8F0810420FBE70346BBB90529C2
:1027F00014D2DFE801F0030A050F11000020704732
:102800004FF4805010800020F9E74FF40060106012
:102810000020F4E70020F2E70020F0E700BF00BF4F
:102820000420ECE7004870470000214270B50346E1
:102830000C4603E014F8015B03F8015B151EA2F1DE
:102840000102F7D170BD30B5034601E003F8011B6A
:10285000141EA2F10102F9D130BDF0B503461C46A9
:102860000D46002000BF161EA2F1010207D014F889
:10287000017B15F801CBA7EB0C06301EF3D0F0BDA1
:10288000024600E0521C107810B110788842F9D14D
:102890001078704770B504462079F8B1E56A607821
:1028A00001232A4604F13001FFF787FF08B1012018
:1028B00070BD00202071206A281AA16988420DD2BB
:1028C000E67809E0A0690544607801232A4604F10E
:1028D0003001FFF772FF761E022EF3D20020E7E7E9
:1028E00070B504460D46E06AA84210D02046FFF7B6
:1028F000D1FF08B1012070BD607801232A4604F1A0
:102900003001FFF749FF08B10120F4E7E56200203C
:10291000F1E770B504462046FFF7BCFF0546002DE1
:1029200059D1207803284FD1607901284CD1628990
:10293000002104F13000FFF786FF552184F82E12A4
:10294000AA2184F82F12522084F83000522131201D
:102950000155612132200155412133200155722159
:1029600084F8141284F81512412184F8161261219A
:1029700084F81712217C84F81812208A010A84F83E
:1029800019122069010C84F81A122069010E84F8CA
:102990001B12217B84F81C12A089010A84F81D12E5
:1029A000E068010C84F81E12E068010E84F81F1222
:1029B000E069401CE0626078012304F13001E26AC2
:1029C000FFF7FBFE00206071607800221146FFF7E0
:1029D0000CFF00B10125284670BD0246891E5069D2
:1029E000801E884201D8002070479378906A01FBCE
:1029F0000300F9E72DE9F04704460D46022D02D306
:102A00006069A84202D80120BDE8F087207801283B
:102A100004D002283AD003287FD155E02F4607EB97
:102A200057076089B7FBF0F0216A00EB01094946BE
:102A30002046FFF755FF00B171E06089B7FBF0F168
:102A400000FB117104F1300010F801807F1C6089D7
:102A5000B7FBF0F0216A00EB010949462046FFF779
:102A60003FFF00B15BE06089B7FBF0F100FB117143
:102A700004F13000405C48EA002805F0010010B184
:102A80004FEA1810C0E7C8F30B00BDE7B4F80A908E
:102A900009EBD9704010B5FBF0F0216A00EB010A98
:102AA00051462046FFF71CFF00B138E068006189FD
:102AB000B0FBF1F201FB120104F130000E18307886
:102AC000717840EA01209FE7B4F80A904FEAE97074
:102AD00009EB90708010B5FBF0F0216A00EB010A61
:102AE00051462046FFF7FCFE00B118E0A8006189BE
:102AF000B0FBF1F201FB120104F130000E18F07886
:102B00000006B17840EA0140717840EA012031784E
:102B1000084320F0704077E7FFE7012074E700BF2B
:102B20004FF0FF3070E72DE9F05F04460E46174680
:102B3000022E02D36069B04202D84FF00208AFE023
:102B40002078012804D002284FD003287ED16CE0E1
:102B5000B14609EB59096089B9FBF0F0216A00EB35
:102B6000010A51462046FFF7BBFE8046B8F1000F30
:102B700000D092E06089B9FBF0F100FB119104F103
:102B800030000D1806F0010020B1F9B2287861F389
:102B90001F1000E03846287009F10109012020715A
:102BA0006089B9FBF0F0216A00EB010A514620462A
:102BB000FFF796FE8046B8F1000F00D06DE0608907
:102BC000B9FBF0F100FB119104F130000D1806F093
:102BD000010010B1C7F3071005E0287800F0F000FD
:102BE000C7F303210843287057E0B4F80AA00AEBA2
:102BF000DA704010B6FBF0F0216A00EB010B594689
:102C00002046FFF76DFE8046B8F1000F00D044E08B
:102C100070006189B0FBF1F201FB120104F1300098
:102C20000D182F70380A687037E0B4F80AA04FEA20
:102C3000EA700AEB90708010B6FBF0F0216A00EBAE
:102C4000010B59462046FFF74BFE00E022E080468C
:102C5000B8F1000F00D020E0B0006189B0FBF1F2C4
:102C600001FB120104F130000D18E8780006A97884
:102C700040EA0140697840EA01202978084300F0E1
:102C8000704007432F70380A6870380CA870380EEF
:102C9000E87002E04FF0020800BF00BF0120207181
:102CA0004046BDE8F09F2DE9F04104460E46022E55
:102CB00002D36069B04201D8022727E0002721E053
:102CC00031462046FFF796FE054605B91DE0012D69
:102CD00001D1022719E0681C08B9012715E000227C
:102CE00031462046FFF71FFF074607B10DE0206978
:102CF000401C30B12069401C2061607940F0010027
:102D000060712E466069B042DAD800BF3846BDE82F
:102D1000F0812DE9F04704468946B9F1000F06D14C
:102D2000E76817B16069B84215D8012713E0494632
:102D30002046FFF75FFE0646022E02D20120BDE8C4
:102D4000F087701C08B93046F9E76069B04201D9D4
:102D50003046F4E74F463D4600BF6D1C6069A8420F
:102D600004D80225BD4201D90020E8E729462046C3
:102D7000FFF740FE064606B909E0701C08B1012EB7
:102D800001D13046DBE7BD42E7D10020D7E700BFE5
:102D90006FF0704229462046FFF7C5FE8046B8F125
:102DA000000F08D1B9F1000F05D02A464946204648
:102DB000FFF7B9FE8046B8F1000F0BD1E56020693E
:102DC000401C78B12069401E2061607940F001000C
:102DD000607107E0B8F1010F02D14FF0FF3000E061
:102DE000012005462846AAE770B502460D46506AFE
:102DF000031D10684089B5FBF0F01668B678B0FB8B
:102E0000F6F400BF02CB09B9002070BD8C4200D29D
:102E100002E0641A1B1DF5E700BF18682044F4E7C0
:102E20002DE9F04104460E46E680A568012D03D049
:102E300020684069A84202D80220BDE8F0812DB97F
:102E400020680078032801D12068456A45B92068C8
:102E50000089B04201D80220EFE72068476A24E0E9
:102E600021684889C11700EBD16149112268927825
:102E700001FB02F812E029462068FFF7BBFD05467A
:102E8000681C08B90120D8E7022D03D320684069E7
:102E9000A84201D80220D0E7A6EB08064645EAD2B0
:102EA00029462068FFF799FD0746E5600FB9022023
:102EB000C3E721684889C11700EBD1614911B6FB0E
:102EC000F1F13944216121684889C11700EBD161D2
:102ED0004911B6FBF1F201FB12612268303202EBBC
:102EE000411161610020A8E72DE9F04104468846C0
:102EF000E088461CB0B208B1206910B90420BDE8D2
:102F0000F08121684889C11700EBD1614911B6FBF6
:102F1000F1F201FB1261002972D12069401C20618D
:102F2000E06828B920680089B04269D80420E6E743
:102F300021684889C11700EBD1614911B6FBF1F155
:102F400022689278521E1140002959D1E168206808
:102F5000FFF750FD0546012D01D80220CFE7681C80
:102F600008B90120CBE720684069A84242D8B8F1EF
:102F7000000F01D10420C2E7E1682068FFF7C9FE15
:102F800005460DB90720BAE7012D01D10220B6E7A9
:102F9000681C08B90120B2E72068FFF77BFC08B184
:102FA0000120ACE721684A8901F130000021FFF7D8
:102FB0004AFC29462068FFF710FD2168C8620027F7
:102FC0000EE00120216808712068FFF763FC08B15A
:102FD000012094E72068C06A401C2168C8627F1CF9
:102FE00020688078B842ECD82068C06AC01B21688D
:102FF000C86200BFE56029462068FFF7EEFC20614B
:10300000E68021684889C11700EBD1614911B6FB00
:10301000F1F201FB12612268303202EB4111616171
:1030200000206CE72DE9F04104460E4600212046C1
:10303000FFF7F6FE0546EDB9002700BF21692068BD
:10304000FFF74EFC054605B113E060690078E528FE
:1030500002D06069007820B9781C0746B04201D1DF
:1030600007E0002701212046FFF73EFF0546002D1F
:10307000E4D000BF042D00D107252846BDE8F0812B
:1030800010B502468C7ECB7E44EA03201378032BD6
:1030900005D10C7D4B7D44EA032340EA034010BD7B
:1030A00081760B0AC3760A0C02750B0E43757047C6
:1030B0002DE9F04705460C46207820F04000401EE0
:1030C00000EB800101EBC00600274FF0010800BFB4
:1030D000F848C05D205CF749C95D2144497840EA61
:1030E0000129B8F1000F10D0484602F0A9FA804635
:1030F000FF2E07D23146761C35F8110002F0A0FAF7
:10310000404508D00020BDE8F0874FF6FF708145AC
:1031100001D00020F7E7781C07460D28D8D3207887
:1031200000F0400038B1B8F1000F04D035F81600B7
:1031300008B10020E7E70120E5E7F0B5034608788D
:1031400000F03F00401E00EB800707EBC0020025A7
:10315000012600BFD748405D085CD64F7F5D0F4415
:103160007F7840EA07244EB1FF2A01D30020F0BD4A
:1031700026461046521C23F8104005E04FF6FF701B
:10318000844201D00020F2E7681C05460D28E1D3F7
:10319000087800F0400030B1FF2A01D30020E6E7B4
:1031A000002023F812000120E1E7F0B504461D4697
:1031B0004D730F27CF7200270F738F76BC4681F8AF
:1031C0001BC0571E07EB870C0CEBC70600273846C1
:1031D0003B4600BF4FF6FF77B84203D03746761C18
:1031E00034F81700DFF8CCC21CF803C001F80C005B
:1031F0000712DFF8C0C21CF803C08C448CF80170C1
:1032000008B94FF6FF705F1C3B460D2FE2D34FF617
:10321000FF77B84202D034F816700FB942F040027E
:103220000A70F0BD2DE9FC4707468A4690461E46C7
:103230000B2251463846FFF7F9FA052E18D93046C9
:1032400010E038F8021B00250AE00A4660F35F022E
:103250001046491000F480320AB1974A50406D1C64
:10326000102DF2D3B8F80020002AEAD1064600BF9C
:10327000072500BF06F00F0000F13009B9F1390F42
:1032800003DD09F1070000F0FF0928466D1E0DF867
:1032900000903609002EEDD17E200DF805000024A7
:1032A0000BE0385D812807DB385DFE2804DC681EF2
:1032B000A04200D106E0641C641CAC4202D2385D1E
:1032C0002028EED100BF00BF082D04D228466D1C77
:1032D0001DF8001000E020212046641C3954082C01
:1032E000F2D3BDE8FC8730B5014600200B2200BFB9
:1032F000431003EBC01411F8015B6319D8B2531EDD
:103300001A1EF5D130BD2DE9F047044600212046B4
:10331000FFF786FD074617B13846BDE8F0874FF046
:10332000FF09CA464FF6FF70208400BF216920685C
:10333000FFF7D6FA074607B157E065692E780EB950
:10334000042752E0E87A00F03F08E52E05D008F0A7
:10335000080040B1B8F10F0F05D04FF0FF094FF64C
:10336000FF7020843AE0B8F10F0F1CD1E06978B308
:1033700006F0400030B195F80DA026F04006B146A9
:10338000E08820844E450AD1687B504507D1294604
:10339000E069FFF78DFE10B1A9F1010000E0FF2008
:1033A00000F0FF091AE0B9F1000F05D12846FFF738
:1033B0009AFF504500D118E0A069C07A00F00100E2
:1033C00038B90B222846A169FFF747FA08B90CE083
:1033D00004E04FF0FF094FF6FF70208400212046E3
:1033E000FFF782FD0746002FA0D000BF384694E7C4
:1033F0002DE9F05F04468A464FF0FF09CB460427CB
:103400004EE021692068FFF76BFA074607B14AE0F2
:10341000666935780DB9042745E0F07A00F03F0879
:10342000E52D09D02E2D07D0B8F1080F01D10120CC
:1034300000E00020504502D04FF0FF0929E0B8F12C
:103440000F0F1AD105F0400030B196F80DB025F0FD
:103450004005A946E08820844D450AD1707B584537
:1034600007D13146E069FFF768FE10B1A9F101000C
:1034700000E0FF2000F0FF090BE0B9F1000F04D1DC
:103480003046FFF730FF584502D04FF6FF702084DA
:1034900009E000212046FFF727FD074607B102E0BB
:1034A00020690028ADD100BF0FB10020206138464F
:1034B000BDE8F09FCA6A0008211001002DE9FE4F07
:1034C0000446D4F81880D4F81C900C224146684673
:1034D000FFF7ACF900BF9DF80B0000F0010020B32E
:1034E000002088F80B00E06101260CE033464A46D4
:1034F00069464046FFF796FE2046FFF704FF054663
:1035000005B102E0761C642EF0D300BF642E02D118
:103510000720BDE8FE8F042D01D02846F9E79DF86D
:103520000B0088F80B00C4F81C909DF80B0000F00D
:10353000020060B1002600E0761C39F81600002871
:10354000FAD106F119000D21B0FBF1F700E00127D7
:1035500039462046FFF766FD054645BB781E071E27
:1035600025D0E088C11B2046FFF75AFC0546F5B977
:10357000A069FFF7B8FE824600BF21692068FFF707
:10358000AFF9054605B111E0FAB253466169E06949
:10359000FFF70BFE01202168087100212046FFF78C
:1035A000A3FC054615B9781E071EE6D100BFC5B9B4
:1035B00021692068FFF794F9054695B9202200217A
:1035C0006069FFF740F90B22D4E90501FFF72EF9F6
:1035D000A069C07A00F018006169087301202168B1
:1035E0000871284695E770B50446E688208C4FF6AA
:1035F000FF72904201D1304600E0208C0146204607
:10360000FFF70EFC05460DBB00BF21692068FFF7E0
:1036100067F9054605B115E0202200216069FFF732
:1036200012F9E52061690870012021680871E088BD
:10363000B04200D306E000212046FFF755FC0546C6
:10364000002DE2D000BF042D00D10225284670BD18
:103650002DE9F04707460C4604F1090638690028B1
:1036600043D07869002526E029466D1C10F80180BA
:10367000B8F1200F00D11EE0B8F1050F01D14FF0D5
:10368000E508092D02D12E2106F8011BB8F1410FE2
:103690000EDBB8F15A0F0BDC017B092D01D3102290
:1036A00000E00822114019B108F1200101F0FF08E3
:1036B00006F8018B00BF0B2DD6D3C17A2172C17FD2
:1036C0000A06817F42EA0142417F42EA0121027FEC
:1036D00011432160027E417E42EA0121A180827D68
:1036E000C17D42EA0121E18000BF00203070A06965
:1036F00090B30025A669386958B3E06948B3388C9F
:103700004FF6FF71884224D0D7F81CA01BE000219F
:10371000484601F05BFF8146B9F1000F01D1002559
:1037200016E0B9F1FF0F04DD4FEA292228466D1C8F
:103730003254E069401EA84201D8002508E028461E
:103740006D1C06F800903AF8021BB1F10009DED1B9
:1037500000BF0020705500BFBDE8F0872DE9F34F92
:1037600083B0814604980068019002E00198401CF3
:103770000190019800782F28F8D0019800785C28F3
:10378000F4D0D9F81CA000252F4600BF38467F1C76
:1037900001990C5C202C03DB2F2C01D05C2C00D178
:1037A00032E0FF2D03D3062005B0BDE8F08FE4B270
:1037B000812C13DBE0B2FE2810DC38467F1C019917
:1037C0000E5C402E01DB7E2E05DD802E01DBFE2E01
:1037D00001DD0620E8E706EB042084B20121204643
:1037E00001F0F4FE04460CB90620DDE7802C06DA71
:1037F0002146F8A0FFF744F808B10620D4E7284690
:103800006D1C2AF81040C1E700BF0198C119049847
:103810000160202C01DA042000E00020804608E04E
:10382000681E3AF81040202C02D02E2C00D002E066
:103830006D1E002DF4D100BF0DB90620B4E70020A5
:103840002AF815000B222021D9F81800FEF7FBFFFB
:10385000002700E07F1C3AF817002028FAD03AF839
:1038600017002E28F6D00FB148F0030800E06D1EB7
:1038700025B1681E3AF810002E28F8D1002006461F
:1038800002904FF0080B00BF38467F1C3AF81040FA
:1038900004B963E0202C03D02E2C04D1AF4202D017
:1038A00048F00308F0E70298584501D2AF4214D11E
:1038B000BBF10B0F02D148F003084FE0AF4201D03B
:1038C00048F00308AF4200D948E02F460820029094
:1038D0004FF00B0BB006060ED6E7802C09DB204616
:1038E00001F0AEFE0021009001F070FE044648F0A9
:1038F0000208FF2C11DDABF101000299884204D8C7
:1039000048F00308CDF808B0BEE72212D9F8183005
:103910000298411C02911A5419E024B12146B0A02A
:10392000FEF7AEFF18B15F2448F003080FE0412C0A
:1039300004DB5A2C02DC46F0020608E0612C06DBB0
:103940007A2C04DC46F00106A4F1200084B2D9F8F8
:1039500018300298411C02911C5495E700BFD9F819
:1039600018000078E52803D10520D9F81810087050
:10397000BBF1080F01D1B006060E06F00C000C28B2
:1039800003D006F00300032801D148F0020808F034
:10399000020058B906F00300012801D148F01008D0
:1039A00006F00C00042801D148F00808D9F81800E6
:1039B00080F80B800020F7E62DE9F34104460198DA
:1039C00000782F2803D0019800785C2802D1019854
:1039D000401C01900020A06001980078202807D2A8
:1039E00000212046FFF71CFA05460020606128E010
:1039F00000BF01A92046FFF7B1FE054605B11FE053
:103A00002046FFF780FC0546A069C67A3DB1042D2B
:103A100004D100BF06F0040000B9052510E006F04F
:103A2000040000B10CE06769F87A00F0100008B9F2
:103A3000052505E039462068FFF722FBA060D8E79E
:103A400000BF2846BDE8FC8170B502464FF0FF304C
:103A50001568E5B1116800E0491C0D78202D02D3EE
:103A60000D783A2DF8D10D783A2D0FD1146814F84D
:103A7000015BA5F130030A2B07D28C4205D1022B42
:103A800003D218464D1C2946156070BD002000BFAA
:103A9000FBE770B504460D4600202071401EE06231
:103AA00029462046FEF71CFF08B1032070BD94F89C
:103AB0002E1294F82F0241EA00204AF6552188423E
:103AC00001D00220F2E794F86900010694F868003A
:103AD00041EA004194F8670041EA002094F866103A
:103AE000084320F07F404049884201D10020DDE7B3
:103AF00094F88500010694F8840041EA004194F8A6
:103B0000830041EA002094F88210084320F07F40AF
:103B10003549884201D10020C8E70120C6E72DE9D8
:103B2000F74F88B00021089801600998FFF78CFFD3
:103B300007900798002803DA0B200BB0BDE8F08F40
:103B40002A49079851F820400CB90C20F5E708984D
:103B50000460207878B16078FEF717FE804608F0A0
:103B6000010040B90A9820B108F0040008B10A2009
:103B7000E3E70020E1E7002020700798607060789C
:103B8000FEF7FAFD804608F0010008B10320D4E7F3
:103B90000A9820B108F0040008B10A20CDE7607847
:103BA00004F10A020221FEF720FE38B96089B0F55F
:103BB000007F03DB6089B0F5805F01DD0120BCE799
:103BC000002739462046FFF764FF0546012D0FD038
:103BD0009DBB3BE0222A3A3C3E3F7C7F0000000038
:103BE0002B2C3B3D5B5D0000464154005000002003
:103BF000002614E004F5F77101EB0610017951B1CC
:103C0000C17A0A06817A42EA0142417A42EA0121F6
:103C1000027A114300E000214DF82610761C042E94
:103C2000E8D3002606B1761E00BF5DF826702FB1DE
:103C300039462046FFF72DFF01E007E00220054648
:103C40001DB1701C06460428EFD300BF032D01D11F
:103C5000012072E70DB10D206FE73B20015D94F864
:103C60003C0041EA00206189884201D00D2064E7D0
:103C70004620015D94F8470041EA0029B9F1000FA0
:103C80000ED194F85700010694F8560041EA00411D
:103C900094F8550041EA002094F8541040EA0109D4
:103CA000C4F818904020005DE070E078012804D04E
:103CB000E078022801D00D203FE7E07809FB00F909
:103CC0003D20005DA070A07818B1A078411E08408A
:103CD00008B10D2031E74120015D94F8420041EA2E
:103CE000002020816089C11700EBD1614911228930
:103CF00092FBF1F301FB132109B10D201DE74320D5
:103D0000015D94F8440041EA002BBBF1000F0ED195
:103D100094F85300010694F8520041EA004194F8E7
:103D2000510041EA002094F8501040EA010B3E2077
:103D3000015D94F83F0041EA00200490049808B91E
:103D40000D20FAE66089C11700EBD1614911228983
:103D500092FBF1F2049949441144069106998B456E
:103D600001D20D20E9E60698ABEB0000A178B0FB8C
:103D7000F1FABAF1000F01D10D20DEE6012540F67F
:103D8000F670824500D302254FF6F670824500D3C7
:103D900003250AF102006061E7610498384420625B
:103DA00006983844A062032D16D1208908B10D2051
:103DB000C3E694F85F00010694F85E0041EA004112
:103DC00094F85D0041EA002094F85C1008436062BA
:103DD00060698000059014E0208908B90D20ACE6E8
:103DE000206A48446062022D02D16069400007E009
:103DF000207D00F00100616901EB410100EB510001
:103E000005906089401E059908446189B0FBF1F076
:103E1000A169884201D90D208FE64FF0FF30206163
:103E2000E06080206071032D5AD194F8601094F8FE
:103E3000610041EA0020012852D1791C2046FEF79A
:103E40004FFDE8BB0020607194F82E1294F82F0209
:103E500041EA00204AF65521884241D13320005DD5
:103E600001063220005D41EA00413120005D41EA57
:103E7000002094F830100843FD49884230D194F86E
:103E80001702010694F8160241EA004194F815025F
:103E900041EA002094F814120843F64988421FD1E1
:103EA00094F81B02010694F81A0241EA004194F8C2
:103EB000190241EA002094F818120843206100E03A
:103EC0000EE094F81F02010694F81E0241EA004138
:103ED00094F81D0241EA002094F81C120843E060A7
:103EE0002570E5480088401C80B2E3490880E080E6
:103EF000002022E670B505462C464CB1206838B14A
:103F00002068007820B12068C088A188884201D04C
:103F1000092070BD21684878FEF737FC00F00100E9
:103F200008B10320F5E70020F3E7F7B582B01646A5
:103F30000398019001A8FFF787FD0546002D02DADE
:103F40000B2005B0F0BDCD4850F825400CB1002045
:103F50002070029810B1002002990870C749029899
:103F600041F82500029808B1012E01D00020E8E7B1
:103F7000002203A902A8FFF7D2FD07463846E0E772
:103F80002DE9F7438CB0054616461DB909200FB040
:103F9000BDE8F0830020286006F01F0626F001022D
:103FA0000DA903A8FFF7BBFD0746002F7ED1CDF872
:103FB00024D0B3480A9003A80D99FFF7FDFC0746EB
:103FC000089C0FB904B9062706F01C00002851D040
:103FD0004FB1042F03D103A8FFF770FA074646F04C
:103FE0000806089C09E0E07A00F0110008B10727F4
:103FF00003E006F0040000B10827002F39D106F0D5
:104000000800002835D0FEF70DFC804684F80E80AD
:104010004FEA1821E1734FEA184121744FEA186101
:1040200061740020E072207700216177A177E17749
:1040300021460398FFF724F8814600212046FFF728
:104040002FF8012003990871B9F1000F11D00398DE
:10405000D0F82C8049460398FEF725FE074647B95D
:10406000A9F101000399C86041460398FEF738FCA6
:1040700007460EE06FB9E07A00F0100008B104279F
:1040800007E006F0020020B1E07A00F0010000B184
:10409000072747B906F0080008B146F02006039844
:1040A000C06AE8612C620FB9AE7100E01AE000202E
:1040B000E87121460398FEF7E3FF2861E07F0106DF
:1040C000A07F41EA0041607F41EA0020217F084350
:1040D000E8600020A860A8616862039828602868EA
:1040E000C088A880384652E72DE9FF4F85B00446C6
:1040F00015469A46DDF818B00020CAF800002046A0
:10410000FFF7F8FE0490049818B1049809B0BDE8D0
:10411000F08FE07908B1E079F8E7A07900F00100CC
:1041200008B90720F2E7D4E90210401A0290029879
:10413000854200D9029DCEE021684989A068B0FB84
:10414000F1F201FB120000287ED121684989A068A4
:10415000B0FBF1F021688978491E084000F0FF09A2
:10416000B9F1000F1FD1A06810B9206903900CE0CD
:10417000606A28B12046A168FEF736FE039004E08D
:1041800061692068FEF736FC03900398022802D28A
:104190000220E071BAE70398401C10B90120E071D9
:1041A000B4E70398606161692068FEF716FC064673
:1041B00016B90220E071A9E74E4420684089B5FB9A
:1041C000F0F8B8F1000F2ED009EB080021688978CB
:1041D000884203D920688078A0EB090808F0FF0323
:1041E0002168487832465946FEF7D6FA10B10120C8
:1041F000E0718BE7A07900F0400078B1A069801BE6
:1042000040450BD2A169891B23685B8901FB03B080
:1042100021684A8904F12801FEF708FB20684089DB
:1042200000FB08F74DE0A069B0422BD0A07900F068
:10423000400088B121684878012304F12801A2696F
:10424000FEF7BBFA20B100E01DE00120E0715DE760
:10425000A07920F04000A0712168487801233246FF
:1042600004F12801FEF798FA60B10120E0714DE7F2
:10427000525261417272416158000020500000208A
:1042800038090020A66121684989A068B0FBF1F2D5
:1042900001FB1200216849890F1AAF4200D92F464D
:1042A00021684989A068B0FBF1F201FB120104F119
:1042B000280008443A46014601905846FEF7B6FAEF
:1042C00000BFBB44A0683844A060DAF8000038445E
:1042D000CAF80000ED1B002D7FF42EAF002015E77B
:1042E0002DE9FF4F83B0044615469B460498019084
:1042F0000020CBF800002046FFF7FCFD029002985A
:1043000018B1029807B0BDE8F08FE07908B1E07904
:10431000F8E7A07900F0020008B90720F2E7A068EA
:104320002844A168884200D20025D7E02168498945
:10433000A068B0FBF1F201FB120000286FD12168E8
:104340004989A068B0FBF1F021688978491E0840CE
:1043500000F0FF0ABAF1000F26D1A06838B927692A
:1043600097B900212068FEF7D4FC07460CE0606A8C
:1043700028B12046A168FEF737FD074604E06169D1
:104380002068FEF7C6FC074607B9AAE0012F02D154
:104390000220E071B6E7781C10B90120E071B1E7A6
:1043A0006761206900B92761A07900F0400078B109
:1043B00021684878012304F12801A269FEF7FDF97C
:1043C00010B10120E0719DE7A07920F04000A071BC
:1043D00061692068FEF701FB064616B90220E0710C
:1043E00090E7564420684089B5FBF0F9B9F1000F19
:1043F00031D00AEB090021688978884203D9206806
:104400008078A0EB0A0909F0FF032168487832465A
:104410000199FEF7D2F918B10120E07172E72EE0A0
:10442000A069801B484511D2A069831B2068B0F8A1
:104430000AC0019803FB0C012068428904F128009E
:10444000FEF7F4F9A07920F04000A07120684089BF
:1044500000FB09F835E0A069B0420FD0D4E90201B1
:1044600088420BD2216848780123324604F12801A2
:10447000FEF792F910B10120E07143E7A6612168CF
:104480004989A068B0FBF1F201FB1200216849895B
:10449000A1EB0008A84500D9A84621684989A06871
:1044A000B0FBF1F201FB120104F12800084442467E
:1044B00000900199FEF7BAF9A07940F04000A07190
:1044C00000BF019840440190A0684044A060DBF820
:1044D00000004044CBF80000A5EB0805002D7FF458
:1044E00025AF00BFD4E90201884201D9A068E0608D
:1044F000A07940F02000A071002003E72DE9F041F1
:1045000004462046FFF7F6FC0746002F4CD1A07961
:1045100000F02000002847D0A07900F0400078B1DA
:1045200021684878012304F12801A269FEF745F9C2
:1045300010B10120BDE8F081A07920F04000A07109
:10454000E1692068FEF7CCF90746002F2CD1256AD7
:10455000E87A40F02000E872207B2877A089010AE1
:104560006977E068010CA977E068010EE9772846D1
:104570002169FEF795FDFEF755F90646AE75310A3D
:10458000E975310C2976310E69760020A874002176
:10459000E974A07920F02000A07101202168087141
:1045A0002068FEF7B6F907463846C3E770B50546FA
:1045B0002846FFF7A3FF044634B92846FFF79AFCC4
:1045C00004460CB900202860204670BD2DE9FE4F3E
:1045D00004460D462046FFF78DFC0290029810B16C
:1045E0000298BDE8FE8FE07908B1E079F9E7606AEA
:1045F000002878D0681C00283BD1D4F8248058F8D3
:1046000004AB4FF0020926693EB300BF00964FF09D
:10461000000B09F1020900BF01960BF1010B3146B5
:104620002068FEF7E7F90646012E02D80220E07165
:10463000D7E7701C10B90120E071D2E70198401C47
:104640008642E9D0D14504D848F804BB009848F820
:10465000040B20684069B042D8D8606AC0F8009066
:10466000D14503D80020C8F800004EE01120029088
:104670004BE0E068A84200D2E568A560002D44D078
:10468000691E2046FEF7B0FB606161692068FEF795
:10469000A4F9074617B90220E071A2E7681E216855
:1046A0004989B0FBF1F021688978491E0840074428
:1046B00021684989A068B0FBF1F201FB120020B328
:1046C000A069B84221D0A07900F0400080B12168F3
:1046D0004878012304F12801A269FEF76EF818B1A9
:1046E0000120E0717DE711E0A07920F04000A07189
:1046F0002168487801233A4604F12801FEF74CF876
:1047000010B10120E0716CE7A761B9E0E068A84250
:1047100004D2A07900F0020000B9E568D4F808904E
:104720004FF00008C4F80880002D71D02068807810
:104730002168498900FB01F7B9F1000F11D0681E0B
:10474000B0FBF7F1A9F10100B0FBF7F0814208D30B
:10475000A9F10100791E8843A060A0682D1A66693E
:1047600012E026697EB900212068FEF7D2FA0646DB
:10477000012E02D10220E07133E7701C10B9012034
:10478000E0712EE726616661E6B323E0A07900F0D0
:10479000020038B131462068FEF7BBFA064636B94A
:1047A0003D4619E031462068FEF724F90646701CA4
:1047B00010B90120E07114E7012E03D92068406987
:1047C000B04202D80220E0710BE76661A06838446D
:1047D000A060ED1BBD42D9D800BFA0682844A060EE
:1047E00020684089B5FBF0F100FB115050B1314613
:1047F0002068FEF7F2F88046B8F1000F03D10220DE
:10480000E071EEE604E020684089B5FBF0F08044FA
:1048100021684989A068B0FBF1F201FB120020B3C6
:10482000A069404521D0A07900F0400078B121680E
:104830004878012304F12801A269FDF7BEFF10B1F9
:104840000120E071CDE6A07920F04000A071216840
:1048500048780123424604F12801FDF79DFF10B17D
:104860000120E071BDE6C4F81880D4E90201884255
:1048700005D9A068E060A07940F02000A07100BFD9
:104880000298AEE633B585B0044614B9092007B0E6
:1048900030BD002206A904A8FFF741F905462DBB4B
:1048A0000498206001A8A061FE48E06120460699B6
:1048B000FFF782F80546B5B9606958B16069C07AFA
:1048C00000F0100028B161690498FEF7D9FBA060E0
:1048D00000E005253DB90498C088A080002120464D
:1048E000FEF79EFA0546042D00D105250DB10020E6
:1048F00020602846CBE770B504462046FFF7FAFA59
:1049000005460DB900202060284670BDFEB504465E
:104910000E462046FFF7EEFA05461DBB2EB90021D4
:104920002046FEF77DFA05461CE0C4F818D0DD48A5
:10493000E06100212046FEF75BFD0546042D02D113
:104940000020206100256DB931462046FEF780FE2B
:1049500000212046FEF7C8FA0546042D02D10020AA
:10496000206100252846FEBD33B58DB00D460022DE
:104970000DA904A8FFF7D3F8044694B901A80A903A
:10498000C8480B9004A80D99FFF716F8044644B9DF
:10499000099828B12DB1294604A8FEF759FE00E078
:1049A000062420460FB030BD2DE9F74F82B08A466D
:1049B000002202A90498FFF7B2F801900498046855
:1049C000019800286DD1D4E90410801E814203D8DB
:1049D0002069CAF8000064E094F800B00026BBF13A
:1049E000010F1CD1022700BF39462046FEF702F80E
:1049F000804608F1010010B9012001900EE0B8F1E5
:104A0000010F02D10220019008E0B8F1000F00D19F
:104A1000761C781C074661698842E5D33AE06769ED
:104A2000206A00904FF00009002500BFB9F1000F87
:104A30000ED10098421C014620460092FDF750FF1F
:104A40000190019800B124E004F13005B4F80A9017
:104A5000BBF1020F09D12878697840EA012000B93A
:104A6000761CAD1CA9F1020910E0E8780006A978CF
:104A700040EA0140697840EA01202978084320F0A3
:104A8000704000B9761C2D1DA9F10409781E071E7F
:104A9000CCD100BF2661607940F001006071CAF896
:104AA0000060019805B0BDE8F08F70B5044620465F
:104AB000FFF720FA054645B9E07908B1E57904E049
:104AC000A07900F0020000B90725002D47D1D4E9F4
:104AD0000210884241D9A068E060A07940F020002F
:104AE000A071A06838B921692068FEF7DCF8054696
:104AF000002020611DE061692068FDF77BFF06460C
:104B00000025701C00B90125012E00D1022585B9B0
:104B100020684069B0420CD96FF07042616920682A
:104B2000FEF701F8054625B931462068FEF7BBF8C7
:104B3000054695B9A07900F0400070B12168487829
:104B4000012304F12801A269FDF737FE08B1012510
:104B500003E0A07920F04000A07105B1E57128467E
:104B600070BD71B595B0012215A90CA8FEF7D7FF4D
:104B70000446002C49D1CDF848D04A4813900CA8DF
:104B80001599FEF719FF044600BF002C3DD1119E78
:104B90000EB9062404E0F07A00F0010000B1072409
:104BA00031460C98FEF76CFA0546ECB9F07A00F045
:104BB0001000C8B1022D01D2022415E024220CA954
:104BC00003A8FDF733FE0595022103A8FEF728F997
:104BD00004464CB9002103A8FEF70AFC044604B9B8
:104BE0000724042C00D100247CB90CA8FEF7FBFCA0
:104BF000044654B925B129460C98FEF754F80446EA
:104C00001CB90C98FDF785FE0446204616B070BD11
:104C10002DE9F1478DB0FDF705FE064601220DA9ED
:104C200004A8FEF77CFF0546002D72D101A80A906A
:104C30001C480B9004A80D99FEF7BEFE054605B969
:104C4000082500BF042DF0D100210498FEF761F87B
:104C50000746002507B90725012F00D10225781C3A
:104C600000B901251DB90498FDF714FE0546002D75
:104C70005ED139460498FDF7B0FE8146049800F1F4
:104C800030040498428900212046FDF7DCFD0B2208
:104C900020212046FDF7D7FD2E2020701020E07245
:104CA000A67501E038090020310AE175310C217642
:104CB000310E617639462046FEF7F2F92022214670
:104CC00004F12000FDF7B2FD2E2084F82100DDF86C
:104CD00018A004980078032804D10498406A50452D
:104CE00000D1AA46514604F12000FEF7D9F90498F4
:104CF00090F8028018E00498C0F82C9009F101099E
:104D00000120049908710498FDF7C4FD05460DB112
:104D10000DE02DE00498428900212046FDF793FD27
:104D2000A8F1010000F0FF08B8F1000FE3D100BFC7
:104D30001DB904A8FEF7C2FB054625B13946049803
:104D4000FDF7B1FF14E0099C1020E072A675310A4E
:104D5000E175310C2176310E617639462046FEF739
:104D60009FF90120049908710498FDF7D2FD0546CA
:104D700028460EB0BDE8F087F7B58CB00F46144654
:104D800001220CA903A8FEF7CAFE0646EEB9CDF82B
:104D900024D0F9480A9003A80C99FEF70DFE0646A8
:104DA00000BF96B9089D0DB906260EE004F0270451
:104DB00007EA0400E97AA1430843E8720120039955
:104DC00008710398FDF7A5FD064630460FB0F0BD0B
:104DD00073B58CB00D4601220CA903A8FEF79FFE07
:104DE0000646FEB9CDF824D0E3480A9003A80C99F2
:104DF000FEF7E2FD064600BFA6B9089C0CB90626E0
:104E000010E0A879A075E8880112E175287920766C
:104E1000A888011261760120039908710398FDF7B3
:104E200078FD064630460EB070BDF3B59BB001224A
:104E30001BA912A8FEF773FE0446002C10D112988D
:104E40000990CDF860D0CC48199012A81B99FEF7B4
:104E5000B3FD044600BF002C74D1179808B9042490
:104E600070E0179800F10B01152203A8FDF7DEFC96
:104E7000242212A909A8FDF7D9FC1CA8FEF7E4FD1D
:104E8000002805DB09A81C99FEF796FD044600E002
:104E90000B2404B90824042C54D109A8FEF70EFBF6
:104EA0000446002C4ED10E9D13220DF10E0105F18A
:104EB0000D00FDF7BBFC9DF80C0040F02000E872EF
:104EC0000120129908710B991498884230D0E87A21
:104ED00000F0100060B329461298FEF7D1F807469B
:104EE00039461298FDF779FD06460EB902241FE0F7
:104EF00031461298FDF7F4FC0446129800F1500573
:104F0000B4B968782E2813D112980078032806D1F6
:104F100012990B98496A884201D1002000E00B9851
:104F2000064631462846FEF7BBF801201299087163
:104F300044B912A8FEF757FB04461CB91298FDF7B6
:104F4000E8FC044620461DB0F0BD2DE9F74F90B0B7
:104F5000924610A8FEF778FD0F900F98002803DA0C
:104F60000B2013B0BDE8F08F1198012801DD13204C
:104F7000F7E7AAF1010000EA0A0008B11320F0E700
:104F80007E490F9851F820500DB90C20E9E7002018
:104F900028700F98C0B20C9000200B900C98FDF771
:104FA000EBFB0190019800F0010008B10320D8E765
:104FB000019800F0040008B10A20D2E705F10A02C6
:104FC00002210C98FDF711FC38B96889B0F5805FB3
:104FD00003DC6889B0F5007F01DA0120C1E700BF7A
:104FE00004AA01210C98FDF700FC10B90498802850
:104FF00001D20120B5E7119808B1002000E03F2060
:1050000081460498A0EB09000490BAF1000F1AD170
:105010006889C11700EBD15149124FF4FA6292FB33
:10502000F1F1049AB2FBF1F10A914FF0000B01E0AB
:105030000BF1010B524830F81B100A988142F7D847
:10504000504830F81BA06889BAFBF0FABAF1000F9B
:1050500001D14FF0010ABAF1800F01D94FF0800A57
:105060000498B0FBFAF8012640F6F670804500D3AC
:1050700002264FF6F670804500D30326032E0CD18E
:10508000082000EB880069890844401EB0FBF1F756
:10509000202003900020029019E0012E05D108EB9A
:1050A0004800401C4008C01C02E04FEA4800001DB8
:1050B000074668893844401E6989B0FBF1F7012032
:1050C000039068894FF48041B1FBF0F0029003989F
:1050D0004844079007983844069002990698084477
:1050E000059005985044A0EB09000499884201D925
:1050F0000E2036E709AA03210C98FDF776FB28B9A4
:10510000099818B10998B0F5004F01D9012009900C
:10511000099905980844401E491E88430990099939
:105120000598081A0990032E08D109990398084494
:105130000390099907980844079001E009980744EB
:10514000DDE90301081AC11B0298081AB0FBFAF83E
:10515000022E03D140F6F670804505D3032E05D10B
:105160004FF6F670804501D20E20FAE6032E0BD1E1
:105170000C200D9019E0000038090020500000209C
:10518000D86A0008EE6A0008012E06D10498B0F52E
:10519000803F02D201200D9007E00498B0F5803FD7
:1051A00001D2042000E006200D9000BF119810B13C
:1051B000F0200E9043E06A89002105F13000FDF7F0
:1051C00042FB05F5F77401206070A0700020E070CC
:1051D0000D982071FE206071049848443F21B0FB77
:1051E000F1F0FF21B0FBF1F009903F21099841EA6D
:1051F0009000A0710998E0713F2020720021617237
:10520000A172E172049820730498010A61730498F2
:10521000010CA1730498010EE173552185F82E123B
:10522000AA2185F82F120123002205F130010C98E4
:10523000FDF7C3FA08B1012093E6F8200E9005F1BE
:1052400030046A8900212046FDF7FDFA0B22D1A126
:105250002046FDF7EBFAB5F80AB084F80BB04FEA38
:105260001B21217384F80DA00398A0730398010AF1
:10527000E17301202074032E01D1002001E04FF4DE
:105280000070834684F811B04FEA1B21A174049882
:10529000B0F5803F05D20498E0740498010A2175A6
:1052A00010E0049884F820000498C0F3072121201E
:1052B00001550498C0F30741222001550498010EBE
:1052C000232001550E9860753F20207600216176DD
:1052D000FF20A076E17684F81C904FEA19216177CF
:1052E0004FEA1941A1774FEA1961E177FDF79AFA80
:1052F0000990032E3ED1099884F843000998C0F321
:105300000721442001550998C0F307414520015564
:105310000998010E4620015584F82470C7F307212F
:1053200025200155C7F3074126200155390E2720B6
:105330000155022084F82C0000212D2001552E203B
:1053400001552F200155012084F8300031200155EE
:10535000062084F8320033200155802084F8400074
:10536000292084F8420013228DA104F14700FDF7A3
:105370005DFA1FE0099884F827000998C0F3072117
:10538000282001550998C0F30741292001550998A3
:10539000010E2A200155A775390AE175802084F88D
:1053A0002400292084F82600132282A104F12B0076
:1053B000FDF73CFA552084F8FE01AA2140F2FF10C7
:1053C000015501234A4621460C98FDF7F6F908B12C
:1053D0000120C6E5032E06D1012309F1060221466C
:1053E0000C98FDF7EAF9079808904FF0000B5FE082
:1053F0006A8900212046FDF726FA0E980990032EAF
:1054000014D0012E01D1704801E06FF0FF0009991E
:1054100008430990099820700998000A607009985B
:10542000000CA0700998000EE07019E0099860F077
:10543000FF000990099820700998000A6070099887
:10544000000CA0700998000EE070FF202071FF2171
:105450006171A171E17120726172A1720F21E1721B
:105460000898411C02460123089121460C98FDF73B
:10547000A4F908B1012074E56A8900212046FDF7EE
:10548000E2F9012009900EE00898411C0246012330
:10549000089121460C98FDF790F908B1012060E5CC
:1054A0000998401C09900998B842EDD30BF1010B03
:1054B000BBF1000F9CD0032E01D1504600E00298B2
:1054C000834600BF0898411C0246012308912146EB
:1054D0000C98FDF772F908B1012042E5ABF101002B
:1054E000B0F1000BEED1032E49D152202070607034
:1054F0006120A0704120E070722084F8E4017221E4
:1055000040F2E51001554121401C01556121401C2C
:105510000155A8F1010084F8E801C0F3072140F229
:10552000E9100155A8F10100C0F307414FF4F570EF
:105530000155A8F10100010E40F2EB1001550220C7
:1055400084F8EC01002140F2ED100155401C01559A
:10555000401C0155552084F8FE01AA2140F2FF109D
:105560000155012309F1010221460C98FDF725F9A7
:10557000012309F1070221460C98FDF71EF90022CC
:1055800011460C98FDF731F908B10120E9E400203B
:10559000E7E40000EBFE904D53444F53352E3000AE
:1055A0004E4F204E414D452020202046415433325D
:1055B000202020004E4F204E414D452020202046E7
:1055C000415420202020200000FFFF002DE9F04161
:1055D00002460F46802A01DA10462FE01FB1244B05
:1055E00045F2205602E0234B45F2205600251024B8
:1055F00016E0A6EB050C0CEBDC7805EB68014FEA36
:10560000410C33F81CC0944500D10BE04FEA410C2B
:1056100033F81CC0944501DA0D4600E00E46641EC6
:10562000002CE6D100BF34B14FF0010C0CEB410C63
:1056300033F81CC001E04FF0000C6046BDE8F0817B
:105640000246002100E0491C0B4830F8110020B14F
:10565000094830F811009042F5D1074830F81100A0
:1056600018B1064830F8110070471046FCE70000FA
:1056700088BF0108046B00080C140308EC1503082C
:1056800010B5BEA000F0C2FFCAA000F0BFFFD4A0BA
:1056900000F0BCFFD7A000F0B9FFDFA000F0B6FF1C
:1056A000E5A000F0B3FFECA000F0B0FFF2A000F026
:1056B000ADFFF5A000F0AAFFF9A000F0A7FF10BD14
:1056C0002DE9F05FADF5035D4FF0000A002405E021
:1056D000302000EB5420F8490855641CB4F5805F75
:1056E000F6D30022F5A141F290006844FEF71DFCBC
:1056F00005462DB1F24850F82510F2A000F086FFC3
:10570000F6A111A8FFF7BEF805464DB1EC4850F8D8
:105710002510F3A000F07AFF0DF5035DBDE8F09FC2
:10572000F54802780078401CF34B1870F3A10CA8E0
:1057300000F078FF0A220CA91AA8FEF721FC054602
:105740004FF400620CA9F1A000F060FFFBF78CFFA2
:105750008046002418E010AB4FF48052D6491AA8B6
:10576000FEF7BEFD05463DB9601C00F0070050B9CC
:10577000ECA000F04BFF06E04FF0010A0CA9EAA0F4
:1057800000F044FF03E0641CB4F5007FE3D300BFE6
:10579000FBF76AFF8146BAF1000F0FD1A9EB0806AB
:1057A0004FF4FA10B0FBF6FB8002B0FBF6F15B465B
:1057B0000A460B913146E0A000F028FF1AA8FEF738
:1057C000F5FE01220CA91AA8FEF7DAFB054625B161
:1057D0000CA9E6A000F01AFF9EE74FF40061E8A0D4
:1057E00000F014FFFBF740FF804600242EE010ABD2
:1057F0004FF48052B0491AA8FEF776FC0546F5B979
:10580000601C00F0070010B9C6A000F0FFFE0027E2
:105810000DE0A948C05D302101EB5721884205D039
:105820004FF0010ADCA000F0F1FE03E07F1CB7F5A9
:10583000805FEED300BFBAF1010F06D109E04FF04F
:10584000010ADFA000F0E2FE03E0641CB4F5007F73
:10585000CDD300BFFBF708FF8146BAF1000F0FD18F
:10586000A9EB08064FF4FA10B0FBF6FB8002B0FB80
:10587000F6F15B460A460B913146D7A000F0C6FE12
:105880001AA8FEF793FE00228CA11046FEF74DFBEE
:10589000054600BF40E730B591B0ADF5805D002210
:1058A00086A105A8FEF741FB04462CB1844850F8B8
:1058B000241084A000F0AAFED4A0FFF752F90446F9
:1058C0001CB9D4A000F0A2FE0CE0042C04D1CFA19E
:1058D000D5A000F09BFE05E0794850F82410D9A02F
:1058E00000F094FEE4A0FFF73CF904461CB9E6A0E2
:1058F00000F08CFE0EE0042C01D0052C04D1DEA1BA
:10590000C9A000F083FE05E06D4850F82410E6A021
:1059100000F07CFEBDA0FFF724F904461CB9BDA031
:1059200000F074FE0CE0042C04D1B8A1BEA000F07D
:105930006DFE05E0624850F82410C2A000F066FE3B
:10594000E9A0FFF70EF904461CB9E9A000F05EFEDD
:105950000CE0042C04D1E4A1B3A000F057FE05E054
:10596000574850F82410E8A000F050FEF3A0FFF7CD
:10597000F8F8044604B9E7E1EAE100000D0A2D2D2C
:105980002D2D2D2D2D2D2D2D2D2D2D2D2D2D2D2D47
:105990002D2D2D2D2D2D2D2D2D2D2D2D2D2D2D2D37
:1059A0002D2D2D2D2D2D2D2D2D2D2D2D2D2D0D0A6A
:1059B00000000000B5DAD2BBB4CECAB9D3C3C7EB7E
:1059C000D1A1D4F1C3FCC1EE30BDF8D0D0535049C1
:1059D00020466C617368B8F1CABDBBAF0D0A000008
:1059E000C7EBD1A1D4F1B2D9D7F7C3FCC1EE3A0DC0
:1059F0000A00000030202D20B6D45350495F466C79
:105A0000617368BDF8D0D0CEC4BCFECFB5CDB3B8FD
:105A1000F1CABDBBAF0D0A0031202D20CFD4CABEC4
:105A2000B8F9C4BFC2BCCFC2B5C4CEC4BCFEC1D0DD
:105A3000B1ED0D0A0000000032202D20B4B4BDA845
:105A4000D2BBB8F6D0C2CEC4BCFE61726D666C79B2
:105A50002E7478740D0A000033202D20B6C16172B7
:105A60006D666C792E747874CEC4BCFEB5C4C4DA8D
:105A7000C8DD0D0A0000000034202D20B4B4BDA8FC
:105A8000C4BFC2BC0D0A000035202D20C9BEB3FD25
:105A9000CEC4BCFEBACDC4BFC2BC0D0A000000001B
:105AA00036202D20B6C1D0B4CEC4BCFECBD9B6C8EA
:105AB000B2E2CAD40D0A0000380B0020303A0000D0
:105AC0005C000020B9D2D4D8CEC4BCFECFB5CDB3D3
:105AD000CAA7B0DC20282573290D0A002F0000007A
